:100000000C943C090C9480280C9455280C942A28B4
:100010000C94FF270C94D4270C94A9270C947E27CA
:100020000C9453270C946D090C946D090C946D0974
:100030000C946D090C946D090C946D090C946D0968
:100040000C946D090C946D090C946D090C946D0958
:100050000C946D090C946D090C946D090C9409278E
:100060000C946D090C94D5280C94AB280C946D0954
:100070000C946D090C946D090C946D090C946D0928
:100080000C946D090C946D090C946D090C946D0918
:100090000C946D090C946D090C946D090C940B294A
:1000A0000C946D090C946D090C946D090C946D09F8
:1000B0000C946D090C946D090C946D090C946D09E8
:1000C0000C946D090C946D090C946D090C946D09D8
:1000D0000C946D090C946D090C946D090C946D09C8
:1000E0000C946D0907634236B79BD8A71A39685636
:1000F00018AEBAAB558C1D3CB7CC5763BD6DEDFD4A
:10010000753EF6177231BF000000803F0800000006
:10011000BE922449123EABAAAA2ABECDCCCC4C3EFC
:1001200000000080BEABAAAAAA3E00000000BF00EB
:100130000000803F0000000000084178D3BB4387E7
:10014000D1133D190E3CC3BD4282AD2B3E68EC82FB
:1001500076BED98FE1A93E4C80EFFFBE01C4FF7F80
:100160003F00000000000C94D31A0C94CA090C94B0
:10017000DB110C94C7090C94750B0C94D4090C94E6
:10018000661B0C9496090C94AC130C94B3110C944C
:10019000D71A0C94FC0A0C94621B0C9459190C94F9
:1001A0007C1F0C9402240C94F3130C94C6130C942F
:1001B00096470C94F5090C94FC100C9467100C9461
:1001C0005C1A0C944A240C94FF0A0C94EC090C94CD
:1001D000DF100C94821A0C94BF090C945F190C94D4
:1001E000401A0C94C51A0C94C3090C9455120C9423
:1001F00063170C9453190C94D3230C94FD0A0C949C
:10020000CF110C94CF1A0C94B5090C94660B0C9476
:10021000681B0C9469160C94E2090C94BB090C94AD
:1002200008100C94DE090C94FA090C94391B0C94F8
:10023000641B0C94970B0C94CF0B0C94C3110C946F
:10024000B0160C949D130C94581B0C94BF130C9473
:10025000DA090C94A61A0C946A1B0C943D3F0C947A
:10026000FE0A0C94151B0C94D0090C94E8090C940C
:10027000F0090C94390B0C94FC0C0C94F6090C94BA
:10028000E22A0C94890B0C9420160C94D11A0C942D
:10029000D51A0C941C0C0C94360F0C9469190C9400
:1002A000EF1A00407A10F35A00A0724E180900109D
:1002B000A5D4E80000E87648170000E40B540200DB
:1002C00000CA9A3B000000E1F50500008096980006
:1002D000000040420F000000A0860100000010272F
:1002E00000000000E80300000000640000000000BF
:1002F0000A00000000000100000000002C76D888F1
:10030000DC674F0823DFC1DFAE59E1B1B796E5E303
:10031000E453C63AE651997696E8E6C28426EB891C
:100320008C9B62ED407C6FFCEFBC9C9F40F2BAA5B9
:100330006FA5F490055A2AF75C936B6CF9676DC151
:100340001BFCE0E40D47FEF520E6B500D0ED902E55
:100350000300943577050080841E080000204E0AB3
:10036000000000C80C333333330F986E12831141F1
:10037000EF8D2114893BE65516CFFEE6DB18D184BC
:100380004B381BF77C1D901DA4BBE42420328472E3
:100390005E228100C9F124ECA1E53D276364696E0A
:1003A0006F70737578585B00000103070F1F3F7F64
:1003B0000080C0E0F0F8FCFE00000000003E5B4F53
:1003C0005B3E3E6B4F6B3E1C3E7C3E1C183C7E3CB5
:1003D000181C577D571C1C5E7F5E1C00183C1800C3
:1003E000FFE7C3E7FF0018241800FFE7DBE7FF3053
:1003F000483A060E2629792926407F050507407FC1
:1004000005253F5A3CE73C5A7F3E1C1C08081C1C33
:100410003E7F14227F22145F5F005F5F06097F0129
:100420007F006689956A606060606094A2FFA29414
:1004300008047E040810207E201008082A1C0808E2
:100440001C2A08081E101010100C1E0C1E0C303830
:100450003E3830060E3E0E06000000000000005F31
:1004600000000007000700147F147F14242A7F2A4D
:10047000122313086462364956205000080703000F
:10048000001C2241000041221C002A1C7F1C2A085B
:10049000083E0808008070300008080808080000BE
:1004A00060600020100804023E5149453E00427F32
:1004B000400072494949462141494D331814127F81
:1004C0001027454545393C4A494931412111090721
:1004D0003649494936464949291E000014000000A2
:1004E0004034000000081422411414141414004174
:1004F00022140802015909063E415D594E7C121131
:10050000127C7F494949363E414141227F41414168
:100510003E7F494949417F090909013E41415173E3
:100520007F0808087F00417F41002040413F017F54
:10053000081422417F404040407F021C027F7F041C
:1005400008107F3E4141413E7F090909063E415165
:10055000215E7F09192946264949493203017F0155
:10056000033F4040403F1F2040201F3F4038403F56
:10057000631408146303047804036159494D43006C
:100580007F4141410204081020004141417F0402A3
:10059000010204404040404000030708002054543A
:1005A00078407F2844443838444444283844442818
:1005B0007F385454541800087E090218A4A49C786B
:1005C0007F0804047800447D40002040403D007FC7
:1005D0001028440000417F40007C047804787C08A7
:1005E0000404783844444438FC182424181824247B
:1005F00018FC7C08040408485454542404043F4460
:10060000243C4040207C1C2040201C3C4030403C8E
:1006100044281028444C9090907C4464544C4400EE
:100620000836410000007700000041360800020152
:100630000204023C2623263C1EA1A161123A40403E
:10064000207A3854545559215555794122545478BB
:1006500042215554784020545579400C1E52721254
:1006600039555555593954545459395554545800DD
:1006700000457C410002457D420001457C407D12E1
:1006800011127DF0282528F07C5455450020545443
:100690007C547C0A097F4932494949323A444444EE
:1006A0003A324A4848303A4141217A3A4240207829
:1006B000009DA0A07D3D4242423D3D4040403D3C2A
:1006C00024FF2424487E4943662B2FFC2F2BFF094F
:1006D00029F620C0887E0903205454794100004443
:1006E0007D413048484A32384040227A007A0A0A2E
:1006F000727D0D19317D2629292F282629292926A1
:1007000030484D4020380808080808080808382FE5
:1007100010C8ACBA2F102834FA00007B000008146F
:100720002A142222142A14085500550055AA55AA45
:1007300055AAFF55FF55FF000000FF00101010FFE5
:1007400000141414FF001010FF00FF1010F010F040
:10075000141414FC001414F700FF0000FF00FF1431
:1007600014F404FC141417101F10101F101F14147D
:10077000141F00101010F0000000001F10101010C7
:100780001F10101010F010000000FF1010101010BB
:1007900010101010FF10000000FF140000FF00FFF9
:1007A00000001F10170000FC04F414141710171495
:1007B00014F404F40000FF00F714141414141414B7
:1007C000F700F7141414171410101F101F1414142A
:1007D000F4141010F010F000001F101F0000001F94
:1007E00014000000FC140000F010F01010FF10FFC7
:1007F000141414FF141010101F00000000F010FF5C
:10080000FFFFFFFFF0F0F0F0F0FFFFFF000000003F
:1008100000FFFF0F0F0F0F0F3844443844FC4A4AC3
:100820004A347E02020606027E027E026355494178
:10083000633844443C04407E201E2006027E0202AF
:1008400099A5E7A5991C2A492A1C4C7201724C30C3
:100850004A4D4D303048784830BC625A463D3E499A
:100860004949007E0101017E2A2A2A2A2A44445F3E
:10087000444440514A444040444A51400000FF0132
:1008800003E080FF000008086B6B08361236243640
:10089000060F090F060000181800000010100030A5
:1008A00040FF0101001F01011E00191D1712003C2D
:1008B0003C3C3C0000000000DB40A4A62EAFDA0266
:1008C00081DA1281DA02818F2000A1C8D300408D25
:1008D000AED580A80000600000000000000000000D
:1008E0000000000000E00000000000000000000028
:1008F00000000001E0000000000000000000000017
:10090000000001F0000000000000000000000000F6
:100910000003F000000000000000000000000000E4
:1009200007F00000000000000000000000000007C9
:10093000F8000000000000000000000000000FF8B8
:1009400000000003C0007E000001E0007F0FF800FF
:10095000000003C000FE000001E000FFEFF800000F
:100960000003C000FE000001E000FFFFF8000000EF
:1009700003C000F00000000F007FFE7FC0000003F6
:10098000C000F00000000F003FFE7FF83FF1FBCFFA
:10099000FCFEF3BC3DEFE01FFE7FFF7FFBFFDFFEB1
:1009A000FEFFBC3DEFE01FC6FFFF7FFBFFDFFEFE4B
:1009B000FFBC3DEFE00FE3C7FE787BC3DE1EF0FF18
:1009C000BC3DEF0007FF87FC787BC3DE1EF0F83CE0
:1009D0003DEF0001FFFFF0007BC3C01EF0F03C3D87
:1009E000EF0001F37FE03FFBC3CFFEF0F03C3DEFB3
:1009F0000003E33F807FFBC3DFFEF0F03C3DEF00F0
:100A000007E73C00787BC3DE1EF0F03C3DEF0007BB
:100A1000FFBE00787BC3DE1EF0F03C3DEF0007FF19
:100A2000FE00787BC3DE1EF0F03C3DEF000FFFFEC2
:100A3000007FFBFFDFFEF0F03FFDEFE00FFFFF0068
:100A40007FFBFFDFFEF0F03FFDEFE00FF9FF003E20
:100A500079F9CF9EF0F01F3DE7E01FF1FF000000A5
:100A60000000000000000000001F80FF007FFFFF6B
:100A7000FFFFFFFFFFFFFFE01C007F007FFFFFFF86
:100A8000FEB46D888D18E000001F007FFFFFFFFEA1
:100A900095AD7DB577E000000F007FFFFFFFFEA55D
:100AA000AD9D8D19E0000006007FFFFFFFFEB5AD94
:100AB000EDB57EE0000000000001800000000000B5
:100AC000000000000380000000000000000000079C
:100AD000C000000000000000000007C0000000008F
:100AE00000000000000FC000000000000000000037
:100AF0001FE00000000000000000001FE0000000F8
:100B00000000000000003FE00000000000000000C6
:100B1000003FF00000000000000000007FF0000037
:100B200000000000001FF87FF0000000000000003F
:100B30003FFE7FF0000000000000003FFF7FF0005C
:100B40000000000000001FFFFBE0000000000000AC
:100B5000000FFFF9FFC00000000000000FFFF9FFC9
:100B6000F800000000000007FFF1FFFF0000000098
:100B7000000003FC73FFFF80000000000001FE3F47
:100B8000FFFF80000000000000FF1E0FFF000000BC
:100B9000000000007FFE1FFC000000000000003F7E
:100BA000FFFFF8000000000000000FDFFFE0000082
:100BB00000000000001F19FFC0000000000000003E
:100BC0003F3CFF00000000000000007E7CF80000B9
:100BD0000000000000007FFE7C000000000000001C
:100BE00000FFFFFC0000000000000000FFFFFE000F
:100BF00000000000000000FFFFFE000000000000F9
:100C00000001FFEFFE0000000000000001FFCFFE2A
:100C10000000000000000003FF07FE0000000000CD
:100C2000000003FC07FE0000000000000003F003CA
:100C3000FE00000000000000018000FE0000000037
:100C40000000000000007E00000000000000000026
:100C5000003E000000000000000000000C0000004A
:100C6000000000078000FC000003C00000000780B7
:100C700001FC000003C0000000078001FC0000032D
:100C8000C0000000078001E00000001E0000000717
:100C90008001E00000001E007FE3F79FF9FDE77888
:100CA0007BDFC0FFF7FFBFFDFDFF787BDFC0FFF7F5
:100CB000FFBFFDFDFF787BDFC0F0F787BC3DE1FFA4
:100CC000787BDE00F0F787BC3DE1F0787BDE00004A
:100CD000F787803DE1E0787BDE007FF7879FFDE1CD
:100CE000E0787BDE00FFF787BFFDE1E0787BDE0088
:100CF000F0F787BC3DE1E0787BDE00F0F787BC3D94
:100D0000E1E0787BDE00F0F787BC3DE1E0787BDE58
:100D100000FFF7FFBFFDE1E07FFBDFC0FFF7FFBF94
:100D2000FDE1E07FFBDFC07CF3F39F3DE1E03E7B34
:100D3000CFC00000000000000000000000FFFFFF27
:100D4000FFFFFFFFFFFFFFC0FFFFFFFFFD68DB119D
:100D50001A31C0FFFFFFFFFD2B5AFB6AEFC0FFFFF8
:100D6000FFFFFD4B5B3B1A33C0FFFFFFFFFD6B5BDB
:100D7000DB6AFDC000000000000000000000000071
:100D80000000000000000000000000000000000063
:100D900000000000000000000000018000000000D2
:100DA00007E00000000007E0000000000FF0000076
:100DB00000000E70000000001C38000000003C3CE9
:100DC00000000000381C00000000781E0000000039
:100DD000700E00000000F00F00000000E3C70000EC
:100DE0000001C3C380000003C3C3C000000383C16C
:100DF000C000000783C1E000000703C0E000000E50
:100E000003C0F000000E03C07000001C03C03800D7
:100E1000003C03C03C00003803C01C00007803C045
:100E20001E00007003C00E0000E003C0070001E0D8
:100E300003C0078001C003C0038003C0018003C05A
:100E40000380000001C00780000001E0070001806E
:100E500000E00E0003C000701E0003C000781C00FC
:100E6000018000383C000000003C38000000001CFD
:100E700038000000001C3FFFFFFFFFFC1FFFFFFFCB
:100E8000FFF801FFFFFFFF800000000000000000EE
:100E900000000000504F57455220535550504C59B8
:100EA00000313220564443005741524E494E4700CC
:100EB00073657475700020746F20656E74657200C0
:100EC0004D4F444500486F6C6420007665722E3AA1
:100ED00020004669726D776172650048696E743AE8
:100EE00000496E70757420766F6C74616765203D83
:100EF00020004669726D7761726520762E3A004453
:100F00004453204144393931342041726475696E4B
:100F10006F20536869656C642062792047524120D4
:100F20002620414643482E20286772612D61666362
:100F3000682E636F6D2900556E6B6E6F776E206340
:100F40006F6D6D616E643A0046202D2053657420EC
:100F50004672657175656E637920696E20487A20E6
:100F600028313030303030202D204444535F436FDF
:100F700072655F436C6F636B2F32290A50202D20FE
:100F8000536574204F757470757420506F77657257
:100F900020696E2064426D20282D3638202D2030A7
:100FA000290A4D202D20476574204D6F64656C0A19
:100FB00056202D20476574204669726D77617265F1
:100FC0002056657273696F6E0A45202D20456E614B
:100FD000626C65204F75747075740A44202D20442E
:100FE000697361626C65204F75747075740A68204E
:100FF0002D20546869732048656C700A3B202D20B1
:10100000436F6D6D616E64732053657061726174BE
:101010006F720A4578616D706C653A0A46313030FE
:101020003030303B502D320A536574204672657162
:1010300075656E637920746F20313030206B487A8B
:101040002C20616E64204F757470757420506F771A
:10105000657220746F202D322064426D2E0A416E1D
:1010600079206E756D626572206F6620636F6D6D9D
:10107000616E647320696E20616E79206F726465A1
:101080007220697320616C6C6F7765642E00444434
:1010900053393931342F352076322E32004F757462
:1010A00070757420456E61626C6564004F75747074
:1010B00075742044697361626C65640053657420C3
:1010C000506F7765722E3A20005365742066726502
:1010D000712E3A200045584954005341564500208E
:1010E0004D487A003A00436F726520436C6F636B22
:1010F00000204D487A003A00436C6F636B204672C3
:101100006571003A00436C6F636B20537263005348
:1011100045545550004752412641464348006442D9
:101120006D0020002D00416D706C69747564653A26
:10113000004300204F464600467265712E2C204821
:101140007A3A004444532041443939313400000094
:101150002100240027002A002D0030003300010167
:101160000000040107010A010000220025002800F8
:101170002B002E003100340002010000050108019F
:101180000B0100000A0B02090C0D0E0807030401F5
:10119000000000000000000000000000000000004F
:1011A000000000000000000000000000000012111C
:1011B000100000000000000000000000000000001F
:1011C00000000000000000002200FF2100010210CA
:1011D0002020080810204010204080020102010851
:1011E0000402010102040810204080804020100801
:1011F000040201800402018040201008040201085A
:1012000004020101020408102040800102040810B9
:10121000204080000020002300260029002C002F01
:101220000032000001000003010601090105050567
:1012300005070508080808020202020A0A0808044D
:10124000040404010101010101010103030303037B
:10125000030303040707070C0C0C0C0C0C0C0C020A
:1012600002020206060606060606060B0B0B0B0B11
:101270000B0B0B00E22A3D3F11241FBECFEFD1E242
:10128000DEBFCDBF00E00CBF14E0A0E0B2E0E0ECB8
:10129000FBE900E00BBF02C007900D92A236B10738
:1012A000D9F727E0A2E6B4E001C01D92AA3BB2073D
:1012B000E1F719E0CBE3D9E000E006C0219701098E
:1012C000802FFE010E942147CA33D10780E0080722
:1012D000A9F70E94112E0C94CE4D0C940000CF93D0
:1012E000DF93EC01E0917E02F0917F02EE0FFF1F91
:1012F000EE0FFF1FE858FD4F25853685478550893D
:1013000060E87CE781E89AE40E9488432F3F31053A
:1013100019F010F02FEF30E02A30310510F42AE0F8
:1013200030E039832883DF91CF910895089581506B
:10133000823108F05AC0E82FF0E08827ED55F64FCB
:101340008F4F0C942147C309C709B509BB09BF09D1
:10135000F509CA09D009D409DA09DE09E209E80960
:10136000EC09F509F009F609FA09809180008F77F8
:10137000809380000895809180008F7DF9CF8091C7
:101380008000877FF5CF84B58F7784BD089584B5BD
:101390008F7DFBCF8091B0008F778093B000089550
:1013A0008091B0008F7DF9CF809190008F778093EE
:1013B00090000895809190008F7DF9CF80919000EA
:1013C000877FF5CF8091A0008F778093A00008954C
:1013D0008091A0008F7DF9CF8091A000877FF5CF0D
:1013E000809120018F7780932001089580912001C2
:1013F0008F7DF9CF80912001877FF5CF1F93CF9309
:10140000DF93282F30E0F901EE57FE4E8491F90169
:10141000E353FE4ED491F901E35DFD4EC491CC231C
:10142000A9F0162F81110E949709EC2FF0E0EE0F22
:10143000FF1FE859FE4EA591B4918FB7F894EC9137
:10144000111108C0D095DE23DC938FBFDF91CF91BF
:101450001F910895DE2BF8CFCF93DF9390E0FC012E
:10146000E353FE4E2491835D9D4EFC0184918823BD
:10147000C9F090E0880F991FFC01E25BFE4EA59138
:10148000B491FC01E859FE4EC591D49161110DC093
:101490009FB7F8948C91209582238C938881282380
:1014A00028839FBFDF91CF910895623051F49FB799
:1014B000F8943C91822F809583238C93E8812E2B86
:1014C000EFCF8FB7F894EC912E2B2C938FBFEACFF0
:1014D00090917B00977F90937B0020915D0290E438
:1014E000299F900111248653822B80937C00809148
:1014F0007A00806480937A0080917A0086FDFCCF28
:10150000809178009091790008953FB7F894809188
:10151000580590915905A0915A05B0915B0526B5E3
:10152000A89B05C02F3F19F00196A11DB11D3FBF1B
:10153000BA2FA92F982F8827BC01CD01620F711DEA
:10154000811D911D42E0660F771F881F991F4A95E4
:10155000D1F708958F929F92AF92BF92CF92DF9270
:10156000EF92FF924B015C010E94850A6B017C01A6
:101570000E94850A6C197D098E099F09683E734097
:1015800081059105A8F321E0821A9108A108B1080C
:1015900088EEC80E83E0D81EE11CF11C8114910472
:1015A000A104B10429F7FF90EF90DF90CF90BF9096
:1015B000AF909F908F900895CF93DF93C0EDD6E0CA
:1015C00061E08A810E94FE0961E070E080E090E0C5
:1015D0000E94AA0A60E08A81DF91CF910C94FE09F3
:1015E0002FB7F89460915405709155058091560578
:1015F000909157052FBF089508950895089508956F
:10160000DC01ED91FC910190F081E02D1994DB015A
:1016100014964D915C9115976D917C91DC01ED9143
:10162000FC910280F381E02D1994EF92FF920F93C9
:101630001F93CF93DF938C017B01D0E0C0E0F701D3
:10164000EC0FFD1F6491662361F0D801ED91FC91D0
:101650000190F081E02DC8011995892B11F0219698
:10166000EECFCE01DF91CF911F910F91FF90EF90C0
:101670000895AF92BF92CF92DF92EF92FF920F93B5
:101680001F93CF93DF936C017B018B01040F151F18
:10169000EB015E01AE18BF08C017D10759F0699180
:1016A000D601ED91FC910190F081E02DC6011995D4
:1016B000892B79F7C501DF91CF911F910F91FF9091
:1016C000EF90DF90CF90BF90AF900895FC01538DC5
:1016D000448D252F30E0842F90E0821B930B54170C
:1016E00010F0CF96089501970895FC01918D828D99
:1016F000981761F0A28DAE0FBF2FB11D5D968C9132
:10170000928D9F5F9F73928F90E008958FEF9FEF70
:101710000895FC01918D828D981731F0828DE80F2C
:10172000F11D858D90E008958FEF9FEF0895FC01E6
:10173000918D228D892F90E0805C9F4F821B9109B3
:101740008F739927089580E695E00E94970B21E01A
:10175000892B09F420E0822F0895FC01A48DA80FA5
:10176000B92FB11DA35ABF4F2C91848D90E00196E3
:101770008F739927848FA689B7892C93A089B18903
:101780008C91837080648C93938D848D981306C0A4
:101790000288F389E02D80818F7D80830895EF9208
:1017A000FF920F931F93CF93DF93EC0181E0888F1B
:1017B0009B8D8C8D98131AC0E889F989808185FFEB
:1017C00015C09FB7F894EE89FF896083E889F9898D
:1017D00080818370806480839FBF81E090E0DF918F
:1017E000CF911F910F91FF90EF900895F62E0B8DE2
:1017F00010E00F5F1F4F0F731127E02E8C8D8E119D
:101800000CC00FB607FCFACFE889F989808185FF03
:10181000F5CFCE010E94AD0BF1CFEB8DEC0FFD2F7C
:10182000F11DE35AFF4FF0829FB7F8940B8FEA89BE
:10183000FB8980818062CFCFCF93DF93EC01888DCD
:101840008823B9F0AA89BB89E889F9898C9185FD3B
:1018500003C0808186FD0DC00FB607FCF7CF8C91C9
:1018600085FFF2CF808185FFEDCFCE010E94AD0BC9
:10187000E9CFDF91CF91089580E090E0892B29F0A6
:101880000E94A30B81110E94000080E090E0892B50
:1018900049F080E090E0892B29F00E94000081113E
:1018A0000E94000080E090E0892B49F080E090E009
:1018B000892B29F00E94000081110E94000080E025
:1018C00090E0892B49F080E090E0892B29F00E947C
:1018D000000081110C9400000895CF92DF92EF92E6
:1018E000FF920F931F93CF93DF93EC010E94F00AB6
:1018F0006B017C012F8530E0F901EE57FE4E84919B
:10190000F901E353FE4E1491F901E35DFD4E04919C
:10191000002309F45EC081110E949709E02FF0E0D6
:10192000EE0FFF1FED5EFD4EA591B491EC911E23CD
:1019300031E020E009F430E0832F922F282F21702E
:10194000298B2889211104C021E082278170898B8D
:1019500089899A89891721F0CD8ADE8AEF8AF88EE3
:101960004D895E896F89788DC41AD50AE60AF70A0F
:101970004B815C816D817E814C155D056E057F0517
:1019800064F49A81891749F08A83882349F02B8966
:101990003C892F5F3F4F3C8B2B8B9A8191111CC050
:1019A0004F81588569857A854C155D056E057F05E3
:1019B00034F42B893C89398328831C8A1B8A8A8BBF
:1019C000DF91CF911F910F91FF90EF90DF90CF901B
:1019D000089590E080E0B2CF4B855C856D857E8573
:1019E0004C155D056E057F0554F72B893C893195B3
:1019F00021953109E0CF0895FC016370668B8481E5
:101A0000958126813781613039F0633029F09187E3
:101A1000808733872287089531872087938782873D
:101A200008952F923F924F925F926F927F928F9282
:101A30009F92AF92BF92CF92DF92EF92FF920F935D
:101A40001F93CF93DF93CDB7DEB76A970FB6F894A5
:101A5000DEBF0FBECDBF9A8F898F7A8369834A011B
:101A6000D22E18870F833701BC2CDC0159962D919B
:101A70003C915A972115310509F015C118968D91A1
:101A80009C911997681779070CF0D7C11A968D9118
:101A90009C91481759070CF0D0C14C2C512CB6E042
:101AA000CB9E600D711D11247C876B87161617065F
:101AB0000CF0C3C1EA2DF0E0FA87E98793E0EE0F5E
:101AC000FF1F9A95E1F7F88BEF87CF01840F951FE1
:101AD000181619060CF0B1C1A98DBA8D58968C91C3
:101AE000811104C0BFEABD1508F4D394A98DBA8D45
:101AF000ED91FC9111970284F385E02DCD011995AC
:101B0000B5E0DB9EC0011124E981FA81FC83EB83FF
:101B1000312C212C9C0128543C4F388F2F8B4A2D7F
:101B200050E05E8B4D8BEF89F88DE20DF31D4491F3
:101B30009E828D82D12CC12C69817A81620D731DA8
:101B40007A8B698B842F90E09C8B8B8BE98DFA8D3F
:101B5000A081B18140FF82C0F1E0BF126FC0AF121F
:101B60006DC01C96ED91FC912F813885A4014C0D20
:101B70005D1D69897A89898D9A8D1995EB89FC8912
:101B8000F595E7954E2F5FEFC51AD50A6D817E81D9
:101B90008D899E89680F791F7E836D8398E0C916B1
:101BA000D10481F6AFEF2A1A3A0AEB81FC81E40DE9
:101BB000F51DFC83EB83F5E02F16310409F0B3CF5C
:101BC0002F81388526153705B9F0A98DBA8DED918D
:101BD000FC91B1E0BB1257C0AB1255C069817A814C
:101BE0006B5F7F4F0088F189E02D830128E030E0B2
:101BF000A401898D9A8D1995A98DBA8DED91FC91CD
:101C000011970688F789E02DCD016A960FB6F894F2
:101C1000DEBF0FBECDBFDF91CF911F910F91FF901F
:101C2000EF90DF90CF90BF90AF909F908F907F907C
:101C30006F905F904F903F902F9019941E96ED916A
:101C4000FC91EF80F88409851A8592014D815E81AF
:101C50006B817C81898D9A8D199590CF2F813885E4
:101C60002615370509F48ACF31E0B31207C0A31255
:101C700005C01C96ED91FC91930178CF1E96ED91D5
:101C8000FC917301E0CF6B857C856419750906842E
:101C9000F785E02D73010F8518899201A401898DC4
:101CA0009A8D1995A9CFF90134969491329745915F
:101CB0005491D91AB7E0DB9E400D511D1124F90152
:101CC000259134913C8B2B8BFA0125903490FA01AD
:101CD0003296749031963491398B32966490319665
:101CE000449041E04C1518F04A1508F07FC0662D6D
:101CF000062C000C770B7C836B83842D042C000C4A
:101D0000990B9E838D83A98DBA8DED91FC911197CE
:101D10000284F385E02DCD011995512CD12CC12CD5
:101D2000EA2DF0E0FA87E9872B2D30E03C872B87FE
:101D3000A401440D511D47FC5A95588F4F8B698162
:101D40007A81660D711D67FC7A957E876D8779892A
:101D5000C71608F051CF2C2D30E04D815E81420F27
:101D6000531FA985BA854A9FC0014B9F900D5A9F6A
:101D7000900D1124FC01E80DF91DF88BEF87852DDE
:101D8000612C4F89588D420F531F5E8B4D8B67140A
:101D900008F050C044244394480E877041F4C101B8
:101DA0000196EB89FC89E20DF31DD4901C01D7FE4E
:101DB00019C0A98DBA8DED91FC91662D70E0B1E04E
:101DC000BB1219C0AB1217C02D853E85620F731F61
:101DD0000484F585E02D2F8138854D895E89898DB4
:101DE0009A8D1995DD0C6394842DD1CF1E821D82AE
:101DF0001C821B8288CF4B815C81640F751FAB8571
:101E0000BC856A9FC0016B9F900D7A9F900D112435
:101E100069817A81680F791F0684F785E02DEF804C
:101E2000F88409851A859D014F855889898D9A8D79
:101E30001995D8CF570CC3948ACF6A960FB6F894E9
:101E4000DEBF0FBECDBFDF91CF911F910F91FF90ED
:101E5000EF90DF90CF90BF90AF909F908F907F904A
:101E60006F905F904F903F902F9008958F929F9228
:101E7000AF92CF92EF92FF920F931F93CF93DF9386
:101E8000EC01262F898D9A8D009709F051C06A3098
:101E9000D1F41D861C868D8948E0849F9001112411
:101EA0008E859F85820F931F9F878E8781E090E0AC
:101EB000DF91CF911F910F91FF90EF90CF90AF9056
:101EC0009F908F9008956D3089F3CC88AD888F896D
:101ED0008823C1F08C859D8536E0C39E800D911DC1
:101EE0001124488559854817590764F44E855F8544
:101EF0001D861C8638E0A39EC0011124840F951F07
:101F00009F878E87EA88FB88088919894E855F85B7
:101F10006C857D85CE010E94110D2C898C859D8557
:101F200046E0249F800D911D11249D878C87BECF94
:101F30006A3069F41D861C86FC013696E4912D8971
:101F40008E859F85E29F800D911D1124ADCF6D3050
:101F500009F4ACCFFC0134963491631708F4A6CF92
:101F60003196E491E61708F4A1CFFC0132968590F2
:101F70009490462F431B342F47E0349F800C911CD4
:101F80001124F401329634913196E4913323A9F16E
:101F9000EE2399F1CC88F4013596E491AD884F8910
:101FA000442301F10E2E000CFF0BE30FF11DCE9E1A
:101FB000A001CF9E500D11246C857D85460F571FC3
:101FC00068857985641775076CF44E855F851D8675
:101FD0001C86FC013696E491AE9E400D511D1124E5
:101FE0005F874E87EA88FB88088919894E855F8557
:101FF0006C857D85CE010E94110DF4013496E4912B
:102000002C898C859D85E29F800D911D11248DCF9B
:102010006F927F928F929F92AF92BF92CF92DF92F8
:10202000EF92FF920F931F93CF93DF93EC016B011D
:102030005A0139014801E881F9810284F385E02DD4
:102040001995E881F9810288F389E02D87019301D0
:10205000A501B601CE011995A501480D591D4150A4
:102060005109E881F9810288F389E02D9301B601D5
:10207000CE011995E881F9810088F189E02D94015C
:10208000A501B601CE011995C60CD71CB601615049
:102090007109E881F9810088F189E02D9401A50199
:1020A000CE011995E881F9810688F789E02DCE01E6
:1020B000DF91CF911F910F91FF90EF90DF90CF9024
:1020C000BF90AF909F908F907F906F9019946F9278
:1020D0007F928F929F92AF92BF92CF92DF92EF92B8
:1020E000FF920F931F93CF93DF935C01EB016A0183
:1020F000490138018701DC01ED91FC9162177307FA
:1021000019F5641675062CF0962D872D3A01C92E07
:10211000D82E9601261937092F5F3F4F048CF58D75
:10212000E02DA301BE01C5011995DF91CF911F914B
:102130000F91FF90EF90DF90CF90BF90AF909F9066
:102140008F907F906F9008954615570591F426174C
:10215000370724F0892D4B01C22FD82F9E01281953
:1021600039092F5F3F4F068CF78DE02DA601B40192
:10217000DACF0284F385E02D1995D501ED91FC911C
:102180000488F589E02D83019401A601BE01C501F3
:102190001995D501ED91FC910688F789E02DC501CF
:1021A000DF91CF911F910F91FF90EF90DF90CF9033
:1021B000BF90AF909F908F907F906F901994EF9207
:1021C000FF920F931F93DC011A960D911C911B97A0
:1021D00018962D913C911997ED91FC9100A0F1A1D9
:1021E000E02D7B0150E040E070E060E019951F9128
:1021F0000F91FF90EF9008954F925F926F927F92B0
:102200008F929F92AF92BF92CF92DF92EF92FF9206
:102210000F931F93CF93DF936C012B015A01390168
:102220004801DC01ED91FC910284F385E02D1995C4
:10223000E201640C751CD601ED91FC91C615D70521
:102240005CF40088F189E02D87019401A501BE01AD
:10225000C60119952196EFCF0688F789E02DC601B2
:10226000DF91CF911F910F91FF90EF90DF90CF9072
:10227000BF90AF909F908F907F906F905F904F90A6
:1022800019948F929F92AF92BF92CF92DF92EF926A
:10229000FF920F931F93CF93DF93EC015B014A01F1
:1022A0006901E881F9810284F385E02D1995950192
:1022B0002C0D3D1D21503109E881F9810488F589F3
:1022C000E02D78018401A401B501CE011995E881C2
:1022D000F9810688F789E02DCE01DF91CF911F911A
:1022E0000F91FF90EF90DF90CF90BF90AF909F90B5
:1022F0008F9019948F929F92AF92BF92CF92DF925C
:10230000EF92FF920F931F93CF93DF93EC015B014A
:102310004A0169017801E881F9810284F385E02DA1
:102320001995C80CD91C860101501109E881F98161
:102330000488F589E02D9501A401B501CE01199518
:10234000E881F9810688F789E02DCE01DF91CF91F0
:102350001F910F91FF90EF90DF90CF90BF90AF90C3
:102360009F908F901994EF92FF920F931F93DC012F
:10237000ED91FC9100A0F1A1E02D19951F910F9115
:10238000FF90EF9008950F931F93DC01ED91FC9166
:10239000068CF78DE02D19951F910F9108950F93DD
:1023A0001F93DC01ED91FC91048CF58DE02D1995C6
:1023B0001F910F910895DC01ED91FC910084F1854E
:1023C000E02D19943F924F925F926F927F928F927D
:1023D0009F92AF92BF92CF92DF92EF92FF920F93B4
:1023E0001F93CF93DF9300D01F92CDB7DEB75C0170
:1023F0003B016A014901280187E0480E511C93E026
:10240000559447949A95E1F7CA018E0D9F1D9A83C2
:102410008983F12CE12C312C1C821B828B819C81C5
:1024200087709927330C892B61F4EB81FC8183E061
:10243000F595E7958A95E1F7EE0DFF1DE80DF91D7D
:10244000349037FE0AC021E030E0A6016B817C8128
:10245000660D771DC5010E94DB118B819C81019661
:102460009C838B8308171907C9F69FEFC91AD90AED
:10247000E40CF51C89819A81C816D90669F60F907B
:102480000F900F900F90DF91CF911F910F91FF90C0
:10249000EF90DF90CF90BF90AF909F908F907F9004
:1024A0006F905F904F903F9008952F923F924F9280
:1024B0005F926F927F928F929F92AF92BF92CF92D4
:1024C000DF92EF92FF920F931F93CF93DF9300D091
:1024D00000D0CDB7DEB73C016A013E832D83FC827C
:1024E000EB825801A41AB50AB7FE03C0B194A194B7
:1024F000B1088D809E80861A970A97FE03C091943A
:10250000819491088A149B045CF0902F812F0D8197
:102510001E819D838E839C2D8D2D6B01692F782FBD
:102520000C151D055CF09D818E817E836D83692F66
:10253000782F902F812F8601C92ED82E1601201AB0
:10254000310A2B012D813E81421A530A57FE03C0E6
:10255000519441945108710137FE03C03FEFE31AD3
:10256000F30AF594E7948D819E81861797075CF5B1
:10257000A1E0B0E0BA83A983C016D1064CF1D30123
:10258000ED91FC910484F585E02D2B813C81A8011F
:102590006D817E818A149B041CF04D815E81B8019F
:1025A000C3011995E418F508F7FE0AC02D813E8194
:1025B00089819A81280F391F3E832D83E20CF31CF9
:1025C0000F5F1F4FD9CF2FEF3FEF3A832983D4CF2F
:1025D00026960FB6F894DEBF0FBECDBFDF91CF9128
:1025E0001F910F91FF90EF90DF90CF90BF90AF9031
:1025F0009F908F907F906F905F904F903F902F9023
:102600000895CF93CFB7F89480912005811127C00A
:10261000E2E6F2E18491E2E0F2E19491E82FF0E069
:10262000EE0FFF1FE25BFE4EA591B491EC91E92302
:1026300021F461E085E30E94FE0961E085E30E94E8
:102640002C0A8CB580618CBD8CB580648CBD61E03A
:1026500084E30E942C0A61E083E30E942C0A8091AB
:1026600020058F5F80932005CFBFCF9108952091E3
:10267000D604260F3327331F21323105ECF4209185
:10268000FA04FC0190E080E0243069F082E00895D3
:10269000A091D6042191AC014A545B4FA40FB52FF1
:1026A000B11D2C930196861798F38091D604680F7C
:1026B0006093D60480E0089581E008951092FA04B2
:1026C00081E08093FC041092FB0461E084E10E94AD
:1026D000FE0961E085E10E94FE09E9EBF0E08081FE
:1026E0008E7F808380818D7F808388E48093B80093
:1026F00085E48093BC000895CF93DF9391E090939D
:10270000B5048823B9F0C091B800D091BA00809187
:10271000BC008A7B8093BC0060E084E10E94FE09DB
:1027200060E085E10E94FE090E945E13D093BA002A
:10273000C093B800DF91CF910895E0912605809174
:102740002505E81730F4F0E0E057FB4F808190E07A
:1027500008958FEF9FEF08959091260580912505AC
:102760002FEF3FEF981748F4E92FF0E0E057FB4FC9
:10277000208130E09F5F90932605C90108958091E4
:10278000250590912605891B990B0895CF92DF921C
:10279000EF92FF920F931F93CF93DF937C01CB01B6
:1027A0008A0120915F05222389F0EB016B01C40EA1
:1027B000D51ECC15DD0569F06991D701ED91FC912D
:1027C0000190F081E02DC7011995F3CF642F0E948D
:1027D0003713C801DF91CF911F910F91FF90EF90B8
:1027E000DF90CF900895CF93DF931F92CDB7DEB7E0
:1027F000698320915F052223F9F020915C05203246
:1028000058F021E030E0FC013383228390E080E047
:102810000F90DF91CF91089580915D05E82FF0E052
:10282000E059FB4F998190838F5F80935D05809382
:102830005C0581E090E0ECCF61E0CE0101960E9462
:102840003713F7CFCF92DF92EF92FF920F931F9340
:10285000CF93DF93D0915C0581E0D13208F09CC02A
:10286000C0915E050E94850A6B017C018091FA048B
:1028700081116CC082E08093FA0481E08093FC04B3
:102880008FEF8093F90410921E05D0931D05A0E7E9
:10289000B4E0EDEFF4E080E0D8138DC010921F0596
:1028A00080911F05CC0FC82BC0931F058091FB049E
:1028B000813009F084C01092FB040E94850A6B01EC
:1028C0007C0180911F058093BB008091B1049091A1
:1028D000B204A091B304B091B404892B8A2B8B2B42
:1028E000A1F00E94850A0091B1041091B2042091D8
:1028F000B3043091B4046C197D098E099F09061741
:1029000017072807390708F442C08091BC0083FDEF
:10291000D8CF85EC8093BC000E94850A6B017C01B6
:102920008091FA04823009F44CC08091F9048F3F01
:1029300009F469C08091F904803209F466C080917D
:10294000F904803309F463C084E026C08091B104A7
:102950009091B204A091B304B091B404892B8A2B56
:102960008B2B09F483CF0E94850A0091B10410914A
:10297000B2042091B3043091B4046C197D098E091E
:102980009F09061717072807390708F06FCF8091AE
:10299000B0040E947C1385E010925D0510925C05E6
:1029A00010925F05DF91CF911F910F91FF90EF90F3
:1029B000DF90CF9008959D9191938F5F6DCF85EEBD
:1029C000A9CF8091B1049091B204A091B304B091C9
:1029D000B404892B8A2B8B2B09F4A2CF0E94850A81
:1029E0000091B1041091B2042091B3043091B40469
:1029F0006C197D098E099F090617170728073907E3
:102A000008F08ECFC4CF80E0C7CF82E0C5CF83E08F
:102A1000C3CFEF92FF920F931F93CF93DF93EC01FD
:102A2000EC80FD806E157F050CF070C057FF04C070
:102A3000240F351F50E040E08E819F81FA01E20FA4
:102A4000F31F8E179F071CF49C01241B350B1216D5
:102A500013060CF05BC0922F842F86958695869581
:102A60008E9DD0018F9DB00D11246A0F7B1FAF8DFD
:102A7000B8A1A60FB71F477049F188E0841B482F03
:102A8000682F70E0FB01E055FC4FE491281708F037
:102A900063C0621B71092FEF30E002C035952795A6
:102AA0006A95E2F7E2230130110539F0B0F1023006
:102AB000110561F58C91E82702C08C91E82BEC930D
:102AC000941720F12C813D81A20FB31FE92FE41B45
:102AD000E83078F00230110521F58E2F9C91909509
:102AE0009C932C813D81A20FB31F88508830B0F792
:102AF000E770EE2359F0F0E0E855FC4FE491013027
:102B00001105F9F010F10230110519F1DF91CF91A3
:102B10001F910F91FF90EF900895E0958C91E8231D
:102B2000CECF81E00115110509F480E081959E2F3B
:102B30008C932C813D81A20FB31F98509830C0F721
:102B4000D7CF8C91E82BEC93E1CFE0958C91E823E3
:102B5000FACF8C91E827F7CF0130110509F4ADCFFA
:102B6000E0F20230110509F4A5CFAE0DBF1DAECFC6
:102B70000F931F93CF93DF9377FF04C0260F371F68
:102B800070E060E0DC011496CD91DC91FB01E20F76
:102B9000F31FCE17DF071CF49E01261B370B1216FE
:102BA00013064CF5FA0157FD3796A3E0F595E79526
:102BB000AA95E1F7EC9FD001ED9FB00DFC9FB00D01
:102BC00011246A0F7B1FDC015F96ED91FC91E60FEB
:102BD000F71F4770552781E090E001C0880F4A95A4
:102BE000EAF7482F0130110559F0A8F02E0F3F1FCA
:102BF00002301105E1F0DF91CF911F910F910895FF
:102C00002E0F3F1FE217F307B1F38191DF011197F8
:102C1000842B8C93F7CF80952E0F3F1FE217F3077D
:102C200051F39191DF01119798239C93F7CFE2170D
:102C3000F30709F38191DF01119784278C93F7CF74
:102C40000F931F93FA01DC0156964C915697423030
:102C5000E9F04330A1F1413061F514964D915C915A
:102C6000DA01AE1BBF0BFD01E21BF30B77FD0BC0BE
:102C7000DC0116964D915C916417750724F4AB0145
:102C8000BF010E94B8151F910F91089514964D91A0
:102C90005C91DA01A61BB70BBD0161507109DC0123
:102CA00016964D915C91DA01AE1BBF0BFD01E21B44
:102CB000F30B77FDE8CFAF010E940915E4CF16961C
:102CC0004D915C91DA01A61BB70BBD0161507109F2
:102CD000CDCF0F931F93FA01DC0156964C91569776
:102CE0004230A9F0433091F1413019F514964D91DD
:102CF0005C91DA01AE1BBF0BFD013197F7FD04C0FB
:102D0000AB01BF010E9409151F910F910895149600
:102D10004D915C91DA01A61BB70BBD01DC01169643
:102D20004D915C91DA01AE1BBF0BFD013197621B27
:102D3000730BF7FDE9CFDC0116964D915C91E4171A
:102D4000F50714F7AF010E94B815DECF16964D9126
:102D50005C91DA01A61BB70BBD01621B730BCECFD2
:102D6000FC0177FD64C080859185681779070CF0B8
:102D70005EC057FD5CC082859385481759070CF0EB
:102D800056C086898230B1F0833029F1813041F418
:102D900084819581841B950BAB01BC016150710945
:102DA0002130310509F108F443C02230310509F41E
:102DB00063C0089584819581DC01A61BB70BBD011A
:102DC0006150710986819781DC01A41BB50BAD01AF
:102DD00041505109E5CF86819781861B970BBA0137
:102DE000AC0141505109DCCFCA0157FD0796A3E061
:102DF00095958795AA95E1F7A481B5818A9F900161
:102E00008B9F300D9A9F300D1124620F731F078C1A
:102E1000F0A1E02DE60FF71F4770552721E030E0C5
:102E200001C0220F4A95EAF78081822B80830895A2
:102E3000CA0157FD079633E0959587953A95E1F7D6
:102E4000A481B5818A9F90018B9F300D9A9F300D90
:102E50001124620F731F078CF0A1E02DE60FF71FFE
:102E60004770552781E090E001C0880F4A95EAF746
:102E7000809590818923DACFCA0157FD079623E018
:102E8000959587952A95E1F7A481B5818A9F900150
:102E90008B9F300D9A9F300D1124620F731F078C8A
:102EA000F0A1E02DE60FF71F4770552721E030E035
:102EB00001C0220F4A95EAF780818227B7CF089593
:102EC0008CBD9DBD089590E080E00895AF92BF92C3
:102ED000CF92DF92EF92FF920F931F93CF93DF93E6
:102EE000E0917E02F0917F02EE0FFF1FEE0FFF1FB9
:102EF000E858FD4F85859685A785B0895C016D01F1
:102F0000E12CF12C00E010E020E03AE94DEA5EE42B
:102F100060E070E080E090E00E948A470E940045F7
:102F20000E94D144CB016F3F710519F010F08FEF73
:102F300090E0DF91CF911F910F91FF90EF90DF9084
:102F4000CF90BF90AF900895AF92BF92CF92DF9293
:102F5000EF92FF920F931F93CF93DF93E0917E0246
:102F6000F0917F02EE0FFF1FEE0FFF1FE858FD4F9D
:102F700085859685A785B0895C016D01E12CF12CD2
:102F800000E010E020E03CE846E857E460E070E054
:102F900080E090E00E948A470E9400450E94D14450
:102FA000CB016A30710510F48AE090E0DF91CF9197
:102FB0001F910F91FF90EF90DF90CF90BF90AF9057
:102FC00008950F931F93CF93DF93EC0180916804D2
:102FD00081110DC00E94F00A60936404709365042F
:102FE000809366049093670481E0809368048881ED
:102FF000882371F10E94F00A009164041091650425
:103000002091660430916704601B710B820B930B57
:103010006E3471408105910580F0C09100020E94DC
:10302000F00A60936404709365048093660490933F
:103030006704C13049F41092000280910002DF91D0
:10304000CF911F910F91089581E080930002F5CFF9
:1030500081E0F5CF81E080935D026AE070E080E07E
:1030600090E00E94AA0A8DE30E94680A26E533E1F7
:10307000DC010E9429472FEF33E040E050E00E943E
:10308000AA43B90190E080E00E94534220E030E082
:103090004AE754E40E94584426E03FE24AEB5DE3ED
:1030A0000E94584420E030E040E85FE30E94EC4397
:1030B0000895CF92DF92EF92FF92A0914902B091D2
:1030C0004A0220E03AEC4AE95BE30E94D4436B01F8
:1030D0007C01A0913C02B0913D0220E432E44FE03B
:1030E00050E00E94D443C60ED71EE81EF91E609120
:1030F000220270912302072E000C880B990BC60E3A
:10310000D71EE81EF91EA0912F02B091300228EEC2
:1031100033E00E9429476C0D7D1D8E1D9F1DFF9081
:10312000EF90DF90CF900895EF92FF920F931F934F
:10313000CF93DF93EC01A881B9817C810A811B8147
:10314000FD8020E931E050E040E090E080E06C91CB
:103150006723E1E0F0E011F4F0E0E0E08E0F9F1F64
:10316000F80160816F21E1E0F0E011F4F0E0E0E0CF
:103170004E0F5F1F2150310951F721E0893C910525
:1031800008F420E081E0493C510508F480E090918A
:103190006304921305C090916204981709F460C00B
:1031A00020936304809362049E81990F990F922B60
:1031B000880F982B9E839B3409F459C0973809F0E7
:1031C0004FC0EE24EA94FE2C0E94F00A0B851C8569
:1031D0002D853E85DC01CB01801B910BA20BB30B2F
:1031E0008F87988BA98BBA8B10E000E08A3191050C
:1031F000A105B10540F405E010E00D97A105B1056A
:1032000010F40AE010E00E94F00A6B877C878D873B
:103210009E8721E030E0FFEFEF16FF0611F42FEF5D
:103220003FEFC701FF0CAA0BBB0B4F815885698587
:103230007A85840F951FA61FB71F029FA001039FC9
:10324000500D129F500D1124052E000C660B770BAC
:10325000840F951FA61FB71F8F839887A987BA87EA
:10326000DF91CF911F910F91FF90EF900895EE2481
:10327000E394F12CA9CF8091FD059091FE050C946B
:1032800094188091FF05909100060C9494188091F9
:103290000106909102060C94941880910306909177
:1032A00004060C94941880910506909106060C94DF
:1032B000941880910706909108060C94941883E462
:1032C00092E0909351058093500510924E0580E056
:1032D00008950895CF93DF93EC01E0917E02F09181
:1032E0007F02EE0FFF1FEE0FFF1FE858FD4F2585F1
:1032F000368547855089220F331F441F551FAE81E5
:10330000BF810E94D4436D877E878F87988BDF9122
:10331000CF9108954F925F926F927F928F929F927A
:10332000AF92BF92CF92DF92EF92FF920F931F93D3
:10333000CF93DF9300D01F92CDB7DEB780919D076A
:1033400090919E070297C8F58091930790919407FA
:10335000A0919507B091960781509841AD40BF4824
:103360008F3F9B41AE44BE4020F086E897E00E942C
:103370006A198090930790909407A0909507B09059
:103380009607C12CD12C76019401A501B601C70185
:103390000F900F900F900F90DF91CF911F910F9191
:1033A000FF90EF90DF90CF90BF90AF909F908F9065
:1033B0007F906F905F904F900895309172022091AE
:1033C0007102932F990F990BA12C4AECB42E5AE954
:1033D000C52E6BE3D62EE12CF12C00E010E0492F36
:1033E000592F692F792F892F0E94304759016A017F
:1033F0007B01F82FE92FA0916402B091650220E4CF
:1034000032E44FE050E00E94D4432B013C01DC0148
:10341000CB01BB0F880B982FDC0189839A83AB8388
:10342000BC839501A601B7018F2F9E2F5201630126
:10343000E980FE2C0E2D1E2D0E945F4849015A0185
:103440006B017C0135564D4C5D4161097109810963
:103450009109211538424B465E4E61057105810583
:10346000910509F008F490CF812C8AEC982E9AE906
:10347000A92E2BE3B22EC12CD12CE12CF12C84CF20
:10348000FC01948581E0892784870895FC0177FFFA
:1034900003C071956195710986819781861B970B91
:1034A00097838683228533858217930724F480854A
:1034B0009185978386830895CF93DF93EC010E94D3
:1034C000461A8E819F81853F21E0920778F0809196
:1034D000710290917202049731F483E090E090932E
:1034E000720280937102DF91CF910895843F9140E1
:1034F000D1F38091710290917202892BA1F781E042
:1035000090E0EDCFCF93DF93EC010E94461A8E81BD
:103510009F818430910581F48091640290916502CD
:10352000853F914030F084EF91E090936502809365
:103530006402DF91CF910895892BD9F780916402BD
:1035400090916502843F914070F3F3CFCF93DF9366
:10355000EC0161E070E00E94461A8E819F81029723
:1035600068F488E792E09B838A8386E897E09093EB
:10357000140280931302DF91CF9108958BE692E0BD
:103580009B838A838EE592E0F2CF0E94461A8CE8F4
:1035900097E00E946F0986E897E00C946A190C94F2
:1035A000461A0C94461A0C94461A0C94461A0C941B
:1035B000461AFC0177FF03C07195619571098681F8
:1035C0009781680F791F7783668380859185861739
:1035D000970724F482859385978386830895CF93F4
:1035E000DF93EC010E94D91A8E819F81853F21E0F3
:1035F000920778F08091710290917202049731F4F1
:1036000083E090E09093720280937102DF91CF91FA
:103610000895843F9140D1F380917102909172029C
:10362000892BA1F781E090E0EDCFCF93DF93EC0100
:103630000E94D91A8E819F818430910581F48091F6
:10364000640290916502853F914030F084EF91E0F3
:103650009093650280936402DF91CF910895892B46
:10366000D9F78091640290916502843F914070F394
:10367000F3CFCF93DF93EC0161E070E00E94D91AA1
:103680008E819F81029768F488E792E09B838A830A
:1036900086E897E09093140280931302DF91CF9114
:1036A00008958BE692E09B838A838EE592E0F2CFC9
:1036B0000E94D91A8CE897E00E946F0986E897E08B
:1036C0000C946A190C94D91A0C94D91A0C94D91A1E
:1036D0000C94D91A0C94D91A8EBD00000DB407FEB3
:1036E000FDCF8EB50895EF92FF920F931F93CF9366
:1036F000DF938C017B0160E08091D0060E94FE097F
:10370000F80180810E946C1BE701F8012181CE0144
:103710008E199F092817190629F024F089910E9413
:103720006C1BF3CF61E08091D006DF91CF911F91A8
:103730000F91FF90EF900C94FE09CF92DF92EF92E1
:10374000FF92CF93DF9300D000D0CDB7DEB7609368
:10375000D7067093D8068093D9069093DA060E9414
:103760005342209182073091830740918407509102
:1037700085070E94B4426B017C016091170770912C
:1037800018078091190790911A070E9453429B01D4
:10379000AC01C701B6010E9458446B017C0120E0D6
:1037A00030E0A9010E94544520E030E040E05FE3B2
:1037B00087FD2EC0C701B6010E94EC430E94CA4497
:1037C0009B01AC016093F7063093F8068093F906ED
:1037D0005093FA0659838A833B836C8384E08E83FB
:1037E0008BE08D83BE016F5F7F4FCE0105960E94F7
:1037F000731B0E94DC0A26960FB6F894DEBF0FBE3C
:10380000CDBFDF91CF91FF90EF90DF90CF900895E3
:10381000C701B6010E94EB43D1CFCF93DF9300D015
:1038200000D0CDB7DEB781E0809380078D8384E040
:103830008E83198280E88A831B821C82BE016F5F9F
:103840007F4FCE0105960E94731B0E94DC0A2696CC
:103850000FB6F894DEBF0FBECDBFDF91CF910895B4
:10386000CF93DF9300D000D0CDB7DEB781E0809357
:1038700081071D8284E08E838091BB029091BC02FF
:10388000A091BD02B091BE0289839A83AB83BC83B1
:10389000BE016F5F7F4FCE0105960E94731B0E9491
:1038A000DC0A26960FB6F894DEBF0FBECDBFDF91BF
:1038B000CF910895FF920F931F93CF93DF93CDB7CE
:1038C000DEB768970FB6F894DEBF0FBECDBF042FEA
:1038D00060931B0770931C0780931D0790931E072E
:1038E00060931707709318078093190790931A072E
:1038F00061E08091D1060E94FE0961E070E080E005
:1039000090E00E94AA0A60E08091D1060E94FE0920
:1039100064E670E080E090E00E94AA0A10928007BE
:103920001092810710927F071F8A14E0188F8091F0
:10393000BF029091C002A091C102B091C2028D87D6
:103940009E87AF87B88BBE01635F7F4FCE014796DE
:103950000E94731B0E94DC0AFF24F394FD821E83E5
:103960008091C3029091C402A091C502B091C60299
:1039700089839A83AB83BC83BE016F5F7F4FCE0187
:1039800005960E94731B0E94DC0AFD8A1E8B198615
:103990001A8689E08B871C86BE01675F7F4FCE0148
:1039A00045960E94731B0E94DC0A82E0002309F402
:1039B0005BC08B8B1C8B1E821D821E838CE68887CE
:1039C0000F83BE016B5F7F4FCE0143960E94731B36
:1039D000198A1A8B8091C7029091C802A091C902DE
:1039E000B091CA0289839A83AB83BC83BE016F5FA7
:1039F0007F4FCE0141960E94731B0E94DC0A83E038
:103A00008D8384E08E838091CB029091CC02A09133
:103A1000CD02B091CE0289839A83AB83BC83BE0171
:103A20006F5F7F4FCE0105960E94731B0E94DC0AD8
:103A300061E070E080E090E00E94AA0A1982BE0175
:103A40006F5F7F4FCE0105960E94731B0E94DC0AB8
:103A500068960FB6F894DEBF0FBECDBFDF91CF9151
:103A60001F910F91FF9008958D831E8319821A82F2
:103A70001B821C82BE016F5F7F4FCE0105960E94A4
:103A8000731BBDCFFF920F931F93CF93DF93F82E3D
:103A9000D92FC62F8091AA069091AB06009709F402
:103AA00052C02091AE0631E030935F0520935E0551
:103AB00010925D0510925C05DC01ED91FC91019086
:103AC000F081E02D60E019950F2D1D2FD1E0FF242E
:103AD000F394C1508091AA069091AB06CF3F61F15B
:103AE000D032C8F00E9422148091AA069091AB06B1
:103AF0002091AE06F0925F0520935E0510925D0561
:103B000010925C05DC01ED91FC910190F081E02DBB
:103B100060E01995D1E08091AA069091AB06F8017A
:103B20006491DC01ED91FC910190F081E02D1995FB
:103B3000DF5F0F5F1F4FCDCFDF91CF911F910F91AF
:103B4000FF900C942214E091BA06F091BB0690818C
:103B50008091C0068095892380830F2D1D2FC15031
:103B600008F438C0F80184912091A8063091A90684
:103B7000232B29F00E946C1B0F5F1F4FF0CF28E012
:103B800030E040E8E091B606F091B7069091BE06AD
:103B9000582F5423D9F05081952B9083E091B8068B
:103BA000F091B90690815091BF06952B9083E091DA
:103BB000B806F091B90650819091BF069095952373
:103BC0009083469521503109E9F6D6CF50819095E2
:103BD0009523E3CFDF91CF911F910F91FF9008952F
:103BE0001F93CF93DF93EC018D8D9E8D009721F174
:103BF000162F29A131E030935F0520935E051092C6
:103C00005D0510925C05DC01ED91FC910190F08165
:103C1000E02D60E019958D8D9E8DDC01ED91FC917C
:103C20000190F081E02D612F19958D8D9E8DDF9192
:103C3000CF911F910C942214ADA5BEA59C918BA988
:103C4000809589238C938B8D9C8D892B31F0862FC9
:103C5000DF91CF911F910C946C1B28E030E080E83D
:103C6000A9A5BAA599A9462F4823C1F04C91942B38
:103C70009C93ABA5BCA59C914AA9942B9C93ABA506
:103C8000BCA54C919AA9909594239C93869521501C
:103C9000310931F7DF91CF911F9108954C919095A3
:103CA0009423E6CFEF92FF920F931F93CF93DF936E
:103CB0008091AA069091AB06892B09F493C02091BC
:103CC000C4063091C5064091C6065091C70660E013
:103CD00074E284EF90E00E94884320513109410949
:103CE000510956954795379527952093B80065E07B
:103CF00088EC91E10E94421D6091910661508DE82F
:103D000096E00E94F01D2091930630919406C9011F
:103D1000079697FD079623E0959587952A95E1F7F5
:103D20002091910630919206829F8001839F100D11
:103D3000929F100D1124C091AC06D091AD068091D8
:103D4000AA069091AB060C0F1D1F009709F489C0BD
:103D50002091AE0631E030935F0520935E0510920E
:103D60005D0510925C05DC01ED91FC910190F08104
:103D7000E02D60E41995FF24F394EE24E394809100
:103D8000AA069091AB060C171D0709F442C0BFE1CB
:103D9000BF15D0F40E9422148091AA069091AB0620
:103DA0002091AE06E0925F0520935E0510925D05BE
:103DB00010925C05DC01ED91FC910190F081E02D09
:103DC00060E41995FF24F3948091AA069091AB06C4
:103DD0006991DC01ED91FC910190F081E02D199544
:103DE000F394CDCF8091A8069091A906892B31F04C
:103DF0008091C2069091C3060E946017E091BC06B4
:103E0000F091BD0690818091C106809589238083C1
:103E10006ECF0E9422148091AA069091AB06892B46
:103E200009F460C02091C8063091C9064091CA06C5
:103E30005091CB0660E074E284EF90E00E948843EA
:103E400020513109410951095695479537952795D4
:103E50002093B800DF91CF911F910F91FF90EF90C9
:103E60000895E091BA06F091BB0680819091C0065A
:103E7000892B80830C171D0771F289912091A80668
:103E80003091A906232B19F00E946C1BF3CF28E078
:103E900030E040E8E091B606F091B7069091BE069A
:103EA000582F5423D9F05081952B9083E091B80678
:103EB000F091B90690815091BF06952B9083E091C7
:103EC000B806F091B90650819091BF069095952360
:103ED0009083469521503109E9F6CCCF50819095D9
:103EE0009523E3CFE091BC06F091BD0680819091CF
:103EF000C106892B8083AECF1F93CF93DF93EC0154
:103F0000162F8D8D9E8D892BB1F12FA938AD49AD1E
:103F10005AAD60E074E284EF90E00E948843205143
:103F200031094109510956954795379527952093B1
:103F3000B80066EA111167EACE010E94F01D8D8D6E
:103F40009E8D892B41F12BAD3CAD4DAD5EAD60E05A
:103F500074E284EF90E00E948843205131094109C6
:103F6000510956954795379527952093B800DF91CD
:103F7000CF911F9108958B8D9C8D892B21F08DA958
:103F80009EA90E946017EFA5F8A990818CA9809541
:103F900089238083CECFEFA5F8A980819CA9892BA6
:103FA0008083E5CFCF92DF92EF92FF92CF93DF93A2
:103FB00000D000D0CDB7DEB720E030E040EA51E4D9
:103FC0000E9458449B01AC0160E070E080E291E403
:103FD0000E94594520E030E040E855E40E94B44298
:103FE0006B017C0120E030E0A9010E94544520E0F3
:103FF00030E040E05FE387FD36C0C701B6010E94B4
:10400000EC430E94CA44611520E1720781059105C5
:1040100078F560931F077093200780932107909392
:10402000220780911F079091200724E02E832CE027
:104030002D831C821B8299838A83BE016F5F7F4F11
:10404000CE0105960E94731B0E94DC0A26960FB6CD
:10405000F894DEBF0FBECDBFDF91CF91FF90EF9000
:10406000DF90CF900895C701B6010E94EB43C9CFFE
:104070008FEF9FE0A0E0B0E080931F0790932007B0
:10408000A0932107B0932207CCCFCF92DF92EF927B
:10409000FF926B017C0120E030E0A9010E945445B1
:1040A000181644F0C701B601FF90EF90DF90CF9053
:1040B0000C94D21FFF90EF90DF90CF900895209145
:1040C000930630919406C901079697FD079623E061
:1040D000959587952A95E1F7209191063091920662
:1040E000829FA001839F500D929F500D112470E07C
:1040F00060E08091AC069091AD060C947C4ACF9321
:10410000DF93EC0188819981009711F00E940449A6
:10411000198218821D821C821B821A82DF91CF9124
:104120000895FC0180819181009711F00C9404495D
:1041300008950F931F93CF93DF938C01EB010E949F
:1041400072438883C80101960E9472438983CE011D
:10415000DF91CF911F910F910895FF920F931F93BD
:10416000CF93DF93EC018B01FB01F0800E9472433F
:10417000F81621F06F2DCE010E947A43F801F180EC
:104180002196CE010E947243F81621F06F2DCE01C8
:104190000E947A43C801DF91CF911F910F91FF9048
:1041A000089569E472E086E190E00E94AD206CE33E
:1041B00072E088E190E00E94AD206FE272E08CE155
:1041C00090E00E94AD2062E272E080E290E00E9406
:1041D000AD2066E572E084E290E00E94AD2067E3E6
:1041E00084E690E00C947A430E946E4AFB010190B1
:1041F0000020E9F73197AF01461B570BDC01ED9129
:10420000FC910280F381E02D19948F929F92AF92DE
:10421000BF92EF92FF920F931F93CF93DF93CDB78F
:10422000DEB7A1970FB6F894DEBF0FBECDBF7C01FD
:10423000FA01CB0119A2223008F42AE08E010F5DA9
:104240001F4F822E912CB12CA12CBF01A5019401EE
:104250000E948843F901CA016A300CF5605DD801FB
:104260006E938D01232B242B252B79F790E080E092
:10427000109721F0BD01C7010E94F620A1960FB64C
:10428000F894DEBF0FBECDBFDF91CF911F910F918C
:10429000FF90EF90BF90AF909F908F900895695CD2
:1042A000DECFCF92DF92EF92FF920F931F93CF93C7
:1042B000DF9377FF1DC06A017B01EC016DE20E9474
:1042C000000B8C0144275527BA014C195D096E0972
:1042D0007F092AE0CE010E940521800F911FDF9106
:1042E000CF911F910F91FF90EF90DF90CF900895A5
:1042F0002AE0DF91CF911F910F91FF90EF90DF9017
:10430000CF900C9405214F925F926F927F92AF9263
:10431000BF92CF92DF92EF92FF921F93CF93DF93E2
:104320005C016A017B01722E20E030E0A901CB0123
:10433000B6010E944E42D0E0C0E087FF09C06DE2A6
:10434000C5010E94000BEC01F7FAF094F7F8F09425
:1043500010E060E070E080E09FE3171541F020E09E
:1043600030E040E251E40E9458441F5FF6CFA701BD
:1043700096010E94EC436B017C010E94D1442B0109
:104380003C012AE0BC01A201C5010E940521C80F21
:10439000D91F1123C1F1C301B2010E9453429B01F5
:1043A000AC01C701B6010E94EB436B017C016EE2D8
:1043B000C5010E94000BC80FD91F115020F120E049
:1043C00030E040E251E4C701B6010E94B4422B0143
:1043D0003C010E94D1446B01F12CE12C2AE0B70191
:1043E000A601C5010E940521C80FD91FC701B6014A
:1043F0000E9453429B01AC01C301B2010E94EB43F6
:104400006B017C01DACFCE01DF91CF911F91FF903C
:10441000EF90DF90CF90BF90AF907F906F905F90C4
:104420004F9008958F929F92AF92BF92CF92DF925A
:10443000EF92FF926B017C01AC019B010E94B4459D
:1044400067E973E0811126C046015701E894B7F887
:104450002FEF3FEF4FE75FE7C501B4010E94B4457E
:1044600081110CC02FEF3FEF4FE75FE7C501B401AB
:104470000E944E426BE973E0181664F02FEF3FEF95
:104480004FE75FE4C701B6010E9454451816C4F413
:104490006FE973E080E695E00E94F6207C0163EA14
:1044A00073E080E695E00E94F6208E0D9F1DFF9040
:1044B000EF90DF90CF90BF90AF909F908F90089536
:1044C0002FEF3FEF4FE75FECC701B6010E944E426E
:1044D00087FDDECF22E0B701A60180E695E00E94CD
:1044E0008321DCCF0F931F93CF93DF93EC010E94C6
:1044F000F6208C0163EA73E0CE010E94F620800F63
:10450000911FDF91CF911F910F9108950F931F93EA
:10451000CF93DF93EC010E94150B8C0163EA73E0EB
:10452000CE010E94F620800F911FDF91CF911F9145
:104530000F9108950F931F93CF93DF936DE977E069
:1045400090E080E00E94AD206EE772E082E090E0B3
:104550000E94AD2061E772E084E090E00E94AD200F
:1045600064E672E086E090E00E94AD206CE877E0BF
:1045700088E090E00E94AD2067E385E690E00E942D
:104580007A430E94F3220E945F20CDE8D6E082E0C9
:104590008C8B8D8B81E090E09B8B8A8B998B888BA9
:1045A00008E210E01D870C871F861E86888F66EA4A
:1045B00073E0CE010E9472221D870C8780E290E09A
:1045C0009F878E876CEA73E0CE010E94F6200E94DE
:1045D000521E68EE73E080E090E0DF91CF911F9172
:1045E0000F910C94AA0ACF92DF92EF92FF9285E688
:1045F00090E00E947243873309F496C010929E07A0
:1046000010929D0784E090E090937F0280937E0259
:1046100083E090E0909372028093710210926502A1
:10462000109264028EE190E090938D0780938C0746
:104630000E949A2280919D07882309F494C08330B8
:1046400008F49EC080918C0790918D078F3F910553
:1046500039F034F00E94A41790938D0780938C0753
:10466000E0917E02F0917F02EE0FFF1FEE0FFF1F21
:10467000E858FD4FC584D684E784F088A0918C0764
:10468000B0918D07A70196010E94D443660F771F52
:10469000881F991F613074438B459D4930F00E94FB
:1046A000A41790938D0780938C0780918C0790912D
:1046B0008D070A9734F40E94661790938D078093B4
:1046C0008C07A0918C07B0918D07A70196010E94DD
:1046D000D443660F771F881F991F611578418D405D
:1046E0009F4830F40E94661790938D0780938C0743
:1046F00086E897E00E946A1980919D0790919E0735
:10470000029708F047C088E792E090939A07809359
:10471000990786E897E09093140280931302FF9024
:10472000EF90DF90CF9008956DE977E090E080E022
:104730000E9499206EE772E082E090E00E9499204A
:1047400061E772E084E090E00E94992064E672E004
:1047500086E090E00E9499206CE877E088E090E0A5
:104760000E94992067CF61E08BE30E94FE0961E01F
:1047700086E30E94FE0960E087E30E94FE0962CFA3
:1047800060E08BE30E94FE0960E086E30E94FE0980
:1047900061E0F2CF8BE692E090939A0780939907BD
:1047A0008EE592E0B8CFCF9380919D0790919E07C0
:1047B000029718F5C0918C070E948A19E42F4C2F9C
:1047C000B9018E2F952F0E945A1C0E940D1C0E9429
:1047D000301C0E9459180E949D1B60E070E0CB01C4
:1047E0000E94D21F0E949A2282E092E0909351058B
:1047F0008093500580E0CF9108950E948A19E42F9C
:1048000040E0DECFCF93DF93EC018E819F81019753
:104810009F838E830A9724F40E9466179F838E835A
:10482000E0917E02F0917F02EE0FFF1FEE0FFF1F5F
:10483000E858FD4F2585368547855089220F331F5F
:10484000441F551FAE81BF810E94D443611578413A
:104850008D409F4820F40E9466179F838E83CE016F
:104860000E946A1962EB73E080E695E00E94F620F0
:104870004E815F81052E000C660B770B80E695E07C
:104880000E94512163EA73E080E695E0DF91CF91C9
:104890000C94F620CF93DF93EC018E819F810196DB
:1048A0009F838E838F3F910529F024F00E94A417E7
:1048B0009F838E83E0917E02F0917F02EE0FFF1FB7
:1048C000EE0FFF1FE858FD4F258536854785508937
:1048D000220F331F441F551FAE81BF810E94D44356
:1048E000613074438B459D4920F00E94A4179F833B
:1048F0008E83CE010E946A1962EB73E080E695E038
:104900000E94F6204E815F81052E000C660B770B0E
:1049100080E695E00E94512163EA73E080E695E02D
:10492000DF91CF910C94F6200F931F93CF93DF93D9
:10493000EC0188819981009759F02A813B812617E3
:10494000370730F081E0DF91CF911F910F910895EB
:104950008B016F5F7F4F0E948D49009759F09983BB
:1049600088831B830A832C813D81232B59F7FC010B
:104970001082E8CF80E0E7CFEF92FF920F931F9372
:10498000CF93DF936115710541F480E0DF91CF9102
:104990001F910F91FF90EF90089541155105B1F0CF
:1049A0007B01EC010C811D81040F151FB8010E94D1
:1049B0009424882351F3288139818C819D81B7010A
:1049C000820F931F0E94834A1D830C8381E0DECFF8
:1049D000CF93DF93EC01FB0101900020E9F73197C1
:1049E000AF01461B570B0E94BC24811103C0CE01AE
:1049F0000E947F20CE01DF91CF910895CF93DF9366
:104A0000EC01FB0144815581608171810E94BC24CD
:104A1000811103C0CE010E947F20CE01DF91CF9192
:104A20000895EF92FF920F931F93CF93DF93EC01C2
:104A30007B018A01BA010E94942481110BC0CE012E
:104A40000E947F20CE01DF91CF911F910F91FF90A7
:104A5000EF9008951D830C83B701888199810E948E
:104A6000834AF0CFFB0101900020E9F73197AF01B5
:104A7000461B570B0C9411250F931F93CF93DF9375
:104A8000CDB7DEB762970FB6F894DEBF0FBECDBFCD
:104A90008C01CB01F80111821082138212821582DF
:104AA00014824AE0BE016F5F7F4F0E94943FBE01B7
:104AB0006F5F7F4FC8010E94322562960FB6F8944F
:104AC000DEBF0FBECDBFDF91CF911F910F91089533
:104AD000CF93DF93EC01FB018617970749F06081C4
:104AE00071816115710541F0448155810E94112544
:104AF000CE01DF91CF9108950E947F20F9CFFC0174
:104B00001182108213821282158214820C946825FD
:104B1000FC01118210821382128215821482FB0121
:104B200001900020E9F73197AF01461B570B0C9419
:104B300011254F925F926F927F928F929F92AF92C8
:104B4000BF92CF92DF92EF92FF920F931F93CF937A
:104B5000DF9300D000D0CDB7DEB75C018B010E949F
:104B6000F00A6B017C01D8011E96CD92DD92ED9288
:104B7000FC92519719968D919D910D90BC91A02D0D
:104B800026013701481A590A6A0A7B0AF801878107
:104B90009085AC01440F551F480F591F70E060E02D
:104BA000441555056605770508F41586B0E0A0E0C4
:104BB00084159505A605B70508F070C0D8011996AB
:104BC000CD92DD92ED92FC921C971D968C911D97D3
:104BD0008F5F1D968C931D9752969C9152979817B4
:104BE00010F41D961C92F801E584C680F12CCE0CC1
:104BF000DF2CD11CCE14DF0428F09C2D8D2D6701F5
:104C0000E92EF82E65EA73E0CE0101960E94882510
:104C1000D80114968D909C90C814D904F8F4E81427
:104C2000F90408F44701D801ED91FC911197E80DC2
:104C3000F91DF08010826D917C916C0D7D1DCE016F
:104C400001966115710509F447C00E943225F801EB
:104C500080819181880E991ED401FC92F80183898C
:104C600094890097F1F169817A8161157105B9F133
:104C7000458956892D813E814217530780F10E9454
:104C8000834A8D819E81D80158969C938E93579725
:104C90001E821D82CE0101960E949120B8016D5E98
:104CA0007F4FC5010E947F25C50126960FB6F89457
:104CB000DEBF0FBECDBFDF91CF911F910F91FF904F
:104CC000EF90DF90CF90BF90AF909F908F907F90AC
:104CD0006F905F904F9008950E947F20B8CF0E9400
:104CE000044989819A81F801948B838B8B819C8103
:104CF000968B858B8D819E81908F878B1A821982EE
:104D00001C821B82C5CF0F931F93CF93DF93CDB728
:104D1000DEB72C970FB6F894DEBF0FBECDBF8C0167
:104D2000433069F5CB010A978A35910538F4CE01F5
:104D300007960E943C2566EB73E009C06A30710556
:104D40000CF5CE0107960E943C2565EB73E0CE0181
:104D500001960E948825BE01695F7F4FCE010196B2
:104D60000E94FE24BC01C8010E947F25CE0101964D
:104D70000E949120CE0107960E94912006C06A30C1
:104D80007105ACF2C8010E943C25C8012C960FB6F3
:104D9000F894DEBF0FBECDBFDF91CF911F910F9171
:104DA000089585ED8093BC008091B1049091B20488
:104DB000A091B304B091B4040796A11DB11D23E0E6
:104DC000B695A795979587952A95D1F72091BC0020
:104DD00024FD03C01092FA0408954091B10450914B
:104DE000B2046091B3047091B404452B462B472B59
:104DF00069F30097A105B10541F02AE22A95F1F780
:104E000000C00197A109B109E1CF8091B0040C94D1
:104E10007C131F920F920FB60F9211242F933F9382
:104E20008F939F93AF93BF938091540590915505B5
:104E3000A0915605B09157053091530523E0230FFB
:104E40002D3758F50196A11DB11D20935305809370
:104E5000540590935505A0935605B093570580913E
:104E6000580590915905A0915A05B0915B0501969E
:104E7000A11DB11D8093580590935905A0935A0523
:104E8000B0935B05BF91AF919F918F913F912F910F
:104E90000F900FBE0F901F90189526E8230F0296D3
:104EA000A11DB11DD2CF1F920F920FB60F921124E8
:104EB0000BB60F922F933F934F935F936F937F9314
:104EC0008F939F93AF93BF93EF93FF93E091B302C0
:104ED000F091B4021995FF91EF91BF91AF919F911D
:104EE0008F917F916F915F914F913F912F910F9093
:104EF0000BBE0F900FBE0F901F9018951F920F9230
:104F00000FB60F9211240BB60F922F933F934F932E
:104F10005F936F937F938F939F93AF93BF93EF9321
:104F2000FF93E091B102F091B2021995FF91EF91D8
:104F3000BF91AF919F918F917F916F915F914F91B1
:104F40003F912F910F900BBE0F900FBE0F901F90AF
:104F500018951F920F920FB60F9211240BB60F9255
:104F60002F933F934F935F936F937F938F939F9371
:104F7000AF93BF93EF93FF93E091A702F091A80244
:104F80001995FF91EF91BF91AF919F918F917F9173
:104F90006F915F914F913F912F910F900BBE0F90AA
:104FA0000FBE0F901F9018951F920F920FB60F9281
:104FB00011240BB60F922F933F934F935F936F93F0
:104FC0007F938F939F93AF93BF93EF93FF93E09162
:104FD000A502F091A6021995FF91EF91BF91AF91B3
:104FE0009F918F917F916F915F914F913F912F9101
:104FF0000F900BBE0F900FBE0F901F9018951F9231
:105000000F920FB60F9211240BB60F922F933F936E
:105010004F935F936F937F938F939F93AF93BF93C0
:10502000EF93FF93E091AF02F091B0021995FF91D9
:10503000EF91BF91AF919F918F917F916F915F9110
:105040004F913F912F910F900BBE0F900FBE0F907D
:105050001F9018951F920F920FB60F9211240BB646
:105060000F922F933F934F935F936F937F938F9301
:105070009F93AF93BF93EF93FF93E091AD02F091B5
:10508000AE021995FF91EF91BF91AF919F918F91D2
:105090007F916F915F914F913F912F910F900BBE38
:1050A0000F900FBE0F901F9018951F920F920FB682
:1050B0000F9211240BB60F922F933F934F935F9350
:1050C0006F937F938F939F93AF93BF93EF93FF93D0
:1050D000E091AB02F091AC021995FF91EF91BF9175
:1050E000AF919F918F917F916F915F914F913F9180
:1050F0002F910F900BBE0F900FBE0F901F90189521
:105100001F920F920FB60F9211240BB60F922F938E
:105110003F934F935F936F937F938F939F93AF933F
:10512000BF93EF93FF93E091A902F091AA02199522
:10513000FF91EF91BF91AF919F918F917F916F916F
:105140005F914F913F912F910F900BBE0F900FBE2B
:105150000F901F9018951F920F920FB60F92112467
:105160000BB60F922F933F934F935F936F937F9361
:105170008F939F93AF93BF93EF93FF9380E695E058
:105180000E94AD0BFF91EF91BF91AF919F918F91D5
:105190007F916F915F914F913F912F910F900BBE37
:1051A0000F900FBE0F901F9018951F920F920FB681
:1051B0000F9211240BB60F922F938F939F93EF931F
:1051C000FF93E0917005F09171058081E091760583
:1051D000F091770582FD1DC09081809179058F5FE8
:1051E0008F7320917A05821741F0E0917905F0E004
:1051F000E05AFA4F958F80937905FF91EF919F9137
:105200008F912F910F900BBE0F900FBE0F901F909C
:1052100018958081F2CF1F920F920FB60F92112432
:105220000BB60F922F933F934F935F936F937F93A0
:105230008F939F93AF93BF93EF93FF938091B900A8
:10524000887F803609F44DC008F040C0883209F4E8
:10525000A9C028F5803109F49DC0C8F4882309F459
:10526000FBC0883009F496C0FF91EF91BF91AF91D8
:105270009F918F917F916F915F914F913F912F916E
:105280000F900BBE0F900FBE0F901F901895883196
:1052900009F488C0803241F78093F90414C0803447
:1052A00009F49DC040F48033B9F38833E9F6809364
:1052B000F90485ECB0C0803509F485C0883509F45F
:1052C00096C0883489F60E94D126CECF883909F459
:1052D0008CC038F5883729F050F4883611F08037C3
:1052E00019F683E08093FA041092F80457C08838C6
:1052F00009F47BC0803919F0803809F0B5CF80916E
:10530000F804803208F071C0E091F80481E08E0F5B
:105310008093F8048091BB00F0E0E852FB4F80835B
:105320003DC0803B39F0E0F4803A09F479C0883A16
:1053300009F09ACF84E08093FA041092D704109277
:10534000D604E0912305F091240519958091D604A7
:1053500081110FC081E08093D6041092B60409C079
:10536000803C09F4A6CF883C09F4A3CF883B09F020
:105370007BCFE091D70481E08E0F8093D704F0E0DB
:10538000EA54FB4F80818093BB009091D7048091B9
:10539000D60429C080911F058093BB0085EC8093C3
:1053A000BC0062CF90911E0580911D05981758F59D
:1053B000E0911E0581E08E0F80931E05F0E0E35022
:1053C000FB4F8081E9CFE0911E0581E08E0F809335
:1053D0001E058091BB00F0E0E350FB4F808390916D
:1053E0001E0580911D059817C8F285E8D8CFE09179
:1053F0001E0581E08E0F80931E058091BB00F0E0BA
:10540000E350FB4F80838091FC0481115CCF81E0ED
:105410008093FB0484EA8093BC001092FA0424CFAA
:1054200085EC8093BC001092FA048091F8048032DD
:1054300030F4E091F804F0E0E852FB4F1082609104
:10544000F80470E0E0912105F091220588ED94E0E8
:1054500019951092F80408CF1092F90434CFCF9226
:10546000DF92EF92FF920F931F93CF93DF93CDB70D
:10547000DEB72C970FB6F894DEBF0FBECDBF8C0100
:105480006B0165EA73E00E948825F8011186128697
:1054900013861486158616861786108A118A128A34
:1054A00065EA73E0C80143960E94882565EA73E0C7
:1054B000CE0107960E9488258AE0F8018683F12CA8
:1054C000E12CF8018681BE01695F7F4F8E151F04B4
:1054D000C1F0BCF0CE0101960E947F2562E474E029
:1054E000CE0101960E94E824BC01CE0107960E94DD
:1054F0006825CE0101960E949120FFEFEF1AFF0A66
:10550000E0CFCE0101960E947F25B601CE01019623
:105510000E94FE24BC01C8010E946825CE010196AC
:105520000E949120F8018481828B86E990E0908727
:105530008783CE0107960E9491202C960FB6F8948F
:10554000DEBF0FBECDBFDF91CF911F910F91FF90B6
:10555000EF90DF90CF900895EF92FF920F931F93FB
:10556000CF93DF93CDB7DEB7A1970FB6F894DEBF28
:105570000FBECDBF7C01CB01BA01F70111821082B1
:10558000138212821582148242E0420F8E010F5F55
:105590001F4F0E946D3F009789F0BC01C7010E9418
:1055A0003225A1960FB6F894DEBF0FBECDBFDF91B6
:1055B000CF911F910F91FF90EF900895C7010E9426
:1055C0007F20EFCFCF92DF92EF92FF92CF93DF93C6
:1055D000CDB7DEB762970FB6F894DEBF0FBECDBF72
:1055E000109263051092620528EEC22E23E0D22E9F
:1055F000E12CF12CC0926405D0926505E09266051D
:10560000F092670587E393E09093610580936005CE
:1056100085EC90E090936D0580936C0584EC90E0B0
:1056200090936F0580936E0580EC90E090937105E8
:105630008093700581EC90E09093730580937205E0
:1056400082EC90E0909375058093740586EC90E071
:1056500090937705809376051092790510927A05DC
:1056600010927B0510927C0510928406109283069E
:10567000C0928506D0928606E0928706F092880650
:1056800089E493E0909382068093810610929A07B2
:105690001092990710929C0710929B0710929E07F8
:1056A00010929D071092A00710929F071092A207D8
:1056B0001092A1071092A30781E993E090939807B5
:1056C000809397076BEB73E084EA97E00E9488254C
:1056D00068EB73E08AEA97E00E94882565EC73E046
:1056E00080EB97E00E948825109289071092880726
:1056F00010928B0710928A0710928D0710928C07D8
:1057000010928F0710928E071092910710929007B7
:105710001092920787E893E090938707809386071B
:105720001092930710929407109295071092960783
:105730008CE897E00E946F0986E897E00E946A195A
:1057400080E090E0A0E8BFE4809382079093830715
:10575000A0938407B093850786E08093D00681E10B
:105760008093D10680E18093D20687E08093D306B0
:1057700088E08093D40689E08093D5068FE28093F9
:10578000D60661E086E00E942C0A61E08091D10695
:105790000E942C0A61E08091D2060E942C0A61E0EE
:1057A0008091D3060E942C0A61E08091D4060E9469
:1057B0002C0A61E08091D5060E942C0A61E080915C
:1057C000D6060E942C0A61E08091D0060E94FE0954
:1057D00060E08091D1060E94FE0960E08091D206CF
:1057E0000E94FE0960E08091D3060E94FE0960E0FD
:1057F0008091D4060E94FE0960E08091D5060E9447
:10580000FE0960E08091D6060E94FE0980E89CE7D0
:10581000A1E8BAE48093CC069093CD06A093CE067F
:10582000B093CF061092900610928F0620E830E0D9
:10583000309392062093910680E490E09093940632
:10584000809393063093960620939506909398063E
:10585000809397061092A30610929A0610929906CA
:1058600010929C0610929B0681E08093A206809382
:10587000A1062FEF3FEF3093A00620939F063093B1
:105880009E0620939D068093A4061092A506109272
:10589000A7061092A6062BE533E030938E062093E0
:1058A0008D061092A9061092A80621E836E03093E2
:1058B000AB062093AA061092AD061092AC069FEF9D
:1058C0009093B1069093B2069093B3069093B4066A
:1058D0009093B50690E59093C2061092C30640E0FF
:1058E00055E36CE070E04093C4065093C5066093A6
:1058F000C6067093C7064093C8065093C9066093C6
:10590000CA067093CB0692E09093770610927806C1
:105910008093790680937A0610927C0610927B061B
:10592000109269061092680610926A0610927D061F
:1059300010927E0610927F061092800684E190E01D
:10594000A0E0B0E080936B0690936C06A0936D0688
:10595000B0936E068AEF90E0A0E0B0E080936F060F
:1059600090937006A0937106B0937206C09273066E
:10597000D0927406E0927506F092760660E082E0BE
:105980000E942C0A80917806811105C061E0809107
:1059900077060E94FE0983E080935E0610925F0600
:1059A00081E08093600680936106109263061092F6
:1059B00062061092500610924F06109251061092F5
:1059C000640610926506109266061092670684E1DE
:1059D00090E0A0E0B0E08093520690935306A0932D
:1059E0005406B09355068AEF90E0A0E0B0E08093B3
:1059F000560690935706A0935806B093590688EE22
:105A000093E0A0E0B0E080935A0690935B06A093E9
:105A10005C06B0935D0660E083E00E942C0A8091F2
:105A20005F06811105C061E080915E060E94FE095B
:105A300062E083E10E942C0A62E082E10E942C0A6B
:105A4000E0E4F2E1E491F0E0EE0FFF1FED5EFD4EC9
:105A5000A591B491B0933C06A0933B06E0EEF1E132
:105A6000649160933F06EFE3F2E1E491F0E0EE0F22
:105A7000FF1FED5EFD4E2591349130933E0620933D
:105A80003D06EFEDF1E1E491E0934006109242060D
:105A90001092430610924406109245064BE35FE1D4
:105AA000CA010197F1F79C91862F892391E009F4AF
:105AB00090E0D9018C91E82309F092602BE336E065
:105AC00090934106309306062093050683E599E1FD
:105AD0009093AE028093AD02809169008F7C8061CB
