:020000040000FA
:100000000C9483070C94A7240C947C240C94512406
:100010000C9426240C94FB230C94D0230C94A5233D
:100020000C947A230C94B4070C94B4070C94B40782
:100030000C94B4070C94B4070C94B4070C94B40754
:100040000C94B4070C94B4070C94B4070C94B40744
:100050000C94B4070C94B4070C94B4070C9430239C
:100060000C94B4070C94FA220C94D0220C94B4078C
:100070000C94B4070C94B4070C94B4070C94B40714
:100080000C94B4070C94B4070C94B4070C94B40704
:100090000C94B4070C94B4070C94B4070C94D224B9
:1000A0000C94B4070C94B4070C94B4070C94B407E4
:1000B0000C94B4070C94B4070C94B4070C94B407D4
:1000C0000C94B4070C94B4070C94B4070C94B407C4
:1000D0000C94B4070C94B4070C94B4070C94B407B4
:1000E0000C94B40707634236B79BD8A71A396856F1
:1000F00018AEBAAB558C1D3CB7CC5763BD6DEDFD4A
:10010000753EF6177231BF000000803F0800000006
:10011000BE922449123EABAAAA2ABECDCCCC4C3EFC
:1001200000000080BEABAAAAAA3E00000000BF00EB
:100130000000803F0000000000084178D3BB4387E7
:10014000D1133D190E3CC3BD4282AD2B3E68EC82FB
:1001500076BED98FE1A93E4C80EFFFBE01C4FF7F80
:100160003F00000000000C9497090C9494150C9427
:10017000220F0C94FA160C94DD070C94EA160C94DA
:1001800066090C9462180C944B3D0C949A140C94D0
:100190007F090C94DD1F0C9460180C9464180C9467
:1001A00080180C9413180C944A080C94F9180C94A9
:1001B00051140C94FB180C94A1090C94A4080C94F1
:1001C00089090C94A6180C9405080C943F0F0C9404
:1001D000E4160C94F1080C94ED170C94D1170C94C0
:1001E00060090C946C080C94F7110C945C350C9419
:1001F00037180C94E9180C94BE1C0C9466180C94D7
:10020000E0070C94A5090C9472090C949B090C94BA
:1002100024120C94DE070C9456180C94E1140C94E0
:10022000DF070C94A0090C9406100C946A090C9436
:10023000DD110C9475090C9493090C946E090C94BF
:10024000CE110C947B090C94F3180C94F0110C94BF
:10025000F5180C9412100C943D0B0C94F60F0C94A2
:10026000F0160C943B080C941E100C94AE1F0C94CA
:1002700019200C9486100C945E080C94F7180C94BA
:10028000CA180C9485090C94BF260C943F0B0C944F
:10029000AA0E0C94790D0C9468180C948D090C948A
:1002A0004B0E00407A10F35A00A0724E180900104D
:1002B000A5D4E80000E87648170000E40B540200DB
:1002C00000CA9A3B000000E1F50500008096980006
:1002D000000040420F000000A0860100000010272F
:1002E00000000000E80300000000640000000000BF
:1002F0000A00000000000100000000002C76D888F1
:10030000DC674F0823DFC1DFAE59E1B1B796E5E303
:10031000E453C63AE651997696E8E6C28426EB891C
:100320008C9B62ED407C6FFCEFBC9C9F40F2BAA5B9
:100330006FA5F490055A2AF75C936B6CF9676DC151
:100340001BFCE0E40D47FEF520E6B500D0ED902E55
:100350000300943577050080841E080000204E0AB3
:10036000000000C80C333333330F986E12831141F1
:10037000EF8D2114893BE65516CFFEE6DB18D184BC
:100380004B381BF77C1D901DA4BBE42420328472E3
:100390005E228100C9F124ECA1E53D27000103079D
:1003A0000F1F3F7F0080C0E0F0F8FCFE000000005F
:1003B000003E5B4F5B3E3E6B4F6B3E1C3E7C3E1CEB
:1003C000183C7E3C181C577D571C1C5E7F5E1C0031
:1003D000183C1800FFE7C3E7FF0018241800FFE7E8
:1003E000DBE7FF30483A060E2629792926407F05AB
:1003F0000507407F05253F5A3CE73C5A7F3E1C1CC1
:1004000008081C1C3E7F14227F22145F5F005F5F80
:1004100006097F017F006689956A6060606060946C
:10042000A2FFA29408047E040810207E2010080871
:100430002A1C08081C2A08081E101010100C1E0C7C
:100440001E0C30383E3830060E3E0E06000000000E
:100450000000005F00000007000700147F147F14F5
:10046000242A7F2A1223130864623649562050003A
:1004700008070300001C2241000041221C002A1C26
:100480007F1C2A08083E0808008070300008080811
:100490000808000060600020100804023E51494531
:1004A0003E00427F400072494949462141494D334F
:1004B0001814127F1027454545393C4A49493141B6
:1004C000211109073649494936464949291E000084
:1004D00014000000403400000008142241141414D9
:1004E0001414004122140802015909063E415D59C5
:1004F0004E7C1211127C7F494949363E41414122CE
:100500007F4141413E7F494949417F090909013EF7
:10051000414151737F0808087F00417F410020401E
:10052000413F017F081422417F404040407F021C30
:10053000027F7F0408107F3E4141413E7F09090947
:10054000063E4151215E7F09192946264949493213
:1005500003017F01033F4040403F1F2040201F3FD9
:100560004038403F6314081463030478040361595E
:10057000494D43007F4141410204081020004141A0
:10058000417F04020102044040404040000307084C
:100590000020545478407F28444438384444442848
:1005A000384444287F385454541800087E090218EF
:1005B000A4A49C787F0804047800447D4000204077
:1005C000403D007F1028440000417F40007C0478BB
:1005D00004787C080404783844444438FC18242403
:1005E0001818242418FC7C08040408485454542483
:1005F00004043F44243C4040207C1C2040201C3C00
:100600004030403C44281028444C9090907C4464F6
:10061000544C440008364100000077000000413689
:10062000080002010204023C2623263C1EA1A1610F
:10063000123A4040207A3854545559215555794141
:100640002254547842215554784020545579400C16
:100650001E527212395555555939545454593955F9
:100660005454580000457C410002457D420001453C
:100670007C407D1211127DF0282528F07C545545D0
:10068000002054547C547C0A097F4932494949323C
:100690003A4444443A324A4848303A4141217A3A4D
:1006A00042402078009DA0A07D3D4242423D3D4019
:1006B00040403D3C24FF2424487E4943662B2FFCC8
:1006C0002F2BFF0929F620C0887E09032054547976
:1006D000410000447D413048484A32384040227A47
:1006E000007A0A0A727D0D19317D2629292F2826C4
:1006F0002929292630484D402038080808080808CC
:100700000808382F10C8ACBA2F102834FA00007B24
:10071000000008142A142222142A14085500550037
:1007200055AA55AA55AAFF55FF55FF000000FF0026
:10073000101010FF00141414FF001010FF00FF1021
:1007400010F010F0141414FC001414F700FF000053
:10075000FF00FF1414F404FC141417101F10101FD2
:10076000101F1414141F00101010F0000000001FC0
:10077000101010101F10101010F010000000FF10CB
:100780001010101010101010FF10000000FF1400C7
:1007900000FF00FF00001F10170000FC04F41414F9
:1007A0001710171414F404F40000FF00F7141414C5
:1007B00014141414F700F7141414171410101F1045
:1007C0001F141414F4141010F010F000001F101F68
:1007D0000000001F14000000FC140000F010F010D6
:1007E00010FF10FF141414FF141010101F0000004D
:1007F00000F010FFFFFFFFFFF0F0F0F0F0FFFFFF51
:100800000000000000FFFF0F0F0F0F0F38444438A7
:1008100044FC4A4A4A347E02020606027E027E02F6
:1008200063554941633844443C04407E201E200601
:10083000027E020299A5E7A5991C2A492A1C4C723E
:1008400001724C304A4D4D303048784830BC625AC5
:10085000463D3E494949007E0101017E2A2A2A2A55
:100860002A44445F444440514A444040444A514031
:100870000000FF0103E080FF000008086B6B0836F2
:1008800012362436060F090F060000181800000063
:100890001010003040FF0101001F01011E00191D52
:1008A0001712003C3C3C3C0000000000000021000E
:1008B000240027002A002D00300033000101000031
:1008C000040107010A01DB40A4A62EAFDA0281DA97
:1008D0001281DA02818F2000A1C8D300408DAED5ED
:1008E00080A800002200250028002B002E003100E7
:1008F000340002010000050108010B010000600046
:1009000000000000000000000000000000E0000007
:10091000000000000000000000000001E0000000F6
:100920000000000000000000000001F000000000D6
:1009300000000000000000000003F00000000000C4
:10094000000000000000000007F0000000000000B0
:100950000000000000000007F80000000000000098
:100960000000000000000FF800000003C0007E003F
:100970000001E0007F0FF800000003C000FE00004F
:1009800001E000FFEFF800000003C000FE000001DE
:10099000E000FFFFF800000003C000F00000000FBF
:1009A000007FFE7FC0000003C000F00000000F00C9
:1009B0003FFE7FF83FF1FBCFFCFEF3BC3DEFE01FB5
:1009C000FE7FFF7FFBFFDFFEFEFFBC3DEFE01FC6AB
:1009D000FFFF7FFBFFDFFEFEFFBC3DEFE00FE3C745
:1009E000FE787BC3DE1EF0FFBC3DEF0007FF87FCF7
:1009F000787BC3DE1EF0F83C3DEF0001FFFFF00006
:100A00007BC3C01EF0F03C3DEF0001F37FE03FFBF5
:100A1000C3CFFEF0F03C3DEF0003E33F807FFBC31C
:100A2000DFFEF0F03C3DEF0007E73C00787BC3DEE3
:100A30001EF0F03C3DEF0007FFBE00787BC3DE1EDA
:100A4000F0F03C3DEF0007FFFE00787BC3DE1EF0B8
:100A5000F03C3DEF000FFFFE007FFBFFDFFEF0F0FC
:100A60003FFDEFE00FFFFF007FFBFFDFFEF0F03FF9
:100A7000FDEFE00FF9FF003E79F9CF9EF0F01F3D4A
:100A8000E7E01FF1FF000000000000000000000090
:100A9000001F80FF007FFFFFFFFFFFFFFFFFFFE062
:100AA0001C007F007FFFFFFFFEB46D888D18E00003
:100AB000001F007FFFFFFFFE95AD7DB577E00000D2
:100AC0000F007FFFFFFFFEA5AD9D8D19E000000622
:100AD000007FFFFFFFFEB5ADEDB57EE0000000003A
:100AE0000001800000000000000000000380000002
:100AF0000000000000000007C0000000000000002F
:100B0000000007C00000000000000000000FC0004F
:100B100000000000000000001FE0000000000000D6
:100B20000000001FE00000000000000000003FE0A7
:100B30000000000000000000003FF0000000000086
:100B4000000000007FF0000000000000001FF87FA0
:100B5000F0000000000000003FFE7FF000000000F9
:100B60000000003FFF7FF0000000000000001FFFBA
:100B7000FBE0000000000000000FFFF9FFC00000D4
:100B8000000000000FFFF9FFF80000000000000760
:100B9000FFF1FFFF00000000000003FC73FFFF8077
:100BA000000000000001FE3FFFFF80000000000089
:100BB00000FF1E0FFF000000000000007FFE1FFC72
:100BC000000000000000003FFFFFF80000000000F0
:100BD00000000FDFFFE0000000000000001F19FF11
:100BE000C0000000000000003F3CFF0000000000CB
:100BF0000000007E7CF800000000000000007FFE86
:100C00007C0000000000000000FFFFFC000000006E
:100C100000000000FFFFFE0000000000000000FFD9
:100C2000FFFE0000000000000001FFEFFE000000DA
:100C30000000000001FFCFFE0000000000000003E4
:100C4000FF07FE0000000000000003FC07FE00009C
:100C5000000000000003F003FE00000000000000A0
:100C6000018000FE000000000000000000007E0087
:100C70000000000000000000003E00000000000036
:100C8000000000000C000000000000078000FC00D5
:100C90000003C0000000078001FC000003C000004A
:100CA00000078001FC000003C0000000078001E095
:100CB0000000001E000000078001E00000001E0090
:100CC0007FE3F79FF9FDE7787BDFC0FFF7FFBFFD0C
:100CD000FDFF787BDFC0FFF7FFBFFDFDFF787BDF07
:100CE000C0F0F787BC3DE1FF787BDE00F0F787BC02
:100CF0003DE1F0787BDE0000F787803DE1E0787B26
:100D0000DE007FF7879FFDE1E0787BDE00FFF7875D
:100D1000BFFDE1E0787BDE00F0F787BC3DE1E078E5
:100D20007BDE00F0F787BC3DE1E0787BDE00F0F78A
:100D300087BC3DE1E0787BDE00FFF7FFBFFDE1E02F
:100D40007FFBDFC0FFF7FFBFFDE1E07FFBDFC07C83
:100D5000F3F39F3DE1E03E7BCFC0000000000000C8
:100D60000000000000FFFFFFFFFFFFFFFFFFFFC0CD
:100D7000FFFFFFFFFD68DB111A31C0FFFFFFFFFD22
:100D80002B5AFB6AEFC0FFFFFFFFFD4B5B3B1A33A3
:100D9000C0FFFFFFFFFD6B5BDB6AFDC04669726D44
:100DA0007761726520762E3A0044445320414439DD
:100DB0003931302041726475696E6F2053686965FE
:100DC0006C642062792047524120262041464348E6
:100DD0002E20286772612D616663682E636F6D290E
:100DE00000475241264146434800416D706C69748A
:100DF0007564653A004672657175656E63792C207D
:100E00005B487A5D3A0044445320414439393134D7
:100E10000000000A0B02090C0D0E08070304010074
:100E200000000000000000000000000000000000C2
:100E3000000000000000000000000000001211107F
:100E400000000000000000000000000000000000A2
:100E5000000000000000002200FF2100010210201D
:100E600020080810204010204080020102010804E0
:100E70000201010204081020408080402010080474
:100E800002018004020180402010080402010804CD
:100E90000201010204081020408001020408102011
:100EA0004080000020002300260029002C002F0095
:100EB00032000001000003010601090105050505D6
:100EC000070508080808020202020A0A08080404C2
:100ED00004040101010101010101030303030303F0
:100EE0000303040707070C0C0C0C0C0C0C0C02027F
:100EF000020206060606060606060B0B0B0B0B0B7C
:100F00000B0BBF265C3511241FBECFEFD1E2DEBF35
:100F1000CDBF00E00CBF27E0AAE4B4E001C01D9201
:100F2000AD35B207E1F714E0A0E0B2E0E2EAF0E8A4
:100F300000E00BBF02C007900D92AA34B107D9F7A9
:100F400017E0C2E8D7E000E006C021970109802F32
:100F5000FE010E94CE3CC138D10780E00807A9F706
:100F60000E949B290C943F400C940000CF93DF9388
:100F7000EC01E0917C02F0917D02EE0FFF1FEE0F7D
:100F8000FF1FEA58FD4F258536854785508960E863
:100F90007CE781E89AE40E94AC3C2F3F310519F0D0
:100FA00010F02FEF30E02A30310510F42AE030E065
:100FB00039832883DF91CF91089508950895089586
:100FC0000895EF92FF920F931F93CF93DF938C01BD
:100FD0007B01D0E0C0E0F701EC0FFD1F64916623B8
:100FE00061F0D801ED91FC910190F081E02DC801F4
:100FF0001995892B11F02196EECFCE01DF91CF917B
:101000001F910F91FF90EF900895AF92BF92CF92F2
:10101000DF92EF92FF920F931F93CF93DF936C01B8
:101020007B018B01040F151FEB015E01AE18BF0899
:10103000C017D10759F06991D601ED91FC9101904B
:10104000F081E02DC6011995892B79F7C501DF9153
:10105000CF911F910F91FF90EF90DF90CF90BF90B5
:10106000AF900895FC01448155816081718186E3D0
:1010700096E00C940508FC01538D448D252F30E03B
:10108000842F90E0821B930B541710F0CF96089595
:1010900001970895FC01918D828D981761F0A28DC2
:1010A000AE0FBF2FB11D5D968C91928D9F5F9F7388
:1010B000928F90E008958FEF9FEF0895FC01918D3E
:1010C000828D981731F0828DE80FF11D858D90E0AB
:1010D00008958FEF9FEF0895FC01918D228D892F48
:1010E00090E0805C9F4F821B91098F739927089530
:1010F00082E295E00E946C0821E0892B09F420E04F
:10110000822F0895FC01A48DA80FB92FB11DA35AF9
:10111000BF4F2C91848D90E001968F739927848F17
:10112000A689B7892C93A089B1898C91837080643A
:101130008C93938D848D981306C00288F389E02DDB
:1011400080818F7D80830895EF92FF920F931F938C
:10115000CF93DF93EC0181E0888F9B8D8C8D98136A
:101160001AC0E889F989808185FF15C09FB7F89476
:10117000EE89FF896083E889F989808183708064C2
:1011800080839FBF81E090E0DF91CF911F910F910D
:10119000FF90EF900895F62E0B8D10E00F5F1F4F1C
:1011A0000F731127E02E8C8D8E110CC00FB607FC2B
:1011B000FACFE889F989808185FFF5CFCE010E94B9
:1011C0008208F1CFEB8DEC0FFD2FF11DE35AFF4F9D
:1011D000F0829FB7F8940B8FEA89FB898081806247
:1011E000CFCFCF93DF93EC01888D8823B9F0AA8904
:1011F000BB89E889F9898C9185FD03C0808186FDD2
:101200000DC00FB607FCF7CF8C9185FFF2CF808120
:1012100085FFEDCFCE010E948208E9CFDF91CF910B
:10122000089580E090E0892B29F00E9478088111D0
:101230000E94000080E090E0892B49F080E090E07F
:10124000892B29F00E94000081110E94000080E09B
:1012500090E0892B49F080E090E0892B29F00E94F2
:10126000000081110E94000080E090E0892B49F08D
:1012700080E090E0892B29F00E94000081110C94FD
:10128000000008958150823108F05AC0E82FF0E044
:101290008827E25BF64F8F4F0C94CE3C6E097209A3
:1012A000600966096A09A00975097B097F09850932
:1012B00089098D0993099709A0099B09A109A50925
:1012C000809180008F7780938000089580918000C6
:1012D0008F7DF9CF80918000877FF5CF84B58F77A0
:1012E00084BD089584B58F7DFBCF8091B0008F774A
:1012F0008093B00008958091B0008F7DF9CF8091E8
:1013000090008F77809390000895809190008F7D5A
:10131000F9CF80919000877FF5CF8091A0008F77E3
:101320008093A00008958091A0008F7DF9CF8091D7
:10133000A000877FF5CF809120018F7780932001D7
:101340000895809120018F7DF9CF80912001877FC2
:10135000F5CF1F93CF93DF93282F30E0F901EF5E95
:10136000F14F8491F901E45AF14FD491F901E45419
:10137000F14FC491CC23A9F0162F81110E9442098C
:10138000EC2FF0E0EE0FFF1FEE51F74FA591B49157
:101390008FB7F894EC91111108C0D095DE23DC933F
:1013A0008FBFDF91CF911F910895DE2BF8CFCF93A0
:1013B000DF9390E0FC01E45AF14F24918454914F63
:1013C000FC0184918823C9F090E0880F991FFC01EB
:1013D000E455F74FA591B491FC01EE51F74FC5913B
:1013E000D49161110DC09FB7F8948C912095822300
:1013F0008C938881282328839FBFDF91CF91089504
:10140000623051F49FB7F8943C91822F80958323EA
:101410008C93E8812E2BEFCF8FB7F894EC912E2B85
:101420002C938FBFEACF3FB7F89480910C05909131
:101430000D05A0910E05B0910F0526B5A89B05C01E
:101440002F3F19F00196A11DB11D3FBFBA2FA92F43
:10145000982F8827BC01CD01620F711D811D911D40
:1014600042E0660F771F881F991F4A95D1F70895AC
:101470008F929F92AF92BF92CF92DF92EF92FF92A4
:101480004B015C010E94130A6B017C010E94130A4C
:101490006C197D098E099F09683E7340810591058D
:1014A000A8F321E0821A9108A108B10888EEC80EBD
:1014B00083E0D81EE11CF11C81149104A104B10445
:1014C00029F7FF90EF90DF90CF90BF90AF909F9063
:1014D0008F900895CF93DF93C9E7D6E061E08A81CA
:1014E0000E94A90961E070E080E090E00E94380A63
:1014F00060E08A81DF91CF910C94A9092FB7F8940D
:10150000609108057091090580910A0590910B057D
:101510002FBF0895CF92DF92EF92FF92CF93DF9388
:101520000E947E0A6B017C012091200630E0F901C7
:10153000EF5EF14F8491F901E45AF14FD491F90132
:10154000E454F14FC491CC2309F477C081110E9477
:101550004209EC2FF0E0EE0FFF1FEE55F14FA59181
:10156000B491EC91DE2331E020E009F430E0832FE8
:10157000922F282F217020932206209121062111DD
:1015800005C021E082278170809322068091220687
:1015900090912306891741F0C0922606D092270623
:1015A000E0922806F09229064091260650912706DF
:1015B0006091280670912906C41AD50AE60AF70A2E
:1015C0004091140650911506609116067091170609
:1015D0004C155D056E057F0594F4909113068917EF
:1015E00071F080931306882371F0209124063091C6
:1015F00025062F5F3F4F30932506209324069091B8
:10160000130691111DC04091180650911906609162
:101610001A0670911B0620912406309125064C1560
:101620005D056E057F0504F180932306DF91CF9160
:10163000FF90EF90DF90CF90089590E080E099CFF9
:1016400040911C0650911D0660911E0670911F0668
:101650004C155D056E057F053CF720912406309101
:1016600025063195219531093093120620931106F4
:101670001092250610922406D7CF08950895FC01F4
:101680006370668B8481958126813781613039F062
:10169000633029F0918780873387228708953187C7
:1016A00020879387828708952F923F924F925F926F
:1016B0006F927F928F929F92AF92BF92CF92DF9262
:1016C000EF92FF920F931F93CF93DF93CDB7DEB7C7
:1016D0006A970FB6F894DEBF0FBECDBF9A8F898F81
:1016E0007A8369834A01D22E18870F833701BC2C75
:1016F000DC0159962D913C915A972115310509F03D
:1017000015C118968D919C911997681779070CF05F
:10171000D7C11A968D919C91481759070CF0D0C1EA
:101720004C2C512CB6E0CB9E600D711D11247C8792
:101730006B87161617060CF0C3C1EA2DF0E0FA8786
:10174000E98793E0EE0FFF1F9A95E1F7F88BEF879B
:10175000CF01840F951F181619060CF0B1C1A98D81
:10176000BA8D58968C91811104C0BFEABD1508F45A
:10177000D394A98DBA8DED91FC9111970284F385D4
:10178000E02DCD011995B5E0DB9EC0011124E98162
:10179000FA81FC83EB83312C212C9C0124553C4F96
:1017A000388F2F8B4A2D50E05E8B4D8BEF89F88D53
:1017B000E20DF31D44919E828D82D12CC12C698152
:1017C0007A81620D731D7A8B698B842F90E09C8BDC
:1017D0008B8BE98DFA8DA081B18140FF82C0F1E051
:1017E000BF126FC0AF126DC01C96ED91FC912F819E
:1017F0003885A4014C0D5D1D69897A89898D9A8D82
:101800001995EB89FC89F595E7954E2F5FEFC51A81
:10181000D50A6D817E818D899E89680F791F7E83AF
:101820006D8398E0C916D10481F6AFEF2A1A3A0AFF
:10183000EB81FC81E40DF51DFC83EB83F5E02F16B5
:10184000310409F0B3CF2F81388526153705B9F05B
:10185000A98DBA8DED91FC91B1E0BB1257C0AB12CE
:1018600055C069817A816B5F7F4F0088F189E02DD7
:10187000830128E030E0A401898D9A8D1995A98D06
:10188000BA8DED91FC9111970688F789E02DCD0175
:101890006A960FB6F894DEBF0FBECDBFDF91CF9131
:1018A0001F910F91FF90EF90DF90CF90BF90AF907E
:1018B0009F908F907F906F905F904F903F902F9070
:1018C00019941E96ED91FC91EF80F88409851A8594
:1018D00092014D815E816B817C81898D9A8D1995F4
:1018E00090CF2F8138852615370509F48ACF31E04E
:1018F000B31207C0A31205C01C96ED91FC91930191
:1019000078CF1E96ED91FC917301E0CF6B857C85BD
:10191000641975090684F785E02D73010F85188910
:101920009201A401898D9A8D1995A9CFF901349658
:101930009491329745915491D91AB7E0DB9E400DAE
:10194000511D1124F901259134913C8B2B8BFA0107
:1019500025903490FA013296749031963491398BF7
:10196000329664903196449041E04C1518F04A1537
:1019700008F07FC0662D062C000C770B7C836B83F0
:10198000842D042C000C990B9E838D83A98DBA8D18
:10199000ED91FC9111970284F385E02DCD0119950D
:1019A000512CD12CC12CEA2DF0E0FA87E9872B2DA0
:1019B00030E03C872B87A401440D511D47FC5A950C
:1019C000588F4F8B69817A81660D711D67FC7A95FE
:1019D0007E876D877989C71608F051CF2C2D30E0AE
:1019E0004D815E81420F531FA985BA854A9FC00170
:1019F0004B9F900D5A9F900D1124FC01E80DF91D8D
:101A0000F88BEF87852D612C4F89588D420F531F1E
:101A10005E8B4D8B671408F050C044244394480EED
:101A2000877041F4C1010196EB89FC89E20DF31D39
:101A3000D4901C01D7FE19C0A98DBA8DED91FC91EF
:101A4000662D70E0B1E0BB1219C0AB1217C02D8536
:101A50003E85620F731F0484F585E02D2F81388544
:101A60004D895E89898D9A8D1995DD0C6394842D3D
:101A7000D1CF1E821D821C821B8288CF4B815C814C
:101A8000640F751FAB85BC856A9FC0016B9F900D6D
:101A90007A9F900D112469817A81680F791F0684DD
:101AA000F785E02DEF80F88409851A859D014F8523
:101AB0005889898D9A8D1995D8CF570CC3948ACFA0
:101AC0006A960FB6F894DEBF0FBECDBFDF91CF91FF
:101AD0001F910F91FF90EF90DF90CF90BF90AF904C
:101AE0009F908F907F906F905F904F903F902F903E
:101AF00008958F929F92AF92CF92EF92FF920F93A1
:101B00001F93CF93DF93EC01262F898D9A8D009739
:101B100009F051C06A30D1F41D861C868D8948E0D9
:101B2000849F900111248E859F85820F931F9F872C
:101B30008E8781E090E0DF91CF911F910F91FF9010
:101B4000EF90CF90AF909F908F9008956D3089F374
:101B5000CC88AD888F898823C1F08C859D8536E03F
:101B6000C39E800D911D112448855985481759073A
:101B700064F44E855F851D861C8638E0A39EC001F7
:101B80001124840F951F9F878E87EA88FB88088918
:101B900019894E855F856C857D85CE010E94540B29
:101BA0002C898C859D8546E0249F800D911D1124F4
:101BB0009D878C87BECF6A3069F41D861C86FC0128
:101BC0003696E4912D898E859F85E29F800D911D2B
:101BD0001124ADCF6D3009F4ACCFFC0134963491B3
:101BE000631708F4A6CF3196E491E61708F4A1CF65
:101BF000FC01329685909490462F431B342F47E08A
:101C0000349F800C911C1124F4013296349131964A
:101C1000E4913323A9F1EE2399F1CC88F4013596B0
:101C2000E491AD884F89442301F10E2E000CFF0B87
:101C3000E30FF11DCE9EA001CF9E500D11246C85A7
:101C40007D85460F571F68857985641775076CF485
:101C50004E855F851D861C86FC013696E491AE9EFE
:101C6000400D511D11245F874E87EA88FB88088943
:101C700019894E855F856C857D85CE010E94540B48
:101C8000F4013496E4912C898C859D85E29F800D2A
:101C9000911D11248DCF6F927F928F929F92AF9260
:101CA000BF92CF92DF92EF92FF920F931F93CF9349
:101CB000DF93EC016B015A0139014801E881F98198
:101CC0000284F385E02D1995E881F9810288F38972
:101CD000E02D87019301A501B601CE011995A5015B
:101CE000480D591D41505109E881F9810288F38955
:101CF000E02D9301B601CE011995E881F9810088A4
:101D0000F189E02D9401A501B601CE011995C60C0B
:101D1000D71CB60161507109E881F9810088F18909
:101D2000E02D9401A501CE011995E881F98106887D
:101D3000F789E02DCE01DF91CF911F910F91FF9098
:101D4000EF90DF90CF90BF90AF909F908F907F905B
:101D50006F9019946F927F928F929F92AF92BF92E1
:101D6000CF92DF92EF92FF920F931F93CF93DF9367
:101D70005C01EB016A01490138018701DC01ED9149
:101D8000FC916217730719F5641675062CF0962DF1
:101D9000872D3A01C92ED82E9601261937092F5FB3
:101DA0003F4F048CF58DE02DA301BE01C5011995AF
:101DB000DF91CF911F910F91FF90EF90DF90CF9027
:101DC000BF90AF909F908F907F906F900895461531
:101DD000570591F42617370724F0892D4B01C22FA0
:101DE000D82F9E01281939092F5F3F4F068CF78D98
:101DF000E02DA601B401DACF0284F385E02D199518
:101E0000D501ED91FC910488F589E02D83019401C1
:101E1000A601BE01C5011995D501ED91FC91068879
:101E2000F789E02DC501DF91CF911F910F91FF90B0
:101E3000EF90DF90CF90BF90AF909F908F907F906A
:101E40006F901994EF92FF920F931F93DC011A96F3
:101E50000D911C911B9718962D913C911997ED911E
:101E6000FC9100A0F1A1E02D7B0150E040E070E08A
:101E700060E019951F910F91FF90EF9008954F9298
:101E80005F926F927F928F929F92AF92BF92CF920A
:101E9000DF92EF92FF920F931F93CF93DF936C012A
:101EA0002B015A0139014801DC01ED91FC910284BA
:101EB000F385E02D1995E201640C751CD601ED91B6
:101EC000FC91C615D7055CF40088F189E02D8701E7
:101ED0009401A501BE01C60119952196EFCF068890
:101EE000F789E02DC601DF91CF911F910F91FF90EF
:101EF000EF90DF90CF90BF90AF909F908F907F90AA
:101F00006F905F904F9019948F929F92AF92BF9273
:101F1000CF92DF92EF92FF920F931F93CF93DF93B5
:101F2000EC015B014A016901E881F9810284F385D2
:101F3000E02D199595012C0D3D1D21503109E881A9
:101F4000F9810488F589E02D78018401A401B501A7
:101F5000CE011995E881F9810688F789E02DCE0137
:101F6000DF91CF911F910F91FF90EF90DF90CF9075
:101F7000BF90AF909F908F9019948F929F92AF9245
:101F8000BF92CF92DF92EF92FF920F931F93CF9366
:101F9000DF93EC015B014A0169017801E881F98175
:101FA0000284F385E02D1995C80CD91C86010150D7
:101FB0001109E881F9810488F589E02D9501A401D2
:101FC000B501CE011995E881F9810688F789E02DE0
:101FD000CE01DF91CF911F910F91FF90EF90DF9095
:101FE000CF90BF90AF909F908F901994EF92FF92F7
:101FF0000F931F93DC01ED91FC9100A0F1A1E02D66
:1020000019951F910F91FF90EF9008950F931F93D3
:10201000DC01ED91FC91068CF78DE02D19951F9157
:102020000F9108950F931F93DC01ED91FC91048CA7
:10203000F58DE02D19951F910F910895DC01ED911B
:10204000FC910084F185E02D19943F924F925F92AC
:102050006F927F928F929F92AF92BF92CF92DF92B8
:10206000EF92FF920F931F93CF93DF935C017B015D
:102070004A016901390187E0680E711C93E075948B
:1020800067949A95E1F72B01400E511E10E000E095
:10209000312CD0E0C0E0CE0187709927330C892B1A
:1020A00059F4FE0183E0F595E7958A95E1F7E00F95
:1020B000F11FE80DF91D349037FE0AC021E030E031
:1020C000A701B5016C0F7D1F86E396E00E941E10EC
:1020D0002196CC16DD06F9F68FEFE81AF80A060D00
:1020E000171DE414F504A9F6DF91CF911F910F910C
:1020F000FF90EF90DF90CF90BF90AF909F908F9028
:102100007F906F905F904F903F9008952F923F92F5
:102110004F925F926F927F928F929F92AF92BF92F7
:10212000CF92DF92EF92FF920F931F93CF93DF93A3
:1021300000D000D0CDB7DEB73C016A013E832D83CD
:10214000FC82EB825801A41AB50AB7FE03C0B19411
:10215000A194B1088D809E80861A970A97FE03C0CD
:102160009194819491088A149B045CF0902F812FA4
:102170000D811E819D838E839C2D8D2D6B01692F7A
:10218000782F0C151D055CF09D818E817E836D83FB
:10219000692F782F902F812F8601C92ED82E1601F6
:1021A000201A310A2B012D813E81421A530A57FE13
:1021B00003C0519441945108710137FE03C03FEFB1
:1021C000E31AF30AF594E7948D819E8186179707A9
:1021D0005CF5A1E0B0E0BA83A983C016D1064CF14A
:1021E000D301ED91FC910484F585E02D2B813C8198
:1021F000A8016D817E818A149B041CF04D815E8153
:10220000B801C3011995E418F508F7FE0AC02D813D
:102210003E8189819A81280F391F3E832D83E20CEC
:10222000F31C0F5F1F4FD9CF2FEF3FEF3A83298366
:10223000D4CF26960FB6F894DEBF0FBECDBFDF9188
:10224000CF911F910F91FF90EF90DF90CF90BF90B3
:10225000AF909F908F907F906F905F904F903F9046
:102260002F900895CF93CFB7F894809106058111F0
:1022700027C0E1EFFEE08491E1E9FEE09491E82FD0
:10228000F0E0EE0FFF1FE455F74FA591B491EC91EC
:10229000E92321F461E085E30E94A90961E085E377
:1022A0000E94D7098CB580618CBD8CB580648CBDD3
:1022B00061E084E30E94D70961E083E30E94D709CB
:1022C000809106058F5F80930605CFBFCF9108955B
:1022D0002091BC04260F3327331F21323105ECF443
:1022E0002091E004FC0190E080E0243069F082E07D
:1022F0000895A091BC042191AC0144565B4FA40FFA
:10230000B52FB11D2C930196861798F38091BC04CC
:10231000680F6093BC0480E0089581E008951092F6
:10232000E00481E08093E2041092E10461E084E142
:102330000E94A90961E085E10E94A909E9EBF0E0AA
:1023400080818E7F808380818D7F808388E48093ED
:10235000B80085E48093BC000895CF93DF9391E0AB
:1023600090939B048823B9F0C091B800D091BA0033
:102370008091BC008A7B8093BC0060E084E10E9475
:10238000A90960E085E10E94A9090E948F11D093FC
:10239000BA00C093B800DF91CF910895E091150580
:1023A00080911405E81730F4F0E0EA58FB4F808183
:1023B00090E008958FEF9FEF08959091150580911B
:1023C00014052FEF3FEF981748F4E92FF0E0EA5893
:1023D000FB4F208130E09F5F90931505C901089560
:1023E0008091140590911505891B990B0895CF9242
:1023F000DF92EF92FF920F931F93CF93DF937C01B5
:10240000CB018A0120912105222389F0EB016B0188
:10241000C40ED51ECC15DD0569F06991D701ED918B
:10242000FC910190F081E02DC7011995F3CF642F45
:102430000E946811C801DF91CF911F910F91FF9009
:10244000EF90DF90CF900895CF93DF931F92CDB799
:10245000DEB76983209121052223F9F020911E0522
:10246000203258F021E030E0FC013383228390E0F9
:1024700080E00F90DF91CF91089580911F05E82FA4
:10248000F0E0EA5AFB4F998190838F5F80931F059C
:1024900080931E0581E090E0ECCF61E0CE010196D3
:1024A0000E946811F7CFCF92DF92EF92FF920F93C5
:1024B0001F93CF93DF93D0911E0581E0D13208F0B6
:1024C0009CC0C09120050E94130A6B017C01809181
:1024D000E00481116CC082E08093E00481E080938D
:1024E000E2048FEF8093DF0410920405D09303057C
:1024F000A6E5B4E0E3EEF4E080E0D8138DC01092DE
:10250000050580910505CC0FC82BC093050580916A
:10251000E104813009F084C01092E1040E94130AA2
:102520006B017C01809105058093BB00809197042D
:1025300090919804A0919904B0919A04892B8A2BC8
:102540008B2BA1F00E94130A00919704109198041C
:102550002091990430919A046C197D098E099F0984
:10256000061717072807390708F442C08091BC00F6
:1025700083FDD8CF85EC8093BC000E94130A6B01C9
:102580007C018091E004823009F44CC08091DF042A
:102590008F3F09F469C08091DF04803209F466C07E
:1025A0008091DF04803309F463C084E026C0809109
:1025B000970490919804A0919904B0919A04892B62
:1025C0008A2B8B2B09F483CF0E94130A0091970466
:1025D000109198042091990430919A046C197D0906
:1025E0008E099F09061717072807390708F06FCFCC
:1025F000809196040E94AD1185E010921F05109203
:102600001E0510922105DF91CF911F910F91FF9030
:10261000EF90DF90CF9008959D9191938F5F6DCF54
:1026200085EEA9CF8091970490919804A091990488
:10263000B0919A04892B8A2B8B2B09F4A2CF0E948C
:10264000130A0091970410919804209199043091F5
:102650009A046C197D098E099F0906171707280728
:10266000390708F08ECFC4CF80E0C7CF82E0C5CF56
:1026700083E0C3CFEF92FF920F931F93CF93DF932B
:10268000EC01EC80FD806E157F050CF070C057FFEB
:1026900004C0240F351F50E040E08E819F81FA0175
:1026A000E20FF31F8E179F071CF49C01241B350BB0
:1026B000121613060CF05BC0922F842F8695869518
:1026C00086958E9DD0018F9DB00D11246A0F7B1FC2
:1026D000AF8DB8A1A60FB71F477049F188E0841BE2
:1026E000482F682F70E0FB01EC55FC4FE491281750
:1026F00008F063C0621B71092FEF30E002C035950E
:1027000027956A95E2F7E2230130110539F0B0F11F
:102710000230110561F58C91E82702C08C91E82BFD
:10272000EC93941720F12C813D81A20FB31FE92F68
:10273000E41BE83078F00230110521F58E2F9C91D2
:1027400090959C932C813D81A20FB31F88508830B7
:10275000B0F7E770EE2359F0F0E0E456FC4FE49157
:1027600001301105F9F010F10230110519F1DF9176
:10277000CF911F910F91FF90EF900895E0958C916C
:10278000E823CECF81E00115110509F480E08195A1
:102790009E2F8C932C813D81A20FB31F98509830AF
:1027A000C0F7D7CF8C91E82BEC93E1CFE0958C91DB
:1027B000E823FACF8C91E827F7CF0130110509F40F
:1027C000ADCFE0F20230110509F4A5CFAE0DBF1D6B
:1027D000AECF0F931F93CF93DF9377FF04C0260FE5
:1027E000371F70E060E0DC011496CD91DC91FB01B5
:1027F000E20FF31FCE17DF071CF49E01261B370BD9
:10280000121613064CF5FA0157FD3796A3E0F5951D
:10281000E795AA95E1F7EC9FD001ED9FB00DFC9FE5
:10282000B00D11246A0F7B1FDC015F96ED91FC91C6
:10283000E60FF71F4770552781E090E001C0880F31
:102840004A95EAF7482F0130110559F0A8F02E0FEC
:102850003F1F02301105E1F0DF91CF911F910F91E1
:1028600008952E0F3F1FE217F307B1F38191DF01A7
:102870001197842B8C93F7CF80952E0F3F1FE21773
:10288000F30751F39191DF01119798239C93F7CFB0
:10289000E217F30709F38191DF01119784278C93E5
:1028A000F7CF0F931F93FA01DC0156964C91569780
:1028B0004230E9F04330A1F1413061F514964D9179
:1028C0005C91DA01AE1BBF0BFD01E21BF30B77FD40
:1028D0000BC0DC0116964D915C916417750724F4CA
:1028E000AB01BF010E94E9131F910F910895149647
:1028F0004D915C91DA01A61BB70BBD0161507109C6
:10290000DC0116964D915C91DA01AE1BBF0BFD0107
:10291000E21BF30B77FDE8CFAF010E943A13E4CF3F
:1029200016964D915C91DA01A61BB70BBD01615063
:102930007109CDCF0F931F93FA01DC0156964C918C
:1029400056974230A9F0433091F1413019F5149671
:102950004D915C91DA01AE1BBF0BFD013197F7FD84
:1029600004C0AB01BF010E943A131F910F9108955B
:1029700014964D915C91DA01A61BB70BBD01DC01E9
:1029800016964D915C91DA01AE1BBF0BFD0131979C
:10299000621B730BF7FDE9CFDC0116964D915C913C
:1029A000E417F50714F7AF010E94E913DECF16967E
:1029B0004D915C91DA01A61BB70BBD01621B730B35
:1029C000CECFFC0177FD64C08085918568177907BB
:1029D0000CF05EC057FD5CC082859385481759078F
:1029E0000CF056C086898230B1F0833029F18130F5
:1029F00041F484819581841B950BAB01BC0161502E
:102A000071092130310509F108F443C02230310544
:102A100009F463C0089584819581DC01A61BB70B7E
:102A2000BD016150710986819781DC01A41BB50B42
:102A3000AD0141505109E5CF86819781861B970BE7
:102A4000BA01AC0141505109DCCFCA0157FD0796CC
:102A5000A3E095958795AA95E1F7A481B5818A9F12
:102A600090018B9F300D9A9F300D1124620F731FC0
:102A7000078CF0A1E02DE60FF71F4770552721E0E6
:102A800030E001C0220F4A95EAF78081822B8083D3
:102A90000895CA0157FD079633E0959587953A95B5
:102AA000E1F7A481B5818A9F90018B9F300D9A9F99
:102AB000300D1124620F731F078CF0A1E02DE60F7B
:102AC000F71F4770552781E090E001C0880F4A95B5
:102AD000EAF7809590818923DACFCA0157FD0796DE
:102AE00023E0959587952A95E1F7A481B5818A9F82
:102AF00090018B9F300D9A9F300D1124620F731F30
:102B0000078CF0A1E02DE60FF71F4770552721E055
:102B100030E001C0220F4A95EAF780818227B7CFC3
:102B200008958CBD9DBD089590E080E00895AF921A
:102B3000BF92CF92DF92EF92FF920F931F93CF93AA
:102B4000DF93E0917C02F0917D02EE0FFF1FEE0F0C
:102B5000FF1FEA58FD4F85859685A785B0895C01E2
:102B60006D01E12CF12C00E010E020E03AE94DEAA3
:102B70005EE460E070E080E090E00E943F3D0E94F3
:102B8000903A0E94613ACB016F3F710519F010F045
:102B90008FEF90E0DF91CF911F910F91FF90EF9019
:102BA000DF90CF90BF90AF900895AF92BF92CF9239
:102BB000DF92EF92FF920F931F93CF93DF93E091F9
:102BC0007C02F0917D02EE0FFF1FEE0FFF1FEA580F
:102BD000FD4F85859685A785B0895C016D01E12C47
:102BE000F12C00E010E020E03CE846E857E460E02B
:102BF00070E080E090E00E943F3D0E94903A0E9489
:102C0000613ACB016A30710510F48AE090E0DF91FF
:102C1000CF911F910F91FF90EF90DF90CF90BF90D9
:102C2000AF9008950F931F93CF93DF93EC018091A2
:102C30004E0481110DC00E947E0A60934A04709375
:102C40004B0480934C0490934D0481E080934E0498
:102C50008881882371F10E947E0A00914A041091B4
:102C60004B0420914C0430914D04601B710B820B7E
:102C7000930B6E3471408105910580F0C091000284
:102C80000E947E0A60934A0470934B0480934C0424
:102C900090934D04C13049F41092000280910002DB
:102CA000DF91CF911F910F91089581E080930002F1
:102CB000F5CF81E0F5CFCF92DF92EF92FF92A09116
:102CC0004802B091490220E03AEC4AE95BE30E94F5
:102CD000DD3C6B017C01A0913B02B0913C0220E401
:102CE00032E44FE050E00E94DD3CC60ED71EE81EE5
:102CF000F91E6091210270912202072E000C880BB0
:102D0000990BC60ED71EE81EF91EA0912E02B09197
:102D10002F0228EE33E00E94D63C6C0D7D1D8E1DE7
:102D20009F1DFF90EF90DF90CF900895FC018BECFA
:102D300097E00197F1F7A081B1812C91A281B38135
:102D40008C9195818923968193703481232309F096
:102D5000946081119860292F30E03595279535953D
:102D6000279526839D30A9F09E3091F481E090E074
:102D7000092E000CAA0BBB0B47815085618572851B
:102D8000840F951FA61FB71F87839087A187B287DF
:102D900008958FEF9FEFECCF8091BF059091C00514
:102DA0000C9496168091C1059091C2050C949616CC
:102DB0008091C3059091C4050C9496168091C50529
:102DC0009091C6050C9496168091C7059091C80500
:102DD0000C9496168091C9059091CA050C9496168C
:102DE00082E492E090931D0580931C0510921A05D1
:102DF00080E008950895CF93DF93EC01E0917C0289
:102E0000F0917D02EE0FFF1FEE0FFF1FEA58FD4FFE
:102E10002585368547855089220F331F441F551F4E
:102E2000AE81BF810E94DD3C6D877E878F87988B46
:102E3000DF91CF9108954F925F926F927F928F9220
:102E40009F92AF92BF92CF92DF92EF92FF920F9339
:102E50001F93CF93DF9300D01F92CDB7DEB7809141
:102E6000460790914707892BC9F580913C079091BF
:102E70003D07A0913E07B0913F0781509841AD407A
:102E8000BF488F3F9B41AE44BE4020F08FE297E0A9
:102E90000E94FB1680903C0790903D07A0903E0753
:102EA000B0903F07C12CD12C76019401A501B60149
:102EB000C7010F900F900F900F90DF91CF911F914E
:102EC0000F91FF90EF90DF90CF90BF90AF909F90C9
:102ED0008F907F906F905F904F9008953091700227
:102EE00020916F02932F990F990BA12C4AECB42ECD
:102EF0005AE9C52E6BE3D62EE12CF12C00E010E050
:102F0000492F592F692F792F892F0E94E53C5901AC
:102F10006A017B01F82FE92FA0916202B091630250
:102F200020E432E44FE050E00E94DD3C2B013C0104
:102F3000DC01CB01BB0F880B982FDC0189839A83BE
:102F4000AB83BC839501A601B7018F2F9E2F520141
:102F50006301E980FE2C0E2D1E2D0E94143E4901B6
:102F60005A016B017C0135564D4C5D416109710977
:102F700081099109211538424B465E4E6105710564
:102F80008105910509F008F490CF812C8AEC982EE8
:102F90009AE9A92E2BE3B22EC12CD12CE12CF12CD5
:102FA00084CFFC01948581E0892784870895FC0102
:102FB00077FF03C071956195710986819781861BA2
:102FC000970B97838683228533858217930724F492
:102FD00080859185978386830895CF93DF93EC0155
:102FE0000E94D7178E819F81853F21E0920778F05C
:102FF00080916F0290917002049731F483E090E029
:103000009093700280936F02DF91CF910895843F77
:103010009140D1F380916F0290917002892BA1F7BA
:1030200081E090E0EDCFCF93DF93EC010E94D717C2
:103030008E819F818430910581F48091620290910C
:103040006302853F914030F084EF91E090936302FA
:1030500080936202DF91CF910895892BD9F78091F7
:10306000620290916302843F914070F3F3CFCF935B
:10307000DF93EC0161E070E00E94D7178E819F81A1
:10308000892B69F486E792E09B838A838FE297E03D
:103090009093130280931202DF91CF91089589E6F5
:1030A00092E09B838A838CE592E0F2CF0E94D7174F
:1030B00085E397E00E94B6078FE297E00C94FB1639
:1030C0000C94D7170C94D7170C94D7170C94D717C8
:1030D0000C94D717FC0177FF03C0719561957109B6
:1030E00086819781680F791F7783668380859185B4
:1030F0008617970724F4828593859783868308959E
:10310000CF93DF93EC010E946A188E819F81853FE7
:1031100021E0920778F080916F02909170020497FD
:1031200031F483E090E09093700280936F02DF911E
:10313000CF910895843F9140D1F380916F02909197
:103140007002892BA1F781E090E0EDCFCF93DF9360
:10315000EC010E946A188E819F818430910581F470
:103160008091620290916302853F914030F084EF3C
:1031700091E09093630280936202DF91CF91089572
:10318000892BD9F78091620290916302843F91402C
:1031900070F3F3CFCF93DF93EC0161E070E00E9416
:1031A0006A188E819F81892B69F486E792E09B8360
:1031B0008A838FE297E09093130280931202DF914B
:1031C000CF91089589E692E09B838A838CE592E013
:1031D000F2CF0E946A1885E397E00E94B6078FE25B
:1031E00097E00C94FB160C946A180C946A180C94D3
:1031F0006A180C946A180C946A188EBD00000DB4FD
:1032000007FEFDCF8EB50895EF92FF920F931F93A7
:10321000CF93DF938C017B0160E0809179060E945F
:10322000A909F80180810E94FD18E701F8012181B8
:10323000CE018E199F092817190629F024F08991CB
:103240000E94FD18F3CF61E080917906DF91CF9164
:103250001F910F91FF90EF900C94A909CF92DF92EC
:10326000EF92FF92CF93DF9300D000D0CDB7DEB7BF
:103270006093800670938106809382069093830604
:103280000E942C3820912B0730912C0740912D075C
:1032900050912E070E948D386B017C016091C00611
:1032A0007091C1068091C2069091C3060E942C388D
:1032B0009B01AC01C701B6010E94E8396B017C019A
:1032C00020E030E0A9010E94E43A20E030E040E054
:1032D0005FE387FD2EC0C701B6010E947C390E94C2
:1032E0005A3A9B01AC016093A0063093A1068093EB
:1032F000A2065093A30659838A833B836C8384E0A0
:103300008E838BE08D83BE016F5F7F4FCE0105966C
:103310000E9404190E946A0A26960FB6F894DEBF2E
:103320000FBECDBFDF91CF91FF90EF90DF90CF9098
:103330000895C701B6010E947B39D1CFCF93DF93A7
:1033400000D000D0CDB7DEB781E0809329078D8310
:1033500084E08E83198280E88A831B821C82BE01EE
:103360006F5F7F4FCE0105960E9404190E946A0A82
:1033700026960FB6F894DEBF0FBECDBFDF91CF917A
:103380000895CF93DF9300D000D0CDB7DEB783E0B0
:103390008D8384E08E838091B9029091BA02A091CE
:1033A000BB02B091BC0289839A83AB83BC83BE010C
:1033B0006F5F7F4FCE0105960E9404190E946A0A32
:1033C0006AE070E080E090E00E94380A1982BE0155
:1033D0006F5F7F4FCE0105960E9404190E946A0A12
:1033E00026960FB6F894DEBF0FBECDBFDF91CF910A
:1033F0000895CF93DF9300D000D0CDB7DEB781E042
:1034000080932A071D8284E08E838091BD02909173
:10341000BE02A091BF02B091C00289839A83AB83A0
:10342000BC83BE016F5F7F4FCE0105960E940419D9
:103430000E946A0A0E94C1190E946A0A26960FB663
:10344000F894DEBF0FBECDBFDF91CF9108951F93DB
:10345000CF93DF9300D000D0CDB7DEB7142F6093A9
:10346000C4067093C5068093C6069093C706609302
:10347000C0067093C1068093C2069093C30661E0B4
:1034800080917A060E94A90961E070E080E090E0F6
:103490000E94380A60E080917A060E94A90964E6D9
:1034A00070E080E090E00E94380A109229071092A4
:1034B0002A07109228070E94F91982E08D8384E080
:1034C0008E8319821A821B821C821123A9F08A839F
:1034D0001B83BE016F5F7F4FCE0105960E940419CA
:1034E0000E94C11926960FB6F894DEBF0FBECDBF5D
:1034F000DF91CF911F910895BE016F5F7F4FCE0185
:1035000005960E940419EECFFF920F931F93CF935D
:10351000DF93F82ED92FC62F809153069091540631
:10352000009709F452C02091570631E030932105ED
:103530002093200510921F0510921E05DC01ED91CD
:10354000FC910190F081E02D60E019950F2D1D2F69
:10355000D1E0FF24F394C15080915306909154061A
:10356000CF3F61F1D032C8F00E94531280915306D0
:103570009091540620915706F09221052093200542
:1035800010921F0510921E05DC01ED91FC91019037
:10359000F081E02D60E01995D1E080915306909183
:1035A0005406F8016491DC01ED91FC910190F081E9
:1035B000E02D1995DF5F0F5F1F4FCDCFDF91CF91CA
:1035C0001F910F91FF900C945312E0916306F091BC
:1035D00064069081809169068095892380830F2DF0
:1035E0001D2FC15008F438C0F80184912091510674
:1035F00030915206232B29F00E94FD180F5F1F4FB8
:10360000F0CF28E030E040E8E0915F06F0916006FE
:1036100090916706582F5423D9F05081952B9083B1
:10362000E0916106F0916206908150916806952BB9
:103630009083E0916106F091620650819091680656
:10364000909595239083469521503109E9F6D6CF80
:10365000508190959523E3CFDF91CF911F910F91EA
:10366000FF9008951F93CF93DF93EC018D8D9E8D76
:10367000009721F1162F29A131E0309321052093E5
:10368000200510921F0510921E05DC01ED91FC91A2
:103690000190F081E02D60E019958D8D9E8DDC010B
:1036A000ED91FC910190F081E02D612F19958D8DA8
:1036B0009E8DDF91CF911F910C945312ADA5BEA5A5
:1036C0009C918BA9809589238C938B8D9C8D892BC4
:1036D00031F0862FDF91CF911F910C94FD1828E0D7
:1036E00030E080E8A9A5BAA599A9462F4823C1F0E2
:1036F0004C91942B9C93ABA5BCA59C914AA9942B6F
:103700009C93ABA5BCA54C919AA9909594239C93AE
:1037100086952150310931F7DF91CF911F9108959E
:103720004C9190959423E6CFEF92FF920F931F93C5
:10373000CF93DF938091530690915406892B09F41F
:1037400093C020916D0630916E0640916F065091A6
:10375000700660E074E284EF90E00E94AC3C20517F
:103760003109410951095695479537952795209379
:10377000B80065E087E59EE00E94841A60913A06F1
:10378000615086E396E00E94321B20913C06309106
:103790003D06C901079697FD079623E09595879505
:1037A0002A95E1F720913A0630913B06829F8001ED
:1037B000839F100D929F100D1124C0915506D0913A
:1037C000560680915306909154060C0F1D1F0097CA
:1037D00009F489C02091570631E0309321052093E8
:1037E000200510921F0510921E05DC01ED91FC9141
:1037F0000190F081E02D60E41995FF24F394EE240C
:10380000E39480915306909154060C171D0709F418
:1038100042C0BFE1BF15D0F40E94531280915306FD
:103820009091540620915706E0922105209320059F
:1038300010921F0510921E05DC01ED91FC91019084
:10384000F081E02D60E41995FF24F39480915306F4
:10385000909154066991DC01ED91FC910190F08109
:10386000E02D1995F394CDCF809151069091520699
:10387000892B31F080916B0690916C060E94911516
:10388000E0916506F0916606908180916A068095C8
:10389000892380836ECF0E945312809153069091AA
:1038A0005406892B09F460C020917106309172068C
:1038B000409173065091740660E074E284EF90E0EA
:1038C0000E94AC3C20513109410951095695479558
:1038D000379527952093B800DF91CF911F910F91D5
:1038E000FF90EF900895E0916306F0916406808167
:1038F00090916906892B80830C171D0771F28991BD
:103900002091510630915206232B19F00E94FD1888
:10391000F3CF28E030E040E8E0915F06F0916006E8
:1039200090916706582F5423D9F05081952B90839E
:10393000E0916106F0916206908150916806952BA6
:103940009083E0916106F091620650819091680643
:10395000909595239083469521503109E9F6CCCF77
:10396000508190959523E3CFE0916506F09166062E
:10397000808190916A06892B8083AECF1F93CF936D
:10398000DF93EC01162F8D8D9E8D892BB1F12FA920
:1039900038AD49AD5AAD60E074E284EF90E00E942A
:1039A000AC3C20513109410951095695479537954D
:1039B00027952093B80066EA111167EACE010E94AC
:1039C000321B8D8D9E8D892B41F12BAD3CAD4DADC4
:1039D0005EAD60E074E284EF90E00E94AC3C205168
:1039E00031094109510956954795379527952093F7
:1039F000B800DF91CF911F9108958B8D9C8D892BFD
:103A000021F08DA99EA90E949115EFA5F8A990819A
:103A10008CA9809589238083CECFEFA5F8A98081DA
:103A20009CA9892B8083E5CFCF92DF92EF92FF9202
:103A3000CF93DF9300D000D0CDB7DEB720E030E0E9
:103A400040EA51E40E94E8399B01AC0160E070E07B
:103A500080E291E40E94E93A20E030E040E855E459
:103A60000E948D386B017C0120E030E0A9010E94AA
:103A7000E43A20E030E040E05FE387FD36C0C70174
:103A8000B6010E947C390E945A3A611520E1720702
:103A90008105910578F56093C8067093C9068093F7
:103AA000CA069093CB068091C8069091C90624E07F
:103AB0002E832CE02D831C821B8299838A83BE0176
:103AC0006F5F7F4FCE0105960E9404190E946A0A1B
:103AD00026960FB6F894DEBF0FBECDBFDF91CF9113
:103AE000FF90EF90DF90CF900895C701B6010E943C
:103AF0007B39C9CF8FEF9FE0A0E0B0E08093C8068C
:103B00009093C906A093CA06B093CB06CCCF209160
:103B10003C0630913D06C901079697FD079623E0C4
:103B2000959587952A95E1F720913A0630913B06C5
:103B3000829FA001839F500D929F500D112470E031
:103B400060E080915506909156060C9431400F9399
:103B50001F93CF93DF938C01EB010E944B39888335
:103B6000C80101960E944B398983CE01DF91CF9124
:103B70001F910F910895FF920F931F93CF93DF939F
:103B8000EC018B01FB01F0800E944B39F81621F00B
:103B90006F2DCE010E945339F801F1802196CE019C
:103BA0000E944B39F81621F06F2DCE010E94533937
:103BB000C801DF91CF911F910F91FF90089568E4A4
:103BC00072E086E190E00E94BB1D6BE372E088E149
:103BD00090E00E94BB1D6EE272E08CE190E00E94DA
:103BE000BB1D61E272E080E290E00E94BB1D65E5D2
:103BF00072E084E290E00E94BB1D67E384E690E0FF
:103C00000C9453390E942340FB0101900020E9F7F6
:103C10003197AF01461B570BDC01ED91FC910280FF
:103C2000F381E02D19948F929F92AF92BF92EF9201
:103C3000FF920F931F93CF93DF93CDB7DEB7A1977A
:103C40000FB6F894DEBF0FBECDBF7C01FA01CB01E9
:103C500019A2223008F42AE08E010F5D1F4F822E38
:103C6000912CB12CA12CBF01A50194010E94AC3C68
:103C7000F901CA016A300CF5605DD8016E938D01BF
:103C8000232B242B252B79F790E080E0109721F04F
:103C9000BD01C7010E94041EA1960FB6F894DEBFB5
:103CA0000FBECDBFDF91CF911F910F91FF90EF908D
:103CB000BF90AF909F908F900895695CDECF4F9238
:103CC0005F926F927F92AF92BF92CF92DF92EF920C
:103CD000FF920F931F93CF935C01162FC0E060E01B
:103CE00070E080E09FE3C11741F020E030E040E267
:103CF00051E40E94E839CF5FF6CF2DEC3CEC4CE468
:103D00005FE30E947C396B017C010E94613A2B01C8
:103D10003C012AE0BC01A201C5010E94131E8C01D6
:103D2000CC23E9F1C301B2010E942C389B01AC0104
:103D3000C701B6010E947B396B017C01D501ED9171
:103D4000FC910190F081E02D6EE2C5011995080FFC
:103D5000191FC15020F120E030E040E251E4C701DA
:103D6000B6010E948D382B013C010E94613A6B0123
:103D7000F12CE12C2AE0B701A601C5010E94131E17
:103D8000080F191FC701B6010E942C389B01AC0116
:103D9000C301B2010E947B396B017C01DACFC801FB
:103DA000CF911F910F91FF90EF90DF90CF90BF9038
:103DB000AF907F906F905F904F900895CF92DF9279
:103DC000EF92FF920F931F93CF93DF93EC016A0161
:103DD0007B01E881F9810190F081E02D6DE2199578
:103DE0008C0144275527BA014C195D096E097F09DA
:103DF0002AE0CE010E94131E800F911FDF91CF9108
:103E00001F910F91FF90EF90DF90CF900895CF9387
:103E1000DF93AC01990F660B770B77FF10C082E23E
:103E200095E00E94DE1EEC0169E873E082E295E015
:103E30000E94041E8C0F9D1FDF91CF9108952AE0F0
:103E400082E295E00E94131EEECFAB01770F660B66
:103E5000770B77FD0C94DE1E2AE00C94131ECF9393
:103E6000DF93BC0186E396E00E94041EEC0169E842
:103E700073E086E396E00E94041E8C0F9D1FDF9185
:103E8000CF9108950F931F93CF93DF93EC010E947E
:103E9000E1078C0169E873E0CE010E94041E800FE7
:103EA000911FDF91CF911F910F9108950C94041EE3
:103EB0000F931F93CF93DF9366E477E090E080E069
:103EC0000E94BB1D6CE772E082E090E00E94BB1D87
:103ED0006FE672E084E090E00E94BB1D62E672E053
:103EE00086E090E00E94BB1D65E377E088E090E00B
:103EF0000E94BB1D67E385E690E00E9453390E9453
:103F0000871DC6E3D6E082E08C8B8D8B81E090E04C
:103F10009B8B8A8B998B888B08E210E01D870C871E
:103F20001F861E86888F8CE893E00E942F1F1D87B6
:103F30000C8780E290E09F878E8762E973E0CE0174
:103F40000E94561F0E94941B68EE73E080E090E090
:103F5000DF91CF911F910F910C94380ACF938091EC
:103F6000460790914707892B19F5C09135070E94A4
:103F70001B17E42F4C2FB9018E2F952F0E94271A63
:103F80000E949E190E94F9190E945B160E942E1928
:103F900060E070E0CB010E94141D0E94581F81E078
:103FA00092E090931D0580931C0580E0CF910895C9
:103FB0000E941B17E42F40E0DECFCF93DF93EC018C
:103FC0008E819F8101979F838E830A9724F40E949C
:103FD00097159F838E83E0917C02F0917D02EE0F16
:103FE000FF1FEE0FFF1FEA58FD4F258536854785D9
:103FF0005089220F331F441F551FAE81BF810E947D
:10400000DD3C611578418D409F4820F40E94971552
:104010009F838E83CE010E94FB1668E973E082E2E3
:1040200095E00E94561F8E819F81DF91CF910C9465
:10403000071FCF93DF93EC018E819F8101969F83B1
:104040008E838F3F910529F024F00E94D5159F8320
:104050008E83E0917C02F0917D02EE0FFF1FEE0F48
:10406000FF1FEA58FD4F2585368547855089220F69
:10407000331F441F551FAE81BF810E94DD3C61305C
:1040800074438B459D4920F00E94D5159F838E83F4
:10409000CE010E94FB1668E973E082E295E00E947F
:1040A000561F8E819F81DF91CF910C94071F0F9334
:1040B0001F93CF93DF93EC0188819981009759F08A
:1040C0002A813B812617370730F081E0DF91CF91BD
:1040D0001F910F9108958B016F5F7F4F0E94423FA8
:1040E000009759F0998388831B830A832C813D8133
:1040F000232B59F7FC011082E8CF80E0E7CFEF9245
:10410000FF920F931F93CF93DF936115710541F4D5
:1041100080E0DF91CF911F910F91FF90EF90089574
:1041200041155105B1F07B01EC010C811D81040F9B
:10413000151FB8010E945720882351F32881398127
:104140008C819D81B701820F931F0E9438401D838F
:104150000C8381E0DECFCF93DF93EC0188819981DE
:10416000009711F00E94B93E198218821D821C82AC
:104170001B821A82DF91CF910895CF93DF93EC01D8
:10418000FB0144815581608171810E947F208111F2
:1041900003C0CE010E94AB20CE01DF91CF910895E4
:1041A000EF92FF920F931F93CF93DF93EC017B016C
:1041B0008A01BA010E94572081110BC0CE010E94D2
:1041C000AB20CE01DF91CF911F910F91FF90EF9027
:1041D00008951D830C83B701888199810E9438401E
:1041E000F0CFFB0101900020E9F73197AF01461BAA
:1041F000570B0C94D0200F931F93CF93DF93CDB721
:10420000DEB762970FB6F894DEBF0FBECDBF8C014C
:10421000CB01F8011182108213821282158214825E
:104220004AE0BE016F5F7F4F0E94A635BE016F5FFF
:104230007F4FC8010E94F12062960FB6F894DEBF4E
:104240000FBECDBFDF91CF911F910F910895CF93F6
:10425000DF93EC01FB018617970749F060817181BC
:104260006115710541F0448155810E94D020CE0135
:10427000DF91CF9108950E94AB20F9CFFC0111820C
:10428000108213821282158214820C942721FC0161
:10429000118210821382128215821482FB01019016
:1042A0000020E9F73197AF01461B570B0C94D02043
:1042B000FC0180819181009711F00C94B93E089522
:1042C0000F931F93CF93DF93CDB7DEB72C970FB625
:1042D000F894DEBF0FBECDBF8C01433069F5CB0132
:1042E0000A978A35910538F4CE0107960E94FB2083
:1042F0006CE973E009C06A3071050CF5CE010796D0
:104300000E94FB206BE973E0CE0101960E944721D9
:10431000BE01695F7F4FCE0101960E94BD20BC01A6
:10432000C8010E943E21CE0101960E945821CE0173
:1043300007960E94582106C06A307105ACF2C80188
:104340000E94FB20C8012C960FB6F894DEBF0FBE6A
:10435000CDBFDF91CF911F910F9108954F925F9242
:104360006F927F928F929F92AF92BF92CF92DF9285
:10437000EF92FF920F931F93CF93DF9300D000D063
:10438000CDB7DEB75C018B010E947E0A6B017C0118
:10439000D8011E96CD92DD92ED92FC92519719961E
:1043A0008D919D910D90BC91A02D26013701481A49
:1043B000590A6A0A7B0AF80187819085AC01440F8B
:1043C000551F480F591F70E060E0441555056605FC
:1043D000770508F41586B0E0A0E084159505A605DC
:1043E000B70508F070C0D8011996CD92DD92ED9214
:1043F000FC921C971D968C911D978F5F1D968C9338
:104400001D9752969C915297981710F41D961C92E6
:10441000F801E584C680F12CCE0CDF2CD11CCE1423
:10442000DF0428F09C2D8D2D6701E92EF82E6BE816
:1044300073E0CE0101960E944721D80114968D9019
:104440009C90C814D904F8F4E814F90408F447015E
:10445000D801ED91FC911197E80DF91DF0801082C3
:104460006D917C916C0D7D1DCE01019661157105DC
:1044700009F447C00E94F120F80180819181880EE3
:10448000991ED401FC92F801838994890097F1F177
:1044900069817A8161157105B9F1458956892D8146
:1044A0003E814217530780F10E9438408D819E81E2
:1044B000D80158969C938E9357971E821D82CE01E9
:1044C00001960E945821B8016D5E7F4FC5010E9480
:1044D0003E21C50126960FB6F894DEBF0FBECDBFB4
:1044E000DF91CF911F910F91FF90EF90DF90CF90D0
:1044F000BF90AF909F908F907F906F905F904F9004
:1045000008950E94AB20B8CF0E94B93E89819A815C
:10451000F801948B838B8B819C81968B858B8D810D
:104520009E81908F878B1A8219821C821B82C5CF35
:1045300085ED8093BC008091970490919804A091A0
:104540009904B0919A040796A11DB11D23E0B69578
:10455000A795979587952A95D1F72091BC0024FDC2
:1045600003C01092E004089540919704509198047C
:104570006091990470919A04452B462B472B69F35F
:104580000097A105B10541F025E32A95F1F7000058
:104590000197A109B109E1CF809196040C94AD1166
:1045A0001F920F920FB60F9211240BB60F922F93FA
:1045B0003F934F935F936F937F938F939F93AF93AB
:1045C000BF93EF93FF9382E295E00E948208FF91F0
:1045D000EF91BF91AF919F918F917F916F915F917B
:1045E0004F913F912F910F900BBE0F900FBE0F90E8
:1045F0001F9018951F920F920FB60F9211240BB6B1
:104600000F922F938F939F93EF93FF93E091320537
:10461000F09133058081E0913805F091390582FDF4
:104620001DC0908180913B058F5F8F7320913C0569
:10463000821741F0E0913B05F0E0EE5DFA4F958F77
:1046400080933B05FF91EF919F918F912F910F9058
:104650000BBE0F900FBE0F901F9018958081F2CF68
:104660001F920F920FB60F9211242F933F938F93A7
:104670009F93AF93BF938091080590910905A091F6
:104680000A05B0910B053091070523E0230F2D3764
:1046900058F50196A11DB11D2093070580930805CB
:1046A00090930905A0930A05B0930B0580910C0522
:1046B00090910D05A0910E05B0910F050196A11DD9
:1046C000B11D80930C0590930D05A0930E05B0933A
:1046D0000F05BF91AF919F918F913F912F910F90B7
:1046E0000FBE0F901F90189526E8230F0296A11D6C
:1046F000B11DD2CF1F920F920FB60F9211240BB69D
:104700000F922F933F934F935F936F937F938F936A
:104710009F93AF93BF93EF93FF93E091B102F0911A
:10472000B2021995FF91EF91BF91AF919F918F9137
:104730007F916F915F914F913F912F910F900BBEA1
:104740000F900FBE0F901F9018951F920F920FB6EB
:104750000F9211240BB60F922F933F934F935F93B9
:104760006F937F938F939F93AF93BF93EF93FF9339
:10477000E091AF02F091B0021995FF91EF91BF91D6
:10478000AF919F918F917F916F915F914F913F91E9
:104790002F910F900BBE0F900FBE0F901F9018958A
:1047A0001F920F920FB60F9211240BB60F922F93F8
:1047B0003F934F935F936F937F938F939F93AF93A9
:1047C000BF93EF93FF93E091A502F091A602199594
:1047D000FF91EF91BF91AF919F918F917F916F91D9
:1047E0005F914F913F912F910F900BBE0F900FBE95
:1047F0000F901F9018951F920F920FB60F921124D1
:104800000BB60F922F933F934F935F936F937F93CA
:104810008F939F93AF93BF93EF93FF93E091A30286
:10482000F091A4021995FF91EF91BF91AF919F91E3
:104830008F917F916F915F914F913F912F910F9049
:104840000BBE0F900FBE0F901F9018951F920F92E6
:104850000FB60F9211240BB60F922F933F934F93E5
:104860005F936F937F938F939F93AF93BF93EF93D8
:10487000FF93E091AD02F091AE021995FF91EF9197
:10488000BF91AF919F918F917F916F915F914F9168
:104890003F912F910F900BBE0F900FBE0F901F9066
:1048A00018951F920F920FB60F9211240BB60F920C
:1048B0002F933F934F935F936F937F938F939F9328
:1048C000AF93BF93EF93FF93E091AB02F091AC02F3
:1048D0001995FF91EF91BF91AF919F918F917F912A
:1048E0006F915F914F913F912F910F900BBE0F9061
:1048F0000FBE0F901F9018951F920F920FB60F9238
:1049000011240BB60F922F933F934F935F936F93A6
:104910007F938F939F93AF93BF93EF93FF93E09118
:10492000A902F091AA021995FF91EF91BF91AF9161
:104930009F918F917F916F915F914F913F912F91B7
:104940000F900BBE0F900FBE0F901F9018951F92E7
:104950000F920FB60F9211240BB60F922F933F9325
:104960004F935F936F937F938F939F93AF93BF9377
:10497000EF93FF93E091A702F091A8021995FF91A0
:10498000EF91BF91AF919F918F917F916F915F91C7
:104990004F913F912F910F900BBE0F900FBE0F9034
:1049A0001F9018951F920F920FB60F9211240BB6FD
:1049B0000F922F933F934F935F936F937F938F93B8
:1049C0009F93AF93BF93EF93FF938091B900887F3C
:1049D000803609F44DC008F040C0883209F4A9C0FF
:1049E00028F5803109F49DC0C8F4882309F4FBC080
:1049F000883009F496C0FF91EF91BF91AF919F91DC
:104A00008F917F916F915F914F913F912F910F9077
:104A10000BBE0F900FBE0F901F901895883109F4B0
:104A200088C0803241F78093DF0414C0803409F4D9
:104A30009DC040F48033B9F38833E9F68093DF04F6
:104A400085ECB0C0803509F485C0883509F496C07E
:104A5000883489F60E949822CECF883909F48CC018
:104A600038F5883729F050F4883611F0803719F678
:104A700083E08093E0041092DE0457C0883809F484
:104A80007BC0803919F0803809F0B5CF8091DE0401
:104A9000803208F071C0E091DE0481E08E0F8093D7
:104AA000DE048091BB00F0E0E254FB4F80833DC008
:104AB000803B39F0E0F4803A09F479C0883A09F093
:104AC0009ACF84E08093E0041092BD041092BC045D
:104AD000E0911205F091130519958091BC048111A4
:104AE0000FC081E08093BC0410929C0409C0803CFC
:104AF00009F4A6CF883C09F4A3CF883B09F07BCF0B
:104B0000E091BD0481E08E0F8093BD04F0E0E45697
:104B1000FB4F80818093BB009091BD048091BC04C9
:104B200029C0809105058093BB0085EC8093BC0073
:104B300062CF9091040580910305981758F5E09194
:104B4000040581E08E0F80930405F0E0ED51FB4FEA
:104B50008081E9CFE091040581E08E0F8093040508
:104B60008091BB00F0E0ED51FB4F808390910405F4
:104B7000809103059817C8F285E8D8CFE091040525
:104B800081E08E0F809304058091BB00F0E0ED5131
:104B9000FB4F80838091E20481115CCF81E08093A0
:104BA000E10484EA8093BC001092E00424CF85ECF9
:104BB0008093BC001092E0048091DE04803230F4D7
:104BC000E091DE04F0E0E254FB4F10826091DE04DD
:104BD00070E0E0911005F09111058EEB94E01995CD
:104BE0001092DE0408CF1092DF0434CFCF93DF930E
:104BF000EC01FB0101900020E9F73197AF01461B62
:104C0000570B0E947F20811103C0CE010E94AB2070
:104C1000CE01DF91CF910895CF92DF92EF92FF9274
:104C20000F931F93CF93DF93CDB7DEB72C970FB6BB
:104C3000F894DEBF0FBECDBF8C016B016BE873E053
:104C40000E944721F8011186128613861486158664
:104C500016861786108A118A128A6BE873E0C801DB
:104C600043960E9447216BE873E0CE0107960E94AD
:104C700047218AE0F8018683F12CE12CF801868136
:104C8000BE01695F7F4F8E151F04C1F0BCF0CE01DD
:104C900001960E943E2164EF73E0CE0101960E94CE
:104CA000F625BC01CE0107960E942721CE01019670
:104CB0000E945821FFEFEF1AFF0AE0CFCE010196C4
:104CC0000E943E21B601CE0101960E94BD20BC018A
:104CD000C8010E942721CE0101960E945821F801A7
:104CE0008481828B86E990E090878783CE01079646
:104CF0000E9458212C960FB6F894DEBF0FBECDBF90
:104D0000DF91CF911F910F91FF90EF90DF90CF90A7
:104D10000895EF92FF920F931F93CF93DF93CDB738
:104D2000DEB7A1970FB6F894DEBF0FBECDBF7C01F2
:104D3000CB01BA01F701118210821382128215820F
:104D4000148242E0420F8E010F5F1F4F0E94883590
:104D5000009789F0BC01C7010E94F120A1960FB60F
:104D6000F894DEBF0FBECDBFDF91CF911F910F91A1
:104D7000FF90EF900895C7010E94AB20EFCFCF9234
:104D8000DF92EF92FF92CF93DF93CDB7DEB76297BA
:104D90000FB6F894DEBF0FBECDBF1092250510925E
:104DA000240528EEC22E23E0D22EE12CF12CC09255
:104DB0002605D0922705E0922805F092290589E280
:104DC00093E0909323058093220585EC90E09093E7
:104DD0002F0580932E0584EC90E09093310580930D
:104DE000300580EC90E0909333058093320581ECA0
:104DF00090E0909335058093340582EC90E0909399
:104E000037058093360586EC90E0909339058093C2
:104E1000380510923B0510923C0510923D0510920A
:104E20003E0510922D0610922C06C0922E06D092AE
:104E30002F06E0923006F09231068BE393E09093D8
:104E40002B0680932A061092430710924207109275
:104E50004507109244071092470710924607109298
:104E600049071092480710924B0710924A07109278
:104E70004C0783E893E090934107809340076EE9E5
:104E800073E08DE497E00E94472168EA73E083E5D0
:104E900097E00E944721109232071092310710923A
:104EA000340710923307109236071092350710928C
:104EB00038071092370710923A071092390710926C
:104EC0003B0789E793E09093300780932F07109278
:104ED0003C0710923D0710923E0710923F0785E372
:104EE00097E00E94B6078FE297E00E94FB1680E0F1
:104EF00090E0A0E8BFE480932B0790932C07A09349
:104F00002D07B0932E0786E08093790681E1809388
:104F10007A0680E180937B0687E080937C0688E0B8
:104F200080937D0689E080937E068FE280937F06E2
:104F300061E086E00E94D70961E080917A060E94D4
:104F4000D70961E080917B060E94D70961E08091DA
:104F50007C060E94D70961E080917D060E94D709F6
:104F600061E080917E060E94D70961E080917F0612
:104F70000E94D70961E0809179060E94A90960E04A
:104F800080917A060E94A90960E080917B060E94C8
:104F9000A90960E080917C060E94A90960E08091E7
:104FA0007D060E94A90960E080917E060E94A90901
:104FB00060E080917F060E94A90980E89CE7A1E853
:104FC000BAE48093750690937606A0937706B09323
:104FD0007806109239061092380620E830E03093B7
:104FE0003B0620933A0680E490E090933D06809340
:104FF0003C0630933F0620933E06909341068093F3
:10500000400610924C0610924306109242061092EF
:1050100045061092440681E080934B0680934A0631
:105020002FEF3FEF30934906209348063093470611
:105030002093460680934D0610924E06109250061D
:1050400010924F062DE433E0309337062093360656
:1050500010925206109251062AE236E0309354061E
:105060002093530610925606109255069FEF909388
:105070005A0690935B0690935C0690935D0690931E
:105080005E0690E590936B0610926C0640E055E347
:105090006CE070E040936D0650936E0660936F066F
:1050A0007093700640937106509372066093730676
:1050B0007093740692E090932006109221068093DC
:1050C0002206809323061092250610922406109241
:1050D00012061092110610921306109226061092D4
:1050E0002706109228061092290684E190E0A0E09D
:1050F000B0E08093140690931506A0931606B09323
:1051000017068AEF90E0A0E0B0E080931806909335
:105110001906A0931A06B0931B06C0921C06D092E3
:105120001D06E0921E06F0921F0660E082E00E94DB
:10513000D70980912106811105C061E08091200688
:105140000E94A90962E082E10E94D70962E083E13E
:105150000E94D709EEECFEE0E491F0E0EE0FFF1FB5
:10516000EE55F14FA591B491B093FE05A093FD05C6
:10517000EEE6FEE0649160930106EFECFEE0E49160
:10518000F0E0EE0FFF1FEE55F14F25913491309373
:1051900000062093FF05EFE6FEE0E491E0930206AF
:1051A0001092040610920506109206061092070649
:1051B0004BE35FE1CA010197F1F79C91862F8923A8
:1051C00091E009F490E0D9018C91E82309F0926014
:1051D0002DEF35E0909303063093CA052093C9055F
:1051E0008AEE96E19093AE028093AD0280916900C1
:1051F0008F73806480936900EB9A81E0809310063E
:105200003093C8052093C70584EE96E19093AC02D5
:105210008093AB02809169008F7C806180936900EC
:10522000EA9A82E080931006609175067091760686
:1052300080917706909178060E942C3820E23CEB12
:105240004EEB5CE40E94E8390E94393B20E030E0FC
:1052500040E251E40E94E839AB01BC0121E0CE01FB
:1052600007960E94892663EB73E0CE0101960E94A7
:105270004721BE01695F7F4FCE0101960E94BD208C
:1052800065EC73E00E94F625BC01CE010D960E94EC
:105290003E21BE01635F7F4F84EE95E00E940C26A5
:1052A000CE010D960E945821CE0101960E945821F0
:1052B000CE0107960E94582120E040E050E068ECC3
:1052C00072E4CE0107960E9489266AEC73E0CE0153
:1052D00001960E944721BE01695F7F4FCE01019672
:1052E0000E94BD206BED73E00E94F625BC01CE014B
:1052F0000D960E943E21BE01635F7F4F8BEC95E0CF
:105300000E940C26CE010D960E945821CE010196D6
:105310000E945821CE0107960E94582162960FB62E
:10532000F894DEBF0FBECDBFDF91CF91FF90EF901D
:10533000DF90CF900895CF93DF9300D000D0CDB70A
:10534000DEB7789484B5826084BD84B5816084BD05
:1053500085B5826085BD85B5816085BD80916E0013
:10536000816080936E001092810080918100826044
:105370008093810080918100816080938100809181
:1053800080008160809380008091B1008460809370
:10539000B1008091B00081608093B0008091910055
:1053A0008260809391008091910081608093910050
:1053B000809190008160809390008091A100826034
:1053C0008093A1008091A10081608093A1008091D1
:1053D000A00081608093A000809121018260809371
:1053E0002101809121018160809321018091200120
:1053F00081608093200180917A00846080937A009C
:1054000080917A00826080937A0080917A00816036
:1054100080937A0080917A00806880937A0010925D
:10542000C1008091550690915606892B11F10E947A
:10543000871D20913C0630913D0680913A0690915F
:105440003B06213231050CF0C7C4B9016052710925
:1054500077FF02C06F5F7F4F7595679583579109FE
:1054600097FD019600E210E023E730E04CEF58E0B2
:10547000C6C420913C0630913D06C901079697FDB0
:105480000796B3E095958795BA95E1F720913A068E
:1054900030913B06AC01429FC001439F900D529F4B
:1054A000900D11240E941D3E909356068093550640
:1054B000892B09F0BCCF01E000934E060E94871DA6
:1054C0000E94871D00934E0612E010934A06109327
:1054D0004B0688248394912C90924906809248062A
:1054E000909247068092460610924306109242061A
:1054F000109245061092440660EE73E086E396E053
:105500000E94561F00934A0600934B069EE3E92E25
:10551000F12CF0924306E09242061092450610925A
:10552000440666EE73E086E396E00E94561FF09212
:105530004306E092420688E090E09093450680930F
:1055400044066FEE73E086E396E00E94561F62E029
:1055500086E396E00E945F1E109243061092420678
:1055600080E190E0909345068093440610934A06AC
:1055700010934B0666EF73E086E396E00E94561F99
:105580006CEF73E086E396E00E94561F9092490606
:1055900080924806909247068092460681E094E009
:1055A0000E942F1F8BE094E00E942F1F0E94941BEB
:1055B00060ED77E080E090E00E94380AE0913205EB
:1055C000F09133051083E0912E05F0912F051082A4
:1055D000E0913005F091310580E1808310923A0529
:1055E000E0913605F091370586E08083E09134053F
:1055F000F0913505808180618083E0913405F091E0
:105600003505808188608083E0913405F09135050F
:10561000808180688083E0913405F0913505808138
:105620008F7D808369EA7DE082E295E00E94421FDF
:105630006CE97DE082E295E00E94E10762E082E2AF
:1056400095E00E945F1E69E873E082E295E00E94A7
:10565000041E0E948A0A80911306882351F06FEF7E
:1056600085E690E00E9453396FEF84E690E00E9457
:10567000533922E432E045E352E05093450240932F
:10568000440268E272E07093380260933702EBE103
:10569000F2E0F0932B02E0932A028FE492E09093E1
:1056A0001E0280931D023093520220935102F09308
:1056B0005402E09353027093200260931F025093B0
:1056C0002D0240932C0230933A022093390290939A
:1056D00047028093460280E497E066E772E07093A9
:1056E000430760934207EFE2F7E0F0937902E0931B
:1056F00078022EE032E0309332072093310741E008
:1057000052E0509311024093100290930402809350
:105710000302ACE5B2E0B0936C02A0936B0230934D
:105720005F0220935E023093060220930502F093FD
:105730001302E0931202709334076093330790933F
:105740007B0280937A02509345074093440729E6F1
:1057500032E0309361022093600290936E02809356
:105760006D0221E030E030934B0220934A02109208
:105770004D0210924C0287EE93E090933E0280938C
:105780003D021092400210923F02909331028093AA
:1057900030021092330210923202909324028093CE
:1057A0002302109226021092250284E490E0909346
:1057B00058028093570210925A0210925902309365
:1057C00049072093480710924B0710924A0787E039
:1057D00090E090937F0280937E021092810210925B
:1057E00080020E945B1660931605709317058093E4
:1057F00018059093190580E099EFA2E0B5E9809330
:105800003C0790933D07A0933E07B0933F078AE083
:1058100090E090933A07809339078FEF90E0909350
:1058200038078093370780913507909136078F3F6F
:10583000910539F034F00E94D51590933607809386
:105840003507E0917C02F0917D02EE0FFF1FEE0F15
:10585000FF1FEA58FD4FC584D684E784F088A091E5
:105860003507B0913607A70196010E94DD3C660F0F
:10587000771F881F991F613074438B459D4930F015
:105880000E94D51590933607809335078091350790
:10589000909136070A9734F40E9497159093360733
:1058A00080933507A0913507B0913607A70196017F
:1058B0000E94DD3C660F771F881F991F6115784194
:1058C0008D409F4830F40E9497159093360780933F
:1058D00035078FE297E00E94FB1610927402109237
:1058E000730284E090E090937202809371021092B0
:1058F00067021092660287EE93E0909365028093B0
:10590000640281E090E09093700280936F021092A5
:1059100063021092620284E690E00E944B39873362
:1059200009F417C4109249021092480284E690E0EC
:1059300090933C0280933B0210922F0210922E0211
:1059400010922202109221021092560210925502D9
:105950000E94DF1D80913507909136078F3F91059A
:1059600039F034F00E94D5159093360780933507AF
:10597000E0917C02F0917D02EE0FFF1FEE0FFF1F02
:10598000EA58FD4FC584D684E784F088A091350796
:10599000B0913607A70196010E94DD3C660F771F84
:1059A000881F991F613074438B459D4930F00E94D8
:1059B000D5159093360780933507809135079091E0
:1059C00036070A9734F40E94971590933607809310
:1059D0003507A0913507B0913607A70196010E94BF
:1059E000DD3C660F771F881F991F611578418D4038
:1059F0009F4830F40E94971590933607809335079F
:105A00008FE297E00E94FB1685E690E00E944B39FA
:105A1000873309F4BDC3109247071092460784E00C
:105A200090E090937D0280937C0283E090E09093DD
:105A3000700280936F0210926302109262028EE1F4
:105A400090E090933607809335070E94581F80910D
:105A50003507909136078F3F910539F034F00E9459
:105A6000D5159093360780933507E0917C02F0912D
:105A70007D02EE0FFF1FEE0FFF1FEA58FD4FC5849A
:105A8000D684E784F088A0913507B0913607A70146
:105A900096010E94DD3C660F771F881F991F6130B9
:105AA00074438B459D4930F00E94D515909336077D
:105AB0008093350780913507909136070A9734F423
:105AC0000E9497159093360780933507A09135076C
:105AD000B0913607A70196010E94DD3C660F771F43
