:020000040000FA
:100000000C9436080C9496250C946B250C94402582
:100010000C9415250C94EA240C94BF240C9494247D
:100020000C9469240C9467080C9467080C94670876
:100030000C9467080C9467080C9467080C94670884
:100040000C9467080C9467080C9467080C94670874
:100050000C9467080C9467080C9467080C941F2490
:100060000C9467080C94EB250C94C1250C9467083C
:100070000C9467080C9467080C9467080C94670844
:100080000C9467080C9467080C9467080C94670834
:100090000C9467080C9467080C9467080C9421264C
:1000A0000C9467080C9467080C9467080C94670814
:1000B0000C9467080C9467080C9467080C94670804
:1000C0000C9467080C9467080C9467080C946708F4
:1000D0000C9467080C9467080C9467080C946708E4
:1000E0000C94670807634236B79BD8A71A3968563D
:1000F00018AEBAAB558C1D3CB7CC5763BD6DEDFD4A
:10010000753EF6177231BF000000803F0800000006
:10011000BE922449123EABAAAA2ABECDCCCC4C3EFC
:1001200000000080BEABAAAAAA3E00000000BF00EB
:100130000000803F0000000000084178D3BB4387E7
:10014000D1133D190E3CC3BD4282AD2B3E68EC82FB
:1001500076BED98FE1A93E4C80EFFFBE01C4FF7F80
:100160003F00000000000C94121A0C94B8410C944B
:10017000E2080C944C160C946D390C94AF120C944C
:10018000C4080C94B5080C940D180C948F190C9499
:10019000DC120C94CF190C94CA100C9413180C9404
:1001A000F70B0C94E6080C948C0A0C94C20A0C947D
:1001B000EF080C9486120C94BD080C9423180C9430
:1001C000B9080C94F70F0C94EA080C94C1080C942D
:1001D0008F0A0C9460190C9452150C943C190C94D1
:1001E000201A0C94D4080C94200B0C94E71D0C944A
:1001F000D6100C9460210C94A9190C94AF080C949F
:1002000016190C9495120C941C1A0C94BE100C9494
:1002100099150C94620F0C943E110C948D190C944A
:10022000241A0C9490080C948B190C9419180C94A3
:100230008E0A0C94FA180C94A8120C94F8270C94BB
:10024000221A0C947F190C94310E0C9491190C9471
:10025000CA080C94AE100C94FE0A0C94030F0C9474
:10026000EF0A0C9409150C94F4080C94DA0F0C9412
:1002700089190C948D0A0C941E1A0C94CE080C94B7
:10028000120B0C94E9200C94A50B0C94F0080C9420
:10029000DC080C94F3190C9418210C94D8080C94D5
:1002A000580B00407A10F35A00A0724E1809001043
:1002B000A5D4E80000E87648170000E40B540200DB
:1002C00000CA9A3B000000E1F50500008096980006
:1002D000000040420F000000A0860100000010272F
:1002E00000000000E80300000000640000000000BF
:1002F0000A00000000000100000000002C76D888F1
:10030000DC674F0823DFC1DFAE59E1B1B796E5E303
:10031000E453C63AE651997696E8E6C28426EB891C
:100320008C9B62ED407C6FFCEFBC9C9F40F2BAA5B9
:100330006FA5F490055A2AF75C936B6CF9676DC151
:100340001BFCE0E40D47FEF520E6B500D0ED902E55
:100350000300943577050080841E080000204E0AB3
:10036000000000C80C333333330F986E12831141F1
:10037000EF8D2114893BE65516CFFEE6DB18D184BC
:100380004B381BF77C1D901DA4BBE42420328472E3
:100390005E228100C9F124ECA1E53D276364696E0A
:1003A0006F70737578585B00000103070F1F3F7F64
:1003B0000080C0E0F0F8FCFE00000000003E5B4F53
:1003C0005B3E3E6B4F6B3E1C3E7C3E1C183C7E3CB5
:1003D000181C577D571C1C5E7F5E1C00183C1800C3
:1003E000FFE7C3E7FF0018241800FFE7DBE7FF3053
:1003F000483A060E2629792926407F050507407FC1
:1004000005253F5A3CE73C5A7F3E1C1C08081C1C33
:100410003E7F14227F22145F5F005F5F06097F0129
:100420007F006689956A606060606094A2FFA29414
:1004300008047E040810207E201008082A1C0808E2
:100440001C2A08081E101010100C1E0C1E0C303830
:100450003E3830060E3E0E06000000000000005F31
:1004600000000007000700147F147F14242A7F2A4D
:10047000122313086462364956205000080703000F
:10048000001C2241000041221C002A1C7F1C2A085B
:10049000083E0808008070300008080808080000BE
:1004A00060600020100804023E5149453E00427F32
:1004B000400072494949462141494D331814127F81
:1004C0001027454545393C4A494931412111090721
:1004D0003649494936464949291E000014000000A2
:1004E0004034000000081422411414141414004174
:1004F00022140802015909063E415D594E7C121131
:10050000127C7F494949363E414141227F41414168
:100510003E7F494949417F090909013E41415173E3
:100520007F0808087F00417F41002040413F017F54
:10053000081422417F404040407F021C027F7F041C
:1005400008107F3E4141413E7F090909063E415165
:10055000215E7F09192946264949493203017F0155
:10056000033F4040403F1F2040201F3F4038403F56
:10057000631408146303047804036159494D43006C
:100580007F4141410204081020004141417F0402A3
:10059000010204404040404000030708002054543A
:1005A00078407F2844443838444444283844442818
:1005B0007F385454541800087E090218A4A49C786B
:1005C0007F0804047800447D40002040403D007FC7
:1005D0001028440000417F40007C047804787C08A7
:1005E0000404783844444438FC182424181824247B
:1005F00018FC7C08040408485454542404043F4460
:10060000243C4040207C1C2040201C3C4030403C8E
:1006100044281028444C9090907C4464544C4400EE
:100620000836410000007700000041360800020152
:100630000204023C2623263C1EA1A161123A40403E
:10064000207A3854545559215555794122545478BB
:1006500042215554784020545579400C1E52721254
:1006600039555555593954545459395554545800DD
:1006700000457C410002457D420001457C407D12E1
:1006800011127DF0282528F07C5455450020545443
:100690007C547C0A097F4932494949323A444444EE
:1006A0003A324A4848303A4141217A3A4240207829
:1006B000009DA0A07D3D4242423D3D4040403D3C2A
:1006C00024FF2424487E4943662B2FFC2F2BFF094F
:1006D00029F620C0887E0903205454794100004443
:1006E0007D413048484A32384040227A007A0A0A2E
:1006F000727D0D19317D2629292F282629292926A1
:1007000030484D4020380808080808080808382FE5
:1007100010C8ACBA2F102834FA00007B000008146F
:100720002A142222142A14085500550055AA55AA45
:1007300055AAFF55FF55FF000000FF00101010FFE5
:1007400000141414FF001010FF00FF1010F010F040
:10075000141414FC001414F700FF0000FF00FF1431
:1007600014F404FC141417101F10101F101F14147D
:10077000141F00101010F0000000001F10101010C7
:100780001F10101010F010000000FF1010101010BB
:1007900010101010FF10000000FF140000FF00FFF9
:1007A00000001F10170000FC04F414141710171495
:1007B00014F404F40000FF00F714141414141414B7
:1007C000F700F7141414171410101F101F1414142A
:1007D000F4141010F010F000001F101F0000001F94
:1007E00014000000FC140000F010F01010FF10FFC7
:1007F000141414FF141010101F00000000F010FF5C
:10080000FFFFFFFFF0F0F0F0F0FFFFFF000000003F
:1008100000FFFF0F0F0F0F0F3844443844FC4A4AC3
:100820004A347E02020606027E027E026355494178
:10083000633844443C04407E201E2006027E0202AF
:1008400099A5E7A5991C2A492A1C4C7201724C30C3
:100850004A4D4D303048784830BC625A463D3E499A
:100860004949007E0101017E2A2A2A2A2A44445F3E
:10087000444440514A444040444A51400000FF0132
:1008800003E080FF000008086B6B08361236243640
:10089000060F090F060000181800000010100030A5
:1008A00040FF0101001F01011E00191D1712003C2D
:1008B0003C3C3C0000000000DB40A4A62EAFDA0266
:1008C00081DA1281DA02818F2000A1C8D300408D25
:1008D000AED580A80000600000000000000000000D
:1008E0000000000000E00000000000000000000028
:1008F00000000001E0000000000000000000000017
:10090000000001F0000000000000000000000000F6
:100910000003F000000000000000000000000000E4
:1009200007F00000000000000000000000000007C9
:10093000F8000000000000000000000000000FF8B8
:1009400000000003C0007E000001E0007F0FF800FF
:10095000000003C000FE000001E000FFEFF800000F
:100960000003C000FE000001E000FFFFF8000000EF
:1009700003C000F00000000F007FFE7FC0000003F6
:10098000C000F00000000F003FFE7FF83FF1FBCFFA
:10099000FCFEF3BC3DEFE01FFE7FFF7FFBFFDFFEB1
:1009A000FEFFBC3DEFE01FC6FFFF7FFBFFDFFEFE4B
:1009B000FFBC3DEFE00FE3C7FE787BC3DE1EF0FF18
:1009C000BC3DEF0007FF87FC787BC3DE1EF0F83CE0
:1009D0003DEF0001FFFFF0007BC3C01EF0F03C3D87
:1009E000EF0001F37FE03FFBC3CFFEF0F03C3DEFB3
:1009F0000003E33F807FFBC3DFFEF0F03C3DEF00F0
:100A000007E73C00787BC3DE1EF0F03C3DEF0007BB
:100A1000FFBE00787BC3DE1EF0F03C3DEF0007FF19
:100A2000FE00787BC3DE1EF0F03C3DEF000FFFFEC2
:100A3000007FFBFFDFFEF0F03FFDEFE00FFFFF0068
:100A40007FFBFFDFFEF0F03FFDEFE00FF9FF003E20
:100A500079F9CF9EF0F01F3DE7E01FF1FF000000A5
:100A60000000000000000000001F80FF007FFFFF6B
:100A7000FFFFFFFFFFFFFFE01C007F007FFFFFFF86
:100A8000FEB46D888D18E000001F007FFFFFFFFEA1
:100A900095AD7DB577E000000F007FFFFFFFFEA55D
:100AA000AD9D8D19E0000006007FFFFFFFFEB5AD94
:100AB000EDB57EE0000000000001800000000000B5
:100AC000000000000380000000000000000000079C
:100AD000C000000000000000000007C0000000008F
:100AE00000000000000FC000000000000000000037
:100AF0001FE00000000000000000001FE0000000F8
:100B00000000000000003FE00000000000000000C6
:100B1000003FF00000000000000000007FF0000037
:100B200000000000001FF87FF0000000000000003F
:100B30003FFE7FF0000000000000003FFF7FF0005C
:100B40000000000000001FFFFBE0000000000000AC
:100B5000000FFFF9FFC00000000000000FFFF9FFC9
:100B6000F800000000000007FFF1FFFF0000000098
:100B7000000003FC73FFFF80000000000001FE3F47
:100B8000FFFF80000000000000FF1E0FFF000000BC
:100B9000000000007FFE1FFC000000000000003F7E
:100BA000FFFFF8000000000000000FDFFFE0000082
:100BB00000000000001F19FFC0000000000000003E
:100BC0003F3CFF00000000000000007E7CF80000B9
:100BD0000000000000007FFE7C000000000000001C
:100BE00000FFFFFC0000000000000000FFFFFE000F
:100BF00000000000000000FFFFFE000000000000F9
:100C00000001FFEFFE0000000000000001FFCFFE2A
:100C10000000000000000003FF07FE0000000000CD
:100C2000000003FC07FE0000000000000003F003CA
:100C3000FE00000000000000018000FE0000000037
:100C40000000000000007E00000000000000000026
:100C5000003E000000000000000000000C0000004A
:100C6000000000078000FC000003C00000000780B7
:100C700001FC000003C0000000078001FC0000032D
:100C8000C0000000078001E00000001E0000000717
:100C90008001E00000001E007FE3F79FF9FDE77888
:100CA0007BDFC0FFF7FFBFFDFDFF787BDFC0FFF7F5
:100CB000FFBFFDFDFF787BDFC0F0F787BC3DE1FFA4
:100CC000787BDE00F0F787BC3DE1F0787BDE00004A
:100CD000F787803DE1E0787BDE007FF7879FFDE1CD
:100CE000E0787BDE00FFF787BFFDE1E0787BDE0088
:100CF000F0F787BC3DE1E0787BDE00F0F787BC3D94
:100D0000E1E0787BDE00F0F787BC3DE1E0787BDE58
:100D100000FFF7FFBFFDE1E07FFBDFC0FFF7FFBF94
:100D2000FDE1E07FFBDFC07CF3F39F3DE1E03E7B34
:100D3000CFC00000000000000000000000FFFFFF27
:100D4000FFFFFFFFFFFFFFC0FFFFFFFFFD68DB119D
:100D50001A31C0FFFFFFFFFD2B5AFB6AEFC0FFFFF8
:100D6000FFFFFD4B5B3B1A33C0FFFFFFFFFD6B5BDB
:100D7000DB6AFDC04669726D7761726520762E3A36
:100D80000044445320414439393134204172647560
:100D9000696E6F20536869656C64206279204752E0
:100DA00041202620414643482E20286772612D614C
:100DB0006663682E636F6D2900556E6B6E6F776E7C
:100DC00020636F6D6D616E643A0046202D2053657F
:100DD00074204672657175656E637920696E20486E
:100DE0007A2028313030303030202D204444535F79
:100DF000436F72655F436C6F636B2F32290A50201B
:100E00002D20536574204F757470757420506F7762
:100E1000657220696E2064426D20282D3638202DA1
:100E20002030290A4D202D20476574204D6F6465C0
:100E30006C0A56202D20476574204669726D7761D3
:100E400072652056657273696F6E0A68202D205492
:100E50006869732048656C700A3B202D20436F6DD4
:100E60006D616E647320536570617261746F720A94
:100E70004578616D706C653A0A46313030303030FB
:100E80003B502D320A536574204672657175656E4C
:100E9000637920746F20313030206B487A2C2061C8
:100EA0006E64204F757470757420506F7765722072
:100EB000746F202D322064426D2E0A416E79206EAF
:100EC000756D626572206F6620636F6D6D616E6413
:100ED0007320696E20616E79206F7264657220697B
:100EE0007320616C6C6F7765642E0044445339390C
:100EF00031342F352076322E320053657420506FF6
:100F00007765722E3A200053657420667265712EE3
:100F10003A2000475241264146434800416D706CDB
:100F200069747564653A004672657175656E6379BA
:100F30002C205B487A5D3A004444532041443939BF
:100F400031340000002100240027002A002D003049
:100F500000330001010000040107010A0100002222
:100F600000250028002B002E003100340002010073
:100F700000050108010B0100000A0B02090C0D0E0F
:100F8000080703040100000000000000000000004A
:100F90000000000000000000000000000000000051
:100FA000000000121110000000000000000000000E
:100FB000000000000000000000000000002200FF10
:100FC000210001021020200808102040102040803D
:100FD00002010201080402010102040810204080FD
:100FE000804020100804020180040201804020108B
:100FF00008040201080402010102040810204080D4
:101000000102040810204080000020002300260078
:1010100029002C002F00320000010000030106010E
:10102000090105050505070508080808020202026E
:101030000A0A080804040404010101010101010174
:101040000303030303030303040707070C0C0C0C3F
:101050000C0C0C0C02020202060606060606060628
:101060000B0B0B0B0B0B0B0BF8276D3911241FBE51
:10107000CFEFD1E2DEBFCDBF00E00CBF27E0A8E894
:10108000B4E001C01D92AD3BB207E1F714E0A0E06F
:10109000B2E0E4E0F0E900E00BBF02C007900D927F
:1010A000A838B107D9F718E0C5E3D8E000E006C0DA
:1010B00021970109802FFE010E943B41C433D107D3
:1010C00080E00807A9F70E94F12A0C94F0470C94DD
:1010D0000000CF93DF93EC01E0917C02F0917D0260
:1010E000EE0FFF1FEE0FFF1FEA58FD4F25853685D7
:1010F0004785508960E87CE781E89AE40E94AF3D2B
:101100002F3F310519F010F02FEF30E02A30310574
:1011100010F42AE030E039832883DF91CF910895DD
:1011200008958150823108F05AC0E82FF0E08827F6
:10113000E356F74F8F4F0C943B41BD08C108AF08F1
:10114000B508B908EF08C408CA08CE08D408D808FA
:10115000DC08E208E608EF08EA08F008F4088091E5
:1011600080008F77809380000895809180008F7D2C
:10117000F9CF80918000877FF5CF84B58F7784BDCC
:10118000089584B58F7DFBCF8091B0008F778093D9
:10119000B00008958091B0008F7DF9CF80919000CC
:1011A0008F77809390000895809190008F7DF9CF84
:1011B00080919000877FF5CF8091A0008F778093FA
:1011C000A00008958091A0008F7DF9CF8091A000AC
:1011D000877FF5CF809120018F778093200108953C
:1011E000809120018F7DF9CF80912001877FF5CFFD
:1011F0001F93CF93DF93282F30E0F901E958F04F88
:101200008491F901EE53F04FD491F901EE5DFF4E58
:10121000C491CC23A9F0162F81110E949108EC2FC4
:10122000F0E0EE0FFF1FE35AF04FA591B4918FB796
:10123000F894EC91111108C0D095DE23DC938FBF98
:10124000DF91CF911F910895DE2BF8CFCF93DF93DD
:1012500090E0FC01EE53F04F24918E5D9F4EFC0117
:1012600084918823C9F090E0880F991FFC01ED5B01
:10127000F04FA591B491FC01E35AF04FC591D49180
:1012800061110DC09FB7F8948C91209582238C93A7
:101290008881282328839FBFDF91CF9108956230F2
:1012A00051F49FB7F8943C91822F809583238C93BF
:1012B000E8812E2BEFCF8FB7F894EC912E2B2C9347
:1012C0008FBFEACF3FB7F89480915A0590915B05A4
:1012D000A0915C05B0915D0526B5A89B05C02F3F88
:1012E00019F00196A11DB11D3FBFBA2FA92F982F4C
:1012F0008827BC01CD01620F711D811D911D42E047
:10130000660F771F881F991F4A95D1F708958F920E
:101310009F92AF92BF92CF92DF92EF92FF924B01DA
:101320005C010E9462096B017C010E9462096C19D8
:101330007D098E099F09683E734081059105A8F3D8
:1013400021E0821A9108A108B10888EEC80E83E056
:10135000D81EE11CF11C81149104A104B10429F7E9
:10136000FF90EF90DF90CF90BF90AF909F908F90C5
:101370000895CF93DF93CCE1D6E061E08A810E94AB
:10138000F80861E070E080E090E00E94870960E08A
:101390008A81DF91CF910C94F8082FB7F89460916F
:1013A00056057091570580915805909159052FBFAA
:1013B0000895CF92DF92EF92FF92CF93DF930E9436
:1013C000CD096B017C012091C30530E0F901E9589A
:1013D000F04F8491F901EE53F04FD491F901EE5D95
:1013E000FF4EC491CC2309F477C081110E9491086B
:1013F000EC2FF0E0EE0FFF1FE85FFF4EA591B491D8
:10140000EC91DE2331E020E009F430E0832F922FCD
:10141000282F21702093C5052091C405211105C0F6
:1014200021E0822781708093C5058091C505909148
:10143000C605891741F0C092C905D092CA05E0924D
:10144000CB05F092CC054091C9055091CA05609139
:10145000CB057091CC05C41AD50AE60AF70A40916B
:10146000B7055091B8056091B9057091BA054C1552
:101470005D056E057F0594F49091B605891771F0AE
:101480008093B605882371F02091C7053091C80577
:101490002F5F3F4F3093C8052093C7059091B60545
:1014A00091111DC04091BB055091BC056091BD05D7
:1014B0007091BE052091C7053091C8054C155D059A
:1014C0006E057F0504F18093C605DF91CF91FF90F3
:1014D000EF90DF90CF90089590E080E099CF409119
:1014E000BF055091C0056091C1057091C2054C15B2
:1014F0005D056E057F053CF72091C7053091C80555
:101500003195219531093093B5052093B40510929A
:10151000C8051092C705D7CF089508950895089576
:10152000DB0114964D915C9115976D917C91DC01D6
:10153000ED91FC910280F381E02D1994EF92FF92DE
:101540000F931F93CF93DF938C017B01D0E0C0E01A
:10155000F701EC0FFD1F6491662361F0D801ED9156
:10156000FC910190F081E02DC8011995892B11F0B3
:101570002196EECFCE01DF91CF911F910F91FF9079
:10158000EF900895AF92BF92CF92DF92EF92FF92C9
:101590000F931F93CF93DF936C017B018B01040F9B
:1015A000151FEB015E01AE18BF08C017D10759F037
:1015B0006991D601ED91FC910190F081E02DC60179
:1015C0001995892B79F7C501DF91CF911F910F9163
:1015D000FF90EF90DF90CF90BF90AF900895FC0107
:1015E000538D448D252F30E0842F90E0821B930B88
:1015F000541710F0CF96089501970895FC01918D2E
:10160000828D981761F0A28DAE0FBF2FB11D5D9630
:101610008C91928D9F5F9F73928F90E008958FEFD2
:101620009FEF0895FC01918D828D981731F0828D86
:10163000E80FF11D858D90E008958FEF9FEF0895DD
:10164000FC01918D228D892F90E0805C9F4F821B41
:1016500091098F739927089582ED96E00E94200BDF
:1016600021E0892B09F420E0822F0895FC01A48D4C
:10167000A80FB92FB11DA35ABF4F2C91848D90E0B4
:1016800001968F739927848FA689B7892C93A08997
:10169000B1898C91837080648C93938D848D981321
:1016A00006C00288F389E02D80818F7D80830895B4
:1016B000EF92FF920F931F93CF93DF93EC0181E0A2
:1016C000888F9B8D8C8D98131AC0E889F989808149
:1016D00085FF15C09FB7F894EE89FF896083E8897C
:1016E000F98980818370806480839FBF81E090E06E
:1016F000DF91CF911F910F91FF90EF900895F62EFB
:101700000B8D10E00F5F1F4F0F731127E02E8C8D94
:101710008E110CC00FB607FCFACFE889F9898081D9
:1017200085FFF5CFCE010E94360BF1CFEB8DEC0F8C
:10173000FD2FF11DE35AFF4FF0829FB7F8940B8FF6
:10174000EA89FB8980818062CFCFCF93DF93EC0160
:10175000888D8823B9F0AA89BB89E889F9898C9199
:1017600085FD03C0808186FD0DC00FB607FCF7CF55
:101770008C9185FFF2CF808185FFEDCFCE010E9455
:10178000360BE9CFDF91CF91089580E090E0892B6F
:1017900029F00E942C0B81110E94000080E090E053
:1017A000892B49F080E090E0892B29F00E9400000D
:1017B00081110E94000080E090E0892B49F080E0D8
:1017C00090E0892B29F00E94000081110E94000006
:1017D00080E090E0892B49F080E090E0892B29F0AF
:1017E0000E94000081110C94000008950895FC01EE
:1017F0006370668B8481958126813781613039F0F1
:10180000633029F091878087338722870895318755
:1018100020879387828708952F923F924F925F92FD
:101820006F927F928F929F92AF92BF92CF92DF92F0
:10183000EF92FF920F931F93CF93DF93CDB7DEB755
:101840006A970FB6F894DEBF0FBECDBF9A8F898F0F
:101850007A8369834A01D22E18870F833701BC2C03
:10186000DC0159962D913C915A972115310509F0CB
:1018700015C118968D919C911997681779070CF0EE
:10188000D7C11A968D919C91481759070CF0D0C179
:101890004C2C512CB6E0CB9E600D711D11247C8721
:1018A0006B87161617060CF0C3C1EA2DF0E0FA8715
:1018B000E98793E0EE0FFF1F9A95E1F7F88BEF872A
:1018C000CF01840F951F181619060CF0B1C1A98D10
:1018D000BA8D58968C91811104C0BFEABD1508F4E9
:1018E000D394A98DBA8DED91FC9111970284F38563
:1018F000E02DCD011995B5E0DB9EC0011124E981F1
:10190000FA81FC83EB83312C212C9C0128543C4F21
:10191000388F2F8B4A2D50E05E8B4D8BEF89F88DE1
:10192000E20DF31D44919E828D82D12CC12C6981E0
:101930007A81620D731D7A8B698B842F90E09C8B6A
:101940008B8BE98DFA8DA081B18140FF82C0F1E0DF
:10195000BF126FC0AF126DC01C96ED91FC912F812C
:101960003885A4014C0D5D1D69897A89898D9A8D10
:101970001995EB89FC89F595E7954E2F5FEFC51A10
:10198000D50A6D817E818D899E89680F791F7E833E
:101990006D8398E0C916D10481F6AFEF2A1A3A0A8E
:1019A000EB81FC81E40DF51DFC83EB83F5E02F1644
:1019B000310409F0B3CF2F81388526153705B9F0EA
:1019C000A98DBA8DED91FC91B1E0BB1257C0AB125D
:1019D00055C069817A816B5F7F4F0088F189E02D66
:1019E000830128E030E0A401898D9A8D1995A98D95
:1019F000BA8DED91FC9111970688F789E02DCD0104
:101A00006A960FB6F894DEBF0FBECDBFDF91CF91BF
:101A10001F910F91FF90EF90DF90CF90BF90AF900C
:101A20009F908F907F906F905F904F903F902F90FE
:101A300019941E96ED91FC91EF80F88409851A8522
:101A400092014D815E816B817C81898D9A8D199582
:101A500090CF2F8138852615370509F48ACF31E0DC
:101A6000B31207C0A31205C01C96ED91FC9193011F
:101A700078CF1E96ED91FC917301E0CF6B857C854C
:101A8000641975090684F785E02D73010F8518899F
:101A90009201A401898D9A8D1995A9CFF9013496E7
:101AA0009491329745915491D91AB7E0DB9E400D3D
:101AB000511D1124F901259134913C8B2B8BFA0196
:101AC00025903490FA013296749031963491398B86
:101AD000329664903196449041E04C1518F04A15C6
:101AE00008F07FC0662D062C000C770B7C836B837F
:101AF000842D042C000C990B9E838D83A98DBA8DA7
:101B0000ED91FC9111970284F385E02DCD0119959B
:101B1000512CD12CC12CEA2DF0E0FA87E9872B2D2E
:101B200030E03C872B87A401440D511D47FC5A959A
:101B3000588F4F8B69817A81660D711D67FC7A958C
:101B40007E876D877989C71608F051CF2C2D30E03C
:101B50004D815E81420F531FA985BA854A9FC001FE
:101B60004B9F900D5A9F900D1124FC01E80DF91D1B
:101B7000F88BEF87852D612C4F89588D420F531FAD
:101B80005E8B4D8B671408F050C044244394480E7C
:101B9000877041F4C1010196EB89FC89E20DF31DC8
:101BA000D4901C01D7FE19C0A98DBA8DED91FC917E
:101BB000662D70E0B1E0BB1219C0AB1217C02D85C5
:101BC0003E85620F731F0484F585E02D2F813885D3
:101BD0004D895E89898D9A8D1995DD0C6394842DCC
:101BE000D1CF1E821D821C821B8288CF4B815C81DB
:101BF000640F751FAB85BC856A9FC0016B9F900DFC
:101C00007A9F900D112469817A81680F791F06846B
:101C1000F785E02DEF80F88409851A859D014F85B1
:101C20005889898D9A8D1995D8CF570CC3948ACF2E
:101C30006A960FB6F894DEBF0FBECDBFDF91CF918D
:101C40001F910F91FF90EF90DF90CF90BF90AF90DA
:101C50009F908F907F906F905F904F903F902F90CC
:101C600008958F929F92AF92CF92EF92FF920F932F
:101C70001F93CF93DF93EC01262F898D9A8D0097C8
:101C800009F051C06A30D1F41D861C868D8948E068
:101C9000849F900111248E859F85820F931F9F87BB
:101CA0008E8781E090E0DF91CF911F910F91FF909F
:101CB000EF90CF90AF909F908F9008956D3089F303
:101CC000CC88AD888F898823C1F08C859D8536E0CE
:101CD000C39E800D911D11244885598548175907C9
:101CE00064F44E855F851D861C8638E0A39EC00186
:101CF0001124840F951F9F878E87EA88FB880889A7
:101D000019894E855F856C857D85CE010E940C0CFE
:101D10002C898C859D8546E0249F800D911D112482
:101D20009D878C87BECF6A3069F41D861C86FC01B6
:101D30003696E4912D898E859F85E29F800D911DB9
:101D40001124ADCF6D3009F4ACCFFC013496349141
:101D5000631708F4A6CF3196E491E61708F4A1CFF3
:101D6000FC01329685909490462F431B342F47E018
:101D7000349F800C911C1124F401329634913196D9
:101D8000E4913323A9F1EE2399F1CC88F40135963F
:101D9000E491AD884F89442301F10E2E000CFF0B16
:101DA000E30FF11DCE9EA001CF9E500D11246C8536
:101DB0007D85460F571F68857985641775076CF414
:101DC0004E855F851D861C86FC013696E491AE9E8D
:101DD000400D511D11245F874E87EA88FB880889D2
:101DE00019894E855F856C857D85CE010E940C0C1E
:101DF000F4013496E4912C898C859D85E29F800DB9
:101E0000911D11248DCF6F927F928F929F92AF92EE
:101E1000BF92CF92DF92EF92FF920F931F93CF93D7
:101E2000DF93EC016B015A0139014801E881F98126
:101E30000284F385E02D1995E881F9810288F38900
:101E4000E02D87019301A501B601CE011995A501E9
:101E5000480D591D41505109E881F9810288F389E3
:101E6000E02D9301B601CE011995E881F981008832
:101E7000F189E02D9401A501B601CE011995C60C9A
:101E8000D71CB60161507109E881F9810088F18998
:101E9000E02D9401A501CE011995E881F98106880C
:101EA000F789E02DCE01DF91CF911F910F91FF9027
:101EB000EF90DF90CF90BF90AF909F908F907F90EA
:101EC0006F9019946F927F928F929F92AF92BF9270
:101ED000CF92DF92EF92FF920F931F93CF93DF93F6
:101EE0005C01EB016A01490138018701DC01ED91D8
:101EF000FC916217730719F5641675062CF0962D80
:101F0000872D3A01C92ED82E9601261937092F5F41
:101F10003F4F048CF58DE02DA301BE01C50119953D
:101F2000DF91CF911F910F91FF90EF90DF90CF90B5
:101F3000BF90AF909F908F907F906F9008954615BF
:101F4000570591F42617370724F0892D4B01C22F2E
:101F5000D82F9E01281939092F5F3F4F068CF78D26
:101F6000E02DA601B401DACF0284F385E02D1995A6
:101F7000D501ED91FC910488F589E02D8301940150
:101F8000A601BE01C5011995D501ED91FC91068808
:101F9000F789E02DC501DF91CF911F910F91FF903F
:101FA000EF90DF90CF90BF90AF909F908F907F90F9
:101FB0006F901994EF92FF920F931F93DC011A9682
:101FC0000D911C911B9718962D913C911997ED91AD
:101FD000FC9100A0F1A1E02D7B0150E040E070E019
:101FE00060E019951F910F91FF90EF9008954F9227
:101FF0005F926F927F928F929F92AF92BF92CF9299
:10200000DF92EF92FF920F931F93CF93DF936C01B8
:102010002B015A0139014801DC01ED91FC91028448
:10202000F385E02D1995E201640C751CD601ED9144
:10203000FC91C615D7055CF40088F189E02D870175
:102040009401A501BE01C60119952196EFCF06881E
:10205000F789E02DC601DF91CF911F910F91FF907D
:10206000EF90DF90CF90BF90AF909F908F907F9038
:102070006F905F904F9019948F929F92AF92BF9202
:10208000CF92DF92EF92FF920F931F93CF93DF9344
:10209000EC015B014A016901E881F9810284F38561
:1020A000E02D199595012C0D3D1D21503109E88138
:1020B000F9810488F589E02D78018401A401B50136
:1020C000CE011995E881F9810688F789E02DCE01C6
:1020D000DF91CF911F910F91FF90EF90DF90CF9004
:1020E000BF90AF909F908F9019948F929F92AF92D4
:1020F000BF92CF92DF92EF92FF920F931F93CF93F5
:10210000DF93EC015B014A0169017801E881F98103
:102110000284F385E02D1995C80CD91C8601015065
:102120001109E881F9810488F589E02D9501A40160
:10213000B501CE011995E881F9810688F789E02D6E
:10214000CE01DF91CF911F910F91FF90EF90DF9023
:10215000CF90BF90AF909F908F901994EF92FF9285
:102160000F931F93DC01ED91FC9100A0F1A1E02DF4
:1021700019951F910F91FF90EF9008950F931F9362
:10218000DC01ED91FC91068CF78DE02D19951F91E6
:102190000F9108950F931F93DC01ED91FC91048C36
:1021A000F58DE02D19951F910F910895DC01ED91AA
:1021B000FC910084F185E02D19943F924F925F923B
:1021C0006F927F928F929F92AF92BF92CF92DF9247
:1021D000EF92FF920F931F93CF93DF935C017B01EC
:1021E0004A016901390187E0680E711C93E075941A
:1021F00067949A95E1F72B01400E511E10E000E024
:10220000312CD0E0C0E0CE0187709927330C892BA8
:1022100059F4FE0183E0F595E7958A95E1F7E00F23
:10222000F11FE80DF91D349037FE0AC021E030E0BF
:10223000A701B5016C0F7D1F89ED95E00E94D610B6
:102240002196CC16DD06F9F68FEFE81AF80A060D8E
:10225000171DE414F504A9F6DF91CF911F910F919A
:10226000FF90EF90DF90CF90BF90AF909F908F90B6
:102270007F906F905F904F903F9008952F923F9284
:102280004F925F926F927F928F929F92AF92BF9286
:10229000CF92DF92EF92FF920F931F93CF93DF9332
:1022A00000D000D0CDB7DEB73C016A013E832D835C
:1022B000FC82EB825801A41AB50AB7FE03C0B194A0
:1022C000A194B1088D809E80861A970A97FE03C05C
:1022D0009194819491088A149B045CF0902F812F33
:1022E0000D811E819D838E839C2D8D2D6B01692F09
:1022F000782F0C151D055CF09D818E817E836D838A
:10230000692F782F902F812F8601C92ED82E160184
:10231000201A310A2B012D813E81421A530A57FEA1
:1023200003C0519441945108710137FE03C03FEF3F
:10233000E31AF30AF594E7948D819E818617970737
:102340005CF5A1E0B0E0BA83A983C016D1064CF1D8
:10235000D301ED91FC910484F585E02D2B813C8126
:10236000A8016D817E818A149B041CF04D815E81E1
:10237000B801C3011995E418F508F7FE0AC02D81CC
:102380003E8189819A81280F391F3E832D83E20C7B
:10239000F31C0F5F1F4FD9CF2FEF3FEF3A832983F5
:1023A000D4CF26960FB6F894DEBF0FBECDBFDF9117
:1023B000CF911F910F91FF90EF90DF90CF90BF9042
:1023C000AF909F908F907F906F905F904F903F90D5
:1023D0002F900895CF93CFB7F8948091460581113F
:1023E00027C0E7E5F0E18491E7EFFFE09491E82F63
:1023F000F0E0EE0FFF1FED5BF04FA591B491EC9173
:10240000E92321F461E085E30E94F80861E085E3B7
:102410000E9426098CB580618CBD8CB580648CBD12
:1024200061E084E30E94260961E083E30E942609BB
:10243000809146058F5F80934605CFBFCF91089569
:102440002091FC04260F3327331F21323105ECF491
:1024500020912005FC0190E080E0243069F082E0CA
:102460000895A091FC042191AC0144525B4FA40F4C
:10247000B52FB11D2C930196861798F38091FC041B
:10248000680F6093FC0480E0089581E00895109245
:10249000200581E0809322051092210561E084E10E
:1024A0000E94F80861E085E10E94F808E9EBF0E09D
:1024B00080818E7F808380818D7F808388E480937C
:1024C000B80085E48093BC000895CF93DF9391E03A
:1024D0009093DB048823B9F0C091B800D091BA0082
:1024E0008091BC008A7B8093BC0060E084E10E9404
:1024F000F80860E085E10E94F8080E944712D09336
:10250000BA00C093B800DF91CF910895E0914C05D7
:1025100080914B05E81730F4F0E0EA54FB4F8081DE
:1025200090E008958FEF9FEF089590914C05809172
:102530004B052FEF3FEF981748F4E92FF0E0EA54EE
:10254000FB4F208130E09F5F90934C05C9010895B7
:1025500080914B0590914C05891B990B0895CF9262
:10256000DF92EF92FF920F931F93CF93DF937C0143
:10257000CB018A0120916105222389F0EB016B01D7
:10258000C40ED51ECC15DD0569F06991D701ED911A
:10259000FC910190F081E02DC7011995F3CF642FD4
:1025A0000E942012C801DF91CF911F910F91FF90DF
:1025B000EF90DF90CF900895CF93DF931F92CDB728
:1025C000DEB76983209161052223F9F020915E0531
:1025D000203258F021E030E0FC013383228390E088
:1025E00080E00F90DF91CF91089580915F05E82FF3
:1025F000F0E0EA56FB4F998190838F5F80935F05EF
:1026000080935E0581E090E0ECCF61E0CE01019621
:102610000E942012F7CFCF92DF92EF92FF920F939A
:102620001F93CF93DF93D0915E0581E0D13208F004
:102630009CC0C09160050E9462096B017C01809181
:10264000200581116CC082E08093200581E0809399
:1026500022058FEF80931F0510924405D093430508
:10266000A6E9B4E0E3E2F5E080E0D8138DC0109273
:10267000450580914505CC0FC82BC0934505809139
:102680002105813009F084C0109221050E94620961
:102690006B017C01809145058093BB008091D7043C
:1026A0009091D804A091D904B091DA04892B8A2B97
:1026B0008B2BA1F00E9462090091D7041091D804DD
:1026C0002091D9043091DA046C197D098E099F0993
:1026D000061717072807390708F442C08091BC0085
:1026E00083FDD8CF85EC8093BC000E9462096B010A
:1026F0007C0180912005823009F44CC080911F0537
:102700008F3F09F469C080911F05803209F466C0CB
:1027100080911F05803309F463C084E026C0809156
:10272000D7049091D804A091D904B091DA04892BF0
:102730008A2B8B2B09F483CF0E9462090091D70466
:102740001091D8042091D9043091DA046C197D09D4
:102750008E099F09061717072807390708F06FCF5A
:102760008091D6040E94651285E010925F05109258
:102770005E0510926105DF91CF911F910F91FF903F
:10278000EF90DF90CF9008959D9191938F5F6DCFE3
:1027900085EEA9CF8091D7049091D804A091D90457
:1027A000B091DA04892B8A2B8B2B09F4A2CF0E94DB
:1027B00062090091D7041091D8042091D904309176
:1027C000DA046C197D098E099F0906171707280777
:1027D000390708F08ECFC4CF80E0C7CF82E0C5CFE5
:1027E00083E0C3CFEF92FF920F931F93CF93DF93BA
:1027F000EC01EC80FD806E157F050CF070C057FF7A
:1028000004C0240F351F50E040E08E819F81FA0103
:10281000E20FF31F8E179F071CF49C01241B350B3E
:10282000121613060CF05BC0922F842F86958695A6
:1028300086958E9DD0018F9DB00D11246A0F7B1F50
:10284000AF8DB8A1A60FB71F477049F188E0841B70
:10285000482F682F70E0FB01E055FC4FE4912817EA
:1028600008F063C0621B71092FEF30E002C035959C
:1028700027956A95E2F7E2230130110539F0B0F1AE
:102880000230110561F58C91E82702C08C91E82B8C
:10289000EC93941720F12C813D81A20FB31FE92FF7
:1028A000E41BE83078F00230110521F58E2F9C9161
:1028B00090959C932C813D81A20FB31F8850883046
:1028C000B0F7E770EE2359F0F0E0E855FC4FE491E3
:1028D00001301105F9F010F10230110519F1DF9105
:1028E000CF911F910F91FF90EF900895E0958C91FB
:1028F000E823CECF81E00115110509F480E0819530
:102900009E2F8C932C813D81A20FB31F985098303D
:10291000C0F7D7CF8C91E82BEC93E1CFE0958C9169
:10292000E823FACF8C91E827F7CF0130110509F49D
:10293000ADCFE0F20230110509F4A5CFAE0DBF1DF9
:10294000AECF0F931F93CF93DF9377FF04C0260F73
:10295000371F70E060E0DC011496CD91DC91FB0143
:10296000E20FF31FCE17DF071CF49E01261B370B67
:10297000121613064CF5FA0157FD3796A3E0F595AC
:10298000E795AA95E1F7EC9FD001ED9FB00DFC9F74
:10299000B00D11246A0F7B1FDC015F96ED91FC9155
:1029A000E60FF71F4770552781E090E001C0880FC0
:1029B0004A95EAF7482F0130110559F0A8F02E0F7B
:1029C0003F1F02301105E1F0DF91CF911F910F9170
:1029D00008952E0F3F1FE217F307B1F38191DF0136
:1029E0001197842B8C93F7CF80952E0F3F1FE21702
:1029F000F30751F39191DF01119798239C93F7CF3F
:102A0000E217F30709F38191DF01119784278C9373
:102A1000F7CF0F931F93FA01DC0156964C9156970E
:102A20004230E9F04330A1F1413061F514964D9107
:102A30005C91DA01AE1BBF0BFD01E21BF30B77FDCE
:102A40000BC0DC0116964D915C916417750724F458
:102A5000AB01BF010E94A1141F910F91089514961C
:102A60004D915C91DA01A61BB70BBD016150710954
:102A7000DC0116964D915C91DA01AE1BBF0BFD0196
:102A8000E21BF30B77FDE8CFAF010E94F213E4CF16
:102A900016964D915C91DA01A61BB70BBD016150F2
:102AA0007109CDCF0F931F93FA01DC0156964C911B
:102AB00056974230A9F0433091F1413019F5149600
:102AC0004D915C91DA01AE1BBF0BFD013197F7FD13
:102AD00004C0AB01BF010E94F2131F910F91089532
:102AE00014964D915C91DA01A61BB70BBD01DC0178
:102AF00016964D915C91DA01AE1BBF0BFD0131972B
:102B0000621B730BF7FDE9CFDC0116964D915C91CA
:102B1000E417F50714F7AF010E94A114DECF169653
:102B20004D915C91DA01A61BB70BBD01621B730BC3
:102B3000CECFFC0177FD64C0808591856817790749
:102B40000CF05EC057FD5CC082859385481759071D
:102B50000CF056C086898230B1F0833029F1813083
:102B600041F484819581841B950BAB01BC016150BC
:102B700071092130310509F108F443C022303105D3
:102B800009F463C0089584819581DC01A61BB70B0D
:102B9000BD016150710986819781DC01A41BB50BD1
:102BA000AD0141505109E5CF86819781861B970B76
:102BB000BA01AC0141505109DCCFCA0157FD07965B
:102BC000A3E095958795AA95E1F7A481B5818A9FA1
:102BD00090018B9F300D9A9F300D1124620F731F4F
:102BE000078CF0A1E02DE60FF71F4770552721E075
:102BF00030E001C0220F4A95EAF78081822B808362
:102C00000895CA0157FD079633E0959587953A9543
:102C1000E1F7A481B5818A9F90018B9F300D9A9F27
:102C2000300D1124620F731F078CF0A1E02DE60F09
:102C3000F71F4770552781E090E001C0880F4A9543
:102C4000EAF7809590818923DACFCA0157FD07966C
:102C500023E0959587952A95E1F7A481B5818A9F10
:102C600090018B9F300D9A9F300D1124620F731FBE
:102C7000078CF0A1E02DE60FF71F4770552721E0E4
:102C800030E001C0220F4A95EAF780818227B7CF52
:102C900008958CBD9DBD089590E080E00895AF92A9
:102CA000BF92CF92DF92EF92FF920F931F93CF9339
:102CB000DF93E0917C02F0917D02EE0FFF1FEE0F9B
:102CC000FF1FEA58FD4F85859685A785B0895C0171
:102CD0006D01E12CF12C00E010E020E03AE94DEA32
:102CE0005EE460E070E080E090E00E94AC410E9411
:102CF000003F0E94D13ECB016F3F710519F010F0EB
:102D00008FEF90E0DF91CF911F910F91FF90EF90A7
:102D1000DF90CF90BF90AF900895AF92BF92CF92C7
:102D2000DF92EF92FF920F931F93CF93DF93E09187
:102D30007C02F0917D02EE0FFF1FEE0FFF1FEA589D
:102D4000FD4F85859685A785B0895C016D01E12CD5
:102D5000F12C00E010E020E03CE846E857E460E0B9
:102D600070E080E090E00E94AC410E94003F0E9431
:102D7000D13ECB016A30710510F48AE090E0DF911A
:102D8000CF911F910F91FF90EF90DF90CF90BF9068
:102D9000AF9008950F931F93CF93DF93EC01809131
:102DA0008E0481110DC00E94CD0960938A04709336
:102DB0008B0480938C0490938D0481E080938E0427
:102DC0008881882371F10E94CD0900918A041091B5
:102DD0008B0420918C0430918D04601B710B820B4D
:102DE000930B6E3471408105910580F0C091000213
:102DF0000E94CD0960938A0470938B0480938C04A5
:102E000090938D04C13049F4109200028091000229
:102E1000DF91CF911F910F91089581E0809300027F
:102E2000F5CF81E0F5CFCF92DF92EF92FF92A091A4
:102E30004802B091490220E03AEC4AE95BE30E9483
:102E40004A416B017C01A0913B02B0913C0220E41D
:102E500032E44FE050E00E944A41C60ED71EE81E01
:102E6000F91E6091210270912202072E000C880B3E
:102E7000990BC60ED71EE81EF91EA0912E02B09126
:102E80002F0228EE33E00E9443416C0D7D1D8E1D04
:102E90009F1DFF90EF90DF90CF900895EF92FF92EB
:102EA0000F931F93CF93DF93EC01A881B9817C81AD
:102EB0000A811B81FD8020E931E050E040E090E094
:102EC00080E06C916723E1E0F0E011F4F0E0E0E0F5
:102ED0008E0F9F1FF80160816F21E1E0F0E011F497
:102EE000F0E0E0E04E0F5F1F2150310951F721E083
:102EF000893C910508F420E081E0493C510508F443
:102F000080E090918904921305C0909188049817ED
:102F100009F460C020938904809388049E81990FEE
:102F2000990F922B880F982B9E839B3409F459C0DC
:102F3000973809F04FC0EE24EA94FE2C0E94CD0988
:102F40000B851C852D853E85DC01CB01801B910BFB
:102F5000A20BB30B8F87988BA98BBA8B10E000E084
:102F60008A319105A105B10540F405E010E00D9707
:102F7000A105B10510F40AE010E00E94CD096B87AD
:102F80007C878D879E8721E030E0FFEFEF16FF06FC
:102F900011F42FEF3FEFC701FF0CAA0BBB0B4F81C2
:102FA000588569857A85840F951FA61FB71F029FD4
:102FB000A001039F500D129F500D1124052E000CEF
:102FC000660B770B840F951FA61FB71F8F839887FB
:102FD000A987BA87DF91CF911F910F91FF90EF9052
:102FE0000895EE24E394F12CA9CF8091620590918D
:102FF00063050C944E1780916405909165050C94BF
:103000004E1780916605909167050C944E1780913C
:103010006805909169050C944E1780916A0590910E
:103020006B050C944E1780916C0590916D050C9476
:103030004E1782E492E090935405809353051092CA
:10304000510580E008950895CF93DF93EC01E0915E
:103050007C02F0917D02EE0FFF1FEE0FFF1FEA587A
:10306000FD4F2585368547855089220F331F441F24
:10307000551FAE81BF810E944A416D877E878F8731
:10308000988BDF91CF9108954F925F926F927F92CC
:103090008F929F92AF92BF92CF92DF92EF92FF9268
:1030A0000F931F93CF93DF9300D01F92CDB7DEB75E
:1030B0008091A6079091A707892BC9F580919C075D
:1030C00090919D07A0919E07B0919F0781509841D4
:1030D000AD40BF488F3F9B41AE44BE4020F08FE8DB
:1030E00097E00E94241880909C0790909D07A090E4
:1030F0009E07B0909F07C12CD12C76019401A501A9
:10310000B601C7010F900F900F900F90DF91CF91F4
:103110001F910F91FF90EF90DF90CF90BF90AF90F5
:103120009F908F907F906F905F904F900895309117
:10313000700220916F02932F990F990BA12C4AECEA
:10314000B42E5AE9C52E6BE3D62EE12CF12C00E00B
:1031500010E0492F592F692F792F892F0E94524152
:1031600059016A017B01F82FE92FA0916202B09109
:10317000630220E432E44FE050E00E944A412B0118
:103180003C01DC01CB01BB0F880B982FDC0189834C
:103190009A83AB83BC839501A601B7018F2F9E2F25
:1031A00052016301E980FE2C0E2D1E2D0E948142EA
:1031B00049015A016B017C0135564D4C5D41610955
:1031C000710981099109211538424B465E4E61050E
:1031D00071058105910509F008F490CF812C8AECE6
:1031E000982E9AE9A92E2BE3B22EC12CD12CE12CDA
:1031F000F12C84CFFC01948581E089278487089590
:10320000FC0177FF03C071956195710986819781F3
:10321000861B970B978386832285338582179307B6
:1032200024F480859185978386830895CF93DF93D7
:10323000EC010E9400198E819F81853F21E0920759
:1032400078F080916F0290917002049731F483E0DE
:1032500090E09093700280936F02DF91CF91089578
:10326000843F9140D1F380916F0290917002892B3D
:10327000A1F781E090E0EDCFCF93DF93EC010E94C6
:1032800000198E819F818430910581F480916202C2
:1032900090916302853F914030F084EF91E09093EC
:1032A000630280936202DF91CF910895892BD9F751
:1032B0008091620290916302843F914070F3F3CF5A
:1032C000CF93DF93EC0161E070E00E9400198E81E2
:1032D0009F81892B69F486E792E09B838A838FE83C
:1032E00097E09093130280931202DF91CF9108959B
:1032F00089E692E09B838A838CE592E0F2CF0E947C
:10330000001985E997E00E9469088FE897E00C941E
:1033100024180C9400190C9400190C9400190C94A6
:1033200000190C940019FC0177FF03C07195619599
:10333000710986819781680F791F778366838085FD
:1033400091858617970724F48285938597838683D2
:103350000895CF93DF93EC010E9493198E819F8192
:10336000853F21E0920778F080916F029091700282
:10337000049731F483E090E09093700280936F02A1
:10338000DF91CF910895843F9140D1F380916F02F6
:1033900090917002892BA1F781E090E0EDCFCF935F
:1033A000DF93EC010E9493198E819F8184309105F7
:1033B00081F48091620290916302853F914030F0E8
:1033C00084EF91E09093630280936202DF91CF914A
:1033D0000895892BD9F78091620290916302843F0E
:1033E000914070F3F3CFCF93DF93EC0161E070E095
:1033F0000E9493198E819F81892B69F486E792E060
:103400009B838A838FE897E0909313028093120244
:10341000DF91CF91089589E692E09B838A838CE5C2
:1034200092E0F2CF0E94931985E997E00E94690823
:103430008FE897E00C9424180C9493190C9493192A
:103440000C9493190C9493190C9493198EBD00004D
:103450000DB407FEFDCF8EB50895EF92FF920F9346
:103460001F93CF93DF938C017B0160E080911C065A
:103470000E94F808F80180810E94261AE701F801ED
:103480002181CE018E199F092817190629F024F0F1
:1034900089910E94261AF3CF61E080911C06DF918A
:1034A000CF911F910F91FF90EF900C94F808CF925D
:1034B000DF92EF92FF92CF93DF9300D000D0CDB791
:1034C000DEB76093230670932406809325069093BD
:1034D00026060E947A3C2091CE063091CF0640917C
:1034E000D0065091D1060E94DB3C6B017C016091BB
:1034F00063067091640680916506909166060E944D
:103500007A3C9B01AC01C701B6010E94583E6B0199
:103510007C0120E030E0A9010E94543F20E030E02F
:1035200040E05FE387FD2EC0C701B6010E94EC3D7D
:103530000E94CA3E9B01AC0160934306309344064F
:10354000809345065093460659838A833B836C8358
:1035500084E08E838BE08D83BE016F5F7F4FCE0151
:1035600005960E942D1A0E94B90926960FB6F89466
:10357000DEBF0FBECDBFDF91CF91FF90EF90DF9008
:10358000CF900895C701B6010E94EB3DD1CFCF93F4
:10359000DF9300D000D0CDB7DEB781E08093CC06BA
:1035A0008D8384E08E83198280E88A831B821C824B
:1035B000BE016F5F7F4FCE0105960E942D1A0E94BB
:1035C000B90926960FB6F894DEBF0FBECDBFDF91C6
:1035D000CF910895CF93DF9300D000D0CDB7DEB761
:1035E00083E08D8384E08E838091B9029091BA024A
:1035F000A091BB02B091BC0289839A83AB83BC8348
:10360000BE016F5F7F4FCE0105960E942D1A0E946A
:10361000B9096AE070E080E090E00E9487091982B1
:10362000BE016F5F7F4FCE0105960E942D1A0E944A
:10363000B90926960FB6F894DEBF0FBECDBFDF9155
:10364000CF910895CF93DF9300D000D0CDB7DEB7F0
:1036500081E08093CD061D8284E08E838091BD023F
:103660009091BE02A091BF02B091C00289839A835B
:10367000AB83BC83BE016F5F7F4FCE0105960E9476
:103680002D1A0E94B9090E94EA1A0E94B9092696C9
:103690000FB6F894DEBF0FBECDBFDF91CF91089576
:1036A0001F93CF93DF9300D000D0CDB7DEB7142F98
:1036B00060936706709368068093690690936A0624
:1036C0006093630670936406809365069093660624
:1036D00061E080911D060E94F80861E070E080E0E2
:1036E00090E00E94870960E080911D060E94F80822
:1036F00064E670E080E090E00E9487091092CC06BA
:103700001092CD061092CB060E94221B82E08D8380
:1037100084E08E8319821A821B821C821123A9F0F5
:103720008A831B83BE016F5F7F4FCE0105960E9487
:103730002D1A0E94EA1A26960FB6F894DEBF0FBE25
:10374000CDBFDF91CF911F910895BE016F5F7F4F75
:10375000CE0105960E942D1AEECFFF920F931F9374
:10376000CF93DF93F82ED92FC62F8091F605909135
:10377000F705009709F452C02091FA0531E0309323
:1037800061052093600510925F0510925E05DC01D3
:10379000ED91FC910190F081E02D60E019950F2DE5
:1037A0001D2FD1E0FF24F394C1508091F605909134
:1037B000F705CF3F61F1D032C8F00E940B13809122
:1037C000F6059091F7052091FA05F0926105209396
:1037D000600510925F0510925E05DC01ED91FC9191
:1037E0000190F081E02D60E01995D1E08091F6051F
:1037F0009091F705F8016491DC01ED91FC91019045
:10380000F081E02D1995DF5F0F5F1F4FCDCFDF9166
:10381000CF911F910F91FF900C940B13E09106062E
:10382000F0910706908180910C0680958923808312
:103830000F2D1D2FC15008F438C0F801849120913C
:10384000F4053091F505232B29F00E94261A0F5F0D
:103850001F4FF0CF28E030E040E8E0910206F09101
:10386000030690910A06582F5423D9F05081952BC6
:103870009083E0910406F0910506908150910B062B
:10388000952B9083E0910406F0910506508190916C
:103890000B06909595239083469521503109E9F6C2
:1038A000D6CF508190959523E3CFDF91CF911F9193
:1038B0000F91FF9008951F93CF93DF93EC018D8DAF
:1038C0009E8D009721F1162F29A131E030936105DB
:1038D0002093600510925F0510925E05DC01ED916A
:1038E000FC910190F081E02D60E019958D8D9E8D09
:1038F000DC01ED91FC910190F081E02D612F199593
:103900008D8D9E8DDF91CF911F910C940B13ADA5E2
:10391000BEA59C918BA9809589238C938B8D9C8DC2
:10392000892B31F0862FDF91CF911F910C94261AAD
:1039300028E030E080E8A9A5BAA599A9462F482338
:10394000C1F04C91942B9C93ABA5BCA59C914AA92A
:10395000942B9C93ABA5BCA54C919AA990959423CC
:103960009C9386952150310931F7DF91CF911F91BA
:1039700008954C9190959423E6CFEF92FF920F9388
:103980001F93CF93DF938091F6059091F705892BD4
:1039900009F493C02091100630911106409112064F
:1039A0005091130660E074E284EF90E00E94AF3D16
:1039B0002051310941095109569547953795279569
:1039C0002093B80065E08DEB9FE00E94AD1B6091F5
:1039D000DD05615089ED95E00E945B1C2091DF05BB
:1039E0003091E005C901079697FD079623E095956C
:1039F00087952A95E1F72091DD053091DE05829FBC
:103A00008001839F100D929F100D1124C091F80525
:103A1000D091F9058091F6059091F7050C0F1D1FC7
:103A2000009709F489C02091FA0531E030936105CF
:103A30002093600510925F0510925E05DC01ED9108
:103A4000FC910190F081E02D60E41995FF24F3943E
:103A5000EE24E3948091F6059091F7050C171D076D
:103A600009F442C0BFE1BF15D0F40E940B1380914E
:103A7000F6059091F7052091FA05E09261052093F3
:103A8000600510925F0510925E05DC01ED91FC91DE
:103A90000190F081E02D60E41995FF24F39480916A
:103AA000F6059091F7056991DC01ED91FC9101908B
:103AB000F081E02D1995F394CDCF8091F40590918C
:103AC000F505892B31F080910E0690910F060E942A
:103AD0004916E0910806F0910906908180910D0643
:103AE0008095892380836ECF0E940B138091F60509
:103AF0009091F705892B09F460C02091140630914C
:103B00001506409116065091170660E074E284EFA6
:103B100090E00E94AF3D205131094109510956956D
:103B20004795379527952093B800DF91CF911F9146
:103B30000F91FF90EF900895E0910606F09107062F
:103B4000808190910C06892B80830C171D0771F2E0
:103B500089912091F4053091F505232B19F00E94ED
:103B6000261AF3CF28E030E040E8E0910206F09119
:103B7000030690910A06582F5423D9F05081952BB3
:103B80009083E0910406F0910506908150910B0618
:103B9000952B9083E0910406F09105065081909159
:103BA0000B06909595239083469521503109E9F6AF
:103BB000CCCF508190959523E3CFE0910806F0910A
:103BC0000906808190910D06892B8083AECF1F93CB
:103BD000CF93DF93EC01162F8D8D9E8D892BB1F144
:103BE0002FA938AD49AD5AAD60E074E284EF90E0A2
:103BF0000E94AF3D20513109410951095695479521
:103C0000379527952093B80066EA111167EACE012F
:103C10000E945B1C8D8D9E8D892B41F12BAD3CAD9F
:103C20004DAD5EAD60E074E284EF90E00E94AF3D88
:103C300020513109410951095695479537952795E6
:103C40002093B800DF91CF911F9108958B8D9C8DAB
:103C5000892B21F08DA99EA90E944916EFA5F8A9EC
:103C600090818CA9809589238083CECFEFA5F8A978
:103C700080819CA9892B8083E5CFCF92DF92EF9240
:103C8000FF92CF93DF9300D000D0CDB7DEB720E016
:103C900030E040EA51E40E94583E9B01AC0160E0F4
:103CA00070E080E291E40E94593F20E030E040E87B
:103CB00055E40E94DB3C6B017C0120E030E0A9016F
:103CC0000E94543F20E030E040E05FE387FD36C0D3
:103CD000C701B6010E94EC3D0E94CA3E611520E179
:103CE00072078105910578F560936B0670936C06F9
:103CF00080936D0690936E0680916B0690916C0692
:103D000024E02E832CE02D831C821B8299838A83DE
:103D1000BE016F5F7F4FCE0105960E942D1A0E9453
:103D2000B90926960FB6F894DEBF0FBECDBFDF915E
:103D3000CF91FF90EF90DF90CF900895C701B6012B
:103D40000E94EB3DC9CF8FEF9FE0A0E0B0E08093F1
:103D50006B0690936C06A0936D06B0936E06CCCF65
:103D60002091DF053091E005C901079697FD079680
:103D700023E0959587952A95E1F72091DD0530910F
:103D8000DE05829FA001839F500D929F500D11244C
:103D900070E060E08091F8059091F9050C949E44E4
:103DA000CF93DF93EC0188819981009711F00E94F5
:103DB0002643198218821D821C821B821A82DF917F
:103DC000CF910895FC0180819181009711F00C94AE
:103DD000264308950F931F93CF93DF938C01EB013C
:103DE0000E94993D8883C80101960E94993D89836C
:103DF000CE01DF91CF911F910F910895FF920F9304
:103E00001F93CF93DF93EC018B01FB01F0800E94A5
:103E1000993DF81621F06F2DCE010E94A13DF801C9
:103E2000F1802196CE010E94993DF81621F06F2D68
:103E3000CE010E94A13DC801DF91CF911F910F914A
:103E4000FF90089568E472E086E190E00E94FE1E13
:103E50006BE372E088E190E00E94FE1E6EE272E089
:103E60008CE190E00E94FE1E61E272E080E290E050
:103E70000E94FE1E65E572E084E290E00E94FE1E54
:103E800067E384E690E00C94A13D0E949044FB011E
:103E900001900020E9F73197AF01461B570BDC0179
:103EA000ED91FC910280F381E02D19948F929F9205
:103EB000AF92BF92EF92FF920F931F93CF93DF9336
:103EC000CDB7DEB7A1970FB6F894DEBF0FBECDBF5A
:103ED0007C01FA01CB0119A2223008F42AE08E01FC
:103EE0000F5D1F4F822E912CB12CA12CBF01A5017B
:103EF00094010E94AF3DF901CA016A300CF5605D82
:103F0000D8016E938D01232B242B252B79F790E07C
:103F100080E0109721F0BD01C7010E94471FA196C4
:103F20000FB6F894DEBF0FBECDBFDF91CF911F91CA
:103F30000F91FF90EF90BF90AF909F908F9008955A
:103F4000695CDECFCF92DF92EF92FF920F931F93C7
:103F5000CF93DF9377FF21C06A017B01EC01E881F9
:103F6000F9810190F081E02D6DE219958C014427D3
:103F70005527BA014C195D096E097F092AE0CE0167
:103F80000E94561F800F911FDF91CF911F910F91BB
:103F9000FF90EF90DF90CF9008952AE0DF91CF91CE
:103FA0001F910F91FF90EF90DF90CF900C94561FD0
:103FB0004F925F926F927F92AF92BF92CF92DF92B9
:103FC000EF92FF920F931F93CF935C01162FC0E0E7
:103FD00060E070E080E09FE3C11741F020E030E056
:103FE00040E251E40E94583ECF5FF6CF25E83BEE19
:103FF00041E55FE30E94EC3D6B017C010E94D13EF4
:104000002B013C012AE0BC01A201C5010E94561F00
:104010008C01CC23E9F1C301B2010E947A3C9B01DF
:10402000AC01C701B6010E94EB3D6B017C01D501DB
:10403000ED91FC910190F081E02D6EE2C5011995A2
:10404000080F191FC15020F120E030E040E251E498
:10405000C701B6010E94DB3C2B013C010E94D13E0E
:104060006B01F12CE12C2AE0B701A601C5010E94E9
:10407000561F080F191FC701B6010E947A3C9B0109
:10408000AC01C301B2010E94EB3D6B017C01DACFB0
:10409000C801CF911F910F91FF90EF90DF90CF90CB
:1040A000BF90AF907F906F905F904F900895CF93A7
:1040B000DF93BC0189ED95E00E94471FEC0169E8A0
:1040C00073E089ED95E00E94471F8C0F9D1FDF91E3
:1040D000CF910895CF93DF9362E082ED96E00E9446
:1040E000D81FEC0169E873E082ED96E00E94471F5B
:1040F0008C0F9D1FDF91CF9108950F931F93CF9346
:10410000DF93EC010E949E0A8C0169E873E0CE0106
:104110000E94471F800F911FDF91CF911F910F9138
:1041200008950C94471F0F931F93CF93DF9366EA74
:1041300077E090E080E00E94FE1E6CE772E082E093
:1041400090E00E94FE1E6FE672E084E090E00E9424
:10415000FE1E62E672E086E090E00E94FE1E65E9C7
:1041600077E088E090E00E94FE1E67E385E690E03D
:104170000E94A13D0E94B01EC9EDD5E082E08C8B6B
:104180008D8B81E090E09B8B8A8B998B888B08E2EA
:1041900010E01D870C871F861E86888F8CE893E0B1
:1041A0000E9457201D870C8780E290E09F878E87B2
:1041B00062E973E0CE010E9491200E94BD1C68EE6E
:1041C00073E080E090E0DF91CF911F910F910C940C
:1041D0008709CF938091A6079091A707892B19F59E
:1041E000C09195070E944418E42F4C2FB9018E2FDF
:1041F000952F0E94501B0E94C71A0E94221B0E94EA
:1042000013170E94571A60E070E0CB010E943D1E18
:104210000E94932081E092E090935405809353058F
:1042200080E0CF9108950E944418E42F40E0DECF53
:10423000CF93DF93EC018E819F8101979F838E83C3
:104240000A9724F40E944F169F838E83E0917C028C
:10425000F0917D02EE0FFF1FEE0FFF1FEA58FD4F9A
:104260002585368547855089220F331F441F551FEA
:10427000AE81BF810E944A41611578418D409F48BF
:1042800020F40E944F169F838E83CE010E94241833
:1042900068E973E082ED96E00E9491204E815F8193
:1042A000052E000C660B770B82ED96E00E94A21F94
:1042B00069E873E082ED96E0DF91CF910C94471F9F
:1042C000CF93DF93EC018E819F8101969F838E8334
:1042D0008F3F910529F024F00E948D169F838E83D5
:1042E000E0917C02F0917D02EE0FFF1FEE0FFF1FA9
:1042F000EA58FD4F2585368547855089220F331FA3
:10430000441F551FAE81BF810E944A4161307443F2
:104310008B459D4920F00E948D169F838E83CE0190
:104320000E94241868E973E082ED96E00E949120D3
:104330004E815F81052E000C660B770B82ED96E0B7
:104340000E94A21F69E873E082ED96E0DF91CF91B1
:104350000C94471F0F931F93CF93DF93EC01888139
:104360009981009759F02A813B812617370730F051
:1043700081E0DF91CF911F910F9108958B016F5FC5
:104380007F4F0E94AF43009759F0998388831B8326
:104390000A832C813D81232B59F7FC011082E8CF41
:1043A00080E0E7CFEF92FF920F931F93CF93DF93BD
:1043B0006115710541F480E0DF91CF911F910F915C
:1043C000FF90EF90089541155105B1F07B01EC018C
:1043D0000C811D81040F151FB8010E94AA2188239A
:1043E00051F3288139818C819D81B701820F931F00
:1043F0000E94A5441D830C8381E0DECFCF93DF9321
:10440000EC01FB0101900020E9F73197AF01461B59
:10441000570B0E94D221811103C0CE010E94D01EF1
:10442000CE01DF91CF910895CF93DF93EC01FB0193
:1044300044815581608171810E94D221811103C024
:10444000CE010E94D01ECE01DF91CF910895EF9250
:10445000FF920F931F93CF93DF93EC017B018A01AF
:10446000BA010E94AA2181110BC0CE010E94D01E68
:10447000CE01DF91CF911F910F91FF90EF900895A2
:104480001D830C83B701888199810E94A544F0CFD8
:10449000FB0101900020E9F73197AF01461B570B54
:1044A0000C9427220F931F93CF93DF93CDB7DEB7E2
:1044B00062970FB6F894DEBF0FBECDBF8C01CB0163
:1044C000F8011182108213821282158214824AE04E
:1044D000BE016F5F7F4F0E94C039BE016F5F7F4F8B
:1044E000C8010E94482262960FB6F894DEBF0FBE44
:1044F000CDBFDF91CF911F910F910895CF93DF939F
:10450000EC01FB018617970749F060817181611505
:10451000710541F0448155810E942722CE01DF912F
:10452000CF9108950E94D01EF9CFFC011182108214
:1045300013821282158214820C947E22FC01118255
:1045400010821382128215821482FB0101900020D6
:10455000E9F73197AF01461B570B0C9427224F9276
:104560005F926F927F928F929F92AF92BF92CF9203
:10457000DF92EF92FF920F931F93CF93DF9300D0C0
:1045800000D0CDB7DEB75C018B010E94CD096B0175
:104590007C01D8011E96CD92DD92ED92FC9251974E
:1045A00019968D919D910D90BC91A02D26013701FA
:1045B000481A590A6A0A7B0AF80187819085AC017A
:1045C000440F551F480F591F70E060E04415550512
:1045D0006605770508F41586B0E0A0E0841595051A
:1045E000A605B70508F070C0D8011996CD92DD92E6
:1045F000ED92FC921C971D968C911D978F5F1D96D6
:104600008C931D9752969C915297981710F41D9673
:104610001C92F801E584C680F12CCE0CDF2CD11C55
:10462000CE14DF0428F09C2D8D2D6701E92EF82E85
:104630006BE873E0CE0101960E949E22D801149689
:104640008D909C90C814D904F8F4E814F90408F487
:104650004701D801ED91FC911197E80DF91DF0800B
:1046600010826D917C916C0D7D1DCE0101966115BE
:10467000710509F447C00E944822F80180819181A8
:10468000880E991ED401FC92F801838994890097C1
:10469000F1F169817A8161157105B9F14589568910
:1046A0002D813E814217530780F10E94A5448D81E0
:1046B0009E81D80158969C938E9357971E821D8297
:1046C000CE0101960E94E21EB8016D5E7F4FC501CA
:1046D0000E949522C50126960FB6F894DEBF0FBE44
:1046E000CDBFDF91CF911F910F91FF90EF90DF90A1
:1046F000CF90BF90AF909F908F907F906F905F9082
:104700004F9008950E94D01EB8CF0E942643898101
:104710009A81F801948B838B8B819C81968B858BFE
:104720008D819E81908F878B1A8219821C821B82B9
:10473000C5CF0F931F93CF93DF93CDB7DEB72C97E1
:104740000FB6F894DEBF0FBECDBF8C01433069F5C4
:10475000CB010A978A35910538F4CE0107960E945D
:1047600052226CE973E009C06A3071050CF5CE0184
:1047700007960E9452226BE973E0CE0101960E94D7
:104780009E22BE01695F7F4FCE0101960E941422D6
:10479000BC01C8010E949522CE0101960E94E21E32
:1047A000CE0107960E94E21E06C06A307105ACF287
:1047B000C8010E945222C8012C960FB6F894DEBFA1
:1047C0000FBECDBFDF91CF911F910F91089585ED61
:1047D0008093BC008091D7049091D804A091D90413
:1047E000B091DA040796A11DB11D23E0B695A795F7
:1047F000979587952A95D1F72091BC0024FD03C099
:104800001092200508954091D7045091D8046091EA
:10481000D9047091DA04452B462B472B69F3009796
:10482000A105B10541F02AE22A95F1F700C00197F0
:10483000A109B109E1CF8091D6040C9465121F92B1
:104840000F920FB60F9211242F933F938F939F9344
:10485000AF93BF938091560590915705A09158054D
:10486000B09159053091550523E0230F2D3758F5A8
:104870000196A11DB11D2093550580935605909377
:104880005705A0935805B093590580915A0590910A
:104890005B05A0915C05B0915D050196A11DB11D60
:1048A00080935A0590935B05A0935C05B0935D05DA
:1048B000BF91AF919F918F913F912F910F900FBE1C
:1048C0000F901F90189526E8230F0296A11DB11D89
:1048D000D2CF1F920F920FB60F9211240BB60F92E8
:1048E0002F933F934F935F936F937F938F939F93F8
:1048F000AF93BF93EF93FF93E091B102F091B202B7
:104900001995FF91EF91BF91AF919F918F917F91F9
:104910006F915F914F913F912F910F900BBE0F9030
:104920000FBE0F901F9018951F920F920FB60F9207
:1049300011240BB60F922F933F934F935F936F9376
:104940007F938F939F93AF93BF93EF93FF93E091E8
:10495000AF02F091B0021995FF91EF91BF91AF9125
:104960009F918F917F916F915F914F913F912F9187
:104970000F900BBE0F900FBE0F901F9018951F92B7
:104980000F920FB60F9211240BB60F922F933F93F5
:104990004F935F936F937F938F939F93AF93BF9347
:1049A000EF93FF93E091A502F091A6021995FF9174
:1049B000EF91BF91AF919F918F917F916F915F9197
:1049C0004F913F912F910F900BBE0F900FBE0F9004
:1049D0001F9018951F920F920FB60F9211240BB6CD
:1049E0000F922F933F934F935F936F937F938F9388
:1049F0009F93AF93BF93EF93FF93E091A302F09146
:104A0000A4021995FF91EF91BF91AF919F918F9162
:104A10007F916F915F914F913F912F910F900BBEBE
:104A20000F900FBE0F901F9018951F920F920FB608
:104A30000F9211240BB60F922F933F934F935F93D6
:104A40006F937F938F939F93AF93BF93EF93FF9356
:104A5000E091AD02F091AE021995FF91EF91BF91F7
:104A6000AF919F918F917F916F915F914F913F9106
:104A70002F910F900BBE0F900FBE0F901F901895A7
:104A80001F920F920FB60F9211240BB60F922F9315
:104A90003F934F935F936F937F938F939F93AF93C6
:104AA000BF93EF93FF93E091AB02F091AC021995A5
:104AB000FF91EF91BF91AF919F918F917F916F91F6
:104AC0005F914F913F912F910F900BBE0F900FBEB2
:104AD0000F901F9018951F920F920FB60F921124EE
:104AE0000BB60F922F933F934F935F936F937F93E8
:104AF0008F939F93AF93BF93EF93FF93E091A9029E
:104B0000F091AA021995FF91EF91BF91AF919F91FA
:104B10008F917F916F915F914F913F912F910F9066
:104B20000BBE0F900FBE0F901F9018951F920F9203
:104B30000FB60F9211240BB60F922F933F934F9302
:104B40005F936F937F938F939F93AF93BF93EF93F5
:104B5000FF93E091A702F091A8021995FF91EF91C0
:104B6000BF91AF919F918F917F916F915F914F9185
:104B70003F912F910F900BBE0F900FBE0F901F9083
:104B800018951F920F920FB60F9211240BB60F9229
:104B90002F933F934F935F936F937F938F939F9345
:104BA000AF93BF93EF93FF9382ED96E00E94360B95
:104BB000FF91EF91BF91AF919F918F917F916F91F5
:104BC0005F914F913F912F910F900BBE0F900FBEB1
:104BD0000F901F9018951F920F920FB60F921124ED
:104BE0000BB60F922F938F939F93EF93FF93E091C8
:104BF000E206F091E3068081E091E806F091E90693
:104C000082FD1DC090818091EB068F5F8F73209194
:104C1000EC06821741F0E091EB06F0E0EE52F94F1E
:104C2000958F8093EB06FF91EF919F918F912F913C
:104C30000F900BBE0F900FBE0F901F9018958081A4
:104C4000F2CF1F920F920FB60F9211240BB60F9254
:104C50002F933F934F935F936F937F938F939F9384
:104C6000AF93BF93EF93FF938091B900887F803615
:104C700009F44DC008F040C0883209F4A9C028F5F5
:104C8000803109F49DC0C8F4882309F4FBC0883042
:104C900009F496C0FF91EF91BF91AF919F918F91D1
:104CA0007F916F915F914F913F912F910F900BBE2C
:104CB0000F900FBE0F901F901895883109F488C08F
:104CC000803241F780931F0514C0803409F49DC0E1
:104CD00040F48033B9F38833E9F680931F0585ECFF
:104CE000B0C0803509F485C0883509F496C0883491
:104CF00089F60E94E723CECF883909F48CC038F5B5
:104D0000883729F050F4883611F0803719F683E09F
:104D10008093200510921E0557C0883809F47BC087
:104D2000803919F0803809F0B5CF80911E058032A6
:104D300008F071C0E0911E0581E08E0F80931E0582
:104D40008091BB00F0E0E250FB4F80833DC0803B90
:104D500039F0E0F4803A09F479C0883A09F09ACF42
:104D600084E0809320051092FD041092FC04E091F1
:104D70004905F0914A0519958091FC0481110FC0F5
:104D800081E08093FC041092DC0409C0803C09F4AB
:104D9000A6CF883C09F4A3CF883B09F07BCFE091F4
:104DA000FD0481E08E0F8093FD04F0E0E452FB4FA0
:104DB00080818093BB009091FD048091FC0429C008
:104DC000809145058093BB0085EC8093BC0062CF49
:104DD0009091440580914305981758F5E09144055A
:104DE00081E08E0F80934405F0E0ED5DFA4F808105
:104DF000E9CFE091440581E08E0F809344058091D6
:104E0000BB00F0E0ED5DFA4F808390914405809106
:104E100043059817C8F285E8D8CFE091440581E0B2
:104E20008E0F809344058091BB00F0E0ED5DFA4F5A
:104E300080838091220581115CCF81E080932105E0
:104E400084EA8093BC001092200524CF85EC8093E7
:104E5000BC001092200580911E05803230F4E09154
:104E60001E05F0E0E250FB4F108260911E0570E0DD
:104E7000E0914705F09148058EEF94E01995109266
:104E80001E0508CF10921F0534CFCF92DF92EF920C
:104E9000FF920F931F93CF93DF93CDB7DEB72C977D
:104EA0000FB6F894DEBF0FBECDBF8C016B016BE86F
:104EB00073E00E949E22F8011186128613861486E2
:104EC000158616861786108A118A128A6BE873E097
:104ED000C80143960E949E226BE873E0CE010796BC
:104EE0000E949E228AE0F8018683F12CE12CF801D1
:104EF0008681BE01695F7F4F8E151F04C1F0BCF033
:104F0000CE0101960E94952265E374E0CE010196E0
:104F10000E94FE21BC01CE0107960E947E22CE0196
:104F200001960E94E21EFFEFEF1AFF0AE0CFCE01CA
:104F300001960E949522B601CE0101960E9414228C
:104F4000BC01C8010E947E22CE0101960E94E21E91
:104F5000F8018481828B86E990E090878783CE0177
:104F600007960E94E21E2C960FB6F894DEBF0FBE85
:104F7000CDBFDF91CF911F910F91FF90EF90DF9008
:104F8000CF900895EF92FF920F931F93CF93DF93EB
:104F9000CDB7DEB7A1970FB6F894DEBF0FBECDBF79
:104FA0007C01CB01BA01F7011182108213821282B7
:104FB0001582148242E0420F8E010F5F1F4F0E9444
:104FC0009939009789F0BC01C7010E944822A19637
:104FD0000FB6F894DEBF0FBECDBFDF91CF911F910A
:104FE0000F91FF90EF900895C7010E94D01EEFCF60
:104FF000CF92DF92EF92FF92CF93DF93CDB7DEB7E0
:1050000062970FB6F894DEBF0FBECDBF1092D506E3
:105010001092D40628EEC22E23E0D22EE12CF12CE1
:10502000C092D606D092D706E092D806F092D90662
:1050300089E293E09093D3068093D20685EC90E0CA
:105040009093DF068093DE0684EC90E09093E10677
:105050008093E00680EC90E09093E3068093E20674
:1050600081EC90E09093E5068093E40682EC90E07A
:105070009093E7068093E60686EC90E09093E9062D
:105080008093E8061092EB061092EC061092ED0663
:105090001092EE061092D0051092CF05C092D10565
:1050A000D092D205E092D305F092D4058BE393E041
:1050B0009093CE058093CD051092A3071092A2077E
:1050C0001092A5071092A4071092A7071092A607A6
:1050D0001092A9071092A8071092AB071092AA0786
:1050E0001092AC0783E893E09093A1078093A00708
:1050F0006EE973E08DEA97E00E949E2268EA73E011
:1051000083EB97E00E949E221092920710929107E3
:105110001092940710929307109296071092950799
:10512000109298071092970710929A071092990779
:1051300010929B0789E793E09093900780938F07E5
:1051400010929C0710929D0710929E0710929F0745
:1051500085E997E00E9469088FE897E00E9424188B
:10516000109289071092880710928A0710928B0775
:1051700010928C0710928D0710928E0782ED96E0A8
:10518000909384078093830782E390E0909387074E
:10519000809386078AE08093850780E090E0A0E80E
:1051A000BFE48093CE069093CF06A093D006B09331
:1051B000D10686E080931C0681E180931D0680E184
:1051C00080931E0687E080931F0688E08093200668
:1051D00089E0809321068FE28093220661E086E0D9
:1051E0000E94260961E080911D060E94260961E067
:1051F00080911E060E94260961E080911F060E9490
:10520000260961E0809120060E94260961E08091D4
:1052100021060E94260961E0809122060E9426094B
:1052200061E080911C060E94F80860E080911D06F4
:105230000E94F80860E080911E060E94F80860E075
:1052400080911F060E94F80860E0809120060E946D
:10525000F80860E0809121060E94F80860E08091E3
:1052600022060E94F80880E89CE7A1E8BAE480934F
:10527000180690931906A0931A06B0931B06109275
:10528000DC051092DB0520E830E03093DE0520934A
:10529000DD0580E490E09093E0058093DF05309396
:1052A000E2052093E1059093E4058093E3051092D5
:1052B000EF051092E6051092E5051092E8051092B0
:1052C000E70581E08093EE058093ED052FEF3FEF3A
:1052D0003093EC052093EB053093EA052093E90524
:1052E0008093F0051092F1051092F3051092F205EB
:1052F0002DE433E03093DA052093D9051092F505BB
:105300001092F4052DEC35E03093F7052093F60567
:105310001092F9051092F8059FEF9093FD05909378
:10532000FE059093FF05909300069093010690E58B
:1053300090930E0610920F0640E055E36CE070E08B
:105340004093100650931106609312067093130653
:105350004093140650931506609316067093170633
:1053600092E09093C3051092C4058093C505809385
:10537000C6051092C8051092C7051092B505109287
:10538000B4051092B6051092C9051092CA05109284
:10539000CB051092CC0584E190E0A0E0B0E08093D2
:1053A000B7059093B805A093B905B093BA058AEFF5
:1053B00090E0A0E0B0E08093BB059093BC05A09383
:1053C000BD05B093BE05C092BF05D092C005E09266
:1053D000C105F092C20560E082E00E94260980913A
:1053E000C405811105C061E08091C3050E94F808E1
:1053F00062E083E10E94260962E082E10E942609C0
:10540000E5E3F0E1E491F0E0EE0FFF1FE85FFF4E0F
:10541000A591B491B093A105A093A005E5EDFFE09F
:1054200064916093A405E4E3F0E1E491F0E0EE0F11
:10543000FF1FE85FFF4E259134913093A305209321
:10544000A205E4EDFFE0E491E093A5051092A70525
:105450001092A8051092A9051092AA054BE35FE1EE
:10546000CA010197F1F79C91862F892391E009F4F5
:1054700090E0D9018C91E82309F0926020EA35E0B0
:105480009093A60530936B0520936A058DE098E113
:105490009093AC028093AB02809169008F7C806115
:1054A00080936900EA9A81E08093B30530936D059B
:1054B00020936C0583E198E19093AE028093AD0256
:1054C000809169008F73806480936900EB9A82E019
:1054D0008093B305609118067091190680911A06A1
:1054E00090911B060E947A3C20E23CEB4EEB5CE480
:1054F0000E94583E0E94A93F20E030E040E251E483
:105500000E94583EAB01BC0121E0CE0107960E94EB
:10551000C22763EB73E0CE0101960E949E22BE017A
:10552000695F7F4FCE0101960E94142265EC73E003
:105530000E94FE21BC01CE010D960E949522BE0163
:10554000635F7F4F87E895E00E944527CE010D9667
:105550000E94E21ECE0101960E94E21ECE01079635
:105560000E94E21E20E040E050E068EC72E4CE01D0
:1055700007960E94C2276AEC73E0CE0101960E9452
:105580009E22BE01695F7F4FCE0101960E941422C8
:105590006BED73E00E94FE21BC01CE010D960E94CE
:1055A0009522BE01635F7F4F8EE695E00E944527FE
:1055B000CE010D960E94E21ECE0101960E94E21ECF
:1055C000CE0107960E94E21E62960FB6F894DEBFE7
:1055D0000FBECDBFDF91CF91FF90EF90DF90CF90C6
:1055E0000895CF93DF93CDB7DEB7E7970FB6F89462
:1055F000DEBF0FBECDBF789484B5826084BD84B514
:10560000816084BD85B5826085BD85B5816085BDBD
:1056100080916E00816080936E0010928100809175
:1056200081008260809381008091810081608093FD
:105630008100809180008160809380008091B10022
:1056400084608093B1008091B00081608093B0004D
:10565000809191008260809391008091910081609F
:105660008093910080919000816080939000809160
:10567000A10082608093A1008091A100816080934D
:10568000A1008091A00081608093A0008091210101
:1056900082608093210180912101816080932101AA
:1056A0008091200181608093200180917A00846044
:1056B00080937A0080917A00826080937A00809152
:1056C0007A00816080937A0080917A00806880936C
:1056D0007A001092C1008091F8059091F905892B0C
:1056E00011F10E94B01E2091DF053091E0058091FC
:1056F000DD059091DE05213231050CF07EC4B90143
:105700006052710977FF02C06F5F7F4F7595679593
:105710008357910997FD019600E210E023E730E0FE
:1057200044ED58E07DC42091DF053091E005C901CA
:10573000079697FD0796B3E095958795BA95E1F79B
:105740002091DD053091DE05AC01429FC001439FF1
:10575000900D529F900D11240E948A429093F9055A
:105760008093F805892B09F0BCCF01E00093F10587
:105770000E94B01E0E94B01E0093F10512E010932B
:10578000ED051093EE05EE24E394F12CF092EC0578
:10579000E092EB05F092EA05E092E9051092E60549
:1057A0001092E5051092E8051092E70560EE73E0AF
:1057B00089ED95E00E9491200093ED050093EE05A0
:1057C0007EE3C72ED12CD092E605C092E50510925B
:1057D000E8051092E70566EE73E089ED95E00E941A
:1057E0009120D092E605C092E50588E090E0909384
:1057F000E8058093E7056FEE73E089ED95E00E9480
:10580000912062E089ED95E00E94D81F1092E60594
:105810001092E50580E190E09093E8058093E7051C
:105820001093ED051093EE0566EF73E089ED95E0BA
:105830000E9491206CEF73E089ED95E00E94912029
:10584000F092EC05E092EB05F092EA05E092E905B2
:1058500081E094E00E9457208BE094E00E94572062
:105860000E94BD1C60ED77E080E090E00E94870917
:10587000E091E206F091E3061083E091DE06F091FC
:10588000DF061082E091E006F091E10680E180837E
:105890001092EA06E091E606F091E70686E0808342
:1058A000E091E406F091E506808180618083E091DB
:1058B000E406F091E506808188608083E091E4064B
:1058C000F091E506808180688083E091E406F091A4
:1058D000E50680818F7D808361E87DE082ED96E042
:1058E0000E947D2064E77DE082ED96E00E949E0AA2
:1058F0000E946A200E94D9098091B605882351F040
:105900006FEF85E690E00E94A13D6FEF84E690E0A6
:105910000E94A13D22E432E045E352E0509345026B
:105920004093440268E272E0709338026093370259
:10593000EBE1F2E0F0932B02E0932A028FE492E095
:1059400090931E0280931D023093520220935102C5
:10595000F0935402E09353027093200260931F026D
:1059600050932D0240932C0230933A022093390237
:10597000909347028093460280EA97E066E772E0E0
:105980007093A3076093A207EFE8F7E0F093790222
:10599000E09378022EE032E0309392072093910753
:1059A00041E052E0509311024093100290930402A0
:1059B00080930302ACE5B2E0B0936C02A0936B025B
:1059C00030935F0220935E0230930602209305021B
:1059D000F0931302E093120270939407609393077D
:1059E00090937B0280937A025093A5074093A4077B
:1059F00029E632E0309361022093600290936E02B8
:105A000080936D0221E030E030934B0220934A02F4
:105A100010924D0210924C0287EE93E090933E025A
:105A200080933D021092400210923F029093310207
:105A3000809330021092330210923202909324022B
:105A400080932302109226021092250284E490E0B3
:105A5000909358028093570210925A021092590262
:105A60003093A9072093A8071092AB071092AA07BA
:105A700087E090E090937F0280937E0210928102F3
:105A8000109280020E94131760934D0570934E058B
:105A900080934F059093500580E099EFA2E0B5E91F
:105AA00080939C0790939D07A0939E07B0939F07B8
:105AB0008AE090E090939A07809399078FEF90E0A7
:105AC00090939807809397078091950790919607F8
:105AD0008F3F910539F034F00E948D169093960710
