:020000040000FA
:100000000C945B080C94BB250C9490250C946525EE
:100010000C943A250C940F250C94E4240C94B924E8
:100020000C948E240C948C080C948C080C948C08E2
:100030000C948C080C948C080C948C080C948C08F0
:100040000C948C080C948C080C948C080C948C08E0
:100050000C948C080C948C080C948C080C944424FC
:100060000C948C080C9410260C94E6250C948C08A7
:100070000C948C080C948C080C948C080C948C08B0
:100080000C948C080C948C080C948C080C948C08A0
:100090000C948C080C948C080C948C080C944626B8
:1000A0000C948C080C948C080C948C080C948C0880
:1000B0000C948C080C948C080C948C080C948C0870
:1000C0000C948C080C948C080C948C080C948C0860
:1000D0000C948C080C948C080C948C080C948C0850
:1000E0000C948C0807634236B79BD8A71A39685618
:1000F00018AEBAAB558C1D3CB7CC5763BD6DEDFD4A
:10010000753EF6177231BF000000803F0800000006
:10011000BE922449123EABAAAA2ABECDCCCC4C3EFC
:1001200000000080BEABAAAAAA3E00000000BF00EB
:100130000000803F0000000000084178D3BB4387E7
:10014000D1133D190E3CC3BD4282AD2B3E68EC82FB
:1001500076BED98FE1A93E4C80EFFFBE01C4FF7F80
:100160003F00000000000C94EF080C941C0C0C9451
:1001700019090C94471A0C9401090C9401130C945E
:100180000B090C940F090C94370B0C940C1E0C9457
:10019000451A0C9487210C9477150C94FB100C9441
:1001A000BE150C94B5080C94431A0C94B30A0C9425
:1001B00061190C94371A0C94F3080C9448180C9499
:1001C0002E150C9471160C9485190C943E180C94F1
:1001D000181A0C9463110C94D3100C94CA0B0C9441
:1001E000B40A0C9407090C94F9080C94450B0C9470
:1001F0003D210C94B10A0C94A4190C94E3100C94B6
:10020000411A0C94AB120C94C5410C94E70A0C945F
:10021000B6190C94140B0C94CE190C94DE080C94A3
:100220000E210C94E9080C94D4080C9415090C9434
:10023000E2080C943B190C94AE190C94E6080C944B
:100240007D0B0C94280F0C94EF100C941D280C942B
:10025000230B0C94FF0F0C9414090C94870F0C942F
:10026000491A0C94CD120C94DA080C94FD080C94E5
:10027000560E0C94F4190C9438180C94B2190C9472
:10028000B20A0C94D4120C9432180C941C100C94D6
:100290007A390C94B0190C94B4190C941F190C945D
:1002A000BA1200407A10F35A00A0724E18090010DA
:1002B000A5D4E80000E87648170000E40B540200DB
:1002C00000CA9A3B000000E1F50500008096980006
:1002D000000040420F000000A0860100000010272F
:1002E00000000000E80300000000640000000000BF
:1002F0000A00000000000100000000002C76D888F1
:10030000DC674F0823DFC1DFAE59E1B1B796E5E303
:10031000E453C63AE651997696E8E6C28426EB891C
:100320008C9B62ED407C6FFCEFBC9C9F40F2BAA5B9
:100330006FA5F490055A2AF75C936B6CF9676DC151
:100340001BFCE0E40D47FEF520E6B500D0ED902E55
:100350000300943577050080841E080000204E0AB3
:10036000000000C80C333333330F986E12831141F1
:10037000EF8D2114893BE65516CFFEE6DB18D184BC
:100380004B381BF77C1D901DA4BBE42420328472E3
:100390005E228100C9F124ECA1E53D276364696E0A
:1003A0006F70737578585B00000103070F1F3F7F64
:1003B0000080C0E0F0F8FCFE00000000003E5B4F53
:1003C0005B3E3E6B4F6B3E1C3E7C3E1C183C7E3CB5
:1003D000181C577D571C1C5E7F5E1C00183C1800C3
:1003E000FFE7C3E7FF0018241800FFE7DBE7FF3053
:1003F000483A060E2629792926407F050507407FC1
:1004000005253F5A3CE73C5A7F3E1C1C08081C1C33
:100410003E7F14227F22145F5F005F5F06097F0129
:100420007F006689956A606060606094A2FFA29414
:1004300008047E040810207E201008082A1C0808E2
:100440001C2A08081E101010100C1E0C1E0C303830
:100450003E3830060E3E0E06000000000000005F31
:1004600000000007000700147F147F14242A7F2A4D
:10047000122313086462364956205000080703000F
:10048000001C2241000041221C002A1C7F1C2A085B
:10049000083E0808008070300008080808080000BE
:1004A00060600020100804023E5149453E00427F32
:1004B000400072494949462141494D331814127F81
:1004C0001027454545393C4A494931412111090721
:1004D0003649494936464949291E000014000000A2
:1004E0004034000000081422411414141414004174
:1004F00022140802015909063E415D594E7C121131
:10050000127C7F494949363E414141227F41414168
:100510003E7F494949417F090909013E41415173E3
:100520007F0808087F00417F41002040413F017F54
:10053000081422417F404040407F021C027F7F041C
:1005400008107F3E4141413E7F090909063E415165
:10055000215E7F09192946264949493203017F0155
:10056000033F4040403F1F2040201F3F4038403F56
:10057000631408146303047804036159494D43006C
:100580007F4141410204081020004141417F0402A3
:10059000010204404040404000030708002054543A
:1005A00078407F2844443838444444283844442818
:1005B0007F385454541800087E090218A4A49C786B
:1005C0007F0804047800447D40002040403D007FC7
:1005D0001028440000417F40007C047804787C08A7
:1005E0000404783844444438FC182424181824247B
:1005F00018FC7C08040408485454542404043F4460
:10060000243C4040207C1C2040201C3C4030403C8E
:1006100044281028444C9090907C4464544C4400EE
:100620000836410000007700000041360800020152
:100630000204023C2623263C1EA1A161123A40403E
:10064000207A3854545559215555794122545478BB
:1006500042215554784020545579400C1E52721254
:1006600039555555593954545459395554545800DD
:1006700000457C410002457D420001457C407D12E1
:1006800011127DF0282528F07C5455450020545443
:100690007C547C0A097F4932494949323A444444EE
:1006A0003A324A4848303A4141217A3A4240207829
:1006B000009DA0A07D3D4242423D3D4040403D3C2A
:1006C00024FF2424487E4943662B2FFC2F2BFF094F
:1006D00029F620C0887E0903205454794100004443
:1006E0007D413048484A32384040227A007A0A0A2E
:1006F000727D0D19317D2629292F282629292926A1
:1007000030484D4020380808080808080808382FE5
:1007100010C8ACBA2F102834FA00007B000008146F
:100720002A142222142A14085500550055AA55AA45
:1007300055AAFF55FF55FF000000FF00101010FFE5
:1007400000141414FF001010FF00FF1010F010F040
:10075000141414FC001414F700FF0000FF00FF1431
:1007600014F404FC141417101F10101F101F14147D
:10077000141F00101010F0000000001F10101010C7
:100780001F10101010F010000000FF1010101010BB
:1007900010101010FF10000000FF140000FF00FFF9
:1007A00000001F10170000FC04F414141710171495
:1007B00014F404F40000FF00F714141414141414B7
:1007C000F700F7141414171410101F101F1414142A
:1007D000F4141010F010F000001F101F0000001F94
:1007E00014000000FC140000F010F01010FF10FFC7
:1007F000141414FF141010101F00000000F010FF5C
:10080000FFFFFFFFF0F0F0F0F0FFFFFF000000003F
:1008100000FFFF0F0F0F0F0F3844443844FC4A4AC3
:100820004A347E02020606027E027E026355494178
:10083000633844443C04407E201E2006027E0202AF
:1008400099A5E7A5991C2A492A1C4C7201724C30C3
:100850004A4D4D303048784830BC625A463D3E499A
:100860004949007E0101017E2A2A2A2A2A44445F3E
:10087000444440514A444040444A51400000FF0132
:1008800003E080FF000008086B6B08361236243640
:10089000060F090F060000181800000010100030A5
:1008A00040FF0101001F01011E00191D1712003C2D
:1008B0003C3C3C0000000000DB40A4A62EAFDA0266
:1008C00081DA1281DA02818F2000A1C8D300408D25
:1008D000AED580A80000600000000000000000000D
:1008E0000000000000E00000000000000000000028
:1008F00000000001E0000000000000000000000017
:10090000000001F0000000000000000000000000F6
:100910000003F000000000000000000000000000E4
:1009200007F00000000000000000000000000007C9
:10093000F8000000000000000000000000000FF8B8
:1009400000000003C0007E000001E0007F0FF800FF
:10095000000003C000FE000001E000FFEFF800000F
:100960000003C000FE000001E000FFFFF8000000EF
:1009700003C000F00000000F007FFE7FC0000003F6
:10098000C000F00000000F003FFE7FF83FF1FBCFFA
:10099000FCFEF3BC3DEFE01FFE7FFF7FFBFFDFFEB1
:1009A000FEFFBC3DEFE01FC6FFFF7FFBFFDFFEFE4B
:1009B000FFBC3DEFE00FE3C7FE787BC3DE1EF0FF18
:1009C000BC3DEF0007FF87FC787BC3DE1EF0F83CE0
:1009D0003DEF0001FFFFF0007BC3C01EF0F03C3D87
:1009E000EF0001F37FE03FFBC3CFFEF0F03C3DEFB3
:1009F0000003E33F807FFBC3DFFEF0F03C3DEF00F0
:100A000007E73C00787BC3DE1EF0F03C3DEF0007BB
:100A1000FFBE00787BC3DE1EF0F03C3DEF0007FF19
:100A2000FE00787BC3DE1EF0F03C3DEF000FFFFEC2
:100A3000007FFBFFDFFEF0F03FFDEFE00FFFFF0068
:100A40007FFBFFDFFEF0F03FFDEFE00FF9FF003E20
:100A500079F9CF9EF0F01F3DE7E01FF1FF000000A5
:100A60000000000000000000001F80FF007FFFFF6B
:100A7000FFFFFFFFFFFFFFE01C007F007FFFFFFF86
:100A8000FEB46D888D18E000001F007FFFFFFFFEA1
:100A900095AD7DB577E000000F007FFFFFFFFEA55D
:100AA000AD9D8D19E0000006007FFFFFFFFEB5AD94
:100AB000EDB57EE0000000000001800000000000B5
:100AC000000000000380000000000000000000079C
:100AD000C000000000000000000007C0000000008F
:100AE00000000000000FC000000000000000000037
:100AF0001FE00000000000000000001FE0000000F8
:100B00000000000000003FE00000000000000000C6
:100B1000003FF00000000000000000007FF0000037
:100B200000000000001FF87FF0000000000000003F
:100B30003FFE7FF0000000000000003FFF7FF0005C
:100B40000000000000001FFFFBE0000000000000AC
:100B5000000FFFF9FFC00000000000000FFFF9FFC9
:100B6000F800000000000007FFF1FFFF0000000098
:100B7000000003FC73FFFF80000000000001FE3F47
:100B8000FFFF80000000000000FF1E0FFF000000BC
:100B9000000000007FFE1FFC000000000000003F7E
:100BA000FFFFF8000000000000000FDFFFE0000082
:100BB00000000000001F19FFC0000000000000003E
:100BC0003F3CFF00000000000000007E7CF80000B9
:100BD0000000000000007FFE7C000000000000001C
:100BE00000FFFFFC0000000000000000FFFFFE000F
:100BF00000000000000000FFFFFE000000000000F9
:100C00000001FFEFFE0000000000000001FFCFFE2A
:100C10000000000000000003FF07FE0000000000CD
:100C2000000003FC07FE0000000000000003F003CA
:100C3000FE00000000000000018000FE0000000037
:100C40000000000000007E00000000000000000026
:100C5000003E000000000000000000000C0000004A
:100C6000000000078000FC000003C00000000780B7
:100C700001FC000003C0000000078001FC0000032D
:100C8000C0000000078001E00000001E0000000717
:100C90008001E00000001E007FE3F79FF9FDE77888
:100CA0007BDFC0FFF7FFBFFDFDFF787BDFC0FFF7F5
:100CB000FFBFFDFDFF787BDFC0F0F787BC3DE1FFA4
:100CC000787BDE00F0F787BC3DE1F0787BDE00004A
:100CD000F787803DE1E0787BDE007FF7879FFDE1CD
:100CE000E0787BDE00FFF787BFFDE1E0787BDE0088
:100CF000F0F787BC3DE1E0787BDE00F0F787BC3D94
:100D0000E1E0787BDE00F0F787BC3DE1E0787BDE58
:100D100000FFF7FFBFFDE1E07FFBDFC0FFF7FFBF94
:100D2000FDE1E07FFBDFC07CF3F39F3DE1E03E7B34
:100D3000CFC00000000000000000000000FFFFFF27
:100D4000FFFFFFFFFFFFFFC0FFFFFFFFFD68DB119D
:100D50001A31C0FFFFFFFFFD2B5AFB6AEFC0FFFFF8
:100D6000FFFFFD4B5B3B1A33C0FFFFFFFFFD6B5BDB
:100D7000DB6AFDC04669726D7761726520762E3A36
:100D80000044445320414439393134204172647560
:100D9000696E6F20536869656C64206279204752E0
:100DA00041202620414643482E20286772612D614C
:100DB0006663682E636F6D2900556E6B6E6F776E7C
:100DC00020636F6D6D616E643A0046202D2053657F
:100DD00074204672657175656E637920696E20486E
:100DE0007A2028313030303030202D204444535F79
:100DF000436F72655F436C6F636B2F32290A50201B
:100E00002D20536574204F757470757420506F7762
:100E1000657220696E2064426D20282D3638202DA1
:100E20002030290A4D202D20476574204D6F6465C0
:100E30006C0A56202D20476574204669726D7761D3
:100E400072652056657273696F6E0A45202D2045C4
:100E50006E61626C65204F75747075740A44202D44
:100E60002044697361626C65204F75747075740AF3
:100E700068202D20546869732048656C700A3B20F7
:100E80002D20436F6D6D616E6473205365706172C8
:100E900061746F720A4578616D706C653A0A46310B
:100EA00030303030303B502D320A5365742046725A
:100EB000657175656E637920746F20313030206BF9
:100EC000487A2C20616E64204F75747075742050C0
:100ED0006F77657220746F202D322064426D2E0A68
:100EE000416E79206E756D626572206F6620636F4A
:100EF0006D6D616E647320696E20616E79206F7212
:100F000064657220697320616C6C6F7765642E0074
:100F1000444453393931342F352076322E32004F44
:100F2000757470757420456E61626C6564004F75F0
:100F3000747075742044697361626C6564005365F4
:100F40007420506F7765722E3A20005365742066C6
:100F50007265712E3A2000475241264146434800AF
:100F6000416D706C69747564653A00204F464600A7
:100F70004672657175656E63792C205B487A5D3ABF
:100F800000444453204144393931340000002100E9
:100F9000240027002A002D0030003300010100004A
:100FA000040107010A0100002200250028002B008F
:100FB0002E003100340002010000050108010B0180
:100FC00000000A0B02090C0D0E08070304010000C3
:100FD0000000000000000000000000000000000011
:100FE00000000000000000000000000012111000CE
:100FF00000000000000000000000000000000000F1
:101000000000000000002200FF210001021020204B
:10101000080810204010204080020102010804024C
:1010200001010204081020408080402010080402C2
:10103000018004020180402010080402010804021B
:101040000101020408102040800102040810204021
:1010500080000020002300260029002C002F0032F1
:10106000000001000003010601090105050505074F
:101070000508080808020202020A0A080804040413
:10108000040101010101010101030303030303033F
:1010900003040707070C0C0C0C0C0C0C0C020202CE
:1010A0000206060606060606060B0B0B0B0B0B0BC1
:1010B0000B001D287A3911241FBECFEFD1E2DEBF0D
:1010C000CDBF00E00CBF27E0A8E8B4E001C01D924E
:1010D000A23BB207E1F714E0A0E0B2E0EEE1F0E9F4
:1010E00000E00BBF02C007900D92A838B107D9F7F6
:1010F00018E0CAE5D8E000E006C021970109802F7A
:10110000FE010E944841C935D10780E00807A9F7D0
:101110000E94F92A0C94FD470C940000CF93DF93B2
:10112000EC01E0917C02F0917D02EE0FFF1FEE0FCB
:10113000FF1FEA58FD4F258536854785508960E8B1
:101140007CE781E89AE40E94BC3D2F3F310519F00D
:1011500010F02FEF30E02A30310510F42AE030E0B3
:1011600039832883DF91CF9108950895815082318A
:1011700008F05AC0E82FF0E08827EE53F74F8F4F62
:101180000C944841E208E608D408DA08DE0814099D
:10119000E908EF08F308F908FD08010907090B0938
:1011A00014090F0915091909809180008F77809320
:1011B00080000895809180008F7DF9CF809180001C
:1011C000877FF5CF84B58F7784BD089584B58F7DF3
:1011D000FBCF8091B0008F778093B000089580910D
:1011E000B0008F7DF9CF809190008F778093900031
:1011F0000895809190008F7DF9CF80919000877F36
:10120000F5CF8091A0008F778093A0000895809102
:10121000A0008F7DF9CF8091A000877FF5CF8091CE
:1012200020018F77809320010895809120018F7D88
:10123000F9CF80912001877FF5CF1F93CF93DF9364
:10124000282F30E0F901E054F04F8491F901E55F77
:10125000FF4ED491F901E559FF4EC491CC23A9F07A
:10126000162F81110E94B608EC2FF0E0EE0FFF1F41
:10127000EA55F04FA591B4918FB7F894EC91111104
:1012800008C0D095DE23DC938FBFDF91CF911F91F3
:101290000895DE2BF8CFCF93DF9390E0FC01E55F5C
:1012A000FF4E249185599F4EFC0184918823C9F0FB
:1012B00090E0880F991FFC01E457F04FA591B4917D
:1012C000FC01EA55F04FC591D49161110DC09FB753
:1012D000F8948C91209582238C93888128232883ED
:1012E0009FBFDF91CF910895623051F49FB7F8947A
:1012F0003C91822F809583238C93E8812E2BEFCF16
:101300008FB7F894EC912E2B2C938FBFEACF3FB779
:10131000F89480916F0590917005A0917105B0913E
:10132000720526B5A89B05C02F3F19F00196A11D97
:10133000B11D3FBFBA2FA92F982F8827BC01CD011F
:10134000620F711D811D911D42E0660F771F881F7E
:10135000991F4A95D1F708958F929F92AF92BF92AD
:10136000CF92DF92EF92FF924B015C010E948709BE
:101370006B017C010E9487096C197D098E099F0908
:10138000683E734081059105A8F321E0821A910817
:10139000A108B10888EEC80E83E0D81EE11CF11C3C
:1013A00081149104A104B10429F7FF90EF90DF901C
:1013B000CF90BF90AF909F908F900895CF93DF9381
:1013C000CEECD6E061E08A810E941D0961E070E008
:1013D00080E090E00E94AC0960E08A81DF91CF91CB
:1013E0000C941D092FB7F89460916B0570916C05F2
:1013F00080916D0590916E052FBF0895CF92DF9279
:10140000EF92FF92CF93DF930E94F2096B017C0170
:101410002091750630E0F901E054F04F8491F90114
:10142000E55FFF4ED491F901E559FF4EC491CC23FD
:1014300009F477C081110E94B608EC2FF0E0EE0F9E
:10144000FF1FEF5AFF4EA591B491EC91DE2331E0DE
:1014500020E009F430E0832F922F282F2170209371
:10146000770620917606211105C021E08227817040
:10147000809377068091770690917806891741F0DE
:10148000C0927B06D0927C06E0927D06F0927E06AA
:1014900040917B0650917C0660917D0670917E069E
:1014A000C41AD50AE60AF70A4091690650916A06FD
:1014B00060916B0670916C064C155D056E057F059D
:1014C00094F490916806891771F0809368068823D8
:1014D00071F02091790630917A062F5F3F4F30935B
:1014E0007A06209379069091680691111DC040916B
:1014F0006D0650916E0660916F0670917006209196
:10150000790630917A064C155D056E057F0504F16C
:1015100080937806DF91CF91FF90EF90DF90CF908E
:10152000089590E080E099CF409171065091720645
:1015300060917306709174064C155D056E057F050C
:101540003CF72091790630917A0631952195310941
:10155000309367062093660610927A0610927906F9
:10156000D7CF0895089508950895DB0114964D91FD
:101570005C9115976D917C91DC01ED91FC9102805D
:10158000F381E02D1994EF92FF920F931F93CF9365
:10159000DF938C017B01D0E0C0E0F701EC0FFD1F71
:1015A0006491662361F0D801ED91FC910190F08186
:1015B000E02DC8011995892B11F02196EECFCE01AF
:1015C000DF91CF911F910F91FF90EF900895AF920F
:1015D000BF92CF92DF92EF92FF920F931F93CF9320
:1015E000DF936C017B018B01040F151FEB015E0182
:1015F000AE18BF08C017D10759F06991D601ED9117
:10160000FC910190F081E02DC6011995892B79F7A5
:10161000C501DF91CF911F910F91FF90EF90DF9067
:10162000CF90BF90AF900895FC01538D448D252F2E
:1016300030E0842F90E0821B930B541710F0CF966C
:10164000089501970895FC01918D828D981761F09E
:10165000A28DAE0FBF2FB11D5D968C91928D9F5FB5
:101660009F73928F90E008958FEF9FEF0895FC0194
:10167000918D828D981731F0828DE80FF11D858D47
:1016800090E008958FEF9FEF0895FC01918D228DDA
:10169000892F90E0805C9F4F821B91098F7399275F
:1016A000089587E795E00E94450B21E0892B09F416
:1016B00020E0822F0895FC01A48DA80FB92FB11D41
:1016C000A35ABF4F2C91848D90E001968F73992778
:1016D000848FA689B7892C93A089B1898C91837056
:1016E00080648C93938D848D981306C00288F3894F
:1016F000E02D80818F7D80830895EF92FF920F937C
:101700001F93CF93DF93EC0181E0888F9B8D8C8DAD
:1017100098131AC0E889F989808185FF15C09FB7A1
:10172000F894EE89FF896083E889F9898081837064
:10173000806480839FBF81E090E0DF91CF911F9113
:101740000F91FF90EF900895F62E0B8D10E00F5F34
:101750001F4F0F731127E02E8C8D8E110CC00FB60A
:1017600007FCFACFE889F989808185FFF5CFCE01A2
:101770000E945B0BF1CFEB8DEC0FFD2FF11DE35AB7
:10178000FF4FF0829FB7F8940B8FEA89FB89808125
:101790008062CFCFCF93DF93EC01888D8823B9F09F
:1017A000AA89BB89E889F9898C9185FD03C080816C
:1017B00086FD0DC00FB607FCF7CF8C9185FFF2CFE9
:1017C000808185FFEDCFCE010E945B0BE9CFDF91D9
:1017D000CF91089580E090E0892B29F00E94510B71
:1017E00081110E94000080E090E0892B49F080E0A8
:1017F00090E0892B29F00E94000081110E940000D6
:1018000080E090E0892B49F080E090E0892B29F07E
:101810000E94000081110E94000080E090E0892B6E
:1018200049F080E090E0892B29F00E9400008111AE
:101830000C94000008950895FC016370668B848108
:10184000958126813781613039F0633029F09187A5
:1018500080873387228708953187208793878287FF
:1018600008952F923F924F925F926F927F928F9244
:101870009F92AF92BF92CF92DF92EF92FF920F931F
:101880001F93CF93DF93CDB7DEB76A970FB6F89467
:10189000DEBF0FBECDBF9A8F898F7A8369834A01DD
:1018A000D22E18870F833701BC2CDC0159962D915D
:1018B0003C915A972115310509F015C118968D9163
:1018C0009C911997681779070CF0D7C11A968D91DA
:1018D0009C91481759070CF0D0C14C2C512CB6E004
:1018E000CB9E600D711D11247C876B871616170621
:1018F0000CF0C3C1EA2DF0E0FA87E98793E0EE0F20
:10190000FF1F9A95E1F7F88BEF87CF01840F951FA2
:10191000181619060CF0B1C1A98DBA8D58968C9184
:10192000811104C0BFEABD1508F4D394A98DBA8D06
:10193000ED91FC9111970284F385E02DCD0119956D
:10194000B5E0DB9EC0011124E981FA81FC83EB83C1
:10195000312C212C9C0128543C4F388F2F8B4A2D41
:1019600050E05E8B4D8BEF89F88DE20DF31D4491B5
:101970009E828D82D12CC12C69817A81620D731D6A
:101980007A8B698B842F90E09C8B8B8BE98DFA8D01
:10199000A081B18140FF82C0F1E0BF126FC0AF12E1
:1019A0006DC01C96ED91FC912F813885A4014C0DE2
:1019B0005D1D69897A89898D9A8D1995EB89FC89D4
:1019C000F595E7954E2F5FEFC51AD50A6D817E819B
:1019D0008D899E89680F791F7E836D8398E0C91673
:1019E000D10481F6AFEF2A1A3A0AEB81FC81E40DAB
:1019F000F51DFC83EB83F5E02F16310409F0B3CF1E
:101A00002F81388526153705B9F0A98DBA8DED914E
:101A1000FC91B1E0BB1257C0AB1255C069817A810D
:101A20006B5F7F4F0088F189E02D830128E030E073
:101A3000A401898D9A8D1995A98DBA8DED91FC918E
:101A400011970688F789E02DCD016A960FB6F894B4
:101A5000DEBF0FBECDBFDF91CF911F910F91FF90E1
:101A6000EF90DF90CF90BF90AF909F908F907F903E
:101A70006F905F904F903F902F9019941E96ED912C
:101A8000FC91EF80F88409851A8592014D815E8171
:101A90006B817C81898D9A8D199590CF2F813885A6
:101AA0002615370509F48ACF31E0B31207C0A31217
:101AB00005C01C96ED91FC91930178CF1E96ED9197
:101AC000FC917301E0CF6B857C85641975090684F0
:101AD000F785E02D73010F8518899201A401898D86
:101AE0009A8D1995A9CFF901349694913297459121
:101AF0005491D91AB7E0DB9E400D511D1124F90114
:101B0000259134913C8B2B8BFA0125903490FA016E
:101B10003296749031963491398B32966490319626
:101B2000449041E04C1518F04A1508F07FC0662D2E
:101B3000062C000C770B7C836B83842D042C000C0B
:101B4000990B9E838D83A98DBA8DED91FC91119790
:101B50000284F385E02DCD011995512CD12CC12C97
:101B6000EA2DF0E0FA87E9872B2D30E03C872B87C0
:101B7000A401440D511D47FC5A95588F4F8B698124
:101B80007A81660D711D67FC7A957E876D877989EC
:101B9000C71608F051CF2C2D30E04D815E81420FE9
:101BA000531FA985BA854A9FC0014B9F900D5A9F2C
:101BB000900D1124FC01E80DF91DF88BEF87852DA0
:101BC000612C4F89588D420F531F5E8B4D8B6714CC
:101BD00008F050C044244394480E877041F4C1017A
:101BE0000196EB89FC89E20DF31DD4901C01D7FE10
:101BF00019C0A98DBA8DED91FC91662D70E0B1E010
:101C0000BB1219C0AB1217C02D853E85620F731F22
:101C10000484F585E02D2F8138854D895E89898D75
:101C20009A8D1995DD0C6394842DD1CF1E821D826F
:101C30001C821B8288CF4B815C81640F751FAB8532
:101C4000BC856A9FC0016B9F900D7A9F900D1124F7
:101C500069817A81680F791F0684F785E02DEF800E
:101C6000F88409851A859D014F855889898D9A8D3B
:101C70001995D8CF570CC3948ACF6A960FB6F894AB
:101C8000DEBF0FBECDBFDF91CF911F910F91FF90AF
:101C9000EF90DF90CF90BF90AF909F908F907F900C
:101CA0006F905F904F903F902F9008958F929F92EA
:101CB000AF92CF92EF92FF920F931F93CF93DF9348
:101CC000EC01262F898D9A8D009709F051C06A305A
:101CD000D1F41D861C868D8948E0849F90011124D3
:101CE0008E859F85820F931F9F878E8781E090E06E
:101CF000DF91CF911F910F91FF90EF90CF90AF9018
:101D00009F908F9008956D3089F3CC88AD888F892E
:101D10008823C1F08C859D8536E0C39E800D911D82
:101D20001124488559854817590764F44E855F8505
:101D30001D861C8638E0A39EC0011124840F951FC8
:101D40009F878E87EA88FB88088919894E855F8579
:101D50006C857D85CE010E94310C2C898C859D85FA
:101D600046E0249F800D911D11249D878C87BECF56
:101D70006A3069F41D861C86FC013696E4912D8933
:101D80008E859F85E29F800D911D1124ADCF6D3012
:101D900009F4ACCFFC0134963491631708F4A6CF54
:101DA0003196E491E61708F4A1CFFC0132968590B4
:101DB0009490462F431B342F47E0349F800C911C96
:101DC0001124F401329634913196E4913323A9F130
:101DD000EE2399F1CC88F4013596E491AD884F89D2
:101DE000442301F10E2E000CFF0BE30FF11DCE9EDC
:101DF000A001CF9E500D11246C857D85460F571F85
:101E000068857985641775076CF44E855F851D8636
:101E10001C86FC013696E491AE9E400D511D1124A6
:101E20005F874E87EA88FB88088919894E855F8518
:101E30006C857D85CE010E94310CF4013496E491CD
:101E40002C898C859D85E29F800D911D11248DCF5D
:101E50006F927F928F929F92AF92BF92CF92DF92BA
:101E6000EF92FF920F931F93CF93DF93EC016B01DF
:101E70005A0139014801E881F9810284F385E02D96
:101E80001995E881F9810288F389E02D8701930192
:101E9000A501B601CE011995A501480D591D415066
:101EA0005109E881F9810288F389E02D9301B60197
:101EB000CE011995E881F9810088F189E02D94011E
:101EC000A501B601CE011995C60CD71CB60161500B
:101ED0007109E881F9810088F189E02D9401A5015B
:101EE000CE011995E881F9810688F789E02DCE01A8
:101EF000DF91CF911F910F91FF90EF90DF90CF90E6
:101F0000BF90AF909F908F907F906F9019946F9239
:101F10007F928F929F92AF92BF92CF92DF92EF9279
:101F2000FF920F931F93CF93DF935C01EB016A0144
:101F3000490138018701DC01ED91FC9162177307BB
:101F400019F5641675062CF0962D872D3A01C92EC9
:101F5000D82E9601261937092F5F3F4F048CF58D37
:101F6000E02DA301BE01C5011995DF91CF911F910D
:101F70000F91FF90EF90DF90CF90BF90AF909F9028
:101F80008F907F906F9008954615570591F426170E
:101F9000370724F0892D4B01C22FD82F9E01281915
:101FA00039092F5F3F4F068CF78DE02DA601B40154
:101FB000DACF0284F385E02D1995D501ED91FC91DE
:101FC0000488F589E02D83019401A601BE01C501B5
:101FD0001995D501ED91FC910688F789E02DC50191
:101FE000DF91CF911F910F91FF90EF90DF90CF90F5
:101FF000BF90AF909F908F907F906F901994EF92C9
:10200000FF920F931F93DC011A960D911C911B9761
:1020100018962D913C911997ED91FC9100A0F1A19A
:10202000E02D7B0150E040E070E060E019951F91E9
:102030000F91FF90EF9008954F925F926F927F9271
:102040008F929F92AF92BF92CF92DF92EF92FF92C8
:102050000F931F93CF93DF936C012B015A0139012A
:102060004801DC01ED91FC910284F385E02D199586
:10207000E201640C751CD601ED91FC91C615D705E3
:102080005CF40088F189E02D87019401A501BE016F
:10209000C60119952196EFCF0688F789E02DC60174
:1020A000DF91CF911F910F91FF90EF90DF90CF9034
:1020B000BF90AF909F908F907F906F905F904F9068
:1020C00019948F929F92AF92BF92CF92DF92EF922C
:1020D000FF920F931F93CF93DF93EC015B014A01B3
:1020E0006901E881F9810284F385E02D1995950154
:1020F0002C0D3D1D21503109E881F9810488F589B5
:10210000E02D78018401A401B501CE011995E88183
:10211000F9810688F789E02DCE01DF91CF911F91DB
:102120000F91FF90EF90DF90CF90BF90AF909F9076
:102130008F9019948F929F92AF92BF92CF92DF921D
:10214000EF92FF920F931F93CF93DF93EC015B010C
:102150004A0169017801E881F9810284F385E02D63
:102160001995C80CD91C860101501109E881F98123
:102170000488F589E02D9501A401B501CE011995DA
:10218000E881F9810688F789E02DCE01DF91CF91B2
:102190001F910F91FF90EF90DF90CF90BF90AF9085
:1021A0009F908F901994EF92FF920F931F93DC01F1
:1021B000ED91FC9100A0F1A1E02D19951F910F91D7
:1021C000FF90EF9008950F931F93DC01ED91FC9128
:1021D000068CF78DE02D19951F910F9108950F939F
:1021E0001F93DC01ED91FC91048CF58DE02D199588
:1021F0001F910F910895DC01ED91FC910084F18510
:10220000E02D19943F924F925F926F927F928F923E
:102210009F92AF92BF92CF92DF92EF92FF920F9375
:102220001F93CF93DF935C017B014A016901390160
:1022300087E0680E711C93E0759467949A95E1F7B6
:102240002B01400E511E10E000E0312CD0E0C0E028
:10225000CE0187709927330C892B59F4FE0183E056
:10226000F595E7958A95E1F7E00FF11FE80DF91D67
:10227000349037FE0AC021E030E0A701B5016C0FB1
:102280007D1F8BE896E00E94FB102196CC16DD06A0
:10229000F9F68FEFE81AF80A060D171DE414F50495
:1022A000A9F6DF91CF911F910F91FF90EF90DF90F2
:1022B000CF90BF90AF909F908F907F906F905F90E6
:1022C0004F903F9008952F923F924F925F926F925E
:1022D0007F928F929F92AF92BF92CF92DF92EF92B6
:1022E000FF920F931F93CF93DF9300D000D0CDB711
:1022F000DEB73C016A013E832D83FC82EB825801EC
:10230000A41AB50AB7FE03C0B194A194B1088D8098
:102310009E80861A970A97FE03C091948194910833
:102320008A149B045CF0902F812F0D811E819D8368
:102330008E839C2D8D2D6B01692F782F0C151D051B
:102340005CF09D818E817E836D83692F782F902F25
:10235000812F8601C92ED82E1601201A310A2B0191
:102360002D813E81421A530A57FE03C05194419475
:102370005108710137FE03C03FEFE31AF30AF594E9
:10238000E7948D819E81861797075CF5A1E0B0E008
:10239000BA83A983C016D1064CF1D301ED91FC910B
:1023A0000484F585E02D2B813C81A8016D817E811F
:1023B0008A149B041CF04D815E81B801C3011995FC
:1023C000E418F508F7FE0AC02D813E8189819A81C3
:1023D000280F391F3E832D83E20CF31C0F5F1F4F24
:1023E000D9CF2FEF3FEF3A832983D4CF26960FB66C
:1023F000F894DEBF0FBECDBFDF91CF911F910F913B
:10240000FF90EF90DF90CF90BF90AF909F908F9014
:102410007F906F905F904F903F902F900895CF9353
:10242000CFB7F89480914605811127C0E0EAF0E12A
:102430008491E0E4F0E19491E82FF0E0EE0FFF1FCB
:10244000E457F04FA591B491EC91E92321F461E0B8
:1024500085E30E941D0961E085E30E944B098CB56C
:1024600080618CBD8CB580648CBD61E084E30E948A
:102470004B0961E083E30E944B09809146058F5F21
:1024800080934605CFBFCF9108952091FC04260F7D
:102490003327331F21323105ECF420912005FC0154
:1024A00090E080E0243069F082E00895A091FC047F
:1024B0002191AC0144525B4FA40FB52FB11D2C9359
:1024C0000196861798F38091FC04680F6093FC04D2
:1024D00080E0089581E008951092200581E08093C6
:1024E00022051092210561E084E10E941D0961E04E
:1024F00085E10E941D09E9EBF0E080818E7F8083F9
:1025000080818D7F808388E48093B80085E4809308
:10251000BC000895CF93DF9391E09093DB04882370
:10252000B9F0C091B800D091BA008091BC008A7B0C
:102530008093BC0060E084E10E941D0960E085E1B9
:102540000E941D090E946C12D093BA00C093B8007B
:10255000DF91CF910895E0914C0580914B05E817EC
:1025600030F4F0E0EA54FB4F808190E008958FEF63
:102570009FEF089590914C0580914B052FEF3FEF11
:10258000981748F4E92FF0E0EA54FB4F208130E03F
:102590009F5F90934C05C901089580914B059091E0
:1025A0004C05891B990B0895CF92DF92EF92FF9211
:1025B0000F931F93CF93DF937C01CB018A0120916E
:1025C0007605222389F0EB016B01C40ED51ECC15D4
:1025D000DD0569F06991D701ED91FC910190F081E1
:1025E000E02DC7011995F3CF642F0E944512C80151
:1025F000DF91CF911F910F91FF90EF90DF90CF90DF
:102600000895CF93DF931F92CDB7DEB769832091F2
:1026100076052223F9F020917305203258F021E04D
:1026200030E0FC013383228390E080E00F90DF9163
:10263000CF91089580917405E82FF0E0EA56FB4FA2
:10264000998190838F5F809374058093730581E0F7
:1026500090E0ECCF61E0CE0101960E944512F7CFE9
:10266000CF92DF92EF92FF920F931F93CF93DF935E
:10267000D091730581E0D13208F09CC0C0917505FE
:102680000E9487096B017C018091200581116CC03B
:1026900082E08093200581E0809322058FEF809374
:1026A0001F0510924405D0934305A6E9B4E0E3E288
:1026B000F5E080E0D8138DC0109245058091450566
:1026C000CC0FC82BC093450580912105813009F0BE
:1026D00084C0109221050E9487096B017C018091C2
:1026E00045058093BB008091D7049091D804A091B8
:1026F000D904B091DA04892B8A2B8B2BA1F00E948C
:1027000087090091D7041091D8042091D904309101
:10271000DA046C197D098E099F0906171707280727
:10272000390708F442C08091BC0083FDD8CF85EC06
:102730008093BC000E9487096B017C018091200579
:10274000823009F44CC080911F058F3F09F469C0A5
:1027500080911F05803209F466C080911F05803387
:1027600009F463C084E026C08091D7049091D80416
:10277000A091D904B091DA04892B8A2B8B2B09F410
:1027800083CF0E9487090091D7041091D80420912B
:10279000D9043091DA046C197D098E099F09061756
:1027A00017072807390708F06FCF8091D6040E94D9
:1027B0008A1285E0109274051092730510927605C6
:1027C000DF91CF911F910F91FF90EF90DF90CF900D
:1027D00008959D9191938F5F6DCF85EEA9CF8091E4
:1027E000D7049091D804A091D904B091DA04892B30
:1027F0008A2B8B2B09F4A2CF0E9487090091D70462
:102800001091D8042091D9043091DA046C197D0913
:102810008E099F09061717072807390708F08ECF7A
:10282000C4CF80E0C7CF82E0C5CF83E0C3CFEF92B3
:10283000FF920F931F93CF93DF93EC01EC80FD8009
:102840006E157F050CF070C057FF04C0240F351FB4
:1028500050E040E08E819F81FA01E20FF31F8E1756
:102860009F071CF49C01241B350B121613060CF059
:102870005BC0922F842F8695869586958E9DD0017C
:102880008F9DB00D11246A0F7B1FAF8DB8A1A60FCD
:10289000B71F477049F188E0841B482F682F70E00C
:1028A000FB01E055FC4FE491281708F063C0621B60
:1028B00071092FEF30E002C0359527956A95E2F750
:1028C000E2230130110539F0B0F10230110561F554
:1028D0008C91E82702C08C91E82BEC93941720F19F
:1028E0002C813D81A20FB31FE92FE41BE83078F063
:1028F0000230110521F58E2F9C9190959C932C818F
:102900003D81A20FB31F88508830B0F7E770EE23E7
:1029100059F0F0E0E855FC4FE49101301105F9F071
:1029200010F10230110519F1DF91CF911F910F9134
:10293000FF90EF900895E0958C91E823CECF81E051
:102940000115110509F480E081959E2F8C932C814F
:102950003D81A20FB31F98509830C0F7D7CF8C910C
:10296000E82BEC93E1CFE0958C91E823FACF8C91A2
:10297000E827F7CF0130110509F4ADCFE0F20230BE
:10298000110509F4A5CFAE0DBF1DAECF0F931F9358
:10299000CF93DF9377FF04C0260F371F70E060E00E
:1029A000DC011496CD91DC91FB01E20FF31FCE17F1
:1029B000DF071CF49E01261B370B121613064CF57D
:1029C000FA0157FD3796A3E0F595E795AA95E1F74B
:1029D000EC9FD001ED9FB00DFC9FB00D11246A0F4C
:1029E0007B1FDC015F96ED91FC91E60FF71F4770AE
:1029F000552781E090E001C0880F4A95EAF7482FFB
:102A00000130110559F0A8F02E0F3F1F02301105BB
:102A1000E1F0DF91CF911F910F9108952E0F3F1F8D
:102A2000E217F307B1F38191DF011197842B8C93A7
:102A3000F7CF80952E0F3F1FE217F30751F39191C7
:102A4000DF01119798239C93F7CFE217F30709F35F
:102A50008191DF01119784278C93F7CF0F931F93F8
:102A6000FA01DC0156964C9156974230E9F043301A
:102A7000A1F1413061F514964D915C91DA01AE1BE4
:102A8000BF0BFD01E21BF30B77FD0BC0DC011696BB
:102A90004D915C916417750724F4AB01BF010E944E
:102AA000C6141F910F91089514964D915C91DA010F
:102AB000A61BB70BBD0161507109DC0116964D9143
:102AC0005C91DA01AE1BBF0BFD01E21BF30B77FD3E
:102AD000E8CFAF010E941714E4CF16964D915C9198
:102AE000DA01A61BB70BBD0161507109CDCF0F9361
:102AF0001F93FA01DC0156964C9156974230A9F08B
:102B0000433091F1413019F514964D915C91DA0101
:102B1000AE1BBF0BFD013197F7FD04C0AB01BF0138
:102B20000E9417141F910F91089514964D915C9176
:102B3000DA01A61BB70BBD01DC0116964D915C9125
:102B4000DA01AE1BBF0BFD013197621B730BF7FD62
:102B5000E9CFDC0116964D915C91E417F50714F767
:102B6000AF010E94C614DECF16964D915C91DA013A
:102B7000A61BB70BBD01621B730BCECFFC0177FD0B
:102B800064C080859185681779070CF05EC057FD99
:102B90005CC082859385481759070CF056C086891A
:102BA0008230B1F0833029F1813041F48481958104
:102BB000841B950BAB01BC016150710921303105BB
:102BC00009F108F443C02230310509F463C00895C7
:102BD00084819581DC01A61BB70BBD016150710991
:102BE00086819781DC01A41BB50BAD0141505109D1
:102BF000E5CF86819781861B970BBA01AC014150C6
:102C00005109DCCFCA0157FD0796A3E0959587953A
:102C1000AA95E1F7A481B5818A9F90018B9F300D21
:102C20009A9F300D1124620F731F078CF0A1E02DC5
:102C3000E60FF71F4770552721E030E001C0220F53
:102C40004A95EAF78081822B80830895CA0157FD57
:102C5000079633E0959587953A95E1F7A481B5817C
:102C60008A9F90018B9F300D9A9F300D1124620F27
:102C7000731F078CF0A1E02DE60FF71F4770552753
:102C800081E090E001C0880F4A95EAF78095908135
:102C90008923DACFCA0157FD079623E095958795DA
:102CA0002A95E1F7A481B5818A9F90018B9F300D11
:102CB0009A9F300D1124620F731F078CF0A1E02D35
:102CC000E60FF71F4770552721E030E001C0220FC3
:102CD0004A95EAF780818227B7CF08958CBD9DBDC4
:102CE000089590E080E00895AF92BF92CF92DF9276
:102CF000EF92FF920F931F93CF93DF93E0917C02AB
:102D0000F0917D02EE0FFF1FEE0FFF1FEA58FD4FFF
:102D100085859685A785B0895C016D01E12CF12C34
:102D200000E010E020E03AE94DEA5EE460E070E0A7
:102D300080E090E00E94B9410E940D3F0E94DE3E7B
:102D4000CB016F3F710519F010F08FEF90E0DF912C
:102D5000CF911F910F91FF90EF90DF90CF90BF9098
:102D6000AF900895AF92BF92CF92DF92EF92FF9211
:102D70000F931F93CF93DF93E0917C02F0917D023C
:102D8000EE0FFF1FEE0FFF1FEA58FD4F858596855A
:102D9000A785B0895C016D01E12CF12C00E010E009
:102DA00020E03CE846E857E460E070E080E090E036
:102DB0000E94B9410E940D3F0E94DE3ECB016A3065
:102DC000710510F48AE090E0DF91CF911F910F918F
:102DD000FF90EF90DF90CF90BF90AF9008950F934A
:102DE0001F93CF93DF93EC0180918E0481110DC06E
:102DF0000E94F20960938A0470938B0480938C0480
:102E000090938D0481E080938E048881882371F1F2
:102E10000E94F20900918A0410918B0420918C0485
:102E200030918D04601B710B820B930B6E347140DB
:102E30008105910580F0C09100020E94F209609323
:102E40008A0470938B0480938C0490938D04C1301A
:102E500049F41092000280910002DF91CF911F91FE
:102E60000F91089581E080930002F5CF81E0F5CFC6
:102E7000CF92DF92EF92FF92A0914802B091490267
:102E800020E03AEC4AE95BE30E9457416B017C0188
:102E9000A0913B02B0913C0220E432E44FE050E0CC
:102EA0000E945741C60ED71EE81EF91E60912102EE
:102EB00070912202072E000C880B990BC60ED71EAC
:102EC000E81EF91EA0912E02B0912F0228EE33E0E9
:102ED0000E9450416C0D7D1D8E1D9F1DFF90EF9037
:102EE000DF90CF900895EF92FF920F931F93CF93AF
:102EF000DF93EC01A881B9817C810A811B81FD806F
:102F000020E931E050E040E090E080E06C91672300
:102F1000E1E0F0E011F4F0E0E0E08E0F9F1FF80137
:102F200060816F21E1E0F0E011F4F0E0E0E04E0FAD
:102F30005F1F2150310951F721E0893C910508F4C8
:102F400020E081E0493C510508F480E0909189043B
:102F5000921305C090918804981709F460C02093DB
:102F60008904809388049E81990F990F922B880F72
:102F7000982B9E839B3409F459C0973809F04FC0B1
:102F8000EE24EA94FE2C0E94F2090B851C852D8507
:102F90003E85DC01CB01801B910BA20BB30B8F870D
:102FA000988BA98BBA8B10E000E08A319105A105BE
:102FB000B10540F405E010E00D97A105B10510F44E
:102FC0000AE010E00E94F2096B877C878D879E875C
:102FD00021E030E0FFEFEF16FF0611F42FEF3FEF97
:102FE000C701FF0CAA0BBB0B4F81588569857A85F9
:102FF000840F951FA61FB71F029FA001039F500DAE
:10300000129F500D1124052E000C660B770B840FB8
:10301000951FA61FB71F8F839887A987BA87DF914F
:10302000CF911F910F91FF90EF900895EE24E394BC
:10303000F12CA9CF80911406909115060C9473176A
:1030400080911606909117060C94731780911806BC
:10305000909119060C94731780911A0690911B0693
:103060000C94731780911C0690911D060C94731795
:1030700080911E0690911F060C94731782E492E0D3
:1030800090936905809368051092660580E0089525
:103090000895CF93DF93EC01E0917C02F0917D02E3
:1030A000EE0FFF1FEE0FFF1FEA58FD4F25853685F7
:1030B00047855089220F331F441F551FAE81BF81A2
:1030C0000E9457416D877E878F87988BDF91CF91C4
:1030D00008954F925F926F927F928F929F92AF92DC
:1030E000BF92CF92DF92EF92FF920F931F93CF93F5
:1030F000DF9300D01F92CDB7DEB780919B079091F0
:103100009C07892BC9F58091910790919207A09116
:103110009307B091940781509841AD40BF488F3FCD
:103120009B41AE44BE4020F084E897E00E944918DD
:103130008090910790909207A0909307B090940789
:10314000C12CD12C76019401A501B601C7010F90C5
:103150000F900F900F90DF91CF911F910F91FF90E3
:10316000EF90DF90CF90BF90AF909F908F907F9027
:103170006F905F904F9008953091700220916F0290
:10318000932F990F990BA12C4AECB42E5AE9C52E16
:103190006BE3D62EE12CF12C00E010E0492F592FE3
:1031A000692F792F892F0E945F4159016A017B01A4
:1031B000F82FE92FA0916202B091630220E432E47B
:1031C0004FE050E00E9457412B013C01DC01CB0154
:1031D000BB0F880B982FDC0189839A83AB83BC8358
:1031E0009501A601B7018F2F9E2F52016301E9803F
:1031F000FE2C0E2D1E2D0E948E4249015A016B019C
:103200007C0135564D4C5D41610971098109910977
:10321000211538424B465E4E6105710581059105C9
:1032200009F008F490CF812C8AEC982E9AE9A92E07
:103230002BE3B22EC12CD12CE12CF12C84CFFC013C
:10324000948581E0892784870895FC0177FF03C076
:1032500071956195710986819781861B970B97837C
:103260008683228533858217930724F48085918590
:10327000978386830895CF93DF93EC010E942519ED
:103280008E819F81853F21E0920778F080916F02C7
:1032900090917002049731F483E090E09093700273
:1032A00080936F02DF91CF910895843F9140D1F3D5
:1032B00080916F0290917002892BA1F781E090E0DC
:1032C000EDCFCF93DF93EC010E9425198E819F8172
:1032D0008430910581F48091620290916302853F70
:1032E000914030F084EF91E090936302809362020A
:1032F000DF91CF910895892BD9F780916202909147
:103300006302843F914070F3F3CFCF93DF93EC01DE
:1033100061E070E00E9425198E819F81892B69F4FC
:1033200086E792E09B838A8384E897E09093130278
:1033300080931202DF91CF91089589E692E09B83FA
:103340008A838CE592E0F2CF0E9425198AE897E003
:103350000E948E0884E897E00C9449180C94251973
:103360000C9425190C9425190C9425190C942519E5
:10337000FC0177FF03C07195619571098681978182
:10338000680F791F778366838085918586179707F5
:1033900024F482859385978386830895CF93DF9362
:1033A000EC010E94B8198E819F81853F21E0920730
:1033B00078F080916F0290917002049731F483E06D
:1033C00090E09093700280936F02DF91CF91089507
:1033D000843F9140D1F380916F0290917002892BCC
:1033E000A1F781E090E0EDCFCF93DF93EC010E9455
:1033F000B8198E819F818430910581F48091620299
:1034000090916302853F914030F084EF91E090937A
:10341000630280936202DF91CF910895892BD9F7DF
:103420008091620290916302843F914070F3F3CFE8
:10343000CF93DF93EC0161E070E00E94B8198E81B8
:103440009F81892B69F486E792E09B838A8384E8D5
:1034500097E09093130280931202DF91CF91089529
:1034600089E692E09B838A838CE592E0F2CF0E940A
:10347000B8198AE897E00E948E0884E897E00C94D7
:1034800049180C94B8190C94B8190C94B8190C94E8
:10349000B8190C94B8198EBD00000DB407FEFDCF0D
:1034A0008EB50895EF92FF920F931F93CF93DF9302
:1034B0008C017B0160E08091CE060E941D09F8011D
:1034C00080810E944B1AE701F8012181CE018E19FB
:1034D0009F092817190629F024F089910E944B1A98
:1034E000F3CF61E08091CE06DF91CF911F910F91D4
:1034F000FF90EF900C941D09CF92DF92EF92FF9214
:10350000CF93DF9300D000D0CDB7DEB76093D50660
:103510007093D6068093D7069093D8060E94873C76
:103520002091800730918107409182075091830755
:103530000E94E83C6B017C016091150770911607B1
:1035400080911707909118070E94873C9B01AC015E
:10355000C701B6010E94653E6B017C0120E030E0AE
:10356000A9010E94613F20E030E040E05FE387FD79
:103570002EC0C701B6010E94F93D0E94D73E9B01B3
:10358000AC016093F5063093F6068093F7065093EE
:10359000F80659838A833B836C8384E08E838BE0B7
:1035A0008D83BE016F5F7F4FCE0105960E94521A38
:1035B0000E94DE0926960FB6F894DEBF0FBECDBF7F
:1035C000DF91CF91FF90EF90DF90CF900895C701EA
:1035D000B6010E94F83DD1CFCF93DF9300D000D049
:1035E000CDB7DEB781E080937E078D8384E08E8344
:1035F000198280E88A831B821C82BE016F5F7F4F25
:10360000CE0105960E94521A0E94DE0926960FB638
:10361000F894DEBF0FBECDBFDF91CF910895CF9359
:10362000DF9300D000D0CDB7DEB783E08D8384E098
:103630008E838091B9029091BA02A091BB02B091A1
:10364000BC0289839A83AB83BC83BE016F5F7F4FCB
:10365000CE0105960E94521A0E94DE096AE070E0CF
:1036600080E090E00E94AC091982BE016F5F7F4F3D
:10367000CE0105960E94521A0E94DE0926960FB6C8
:10368000F894DEBF0FBECDBFDF91CF910895CF93E9
:10369000DF9300D000D0CDB7DEB781E080937F0705
:1036A0001D8284E08E838091BD029091BE02A09124
:1036B000BF02B091C00289839A83AB83BC83BE01F1
:1036C0006F5F7F4FCE0105960E94521A0E94DE095D
:1036D0000E940F1B0E94DE0926960FB6F894DEBFEB
:1036E0000FBECDBFDF91CF9108951F93CF93DF938E
:1036F00000D000D0CDB7DEB7142F609319077093B8
:103700001A0780931B0790931C076093150770930B
:103710001607809317079093180761E08091CF06F2
:103720000E941D0961E070E080E090E00E94AC0919
:1037300060E08091CF060E941D0964E670E080E0A1
:1037400090E00E94AC0910927E0710927F071092C1
:103750007D070E94471B82E08D8384E08E8319825F
:103760001A821B821C821123A9F08A831B83BE014B
:103770006F5F7F4FCE0105960E94521A0E940F1B69
:1037800026960FB6F894DEBF0FBECDBFDF91CF9166
:103790001F910895BE016F5F7F4FCE0105960E9475
:1037A000521AEECFFF920F931F93CF93DF93F82E11
:1037B000D92FC62F8091A8069091A906009709F4E9
:1037C00052C02091AC0631E0309376052093750508
:1037D0001092740510927305DC01ED91FC9101903B
:1037E000F081E02D60E019950F2D1D2FD1E0FF2411
:1037F000F394C1508091A8069091A906CF3F61F142
:10380000D032C8F00E9430138091A8069091A9068A
:103810002091AC06F0927605209375051092740500
:1038200010927305DC01ED91FC910190F081E02D87
:1038300060E01995D1E08091A8069091A906F80161
:103840006491DC01ED91FC910190F081E02D1995DE
:10385000DF5F0F5F1F4FCDCFDF91CF911F910F9192
:10386000FF900C943013E091B806F091B906908166
:103870008091BE068095892380830F2D1D2FC15016
:1038800008F438C0F80184912091A6063091A7066B
:10389000232B29F00E944B1A0F5F1F4FF0CF28E017
:1038A00030E040E8E091B406F091B5069091BC0696
:1038B000582F5423D9F05081952B9083E091B60670
:1038C000F091B70690815091BD06952B9083E091C1
:1038D000B606F091B70650819091BD06909595235C
:1038E0009083469521503109E9F6D6CF50819095C5
:1038F0009523E3CFDF91CF911F910F91FF90089512
:103900001F93CF93DF93EC018D8D9E8D009721F156
:10391000162F29A131E0309376052093750510927A
:10392000740510927305DC01ED91FC910190F0811A
:10393000E02D60E019958D8D9E8DDC01ED91FC915F
:103940000190F081E02D612F19958D8D9E8DDF9175
:10395000CF911F910C943013ADA5BEA59C918BA95E
:10396000809589238C938B8D9C8D892B31F0862FAC
:10397000DF91CF911F910C944B1A28E030E080E842
:10398000A9A5BAA599A9462F4823C1F04C91942B1B
:103990009C93ABA5BCA59C914AA9942B9C93ABA5E9
:1039A000BCA54C919AA9909594239C9386952150FF
:1039B000310931F7DF91CF911F9108954C91909586
:1039C0009423E6CFEF92FF920F931F93CF93DF9351
:1039D0008091A8069091A906892B09F493C02091A3
:1039E000C2063091C3064091C4065091C50660E0FE
:1039F00074E284EF90E00E94BC3D205131094109FE
:103A0000510956954795379527952093B80065E05D
:103A100086E090E10E94D21B60918F0661508BE896
:103A200096E00E94801C2091910630919206C90177
:103A3000079697FD079623E0959587952A95E1F7D8
:103A400020918F0630919006829F8001839F100DF8
:103A5000929F100D1124C091AA06D091AB068091BF
:103A6000A8069091A9060C0F1D1F009709F489C0A4
:103A70002091AC0631E030937605209375051092C5
:103A8000740510927305DC01ED91FC910190F081B9
:103A9000E02D60E41995FF24F394EE24E3948091E3
:103AA000A8069091A9060C171D0709F442C0BFE1B2
:103AB000BF15D0F40E9430138091A8069091A906FA
:103AC0002091AC06E092760520937505109274055E
:103AD00010927305DC01ED91FC910190F081E02DD5
:103AE00060E41995FF24F3948091A8069091A906AB
:103AF0006991DC01ED91FC910190F081E02D199527
:103B0000F394CDCF8091A6069091A706892B31F032
:103B10008091C0069091C1060E946E16E091BA068F
:103B2000F091BB0690818091BF06809589238083A8
:103B30006ECF0E9430138091A8069091A906892B20
:103B400009F460C02091C6063091C7064091C806AE
:103B50005091C90660E074E284EF90E00E94BC3DA1
:103B600020513109410951095695479537952795B7
:103B70002093B800DF91CF911F910F91FF90EF90AC
:103B80000895E091B806F091B90680819091BE0643
:103B9000892B80830C171D0771F289912091A6064D
:103BA0003091A706232B19F00E944B1AF3CF28E07F
:103BB00030E040E8E091B406F091B5069091BC0683
:103BC000582F5423D9F05081952B9083E091B6065D
:103BD000F091B70690815091BD06952B9083E091AE
:103BE000B606F091B70650819091BD069095952349
:103BF0009083469521503109E9F6CCCF50819095BC
:103C00009523E3CFE091BA06F091BB0680819091B5
:103C1000BF06892B8083AECF1F93CF93DF93EC0138
:103C2000162F8D8D9E8D892BB1F12FA938AD49AD01
:103C30005AAD60E074E284EF90E00E94BC3D2051F8
:103C40003109410951095695479537952795209394
:103C5000B80066EA111167EACE010E94801C8D8DC2
:103C60009E8D892B41F12BAD3CAD4DAD5EAD60E03D
:103C700074E284EF90E00E94BC3D2051310941097B
:103C8000510956954795379527952093B800DF91B0
:103C9000CF911F9108958B8D9C8D892B21F08DA93B
:103CA0009EA90E946E16EFA5F8A990818CA9809517
:103CB00089238083CECFEFA5F8A980819CA9892B89
:103CC0008083E5CFCF92DF92EF92FF92CF93DF9385
:103CD00000D000D0CDB7DEB720E030E040EA51E4BC
:103CE0000E94653E9B01AC0160E070E080E291E4DF
:103CF0000E94663F20E030E040E855E40E94E83C46
:103D00006B017C0120E030E0A9010E94613F20E0CE
:103D100030E040E05FE387FD36C0C701B6010E9496
:103D2000F93D0E94D73E611520E17207810591059A
:103D300078F560931D0770931E0780931F0790937B
:103D4000200780911D0790911E0724E02E832CE010
:103D50002D831C821B8299838A83BE016F5F7F4FF4
:103D6000CE0105960E94521A0E94DE0926960FB6D1
:103D7000F894DEBF0FBECDBFDF91CF91FF90EF90E3
:103D8000DF90CF900895C701B6010E94F83DC9CFDA
:103D90008FEF9FE0A0E0B0E080931D0790931E0797
:103DA000A0931F07B0932007CCCF209191063091AC
:103DB0009206C901079697FD079623E0959587958A
:103DC0002A95E1F720918F0630919006829FA001FD
:103DD000839F500D929F500D112470E060E0809100
:103DE000AA069091AB060C94AB44CF93DF93EC0101
:103DF00088819981009711F00E94334319821882BB
:103E00001D821C821B821A82DF91CF910895FC01D2
:103E100080819181009711F00C94334308950F93A2
:103E20001F93CF93DF938C01EB010E94A63D888303
:103E3000C80101960E94A63D8983CE01DF91CF91F2
:103E40001F910F910895FF920F931F93CF93DF93CC
:103E5000EC018B01FB01F0800E94A63DF81621F0D9
:103E60006F2DCE010E94AE3DF801F1802196CE016A
:103E70000E94A63DF81621F06F2DCE010E94AE3DA6
:103E8000C801DF91CF911F910F91FF90089568E4D1
:103E900072E086E190E00E94231F6BE372E088E10C
:103EA00090E00E94231F6EE272E08CE190E00E949D
:103EB000231F61E272E080E290E00E94231F65E52B
:103EC00072E084E290E00E94231F67E384E690E0C2
:103ED0000C94AE3D0E949D44FB0101900020E9F747
:103EE0003197AF01461B570BDC01ED91FC9102802D
:103EF000F381E02D19948F929F92AF92BF92EF922F
:103F0000FF920F931F93CF93DF93CDB7DEB7A197A7
:103F10000FB6F894DEBF0FBECDBF7C01FA01CB0116
:103F200019A2223008F42AE08E010F5D1F4F822E65
:103F3000912CB12CA12CBF01A50194010E94BC3D84
:103F4000F901CA016A300CF5605DD8016E938D01EC
:103F5000232B242B252B79F790E080E0109721F07C
:103F6000BD01C7010E946C1FA1960FB6F894DEBF79
:103F70000FBECDBFDF91CF911F910F91FF90EF90BA
:103F8000BF90AF909F908F900895695CDECFCF92E5
:103F9000DF92EF92FF920F931F93CF93DF9377FF00
:103FA00021C06A017B01EC01E881F9810190F08177
:103FB000E02D6DE219958C0144275527BA014C1963
:103FC0005D096E097F092AE0CE010E947B1F800FE8
:103FD000911FDF91CF911F910F91FF90EF90DF9094
:103FE000CF9008952AE0DF91CF911F910F91FF901C
:103FF000EF90DF90CF900C947B1F4F925F926F9267
:104000007F92AF92BF92CF92DF92EF92FF920F9387
:104010001F93CF935C01162FC0E060E070E080E05A
:104020009FE3C11741F020E030E040E251E40E94FC
:10403000653ECF5FF6CF2DE33AE047E55FE30E94B0
:10404000F93D6B017C010E94DE3E2B013C012AE020
:10405000BC01A201C5010E947B1F8C01CC23E9F1A8
:10406000C301B2010E94873C9B01AC01C701B601AC
:104070000E94F83D6B017C01D501ED91FC9101900E
:10408000F081E02D6EE2C5011995080F191FC1508E
:1040900020F120E030E040E251E4C701B6010E9487
:1040A000E83C2B013C010E94DE3E6B01F12CE12C2F
:1040B0002AE0B701A601C5010E947B1F080F191F46
:1040C000C701B6010E94873C9B01AC01C301B2014C
:1040D0000E94F83D6B017C01DACFC801CF911F919E
:1040E0000F91FF90EF90DF90CF90BF90AF907F90B7
:1040F0006F905F904F900895CF93DF93BC018BE852
:1041000096E00E946C1FEC0169E873E08BE896E092
:104110000E946C1F8C0F9D1FDF91CF910895CF934C
:10412000DF9362E087E795E00E94FD1FEC0169E8FC
:1041300073E087E795E00E946C1F8C0F9D1FDF9155
:10414000CF9108950F931F93CF93DF93EC010E94BB
:10415000C30A8C0169E873E0CE010E946C1F800FD6
:10416000911FDF91CF911F910F9108950C946C1FB7
:104170000F931F93CF93DF936BE977E090E080E09C
:104180000E94231F6CE772E082E090E00E94231FF0
:104190006FE672E084E090E00E94231F62E672E026
:1041A00086E090E00E94231F6AE877E088E090E0D4
:1041B0000E94231F67E385E690E00E94AE3D0E94C7
:1041C000D51ECBE8D6E082E08C8B8D8B81E090E031
:1041D0009B8B8A8B998B888B08E210E01D870C875C
:1041E0001F861E86888F8CE893E00E947C201D87A6
:1041F0000C8780E290E09F878E8762E973E0CE01B2
:104200000E94B6200E94E21C68EE73E080E090E01D
:10421000DF91CF911F910F910C94AC09CF938091B6
:104220009B0790919C07892B19F5C0918A070E94E2
:104230006918E42F4C2FB9018E2F952F0E94751B02
:104240000E94EC1A0E94471B0E9438170E947C1A99
:1042500060E070E0CB010E94621E0E94B82081E005
:1042600092E0909369058093680580E0CF9108956E
:104270000E946918E42F40E0DECFCF93DF93EC017A
:104280008E819F8101969F838E838F3F910529F0B8
:1042900024F00E94B2169F838E83E0917C02F091FD
:1042A0007D02EE0FFF1FEE0FFF1FEA58FD4F258521
:1042B000368547855089220F331F441F551FAE8115
:1042C000BF810E945741613074438B459D4920F066
:1042D0000E94B2169F838E83CE010E94491868E91E
:1042E00073E087E795E00E94B6204E815F81052E3E
:1042F000000C660B770B87E795E00E94C71F69E803
:1043000073E087E795E0DF91CF910C946C1FCF931A
:10431000DF93EC018E819F8101979F838E830A97A3
:1043200024F40E9474169F838E83E0917C02F091A6
:104330007D02EE0FFF1FEE0FFF1FEA58FD4F258590
:10434000368547855089220F331F441F551FAE8184
:10435000BF810E945741611578418D409F4820F4EC
:104360000E9474169F838E83CE010E94491868E9CB
:1043700073E087E795E00E94B6204E815F81052EAD
:10438000000C660B770B87E795E00E94C71F69E872
:1043900073E087E795E0DF91CF910C946C1F0F934A
:1043A0001F93CF93DF93EC0188819981009759F097
:1043B0002A813B812617370730F081E0DF91CF91CA
:1043C0001F910F9108958B016F5F7F4F0E94BC4337
:1043D000009759F0998388831B830A832C813D8140
:1043E000232B59F7FC011082E8CF80E0E7CFEF9252
:1043F000FF920F931F93CF93DF936115710541F4E3
:1044000080E0DF91CF911F910F91FF90EF90089581
:1044100041155105B1F07B01EC010C811D81040FA8
:10442000151FB8010E94CF21882351F328813981BB
:104430008C819D81B701820F931F0E94B2441D831E
:104440000C8381E0DECFCF93DF93EC01FB01019081
:104450000020E9F73197AF01461B570B0E94F72167
:10446000811103C0CE010E94F51ECE01DF91CF91D4
:104470000895CF93DF93EC01FB0144815581608166
:1044800071810E94F721811103C0CE010E94F51EA7
:10449000CE01DF91CF910895EF92FF920F931F937A
:1044A000CF93DF93EC017B018A01BA010E94CF21F7
:1044B00081110BC0CE010E94F51ECE01DF91CF917C
:1044C0001F910F91FF90EF9008951D830C83B7010A
:1044D000888199810E94B244F0CFFB0101900020B5
:1044E000E9F73197AF01461B570B0C944C220F9301
:1044F0001F93CF93DF93CDB7DEB762970FB6F894D3
:10450000DEBF0FBECDBF8C01CB01F801118210823E
:1045100013821282158214824AE0BE016F5F7F4FC0
:104520000E94CD39BE016F5F7F4FC8010E946D228E
:1045300062960FB6F894DEBF0FBECDBFDF91CF916C
:104540001F910F910895CF93DF93EC01FB01861724
:10455000970749F0608171816115710541F04481CF
:1045600055810E944C22CE01DF91CF9108950E9487
:10457000F51EF9CFFC01118210821382128215827E
:1045800014820C94A322FC011182108213821282E5
:1045900015821482FB0101900020E9F73197AF01E9
:1045A000461B570B0C944C224F925F926F927F9256
:1045B0008F929F92AF92BF92CF92DF92EF92FF9233
:1045C0000F931F93CF93DF9300D000D0CDB7DEB70A
:1045D0005C018B010E94F2096B017C01D8011E96DF
:1045E000CD92DD92ED92FC92519719968D919D910D
:1045F0000D90BC91A02D26013701481A590A6A0A6C
:104600007B0AF80187819085AC01440F551F480F44
:10461000591F70E060E0441555056605770508F4FC
:104620001586B0E0A0E084159505A605B70508F04D
:1046300070C0D8011996CD92DD92ED92FC921C9734
:104640001D968C911D978F5F1D968C931D9752968A
:104650009C915297981710F41D961C92F801E584CE
:10466000C680F12CCE0CDF2CD11CCE14DF0428F038
:104670009C2D8D2D6701E92EF82E6BE873E0CE019D
:1046800001960E94C322D80114968D909C90C81464
:10469000D904F8F4E814F90408F44701D801ED91BD
:1046A000FC911197E80DF91DF08010826D917C91BD
:1046B0006C0D7D1DCE0101966115710509F447C091
:1046C0000E946D22F80180819181880E991ED4018B
:1046D000FC92F801838994890097F1F169817A81CC
:1046E00061157105B9F1458956892D813E814217C1
:1046F000530780F10E94B2448D819E81D801589663
:104700009C938E9357971E821D82CE0101960E9424
:10471000071FB8016D5E7F4FC5010E94BA22C50117
:1047200026960FB6F894DEBF0FBECDBFDF91CF91B6
:104730001F910F91FF90EF90DF90CF90BF90AF90BF
:104740009F908F907F906F905F904F9008950E9400
:10475000F51EB8CF0E94334389819A81F801948B6A
:10476000838B8B819C81968B858B8D819E81908F95
:10477000878B1A8219821C821B82C5CF0F931F93CD
:10478000CF93DF93CDB7DEB72C970FB6F894DEBF8B
:104790000FBECDBF8C01433069F5CB010A978A3536
:1047A000910538F4CE0107960E9477226CE973E0F8
:1047B00009C06A3071050CF5CE0107960E94772278
:1047C0006BE973E0CE0101960E94C322BE01695FCE
:1047D0007F4FCE0101960E943922BC01C8010E9480
:1047E000BA22CE0101960E94071FCE0107960E94B1
:1047F000071F06C06A307105ACF2C8010E9477221B
:10480000C8012C960FB6F894DEBF0FBECDBFDF9166
:10481000CF911F910F91089585ED8093BC008091F9
:10482000D7049091D804A091D904B091DA040796E6
:10483000A11DB11D23E0B695A795979587952A955B
:10484000D1F72091BC0024FD03C0109220050895EB
:104850004091D7045091D8046091D9047091DA0442
:10486000452B462B472B69F30097A105B10541F075
:104870002AE22A95F1F700C00197A109B109E1CF19
:104880008091D6040C948A121F920F920FB60F9249
:1048900011242F933F938F939F93AF93BF93809156
:1048A0006B0590916C05A0916D05B0916E053091EE
:1048B0006A0523E0230F2D3758F50196A11DB11D80
:1048C00020936A0580936B0590936C05A0936D050A
:1048D000B0936E0580916F0590917005A091710560
:1048E000B09172050196A11DB11D80936F05909343
:1048F0007005A0937105B0937205BF91AF919F9120
:104900008F913F912F910F900FBE0F901F90189590
:1049100026E8230F0296A11DB11DD2CF1F920F9240
:104920000FB60F9211240BB60F922F933F934F9314
:104930005F936F937F938F939F93AF93BF93EF9307
:10494000FF93E091B102F091B2021995FF91EF91BE
:10495000BF91AF919F918F917F916F915F914F9197
:104960003F912F910F900BBE0F900FBE0F901F9095
:1049700018951F920F920FB60F9211240BB60F923B
:104980002F933F934F935F936F937F938F939F9357
:10499000AF93BF93EF93FF93E091AF02F091B0021A
:1049A0001995FF91EF91BF91AF919F918F917F9159
:1049B0006F915F914F913F912F910F900BBE0F9090
:1049C0000FBE0F901F9018951F920F920FB60F9267
:1049D00011240BB60F922F933F934F935F936F93D6
:1049E0007F938F939F93AF93BF93EF93FF93E09148
:1049F000A502F091A6021995FF91EF91BF91AF9199
:104A00009F918F917F916F915F914F913F912F91E6
:104A10000F900BBE0F900FBE0F901F9018951F9216
:104A20000F920FB60F9211240BB60F922F933F9354
:104A30004F935F936F937F938F939F93AF93BF93A6
:104A4000EF93FF93E091A302F091A4021995FF91D7
:104A5000EF91BF91AF919F918F917F916F915F91F6
:104A60004F913F912F910F900BBE0F900FBE0F9063
:104A70001F9018951F920F920FB60F9211240BB62C
:104A80000F922F933F934F935F936F937F938F93E7
:104A90009F93AF93BF93EF93FF93E091AD02F0919B
:104AA000AE021995FF91EF91BF91AF919F918F91B8
:104AB0007F916F915F914F913F912F910F900BBE1E
:104AC0000F900FBE0F901F9018951F920F920FB668
:104AD0000F9211240BB60F922F933F934F935F9336
:104AE0006F937F938F939F93AF93BF93EF93FF93B6
:104AF000E091AB02F091AC021995FF91EF91BF915B
:104B0000AF919F918F917F916F915F914F913F9165
:104B10002F910F900BBE0F900FBE0F901F90189506
:104B20001F920F920FB60F9211240BB60F922F9374
:104B30003F934F935F936F937F938F939F93AF9325
:104B4000BF93EF93FF93E091A902F091AA02199508
:104B5000FF91EF91BF91AF919F918F917F916F9155
:104B60005F914F913F912F910F900BBE0F900FBE11
:104B70000F901F9018951F920F920FB60F9211244D
:104B80000BB60F922F933F934F935F936F937F9347
:104B90008F939F93AF93BF93EF93FF93E091A702FF
:104BA000F091A8021995FF91EF91BF91AF919F915C
:104BB0008F917F916F915F914F913F912F910F90C6
:104BC0000BBE0F900FBE0F901F9018951F920F9263
:104BD0000FB60F9211240BB60F922F933F934F9362
:104BE0005F936F937F938F939F93AF93BF93EF9355
:104BF000FF9387E795E00E945B0BFF91EF91BF91D8
:104C0000AF919F918F917F916F915F914F913F9164
:104C10002F910F900BBE0F900FBE0F901F90189505
:104C20001F920F920FB60F9211240BB60F922F9373
:104C30008F939F93EF93FF93E0918705F091880501
:104C40008081E0918D05F0918E0582FD1DC09081DF
:104C5000809190058F5F8F7320919105821741F0AD
:104C6000E0919005F0E0E958FA4F958F8093900518
:104C7000FF91EF919F918F912F910F900BBE0F900D
:104C80000FBE0F901F9018958081F2CF1F920F9248
:104C90000FB60F9211240BB60F922F933F934F93A1
:104CA0005F936F937F938F939F93AF93BF93EF9394
:104CB000FF938091B900887F803609F44DC008F0D9
:104CC00040C0883209F4A9C028F5803109F49DC09C
:104CD000C8F4882309F4FBC0883009F496C0FF911A
:104CE000EF91BF91AF919F918F917F916F915F9164
:104CF0004F913F912F910F900BBE0F900FBE0F90D1
:104D00001F901895883109F488C0803241F780934C
:104D10001F0514C0803409F49DC040F48033B9F3FA
:104D20008833E9F680931F0585ECB0C0803509F41F
:104D300085C0883509F496C0883489F60E940C2411
:104D4000CECF883909F48CC038F5883729F050F473
:104D5000883611F0803719F683E080932005109291
:104D60001E0557C0883809F47BC0803919F0803897
:104D700009F0B5CF80911E05803208F071C0E09136
:104D80001E0581E08E0F80931E058091BB00F0E030
:104D9000E250FB4F80833DC0803B39F0E0F4803A25
:104DA00009F479C0883A09F09ACF84E0809320050D
:104DB0001092FD041092FC04E0914905F0914A051F
:104DC00019958091FC0481110FC081E08093FC044F
:104DD0001092DC0409C0803C09F4A6CF883C09F499
:104DE000A3CF883B09F07BCFE091FD0481E08E0FDB
:104DF0008093FD04F0E0E452FB4F80818093BB0080
:104E00009091FD048091FC0429C080914505809318
:104E1000BB0085EC8093BC0062CF909144058091EB
:104E20004305981758F5E091440581E08E0F809373
:104E30004405F0E0ED5DFA4F8081E9CFE091440553
:104E400081E08E0F809344058091BB00F0E0ED5D22
:104E5000FA4F808390914405809143059817C8F2DA
:104E600085E8D8CFE091440581E08E0F809344051A
:104E70008091BB00F0E0ED5DFA4F808380912205C8
:104E800081115CCF81E08093210584EA8093BC008E
:104E90001092200524CF85EC8093BC001092200551
:104EA00080911E05803230F4E0911E05F0E0E25062
:104EB000FB4F108260911E0570E0E0914705F09174
:104EC00048058EEF94E0199510921E0508CF1092B8
:104ED0001F0534CFCF92DF92EF92FF920F931F9373
:104EE000CF93DF93CDB7DEB72C970FB6F894DEBF24
:104EF0000FBECDBF8C016B016BE873E00E94C32233
:104F0000F801118612861386148615861686178672
:104F1000108A118A128A6BE873E0C80143960E94D6
:104F2000C3226BE873E0CE0107960E94C3228AE099
:104F3000F8018683F12CE12CF8018681BE01695FBE
:104F40007F4F8E151F04C1F0BCF0CE0101960E9468
:104F5000BA2265E374E0CE0101960E942322BC01CF
:104F6000CE0107960E94A322CE0101960E94071F40
:104F7000FFEFEF1AFF0AE0CFCE0101960E94BA229E
:104F8000B601CE0101960E943922BC01C8010E94DF
:104F9000A322CE0101960E94071FF8018481828B13
:104FA00086E990E090878783CE0107960E94071FCD
:104FB0002C960FB6F894DEBF0FBECDBFDF91CF9118
:104FC0001F910F91FF90EF90DF90CF900895EF9297
:104FD000FF920F931F93CF93DF93CDB7DEB7A197C7
:104FE0000FB6F894DEBF0FBECDBF7C01CB01BA0176
:104FF000F70111821082138212821582148242E01C
:10500000420F8E010F5F1F4F0E94A639009789F053
:10501000BC01C7010E946D22A1960FB6F894DEBFB5
:105020000FBECDBFDF91CF911F910F91FF90EF90F9
:105030000895C7010E94F51EEFCFCF92DF92EF9245
:10504000FF92CF93DF93CDB7DEB762970FB6F89498
:10505000DEBF0FBECDBF10927A051092790528EE03
:10506000C22E23E0D22EE12CF12CC0927B05D092EF
:105070007C05E0927D05F0927E0589E293E09093B5
:1050800078058093770585EC90E090938405809374
:10509000830584EC90E0909386058093850580ECF1
:1050A00090E0909388058093870581EC90E0909341
:1050B0008A058093890582EC90E090938C0580931B
:1050C0008B0586EC90E090938E0580938D05109271
:1050D00090051092910510929205109293051092EE
:1050E000820610928106C0928306D0928406E092D6
:1050F0008506F09286068BE393E09093800680937A
:105100007F06109298071092970710929A071092B4
:10511000990710929C0710929B0710929E0710927D
:105120009D071092A00710929F071092A10783E895
:1051300093E090939607809395076EE973E082EA77
:1051400097E00E94C32268EA73E088EA97E00E9431
:10515000C322109287071092860710928907109237
:10516000880710928B0710928A0710928D07109271
:105170008C0710928F0710928E071092900789E784
:1051800093E0909385078093840710929107109283
:10519000920710929307109294078AE897E00E9472
:1051A0008E0884E897E00E94491880E090E0A0E82B
:1051B000BFE48093800790938107A0938207B09308
:1051C000830786E08093CE0681E18093CF0680E15D
:1051D0008093D00687E08093D10688E08093D20642
:1051E00089E08093D3068FE28093D40661E086E065
:1051F0000E944B0961E08091CF060E944B0961E05B
:105200008091D0060E944B0961E08091D1060E94F6
:105210004B0961E08091D2060E944B0961E08091C8
:10522000D3060E944B0961E08091D4060E944B098D
:1052300061E08091CE060E941D0960E08091CF065A
:105240000E941D0960E08091D0060E941D0960E067
:105250008091D1060E941D0960E08091D2060E94D3
:105260001D0960E08091D3060E941D0960E08091D5
:10527000D4060E941D0980E89CE7A1E8BAE4809367
:10528000CA069093CB06A093CC06B093CD0610929D
:105290008E0610928D0620E830E030939006209321
:1052A0008F0680E490E0909392068093910630936D
:1052B00094062093930690939606809395061092F9
:1052C000A106109298061092970610929A061092D4
:1052D000990681E08093A00680939F062FEF3FEF11
:1052E00030939E0620939D0630939C0620939B0648
:1052F0008093A2061092A3061092A5061092A4060F
:105300002DE433E030938C0620938B061092A70691
:105310001092A6062FE736E03093A9062093A80640
:105320001092AB061092AA069FEF9093AF0690934F
:10533000B0069093B1069093B2069093B30690E5B1
:105340009093C0061092C10640E055E36CE070E017
:105350004093C2065093C3066093C4067093C5067B
:105360004093C6065093C7066093C8067093C9065B
:1053700092E090937506109276068093770680935C
:10538000780610927A0610927906109267061092AB
:1053900066061092680610927B0610927C061092A8
:1053A0007D0610927E0684E190E0A0E0B0E080935C
:1053B000690690936A06A0936B06B0936C068AEF19
:1053C00090E0A0E0B0E080936D0690936E06A0930D
:1053D0006F06B0937006C0927106D0927206E0928A
:1053E0007306F092740660E082E00E944B0980919F
:1053F0007606811105C061E0809175060E941D0945
:1054000062E083E10E944B0962E082E10E944B0965
:10541000EEE7F0E1E491F0E0EE0FFF1FEF5AFF4EF0
:10542000A591B491B0935306A0935206EEE1F0E13A
:10543000649160935606EDE7F0E1E491F0E0EE0F41
:10544000FF1FEF5AFF4E259134913093550620935C
:105450005406EDE1F0E1E491E0935706109259060D
:1054600010925A0610925B0610925C064BE35FE1C5
:10547000CA010197F1F79C91862F892391E009F4E5
:1054800090E0D9018C91E82309F0926022E536E0A2
:105490009093580630931D0620931C0682E398E1F2
:1054A0009093AC028093AB02809169008F7C806105
:1054B00080936900EA9A81E08093650630931F0625
:1054C00020931E0688E398E19093AE028093AD028C
:1054D000809169008F73806480936900EB9A82E009
:1054E000809365066091CA067091CB068091CC06C8
:1054F0009091CD060E94873C20E23CEB4EEB5CE4B1
:105500000E94653E0E94B63F20E030E040E251E458
:105510000E94653EAB01BC0121E0CE0107960E94CE
:10552000E72763EB73E0CE0101960E94C322BE0120
:10553000695F7F4FCE0101960E94392265EC73E0CE
:105540000E942322BC01CE010D960E94BA22BE0108
:10555000635F7F4F89E396E00E946A27CE010D9634
:105560000E94071FCE0101960E94071FCE010796D9
:105570000E94071F20E040E050E068EC72E4CE019A
:1055800007960E94E7276AEC73E0CE0101960E941D
:10559000C322BE01695F7F4FCE0101960E9439226E
:1055A0006BED73E00E942322BC01CE010D960E9498
:1055B000BA22BE01635F7F4F80E296E00E946A27B5
:1055C000CE010D960E94071FCE0101960E94071F73
:1055D000CE0107960E94071F62960FB6F894DEBFB1
:1055E0000FBECDBFDF91CF91FF90EF90DF90CF90B6
:1055F0000895CF93DF93CDB7DEB7E7970FB6F89452
:10560000DEBF0FBECDBF789484B5826084BD84B503
:10561000816084BD85B5826085BD85B5816085BDAD
:1056200080916E00816080936E0010928100809165
:1056300081008260809381008091810081608093ED
:105640008100809180008160809380008091B10012
:1056500084608093B1008091B00081608093B0003D
:10566000809191008260809391008091910081608F
:105670008093910080919000816080939000809150
:10568000A10082608093A1008091A100816080933D
:10569000A1008091A00081608093A00080912101F1
:1056A000826080932101809121018160809321019A
:1056B0008091200181608093200180917A00846034
:1056C00080937A0080917A00826080937A00809142
:1056D0007A00816080937A0080917A00806880935C
:1056E0007A001092C1008091AA069091AB06892B96
:1056F00011F10E94D51E2091910630919206809161
:105700008F0690919006213231050CF0FCC4B9014E
:105710006052710977FF02C06F5F7F4F7595679583
:105720008357910997FD019600E210E023E730E0EE
:1057300044ED58E0FBC42091910630919206C901D6
:10574000079697FD0796B3E095958795BA95E1F78B
:1057500020918F0630919006AC01429FC001439F7B
:10576000900D529F900D11240E9497429093AB068A
:105770008093AA06892B09F0BCCF01E00093A30611
:105780000E94D51E0E94D51E0093A30612E010931E
:105790009F061093A006EE24E394F12CF0929E064F
:1057A000E0929D06F0929C06E0929B06109298066D
:1057B0001092970610929A061092990660EE73E086
:1057C0008BE896E00E94B62000939F060093A00607
:1057D0007EE3C72ED12CD0929806C09297061092E5
:1057E0009A061092990666EE73E08BE896E00E94A6
:1057F000B620D0929806C092970688E090E09093E9
:105800009A06809399066FEE73E08BE896E00E940B
:10581000B62062E08BE896E00E94FD1F1092980689
:105820001092970680E190E090939A0680939906F3
:1058300010939F061093A00666EF73E08BE896E046
:105840000E94B6206CEF73E08BE896E00E94B620D1
:10585000F0929E06E0929D06F0929C06E0929B06D6
:1058600081E094E00E947C208BE094E00E947C2008
:105870000E94E21C60ED77E080E090E00E94AC09BD
:10588000E0918705F09188051083E0918305F09100
:1058900084051082E0918505F091860580E1808382
:1058A00010928F05E0918B05F0918C0586E0808346
:1058B000E0918905F0918A05808180618083E09183
:1058C0008905F0918A05808188608083E09189054F
:1058D000F0918A05808180688083E0918905F0914C
:1058E0008A0580818F7D808361E87DE087E795E090
:1058F0000E94A22064E77DE087E795E00E94C30A4A
:105900000E948F200E94FE0980916806882351F032
:105910006FEF85E690E00E94AE3D6FEF84E690E089
:105920000E94AE3D22E432E045E352E0509345024E
:105930004093440268E272E0709338026093370249
:10594000EBE1F2E0F0932B02E0932A028FE492E085
:1059500090931E0280931D023093520220935102B5
:10596000F0935402E09353027093200260931F025D
:1059700050932D0240932C0230933A022093390227
:10598000909347028093460285E997E066E772E0CC
:105990007093980760939707E4E8F7E0F093790233
:1059A000E09378022EE032E0309387072093860759
:1059B00041E052E050931102409310029093040290
:1059C00080930302ACE5B2E0B0936C02A0936B024B
:1059D00030935F0220935E0230930602209305020B
:1059E000F0931302E0931202709389076093880783
:1059F00090937B0280937A0250939A074093990781
:105A000029E632E0309361022093600290936E02A7
:105A100080936D0221E030E030934B0220934A02E4
:105A200010924D0210924C0287EE93E090933E024A
:105A300080933D021092400210923F0290933102F7
:105A4000809330021092330210923202909324021B
:105A500080932302109226021092250284E490E0A3
:105A6000909358028093570210925A021092590252
:105A700030939E0720939D071092A00710929F07D6
:105A800087E090E090937F0280937E0210928102E3
:105A9000109280020E94381760936205709363052C
:105AA000809364059093650580E099EFA2E0B5E9E5
:105AB0008093910790939207A0939307B0939407D4
:105AC0008AE090E090938F0780938E078FEF90E0AD
:105AD00090938D0780938C0780918A0790918B0714
