:020000040000FA
:100000000C943B090C94A1290C9476290C944B294F
:100010000C9420290C94F5280C94CA280C949F2841
:100020000C9474280C946C090C946C090C946C0955
:100030000C946C090C946C090C946C090C946C096C
:100040000C946C090C946C090C946C090C946C095C
:100050000C946C090C946C090C946C090C942A286F
:100060000C946C090C94F6290C94CC290C946C0912
:100070000C946C090C946C090C946C090C946C092C
:100080000C946C090C946C090C946C090C946C091C
:100090000C946C090C946C090C946C090C942C2A2B
:1000A0000C946C090C946C090C946C090C946C09FC
:1000B0000C946C090C946C090C946C090C946C09EC
:1000C0000C946C090C946C090C946C090C946C09DC
:1000D0000C946C090C946C090C946C090C946C09CC
:1000E0000C946C0907634236B79BD8A71A39685637
:1000F00018AEBAAB558C1D3CB7CC5763BD6DEDFD4A
:10010000753EF6177231BF000000803F0800000006
:10011000BE922449123EABAAAA2ABECDCCCC4C3EFC
:1001200000000080BEABAAAAAA3E00000000BF00EB
:100130000000803F0000000000084178D3BB4387E7
:10014000D1133D190E3CC3BD4282AD2B3E68EC82FB
:1001500076BED98FE1A93E4C80EFFFBE01C4FF7F80
:100160003F00000000000C94960B0C94FD0A0C94C8
:10017000AF160C94F5090C94F9090C946B250C94AA
:10018000611B0C94631B0C94CF090C9495090C947F
:100190001B0C0C94F4240C947D200C9468160C9485
:1001A0000F120C94571B0C94032C0C94EE1A0C9405
:1001B000740B0C94880B0C94C41A0C945E190C9458
:1001C000C9090C94FB0A0C94D6130C9482400C942D
:1001D0006E120C94E7090C94E1090C9452190C94DA
:1001E000381B0C9423250C94BA130C94F4090C942A
:1001F000811A0C94CA130C94960D0C9417490C9404
:10020000DD090C94030F0C94380B0C94EB090C943F
:10021000EF090C94FC0A0C9462170C943F1A0C948E
:10022000EC0D0C94B80D0C94E2130C94D9090C94B9
:10023000A50D0C94650B0C94E6120C94C6090C9455
:10024000D61A0C945B1A0C9403130C94CE0B0C94DA
:10025000671B0C9468190C94C2090C94D41A0C9462
:10026000BA090C94CE1A0C945C140C94B4090C9436
:10027000BF0D0C94FE0A0C94141B0C94A51A0C943C
:1002800058190C94D21A0C941F160C94691B0C94D8
:10029000BE090C94D01A0C94D3090C94651B0C94D1
:1002A0003D1100407A10F35A00A0724E1809001058
:1002B000A5D4E80000E87648170000E40B540200DB
:1002C00000CA9A3B000000E1F50500008096980006
:1002D000000040420F000000A0860100000010272F
:1002E00000000000E80300000000640000000000BF
:1002F0000A00000000000100000000002C76D888F1
:10030000DC674F0823DFC1DFAE59E1B1B796E5E303
:10031000E453C63AE651997696E8E6C28426EB891C
:100320008C9B62ED407C6FFCEFBC9C9F40F2BAA5B9
:100330006FA5F490055A2AF75C936B6CF9676DC151
:100340001BFCE0E40D47FEF520E6B500D0ED902E55
:100350000300943577050080841E080000204E0AB3
:10036000000000C80C333333330F986E12831141F1
:10037000EF8D2114893BE65516CFFEE6DB18D184BC
:100380004B381BF77C1D901DA4BBE42420328472E3
:100390005E228100C9F124ECA1E53D276364696E0A
:1003A0006F70737578585B00000103070F1F3F7F64
:1003B0000080C0E0F0F8FCFE00000000003E5B4F53
:1003C0005B3E3E6B4F6B3E1C3E7C3E1C183C7E3CB5
:1003D000181C577D571C1C5E7F5E1C00183C1800C3
:1003E000FFE7C3E7FF0018241800FFE7DBE7FF3053
:1003F000483A060E2629792926407F050507407FC1
:1004000005253F5A3CE73C5A7F3E1C1C08081C1C33
:100410003E7F14227F22145F5F005F5F06097F0129
:100420007F006689956A606060606094A2FFA29414
:1004300008047E040810207E201008082A1C0808E2
:100440001C2A08081E101010100C1E0C1E0C303830
:100450003E3830060E3E0E06000000000000005F31
:1004600000000007000700147F147F14242A7F2A4D
:10047000122313086462364956205000080703000F
:10048000001C2241000041221C002A1C7F1C2A085B
:10049000083E0808008070300008080808080000BE
:1004A00060600020100804023E5149453E00427F32
:1004B000400072494949462141494D331814127F81
:1004C0001027454545393C4A494931412111090721
:1004D0003649494936464949291E000014000000A2
:1004E0004034000000081422411414141414004174
:1004F00022140802015909063E415D594E7C121131
:10050000127C7F494949363E414141227F41414168
:100510003E7F494949417F090909013E41415173E3
:100520007F0808087F00417F41002040413F017F54
:10053000081422417F404040407F021C027F7F041C
:1005400008107F3E4141413E7F090909063E415165
:10055000215E7F09192946264949493203017F0155
:10056000033F4040403F1F2040201F3F4038403F56
:10057000631408146303047804036159494D43006C
:100580007F4141410204081020004141417F0402A3
:10059000010204404040404000030708002054543A
:1005A00078407F2844443838444444283844442818
:1005B0007F385454541800087E090218A4A49C786B
:1005C0007F0804047800447D40002040403D007FC7
:1005D0001028440000417F40007C047804787C08A7
:1005E0000404783844444438FC182424181824247B
:1005F00018FC7C08040408485454542404043F4460
:10060000243C4040207C1C2040201C3C4030403C8E
:1006100044281028444C9090907C4464544C4400EE
:100620000836410000007700000041360800020152
:100630000204023C2623263C1EA1A161123A40403E
:10064000207A3854545559215555794122545478BB
:1006500042215554784020545579400C1E52721254
:1006600039555555593954545459395554545800DD
:1006700000457C410002457D420001457C407D12E1
:1006800011127DF0282528F07C5455450020545443
:100690007C547C0A097F4932494949323A444444EE
:1006A0003A324A4848303A4141217A3A4240207829
:1006B000009DA0A07D3D4242423D3D4040403D3C2A
:1006C00024FF2424487E4943662B2FFC2F2BFF094F
:1006D00029F620C0887E0903205454794100004443
:1006E0007D413048484A32384040227A007A0A0A2E
:1006F000727D0D19317D2629292F282629292926A1
:1007000030484D4020380808080808080808382FE5
:1007100010C8ACBA2F102834FA00007B000008146F
:100720002A142222142A14085500550055AA55AA45
:1007300055AAFF55FF55FF000000FF00101010FFE5
:1007400000141414FF001010FF00FF1010F010F040
:10075000141414FC001414F700FF0000FF00FF1431
:1007600014F404FC141417101F10101F101F14147D
:10077000141F00101010F0000000001F10101010C7
:100780001F10101010F010000000FF1010101010BB
:1007900010101010FF10000000FF140000FF00FFF9
:1007A00000001F10170000FC04F414141710171495
:1007B00014F404F40000FF00F714141414141414B7
:1007C000F700F7141414171410101F101F1414142A
:1007D000F4141010F010F000001F101F0000001F94
:1007E00014000000FC140000F010F01010FF10FFC7
:1007F000141414FF141010101F00000000F010FF5C
:10080000FFFFFFFFF0F0F0F0F0FFFFFF000000003F
:1008100000FFFF0F0F0F0F0F3844443844FC4A4AC3
:100820004A347E02020606027E027E026355494178
:10083000633844443C04407E201E2006027E0202AF
:1008400099A5E7A5991C2A492A1C4C7201724C30C3
:100850004A4D4D303048784830BC625A463D3E499A
:100860004949007E0101017E2A2A2A2A2A44445F3E
:10087000444440514A444040444A51400000FF0132
:1008800003E080FF000008086B6B08361236243640
:10089000060F090F060000181800000010100030A5
:1008A00040FF0101001F01011E00191D1712003C2D
:1008B0003C3C3C0000000000DB40A4A62EAF200022
:1008C000A1C8D300408DAED580A800006000000014
:1008D0000000000000000000000000E00000000038
:1008E00000000000000000000001E0000000000027
:1008F000000000000000000001F000000000000007
:100900000000000000000003F000000000000000F4
:1009100000000000000007F00000000000000000E0
:10092000000000000007F8000000000000000000C8
:10093000000000000FF800000003C0007E0000016E
:10094000E0007F0FF800000003C000FE000001E09F
:1009500000FFEFF800000003C000FE000001E0000F
:10096000FFFFF800000003C000F00000000F007F50
:10097000FE7FC0000003C000F00000000F003FFE3B
:100980007FF83FF1FBCFFCFEF3BC3DEFE01FFE7FA5
:10099000FF7FFBFFDFFEFEFFBC3DEFE01FC6FFFF5A
:1009A0007FFBFFDFFEFEFFBC3DEFE00FE3C7FE78FD
:1009B0007BC3DE1EF0FFBC3DEF0007FF87FC787BAA
:1009C000C3DE1EF0F83C3DEF0001FFFFF0007BC3EB
:1009D000C01EF0F03C3DEF0001F37FE03FFBC3CFD2
:1009E000FEF0F03C3DEF0003E33F807FFBC3DFFE02
:1009F000F0F03C3DEF0007E73C00787BC3DE1EF0E3
:100A0000F03C3DEF0007FFBE00787BC3DE1EF0F038
:100A10003C3DEF0007FFFE00787BC3DE1EF0F03C9C
:100A20003DEF000FFFFE007FFBFFDFFEF0F03FFD1C
:100A3000EFE00FFFFF007FFBFFDFFEF0F03FFDEF79
:100A4000E00FF9FF003E79F9CF9EF0F01F3DE7E09F
:100A50001FF1FF0000000000000000000000001F68
:100A600080FF007FFFFFFFFFFFFFFFFFFFE01C0095
:100A70007F007FFFFFFFFEB46D888D18E000001F30
:100A8000007FFFFFFFFE95AD7DB577E000000F0012
:100A90007FFFFFFFFEA5AD9D8D19E0000006007FE2
:100AA000FFFFFFFEB5ADEDB57EE0000000000001E8
:100AB0008000000000000000000003800000000033
:100AC000000000000007C00000000000000000005F
:100AD00007C00000000000000000000FC000000080
:100AE0000000000000001FE0000000000000000007
:100AF000001FE00000000000000000003FE00000D8
:100B0000000000000000003FF000000000000000B6
:100B100000007FF0000000000000001FF87FF000E0
:100B20000000000000003FFE7FF000000000000019
:100B3000003FFF7FF0000000000000001FFFFBE00F
:100B4000000000000000000FFFF9FFC000000000DF
:100B500000000FFFF9FFF800000000000007FFF1A0
:100B6000FFFF00000000000003FC73FFFF80000097
:100B700000000001FE3FFFFF80000000000000FFBA
:100B80001E0FFF000000000000007FFE1FFC0000A1
:100B900000000000003FFFFFF80000000000000020
:100BA0000FDFFFE0000000000000001F19FFC00081
:100BB0000000000000003F3CFF00000000000000BB
:100BC000007E7CF800000000000000007FFE7C003A
:100BD00000000000000000FFFFFC0000000000001B
:100BE0000000FFFFFE0000000000000000FFFFFE0D
:100BF0000000000000000001FFEFFE000000000008
:100C0000000001FFCFFE0000000000000003FF070E
:100C1000FE0000000000000003FC07FE00000000D2
:100C200000000003F003FE0000000000000001804F
:100C300000FE000000000000000000007E00000038
:100C4000000000000000003E000000000000000066
:100C500000000C000000000000078000FC00000302
:100C6000C0000000078001FC000003C00000000776
:100C70008001FC000003C0000000078001E00000CC
:100C8000001E000000078001E00000001E007FE35E
:100C9000F79FF9FDE7787BDFC0FFF7FFBFFDFDFFA2
:100CA000787BDFC0FFF7FFBFFDFDFF787BDFC0F083
:100CB000F787BC3DE1FF787BDE00F0F787BC3DE1C4
:100CC000F0787BDE0000F787803DE1E0787BDE0096
:100CD0007FF7879FFDE1E0787BDE00FFF787BFFDB0
:100CE000E1E0787BDE00F0F787BC3DE1E0787BDE79
:100CF00000F0F787BC3DE1E0787BDE00F0F787BCD1
:100D00003DE1E0787BDE00FFF7FFBFFDE1E07FFB28
:100D1000DFC0FFF7FFBFFDE1E07FFBDFC07CF3F347
:100D20009F3DE1E03E7BCFC00000000000000000DE
:100D3000000000FFFFFFFFFFFFFFFFFFFFC0FFFFFF
:100D4000FFFFFD68DB111A31C0FFFFFFFFFD2B5ACB
:100D5000FB6AEFC0FFFFFFFFFD4B5B3B1A33C0FF99
:100D6000FFFFFFFD6B5BDB6AFDC0000000000000C1
:100D70000000000000000000000000000000000073
:100D80000000000000000000000000000000000063
:100D900001800000000007E00000000007E0000004
:100DA00000000FF0000000000E70000000001C3872
:100DB000000000003C3C00000000381C0000000067
:100DC000781E00000000700E00000000F00F000010
:100DD0000000E3C700000001C3C380000003C3C3D9
:100DE000C000000383C1C000000783C1E00000070A
:100DF00003C0E000000E03C0F000000E03C070004E
:100E0000001C03C03800003C03C03C00003803C095
:100E10001C00007803C01E00007003C00E0000E03C
:100E200003C0070001E003C0078001C003C00380C6
:100E300003C0018003C00380000001C007800000E0
:100E400001E00700018000E00E0003C000701E00FA
:100E500003C000781C00018000383C000000003C0A
:100E600038000000001C38000000001C3FFFFFFF9E
:100E7000FFFC1FFFFFFFFFF801FFFFFFFF800000E7
:100E800000000000000000000000504F57455220B5
:100E9000535550504C59003132205644430057416D
:100EA000524E494E470073657475700020746F2070
:100EB000656E746572004D4F444500486F6C642048
:100EC000007665722E3A20004669726D7761726510
:100ED0000048696E743A00496E70757420766F6CC4
:100EE00074616765203D20004669726D77617265A7
:100EF00020762E3A0044445320414439393134207D
:100F000048573A2076332E782041726475696E6FA7
:100F100020536869656C642062792047524120261D
:100F200020414643482E20286772612D6166636820
:100F30002E636F6D2900556E6B6E6F776E20636F39
:100F40006D6D616E643A0046202D20536574204615
:100F500072657175656E637920696E20487A202804
:100F6000313030303030202D204444535F436F7295
:100F7000655F436C6F636B2F32290A50202D20531D
:100F80006574204F757470757420506F776572208A
:100F9000696E2064426D20282D3638202D2030299E
:100FA0000A4D202D20476574204D6F64656C0A56EC
:100FB000202D20476574204669726D776172652027
:100FC00056657273696F6E0A45202D20456E616209
:100FD0006C65204F75747075740A44202D20446927
:100FE0007361626C65204F75747075740A68202D8A
:100FF00020546869732048656C700A3B202D20439B
:101000006F6D6D616E647320536570617261746F92
:10101000720A4578616D706C653A0A46313030303D
:1010200030303B502D320A5365742046726571751D
:10103000656E637920746F20313030206B487A2CD4
:1010400020616E64204F757470757420506F7765E1
:101050007220746F202D322064426D2E0A416E7909
:10106000206E756D626572206F6620636F6D6D61B5
:101070006E647320696E20616E79206F7264657290
:1010800020697320616C6C6F7765642E0044445353
:10109000393931342F352076322E32004F75747045
:1010A000757420456E61626C6564004F757470756F
:1010B000742044697361626C6564005365742050E8
:1010C0006F7765722E3A20005365742066726571E1
:1010D0002E3A200045584954005341564500204DB2
:1010E000487A003A00436F726520436C6F636B006F
:1010F000204D487A003A00436C6F636B204672655E
:1011000071003A00436C6F636B2053726300534568
:101110005455500047524126414643480064426DB1
:101120000020002D00416D706C69747564653A0093
:101130004300204F464600467265712E2C20487AA7
:101140003A004444532041443939313400000021ED
:1011500000240027002A002D003000330001010088
:1011600000040107010A0100002200250028002BCD
:10117000002E003100340002010000050108010BBF
:101180000100000A0B02090C0D0E08070304010000
:10119000000000000000000000000000000000004F
:1011A000000000000000000000000000001211100C
:1011B000000000000000000000000000000000002F
:1011C000000000000000002200FF2101021020208A
:1011D000080810204010204080020102010804028B
:1011E0000101020408102040808040201008040201
:1011F000018004020180402010080402010804025A
:10120000010102040810204080010204081020405F
:1012100080000020002300260029002C002F00322F
:10122000000001000003010601090105050505078D
:101230000508080808020202020A0A080804040451
:10124000040101010101010101030303030303037D
:1012500003040707070C0C0C0C0C0C0C0C0202020C
:101260000206060606060606060B0B0B0B0B0B0BFF
:101270000B00032C824011241FBECFEFD1E2DEBF52
:10128000CDBF00E00CBF14E0A0E0B2E0EEE2FFE969
:1012900000E00BBF02C007900D92A038B107D9F74C
:1012A00027E0A0E8B4E001C01D92A93DB207E1F734
:1012B00019E0CAE3D9E000E006C021970109802FB8
:1012C000FE010E94A248C933D10780E00807A9F7B0
:1012D0000E94322F0C94854F0C940000CF93DF9323
:1012E000EC01E0917E02F0917F02EE0FFF1FEE0F06
:1012F000FF1FE858FD4F258536854785508960E8F2
:101300007CE781E89AE40E94CD442F3F310519F033
:1013100010F02FEF30E02A30310510F42AE030E0F1
:1013200039832883DF91CF910895089581508231C8
:1013300008F05AC0E82FF0E08827EE55F64F8F4F9F
:101340000C94A248C209C609B409BA09BE09F40935
:10135000C909CF09D309D909DD09E109E709EB0971
:10136000F409EF09F509F909809180008F778093DE
:1013700080000895809180008F7DF9CF809180005A
:10138000877FF5CF84B58F7784BD089584B58F7D31
:10139000FBCF8091B0008F778093B000089580914B
:1013A000B0008F7DF9CF809190008F77809390006F
:1013B0000895809190008F7DF9CF80919000877F74
:1013C000F5CF8091A0008F778093A0000895809141
:1013D000A0008F7DF9CF8091A000877FF5CF80910D
:1013E00020018F77809320010895809120018F7DC7
:1013F000F9CF80912001877FF5CF1F93CF93DF93A3
:10140000282F30E0F901EF57FE4E8491F901E553A2
:10141000FE4ED491F901E55DFD4EC491CC23A9F0B7
:10142000162F81110E949609EC2FF0E0EE0FFF1F9E
:10143000E959FE4EA591B4918FB7F894EC91111132
:1014400008C0D095DE23DC938FBFDF91CF911F9131
:101450000895DE2BF8CFCF93DF9390E0FC01E553A6
:10146000FE4E2491855D9D4EFC0184918823C9F038
:1014700090E0880F991FFC01E35BFE4EA591B491AB
:10148000FC01E959FE4EC591D49161110DC09FB781
:10149000F8948C91209582238C938881282328832B
:1014A0009FBFDF91CF910895623051F49FB7F894B8
:1014B0003C91822F809583238C93E8812E2BEFCF54
:1014C0008FB7F894EC912E2B2C938FBFEACF90918D
:1014D0007B00977F90937B0020915D0290E4299F91
:1014E000900111248653822B80937C0080917A0096
:1014F000806480937A0080917A0086FDFCCF809191
:1015000078009091790008953FB7F894809176051E
:1015100090917705A0917805B091790526B5A89BA3
:1015200005C02F3F19F00196A11DB11D3FBFBA2F75
:10153000A92F982F8827BC01CD01620F711D811D35
:10154000911D42E0660F771F881F991F4A95D1F7BA
:1015500008958F929F92AF92BF92CF92DF92EF92B7
:10156000FF924B015C010E94840A6B017C010E9486
:10157000840A6C197D098E099F09683E73408105B4
:101580009105A8F321E0821A9108A108B10888EE1C
:10159000C80E83E0D81EE11CF11C81149104A10443
:1015A000B10429F7FF90EF90DF90CF90BF90AF90FC
:1015B0009F908F900895CF93DF93CFEED6E061E0B8
:1015C0008A810E94FD0961E070E080E090E00E9465
:1015D000A90A60E08A81DF91CF910C94FD092FB7B1
:1015E000F8946091720570917305809174059091E3
:1015F00075052FBF08950895089508950895DC0195
:10160000ED91FC910190F081E02D1994DB0114968D
:101610004D915C9115976D917C91DC01ED91FC9160
:101620000280F381E02D1994EF92FF920F931F93A4
:10163000CF93DF938C017B01D0E0C0E0F701EC0F8A
:10164000FD1F6491662361F0D801ED91FC9101903A
:10165000F081E02DC8011995892B11F02196EECF6C
:10166000CE01DF91CF911F910F91FF90EF900895E0
:10167000AF92BF92CF92DF92EF92FF920F931F93A0
:10168000CF93DF936C017B018B01040F151FEB01DE
:101690005E01AE18BF08C017D10759F06991D60195
:1016A000ED91FC910190F081E02DC6011995892BF7
:1016B00079F7C501DF91CF911F910F91FF90EF90C6
:1016C000DF90CF90BF90AF900895FC01538D448D73
:1016D000252F30E0842F90E0821B930B541710F0DD
:1016E000CF96089501970895FC01918D828D9817EA
:1016F00061F0A28DAE0FBF2FB11D5D968C91928DC2
:101700009F5F9F73928F90E008958FEF9FEF0895F2
:10171000FC01918D828D981731F0828DE80FF11DBB
:10172000858D90E008958FEF9FEF0895FC01918DD6
:10173000228D892F90E0805C9F4F821B91098F73CF
:10174000992708958EE795E00E94960B21E0892B5A
:1017500009F420E0822F0895FC01A48DA80FB92F71
:10176000B11DA35ABF4F2C91848D90E001968F73C9
:101770009927848FA689B7892C93A089B1898C91E8
:10178000837080648C93938D848D981306C0028837
:10179000F389E02D80818F7D80830895EF92FF9201
:1017A0000F931F93CF93DF93EC0181E0888F9B8D84
:1017B0008C8D98131AC0E889F989808185FF15C03E
:1017C0009FB7F894EE89FF896083E889F989808161
:1017D0008370806480839FBF81E090E0DF91CF9130
:1017E0001F910F91FF90EF900895F62E0B8D10E052
:1017F0000F5F1F4F0F731127E02E8C8D8E110CC0C1
:101800000FB607FCFACFE889F989808185FFF5CF0B
:10181000CE010E94AC0BF1CFEB8DEC0FFD2FF11D33
:10182000E35AFF4FF0829FB7F8940B8FEA89FB8948
:1018300080818062CFCFCF93DF93EC01888D8823A6
:10184000B9F0AA89BB89E889F9898C9185FD03C023
:10185000808186FD0DC00FB607FCF7CF8C9185FF08
:10186000F2CF808185FFEDCFCE010E94AC0BE9CF96
:10187000DF91CF91089580E090E0892B29F00E94BC
:10188000A20B81110E94000080E090E0892B49F0BA
:1018900080E090E0892B29F00E94000081110E94D5
:1018A000000080E090E0892B49F080E090E0892BF7
:1018B00029F00E94000081110E94000080E090E069
:1018C000892B49F080E090E0892B29F00E940000EC
:1018D00081110C9400000895CF92DF92EF92FF9255
:1018E0000F931F93CF93DF93EC010E94EF0A6B01DC
:1018F0007C012F8530E0F901EF57FE4E8491F9010C
:10190000E553FE4E1491F901E55DFD4E049100236F
:1019100009F45EC081110E949609E02FF0E0EE0FFD
:10192000FF1FEF5EFD4EA591B491EC911E2331E0B7
:1019300020E009F430E0832F922F282F2170298B8B
:101940002889211104C021E082278170898B89892F
:101950009A89891721F0CD8ADE8AEF8AF88E4D891F
:101960005E896F89788DC41AD50AE60AF70A4B8119
:101970005C816D817E814C155D056E057F0564F48B
:101980009A81891749F08A83882349F02B893C89F9
:101990002F5F3F4F3C8B2B8B9A8191111CC04F8145
:1019A000588569857A854C155D056E057F0534F48B
:1019B0002B893C89398328831C8A1B8A8A8BDF9177
:1019C000CF911F910F91FF90EF90DF90CF900895EE
:1019D00090E080E0B2CF4B855C856D857E854C15AF
:1019E0005D056E057F0554F72B893C89319521955E
:1019F0003109E0CFCF93CFB7F89480913E058111A4
:101A000027C0E0E6F2E18491E0E0F2E19491E82F72
:101A1000F0E0EE0FFF1FE35BFE4EA591B491EC9159
:101A2000E92321F461E085E30E94FD0961E085E39B
:101A30000E942B0A8CB580618CBD8CB580648CBDF6
:101A400061E084E30E942B0A61E083E30E942B0A99
:101A500080913E058F5F80933E05CFBFCF91089563
:101A60002091F404260F3327331F21323105ECF483
:101A700020911805FC0190E080E0243069F082E0BC
:101A80000895A091F4042191AC014C525B4FA40F36
:101A9000B52FB11D2C930196861798F38091F4040D
:101AA000680F6093F40480E0089581E00895109237
:101AB000180581E080931A051092190561E084E110
:101AC0000E94FD0961E085E10E94FD09E9EBF0E07B
:101AD00080818E7F808380818D7F808388E4809366
:101AE000B80085E48093BC000895CF93DF9391E024
:101AF0009093D3048823B9F0C091B800D091BA0074
:101B00008091BC008A7B8093BC0060E084E10E94ED
:101B1000FD0960E085E10E94FD090E94570DD09308
:101B2000BA00C093B800DF91CF910895E0914405C9
:101B300080914305E81730F4F0E0E255FB4F8081D7
:101B400090E008958FEF9FEF089590914405809164
:101B500043052FEF3FEF981748F4E92FF0E0E255E7
:101B6000FB4F208130E09F5F90934405C9010895A9
:101B70008091430590914405891B990B0895CF925C
:101B8000DF92EF92FF920F931F93CF93DF937C012D
:101B9000CB018A0120917D05222389F0EB016B01A5
:101BA000C40ED51ECC15DD0569F06991D701ED9104
:101BB000FC910190F081E02DC7011995F3CF642FBE
:101BC0000E94300DC801DF91CF911F910F91FF90BE
:101BD000EF90DF90CF900895CF93DF931F92CDB712
:101BE000DEB7698320917D052223F9F020917A05E3
:101BF000203258F021E030E0FC013383228390E072
:101C000080E00F90DF91CF91089580917B05E82FC0
:101C1000F0E0E257FB4F998190838F5F80937B05C3
:101C200080937A0581E090E0ECCF61E0CE010196EF
:101C30000E94300DF7CFCF92DF92EF92FF920F9379
:101C40001F93CF93DF93D0917A0581E0D13208F0D2
:101C50009CC0C0917C050E94840A6B017C0180912C
:101C6000180581116CC082E08093180581E0809393
:101C70001A058FEF8093170510923C05D0933B0512
:101C8000AEE8B4E0EBE1F5E080E0D8138DC010924F
:101C90003D0580913D05CC0FC82BC0933D0580913B
:101CA0001905813009F084C0109219050E94840A38
:101CB0006B017C0180913D058093BB008091CF0436
:101CC0009091D004A091D104B091D204892B8A2B99
:101CD0008B2BA1F00E94840A0091CF041091D004B4
:101CE0002091D1043091D2046C197D098E099F098D
:101CF000061717072807390708F442C08091BC006F
:101D000083FDD8CF85EC8093BC000E94840A6B01D0
:101D10007C0180911805823009F44CC08091170530
:101D20008F3F09F469C080911705803209F466C0BD
:101D300080911705803309F463C084E026C0809148
:101D4000CF049091D004A091D104B091D204892BFA
:101D50008A2B8B2B09F483CF0E94840A0091CF0435
:101D60001091D0042091D1043091D2046C197D09D6
:101D70008E099F09061717072807390708F06FCF44
:101D80008091CE040E94750D85E010927B05109223
:101D90007A0510927D05DF91CF911F910F91FF90F1
:101DA000EF90DF90CF9008959D9191938F5F6DCFCD
:101DB00085EEA9CF8091CF049091D004A091D10459
:101DC000B091D204892B8A2B8B2B09F4A2CF0E94CD
:101DD000840A0091CF041091D0042091D104309155
:101DE000D2046C197D098E099F0906171707280769
:101DF000390708F08ECFC4CF80E0C7CF82E0C5CFCF
:101E000083E0C3CF0895FC016370668B8481958164
:101E100026813781613039F0633029F091878087DE
:101E20003387228708953187208793878287089593
:101E30002F923F924F925F926F927F928F929F92DA
:101E4000AF92BF92CF92DF92EF92FF920F931F93C8
:101E5000CF93DF93CDB7DEB76A970FB6F894DEBFA6
:101E60000FBECDBF9A8F898F7A8369834A01D22EA4
:101E700018870F833701BC2CDC0159962D913C91BA
:101E80005A972115310509F015C118968D919C912D
:101E90001997681779070CF0D7C11A968D919C9104
:101EA000481759070CF0D0C14C2C512CB6E0CB9EF2
:101EB000600D711D11247C876B87161617060CF0B8
:101EC000C3C1EA2DF0E0FA87E98793E0EE0FFF1F28
:101ED0009A95E1F7F88BEF87CF01840F951F1816BD
:101EE00019060CF0B1C1A98DBA8D58968C9181114B
:101EF00004C0BFEABD1508F4D394A98DBA8DED9145
:101F0000FC9111970284F385E02DCD011995B5E080
:101F1000DB9EC0011124E981FA81FC83EB83312C23
:101F2000212C9C0128543C4F388F2F8B4A2D50E098
:101F30005E8B4D8BEF89F88DE20DF31D44919E82EF
:101F40008D82D12CC12C69817A81620D731D7A8BAF
:101F5000698B842F90E09C8B8B8BE98DFA8DA0810F
:101F6000B18140FF82C0F1E0BF126FC0AF126DC0FF
:101F70001C96ED91FC912F813885A4014C0D5D1DBF
:101F800069897A89898D9A8D1995EB89FC89F595EE
:101F9000E7954E2F5FEFC51AD50A6D817E818D8939
:101FA0009E89680F791F7E836D8398E0C916D104DE
:101FB00081F6AFEF2A1A3A0AEB81FC81E40DF51D98
:101FC000FC83EB83F5E02F16310409F0B3CF2F81AA
:101FD000388526153705B9F0A98DBA8DED91FC919C
:101FE000B1E0BB1257C0AB1255C069817A816B5FFB
:101FF0007F4F0088F189E02D830128E030E0A401C3
:10200000898D9A8D1995A98DBA8DED91FC911197B5
:102010000688F789E02DCD016A960FB6F894DEBFE9
:102020000FBECDBFDF91CF911F910F91FF90EF9029
:10203000DF90CF90BF90AF909F908F907F906F90E8
:102040005F904F903F902F9019941E96ED91FC91C8
:10205000EF80F88409851A8592014D815E816B813C
:102060007C81898D9A8D199590CF2F813885261581
:10207000370509F48ACF31E0B31207C0A31205C0B7
:102080001C96ED91FC91930178CF1E96ED91FC91F9
:102090007301E0CF6B857C85641975090684F7852B
:1020A000E02D73010F8518899201A401898D9A8D05
:1020B0001995A9CFF901349694913297459154918D
:1020C000D91AB7E0DB9E400D511D1124F90125916D
:1020D00034913C8B2B8BFA0125903490FA01329687
:1020E000749031963491398B329664903196449045
:1020F00041E04C1518F04A1508F07FC0662D062CFB
:10210000000C770B7C836B83842D042C000C990BC3
:102110009E838D83A98DBA8DED91FC9111970284D8
:10212000F385E02DCD011995512CD12CC12CEA2D30
:10213000F0E0FA87E9872B2D30E03C872B87A4015C
:10214000440D511D47FC5A95588F4F8B69817A81F8
:10215000660D711D67FC7A957E876D877989C71634
:1021600008F051CF2C2D30E04D815E81420F531F7E
:10217000A985BA854A9FC0014B9F900D5A9F900D2B
:102180001124FC01E80DF91DF88BEF87852D612CDA
:102190004F89588D420F531F5E8B4D8B671408F08B
:1021A00050C044244394480E877041F4C101019605
:1021B000EB89FC89E20DF31DD4901C01D7FE19C0F8
:1021C000A98DBA8DED91FC91662D70E0B1E0BB1246
:1021D00019C0AB1217C02D853E85620F731F048492
:1021E000F585E02D2F8138854D895E89898D9A8D01
:1021F0001995DD0C6394842DD1CF1E821D821C8223
:102200001B8288CF4B815C81640F751FAB85BC85B9
:102210006A9FC0016B9F900D7A9F900D1124698178
:102220007A81680F791F0684F785E02DEF80F884A6
:1022300009851A859D014F855889898D9A8D199533
:10224000D8CF570CC3948ACF6A960FB6F894DEBFE6
:102250000FBECDBFDF91CF911F910F91FF90EF90F7
:10226000DF90CF90BF90AF909F908F907F906F90B6
:102270005F904F903F902F9008958F929F92AF92D2
:10228000CF92EF92FF920F931F93CF93DF93EC01C6
:10229000262F898D9A8D009709F051C06A30D1F4AC
:1022A0001D861C868D8948E0849F900111248E85AF
:1022B0009F85820F931F9F878E8781E090E0DF913B
:1022C000CF911F910F91FF90EF90CF90AF909F9083
:1022D0008F9008956D3089F3CC88AD888F898823DD
:1022E000C1F08C859D8536E0C39E800D911D112423
:1022F000488559854817590764F44E855F851D86C2
:102300001C8638E0A39EC0011124840F951F9F876F
:102310008E87EA88FB88088919894E855F856C85D8
:102320007D85CE010E94180F2C898C859D8546E005
:10233000249F800D911D11249D878C87BECF6A300C
:1023400069F41D861C86FC013896E4912D898E85E2
:102350009F85E29F800D911D1124ADCF6D3009F452
:10236000ACCFFC0134963491631708F4A6CF3296B3
:10237000E491E61708F4A1CFFC0132968590949081
:10238000462F431B342F47E0349F800C911C1124AF
:10239000F401329634913196E4913323A9F1EE237E
:1023A00099F1CC88F4013596E491AD884F894423A6
:1023B00001F10E2E000CFF0BE30FF11DCE9EA001CC
:1023C000CF9E500D11246C857D85460F571F688563
:1023D0007985641775076CF44E855F851D861C86AC
:1023E000FC013896E491AE9E400D511D11245F878B
:1023F0004E87EA88FB88088919894E855F856C8538
:102400007D85CE010E94180FF4013496E4912C8949
:102410008C859D85E29F800D911D11248DCF6F923B
:102420007F928F929F92AF92BF92CF92DF92EF9264
:10243000FF920F931F93CF93DF93EC016B015A012F
:1024400039014801E881F9810284F385E02D19956D
:10245000E881F9810288F389E02D87019301A501C4
:10246000B601CE011995A501480D591D41505109DC
:10247000E881F9810288F389E02D9301B601CE014C
:102480001995E881F9810088F189E02D9401A50171
:10249000B601CE011995C60CD71CB6016150710961
:1024A000E881F9810088F189E02D9401A501CE0130
:1024B0001995E881F9810688F789E02DCE01DF9131
:1024C000CF911F910F91FF90EF90DF90CF90BF9031
:1024D000AF909F908F907F906F9019946F927F92A2
:1024E0008F929F92AF92BF92CF92DF92EF92FF9224
:1024F0000F931F93CF93DF935C01EB016A014901B6
:1025000038018701DC01ED91FC916217730719F521
:10251000641675062CF0962D872D3A01C92ED82EFB
:102520009601261937092F5F3F4F048CF58DE02D5A
:10253000A301BE01C5011995DF91CF911F910F91A4
:10254000FF90EF90DF90CF90BF90AF909F908F90D3
:102550007F906F9008954615570591F42617370719
:1025600024F0892D4B01C22FD82F9E01281939093B
:102570002F5F3F4F068CF78DE02DA601B401DACF17
:102580000284F385E02D1995D501ED91FC91048825
:10259000F589E02D83019401A601BE01C5011995BD
:1025A000D501ED91FC910688F789E02DC501DF91F9
:1025B000CF911F910F91FF90EF90DF90CF90BF9040
:1025C000AF909F908F907F906F901994EF92FF92B1
:1025D0000F931F93DC011A960D911C911B9718966F
:1025E0002D913C911997ED91FC9100A0F1A1E02D66
:1025F0007B0150E040E070E060E019951F910F9181
:10260000FF90EF9008954F925F926F927F928F921A
:102610009F92AF92BF92CF92DF92EF92FF920F9371
:102620001F93CF93DF936C012B015A0139014801AD
:10263000DC01ED91FC910284F385E02D1995E20116
:10264000640C751CD601ED91FC91C615D7055CF4A0
:102650000088F189E02D87019401A501BE01C60122
:1026600019952196EFCF0688F789E02DC601DF91F5
:10267000CF911F910F91FF90EF90DF90CF90BF907F
:10268000AF909F908F907F906F905F904F90199434
:102690008F929F92AF92BF92CF92DF92EF92FF9272
:1026A0000F931F93CF93DF93EC015B014A01690104
:1026B000E881F9810284F385E02D199595012C0DAF
:1026C0003D1D21503109E881F9810488F589E02D0B
:1026D00078018401A401B501CE011995E881F98141
:1026E0000688F789E02DCE01DF91CF911F910F91E0
:1026F000FF90EF90DF90CF90BF90AF909F908F9022
:1027000019948F929F92AF92BF92CF92DF92EF92E5
:10271000FF920F931F93CF93DF93EC015B014A016C
:1027200069017801E881F9810284F385E02D19952A
:10273000C80CD91C860101501109E881F98104886F
:10274000F589E02D9501A401B501CE011995E88127
:10275000F9810688F789E02DCE01DF91CF911F9195
:102760000F91FF90EF90DF90CF90BF90AF909F9030
:102770008F901994EF92FF920F931F93DC01ED91CC
:10278000FC9100A0F1A1E02D19951F910F91FF90F0
:10279000EF9008950F931F93DC01ED91FC91068C4F
:1027A000F78DE02D19951F910F9108950F931F93A9
:1027B000DC01ED91FC91048CF58DE02D19951F91B4
:1027C0000F910895DC01ED91FC910084F185E02DDD
:1027D00019943F924F925F926F927F928F929F9245
:1027E000AF92BF92CF92DF92EF92FF920F931F931F
:1027F000CF93DF9300D01F92CDB7DEB75C013B01D2
:102800006A014901280187E0480E511C93E0559464
:1028100047949A95E1F7CA018E0D9F1D9A8389838B
:10282000F12CE12C312C1C821B828B819C818770C6
:102830009927330C892B61F4EB81FC8183E0F595BA
:10284000E7958A95E1F7EE0DFF1DE80DF91D34902F
:1028500037FE0AC021E030E0A6016B817C81660D65
:10286000771DC5010E94E2138B819C8101969C8398
:102870008B8308171907C9F69FEFC91AD90AE40C08
:10288000F51C89819A81C816D90669F60F900F90B8
:102890000F900F90DF91CF911F910F91FF90EF90CC
:1028A000DF90CF90BF90AF909F908F907F906F9070
:1028B0005F904F903F9008952F923F924F925F927A
:1028C0006F927F928F929F92AF92BF92CF92DF9240
:1028D000EF92FF920F931F93CF93DF9300D000D01E
:1028E000CDB7DEB73C016A013E832D83FC82EB82CB
:1028F0005801A41AB50AB7FE03C0B194A194B10857
:102900008D809E80861A970A97FE03C091948194C9
:1029100091088A149B045CF0902F812F0D811E81F9
:102920009D838E839C2D8D2D6B01692F782F0C1527
:102930001D055CF09D818E817E836D83692F782FCC
:10294000902F812F8601C92ED82E1601201A310A08
:102950002B012D813E81421A530A57FE03C0519428
:1029600041945108710137FE03C03FEFE31AF30AA7
:10297000F594E7948D819E81861797075CF5A1E019
:10298000B0E0BA83A983C016D1064CF1D301ED9112
:10299000FC910484F585E02D2B813C81A8016D819B
:1029A0007E818A149B041CF04D815E81B801C301B5
:1029B0001995E418F508F7FE0AC02D813E8189813A
:1029C0009A81280F391F3E832D83E20CF31C0F5F81
:1029D0001F4FD9CF2FEF3FEF3A832983D4CF2696CD
:1029E0000FB6F894DEBF0FBECDBFDF91CF911F9120
:1029F0000F91FF90EF90DF90CF90BF90AF909F909E
:102A00008F907F906F905F904F903F902F900895A0
:102A1000EF92FF920F931F93CF93DF93EC01EC8023
:102A2000FD806E157F050CF070C057FF04C0240FA9
:102A3000351F50E040E08E819F81FA01E20FF31FC5
:102A40008E179F071CF49C01241B350B12161306CE
:102A50000CF05BC0922F842F8695869586958E9D6F
:102A6000D0018F9DB00D11246A0F7B1FAF8DB8A1CF
:102A7000A60FB71F477049F188E0841B482F682FC5
:102A800070E0FB01E055FC4FE491281708F063C0AB
:102A9000621B71092FEF30E002C0359527956A95CA
:102AA000E2F7E2230130110539F0B0F102301105EF
:102AB00061F58C91E82702C08C91E82BEC93941778
:102AC00020F12C813D81A20FB31FE92FE41BE830D8
:102AD00078F00230110521F58E2F9C9190959C93F2
:102AE0002C813D81A20FB31F88508830B0F7E7706A
:102AF000EE2359F0F0E0E855FC4FE4910130110568
:102B0000F9F010F10230110519F1DF91CF911F9109
:102B10000F91FF90EF900895E0958C91E823CECF30
:102B200081E00115110509F480E081959E2F8C93B9
:102B30002C813D81A20FB31F98509830C0F7D7CF9A
:102B40008C91E82BEC93E1CFE0958C91E823FACFC0
:102B50008C91E827F7CF0130110509F4ADCFE0F2F1
:102B60000230110509F4A5CFAE0DBF1DAECF0F93F6
:102B70001F93CF93DF9377FF04C0260F371F70E0BA
:102B800060E0DC011496CD91DC91FB01E20FF31FB4
:102B9000CE17DF071CF49E01261B370B12161306F7
:102BA0004CF5FA0157FD3796A3E0F595E795AA9500
:102BB000E1F7EC9FD001ED9FB00DFC9FB00D11240B
:102BC0006A0F7B1FDC015F96ED91FC91E60FF71F0A
:102BD0004770552781E090E001C0880F4A95EAF7D9
:102BE000482F0130110559F0A8F02E0F3F1F023079
:102BF0001105E1F0DF91CF911F910F9108952E0FF4
:102C00003F1FE217F307B1F38191DF011197842B86
:102C10008C93F7CF80952E0F3F1FE217F30751F3E8
:102C20009191DF01119798239C93F7CFE217F30757
:102C300009F38191DF01119784278C93F7CF0F93CC
:102C40001F93FA01DC0156964C9156974230E9F0F9
:102C50004330A1F1413061F514964D915C91DA0158
:102C6000AE1BBF0BFD01E21BF30B77FD0BC0DC01BC
:102C700016964D915C916417750724F4AB01BF0162
:102C80000E94B7151F910F91089514964D915C9174
:102C9000DA01A61BB70BBD0161507109DC01169664
:102CA0004D915C91DA01AE1BBF0BFD01E21BF30BF2
:102CB00077FDE8CFAF010E940815E4CF16964D913D
:102CC0005C91DA01A61BB70BBD0161507109CDCF34
:102CD0000F931F93FA01DC0156964C9156974230A0
:102CE000A9F0433091F1413019F514964D915C9162
:102CF000DA01AE1BBF0BFD013197F7FD04C0AB013C
:102D0000BF010E9408151F910F91089514964D91CF
:102D10005C91DA01A61BB70BBD01DC0116964D9143
:102D20005C91DA01AE1BBF0BFD013197621B730B87
:102D3000F7FDE9CFDC0116964D915C91E417F5079C
:102D400014F7AF010E94B715DECF16964D915C9136
:102D5000DA01A61BB70BBD01621B730BCECFFC01C2
:102D600077FD64C080859185681779070CF05EC097
:102D700057FD5CC082859385481759070CF056C0F3
:102D800086898230B1F0833029F1813041F4848129
:102D90009581841B950BAB01BC01615071092130F9
:102DA000310509F108F443C02230310509F463C04C
:102DB000089584819581DC01A61BB70BBD0161508C
:102DC000710986819781DC01A41BB50BAD014150CF
:102DD0005109E5CF86819781861B970BBA01AC011B
:102DE00041505109DCCFCA0157FD0796A3E09595E4
:102DF0008795AA95E1F7A481B5818A9F90018B9F61
:102E0000300D9A9F300D1124620F731F078CF0A1B3
:102E1000E02DE60FF71F4770552721E030E001C095
:102E2000220F4A95EAF78081822B80830895CA0198
:102E300057FD079633E0959587953A95E1F7A4817C
:102E4000B5818A9F90018B9F300D9A9F300D112480
:102E5000620F731F078CF0A1E02DE60FF71F47707C
:102E6000552781E090E001C0880F4A95EAF78095E8
:102E700090818923DACFCA0157FD079623E0959503
:102E800087952A95E1F7A481B5818A9F90018B9F50
:102E9000300D9A9F300D1124620F731F078CF0A123
:102EA000E02DE60FF71F4770552721E030E001C005
:102EB000220F4A95EAF780818227B7CF08958CBD0B
:102EC0009DBD089590E080E00895AF92BF92CF92AB
:102ED000DF92EF92FF920F931F93CF93DF93E091D6
:102EE0007E02F0917F02EE0FFF1FEE0FFF1FE858EA
:102EF000FD4F85859685A785B0895C016D01E12C24
:102F0000F12C00E010E020E03AE94DEA5EE460E0F8
:102F100070E080E090E00E940B490E9481460E9490
:102F20005246CB016F3F710519F010F08FEF90E022
:102F3000DF91CF911F910F91FF90EF90DF90CF9095
:102F4000BF90AF900895AF92BF92CF92DF92EF9271
:102F5000FF920F931F93CF93DF93E0917E02F09146
:102F60007F02EE0FFF1FEE0FFF1FE858FD4F858514
:102F70009685A785B0895C016D01E12CF12C00E0FC
:102F800010E020E03CE846E857E460E070E080E0D4
:102F900090E00E940B490E9481460E945246CB015C
:102FA0006A30710510F48AE090E0DF91CF911F91B3
:102FB0000F91FF90EF90DF90CF90BF90AF9008956A
:102FC0000F931F93CF93DF93EC01809186048111BF
:102FD0000DC00E94EF0A6093820470938304809373
:102FE00084049093850481E08093860488818823FB
:102FF00071F10E94EF0A00918204109183042091E4
:10300000840430918504601B710B820B930B6E342A
:1030100071408105910580F0C09100020E94EF0A85
:103020006093820470938304809384049093850456
:10303000C13049F41092000280910002DF91CF91DB
:103040001F910F91089581E080930002F5CF81E0F8
:10305000F5CF81E080935D026AE070E080E090E06F
:103060000E94A90A8DE30E94670A26E533E1DC018C
:103070000E94AA482FEF33E040E050E00E94EF4466
:10308000B90190E080E00E94984320E030E04AE7F8
:1030900054E40E949D4526E03FE24AEB5DE30E9436
:1030A0009D4520E030E040E85FE30E94314508950F
:1030B000CF92DF92EF92FF92A0914902B0914A0223
:1030C00020E03AEC4AE95BE30E9419456B017C0180
:1030D000A0913C02B0913D0220E432E44FE050E088
:1030E0000E941945C60ED71EE81EF91E60912202E5
:1030F00070912302072E000C880B990BC60ED71E69
:10310000E81EF91EA0912F02B091300228EE33E0A4
:103110000E94AA486C0D7D1D8E1D9F1DFF90EF9093
:10312000DF90CF900895EF92FF920F931F93CF936C
:10313000DF93EC01A881B9817C810A811B81FD802C
:1031400020E931E050E040E090E080E06C916723BE
:10315000E1E0F0E011F4F0E0E0E08E0F9F1FF801F5
:1031600060816F21E1E0F0E011F4F0E0E0E04E0F6B
:103170005F1F2150310951F721E0893C910508F486
:1031800020E081E0493C510508F480E09091810401
:10319000921305C090918004981709F460C02093A1
:1031A0008104809380049E81990F990F922B880F40
:1031B000982B9E839B3409F459C0973809F04FC06F
:1031C000EE24EA94FE2C0E94EF0A0B851C852D85C7
:1031D0003E85DC01CB01801B910BA20BB30B8F87CB
:1031E000988BA98BBA8B10E000E08A319105A1057C
:1031F000B10540F405E010E00D97A105B10510F40C
:103200000AE010E00E94EF0A6B877C878D879E871B
:1032100021E030E0FFEFEF16FF0611F42FEF3FEF54
:10322000C701FF0CAA0BBB0B4F81588569857A85B6
:10323000840F951FA61FB71F029FA001039F500D6B
:10324000129F500D1124052E000C660B770B840F76
:10325000951FA61FB71F8F839887A987BA87DF910D
:10326000CF911F910F91FF90EF900895EE24E3947A
:10327000F12CA9CF80911B0690911C060C949318F9
:1032800080911D0690911E060C94931880911F0644
:10329000909120060C94931880912106909122061B
:1032A0000C94931880912306909124060C94931803
:1032B00080912506909126060C94931883E492E061
:1032C00090936F0580936E0510926C0580E00895D1
:1032D0000895CF93DF93EC01E0917E02F0917F029D
:1032E000EE0FFF1FEE0FFF1FE858FD4F25853685B7
:1032F00047855089220F331F441F551FAE81BF8160
:103300000E9419456D877E878F87988BDF91CF91BB
:1033100008954F925F926F927F928F929F92AF9299
:10332000BF92CF92DF92EF92FF920F931F93CF93B2
:10333000DF9300D01F92CDB7DEB78091BC0790918C
:10334000BD070297C8F58091B2079091B307A0918D
:10335000B407B091B50781509841AD40BF488F3F49
:103360009B41AE44BE4020F085EA97E00E94691977
:103370008090B2079090B307A090B407B090B507C3
:10338000C12CD12C76019401A501B601C7010F9083
:103390000F900F900F90DF91CF911F910F91FF90A1
:1033A000EF90DF90CF90BF90AF909F908F907F90E5
:1033B0006F905F904F90089530917202209171024A
:1033C000932F990F990BA12C4AECB42E5AE9C52ED4
:1033D0006BE3D62EE12CF12C00E010E0492F592FA1
:1033E000692F792F892F0E94B14859016A017B0109
:1033F000F82FE92FA0916402B091650220E432E435
:103400004FE050E00E9419452B013C01DC01CB014B
:10341000BB0F880B982FDC0189839A83AB83BC8315
:103420009501A601B7018F2F9E2F52016301E980FC
:10343000FE2C0E2D1E2D0E94164A49015A016B01C9
:103440007C0135564D4C5D41610971098109910935
:10345000211538424B465E4E610571058105910587
:1034600009F008F490CF812C8AEC982E9AE9A92EC5
:103470002BE3B22EC12CD12CE12CF12C84CFFC01FA
:10348000948581E0892784870895FC0177FF03C034
:1034900071956195710986819781861B970B97833A
:1034A0008683228533858217930724F4808591854E
:1034B000978386830895CF93DF93EC010E94451A8A
:1034C0008E819F81853F21E0920778F08091710283
:1034D00090917202049731F483E090E0909372022D
:1034E00080937102DF91CF910895843F9140D1F391
:1034F0008091710290917202892BA1F781E090E096
:10350000EDCFCF93DF93EC010E94451A8E819F810E
:103510008430910581F48091640290916502853F29
:10352000914030F084EF91E09093650280936402C3
:10353000DF91CF910895892BD9F780916402909102
:103540006502843F914070F3F3CFCF93DF93EC019A
:1035500061E070E00E94451A8E819F81029768F4B5
:1035600088E792E09B838A8385EA97E09093140230
:1035700080931302DF91CF9108958BE692E09B83B5
:103580008A838EE592E0F2CF0E94451A8BEA97E09B
:103590000E946E0985EA97E00C9469190C94451A0B
:1035A0000C94451A0C94451A0C94451A0C94451A1F
:1035B000FC0177FF03C07195619571098681978140
:1035C000680F791F778366838085918586179707B3
:1035D00024F482859385978386830895CF93DF9320
:1035E000EC010E94D81A8E819F81853F21E09207CD
:1035F00078F08091710290917202049731F483E027
:1036000090E09093720280937102DF91CF910895C0
:10361000843F9140D1F38091710290917202892B85
:10362000A1F781E090E0EDCFCF93DF93EC010E9412
:10363000D81A8E819F818430910581F48091640233
:1036400090916502853F914030F084EF91E0909336
:10365000650280936402DF91CF910895892BD9F799
:103660008091640290916502843F914070F3F3CFA2
:10367000CF93DF93EC0161E070E00E94D81A8E8155
:103680009F81029768F488E792E09B838A8385EAAA
:1036900097E09093140280931302DF91CF910895E5
:1036A0008BE692E09B838A838EE592E0F2CF0E94C4
:1036B000D81A8BEA97E00E946E0985EA97E00C948D
:1036C00069190C94D81A0C94D81A0C94D81A0C9422
:1036D000D81A0C94D81A8EBD00000DB407FEFDCF89
:1036E0008EB50895EF92FF920F931F93CF93DF93C0
:1036F0008C017B0160E08091EF060E94FD09F801DA
:1037000080810E946B1BE701F8012181CE018E1997
:103710009F092817190629F024F089910E946B1B34
:10372000F3CF61E08091EF06DF91CF911F910F9170
:10373000FF90EF900C94FD09CF93DF9300D000D061
:10374000CDB7DEB781E080939F078D8384E08E83C1
:10375000198280E88A831B821C82BE016F5F7F4FC3
:10376000CE0105960E94721B0E94DB0A26960FB6B8
:10377000F894DEBF0FBECDBFDF91CF910895CF93F8
:10378000DF9300D000D0CDB7DEB781E08093A007F3
:103790001D8284E08E838091BB029091BC02A09137
:1037A000BD02B091BE0289839A83AB83BC83BE0104
:1037B0006F5F7F4FCE0105960E94721B0E94DB0A4D
:1037C00026960FB6F894DEBF0FBECDBFDF91CF9126
:1037D0000895FF920F931F93CF93DF93CDB7DEB77A
:1037E00068970FB6F894DEBF0FBECDBF042F60936D
:1037F0003A0770933B0780933C0790933D07609393
:10380000360770933707809338079093390761E044
:103810008091F0060E94FD0961E070E080E090E098
:103820000E94A90A60E08091F0060E94FD0964E60A
:1038300070E080E090E00E94A90A10929F07109229
:10384000A00710929E071F8A14E0188F8091BF0274
:103850009091C002A091C102B091C2028D879E8753
:10386000AF87B88BBE01635F7F4FCE0147960E9442
:10387000721B0E94DB0AFF24F394FD821E83809159
:10388000C3029091C402A091C502B091C60289837F
:103890009A83AB83BC83BE016F5F7F4FCE010596D9
:1038A0000E94721B0E94DB0AFD8A1E8B19861A86F3
:1038B00089E08B871C86BE01675F7F4FCE014596EE
:1038C0000E94721B0E94DB0A82E0002309F45BC0A5
:1038D0008B8B1C8B1E821D821E838CE688870F8338
:1038E000BE016B5F7F4FCE0143960E94721B198A07
:1038F0001A8B8091C7029091C802A091C902B09121
:10390000CA0289839A83AB83BC83BE016F5F7F4FFA
:10391000CE0141960E94721B0E94DB0A83E08D83D8
:1039200084E08E838091CB029091CC02A091CD0255
:10393000B091CE0289839A83AB83BC83BE016F5F53
:103940007F4FCE0105960E94721B0E94DB0A61E048
:1039500070E080E090E00E94A90A1982BE016F5FCA
:103960007F4FCE0105960E94721B0E94DB0A68966B
:103970000FB6F894DEBF0FBECDBFDF91CF911F9180
:103980000F91FF9008958D831E8319821A821B82E6
:103990001C83BE016F5F7F4FCE010596BBCF2F9278
:1039A0003F924F925F926F927F928F929F92AF92CF
:1039B000BF92CF92DF92EF92FF920F931F93CF931C
:1039C000DF93CDB7DEB76A970FB6F894DEBF0FBEB0
:1039D000CDBF6093F6067093F7068093F806909338
:1039E000F9066B017C0100E010E098016F83D88636
:1039F0008987FA860B871C872D873E876091A107F0
:103A00007091A2078091A3079091A4070E94144689
:103A100039014A01688B372E2C01AF80BD2C67011C
:103A2000E12CF12C00E010E060E070E080E090E03C
:103A30000E94B1482F873B8B4C8B5D8B6E8B7F8BAD
:103A4000888F292E9301A4016889732DC20100E299
:103A50000E94FB4900E00E94B148B22FA32FF42F2F
:103A6000E52F962E872E782E692E00E20E94E049DF
:103A7000AF84BB88CC88DD88EE88FF88088D122D46
:103A80000E94164A288B398B4A8B552E698F472EF8
:103A9000382E9A8F4091360750913707609138073A
:103AA000709139076A017B0100E010E098014F83B3
:103AB000D8866987FA860B871C872D873E879501F4
:103AC0004C895D896E897F89888D922D00E20E94E4
:103AD000FB49AB2EBA2ECF2EDE2EE12CF12C00E0CE
:103AE00010E00E94164A00E20E94FB492F873B8BA0
:103AF0004C8B5D8B6E8B7F8B888F292E2B2F3A2FD3
:103B00004F2F5E2F692D782D872D962D0E94FB4912
:103B100059016A017B018C012F853B894C895D89A4
:103B20006E897F89888D922D0E94164AAF80B88455
:103B3000C984DA84E12CF12C00E010E00E943A49BB
:103B400000E20E94E0493901B42F252EF62FE72F1D
:103B50004C01288939894A89552D698D742D832D09
:103B60009A8D0E94FB49622A732AB42BBF87252AAB
:103B70003F2E362A4E2E472A882A992A00E09301A2
:103B80004B2F522D632D742DC4010E943A4900E23F
:103B90000E94E049D8882D29E9883E29FA884F29D2
:103BA0005529DA84E12CF12C00E00E943C49522E88
:103BB000388B498B5A8B93014F85522D632D742D71
:103BC000C4010E943C4900E20E94E049522A9889BF
:103BD000932B6989642B7A89752B509216079093E1
:103BE0001707609318077093190779836A839B837B
:103BF0005C8284E08E838BE08D83BE016F5F7F4F9C
:103C0000CE0105960E94721B0E94DB0A6A960FB6CF
:103C1000F894DEBF0FBECDBFDF91CF911F910F9102
:103C2000FF90EF90DF90CF90BF90AF909F908F90DC
:103C30007F906F905F904F903F902F900895EF92FC
:103C4000FF920F931F93CF93DF937C01C62F809138
:103C5000C8069091C906009709F459C02091CC0676
:103C600031E030937D0520937C0510927B05109206
:103C70007A05DC01ED91FC910190F081E02D60E08E
:103C800019958701EE24E394F12CD1E0C150809185
:103C9000C8069091C906CF3F91F1B0E2EB16F1044E
:103CA000D8F00E941B0E8091C8069091C906209101
:103CB000CC06D0937D0520937C0510927B05109255
:103CC0007A05DC01ED91FC910190F081E02D60E03E
:103CD0001995EE24E394F12C8091C8069091C906C1
:103CE000F8016491DC01ED91FC910190F081E02DEF
:103CF0001995BFEFEB1AFB0A0F5F1F4FC7CFDF917C
:103D0000CF911F910F91FF90EF900C941B0EE091BB
:103D1000D806F091D90690818091DE06809589239E
:103D200080838701C15008F438C0F8018491209144
:103D3000C6063091C706232B29F00E946B1B0F5F2C
:103D40001F4FF0CF28E030E040E8E091D406F0913A
:103D5000D5069091DC06582F5423D9F05081952B2D
:103D60009083E091D606F091D70690815091DD06C0
:103D7000952B9083E091D606F091D70650819091D3
:103D8000DD06909595239083469521503109E9F6FB
:103D9000D6CF508190959523E3CFDF91CF911F919E
:103DA0000F91FF90EF9008951F93CF93DF93EC0155
:103DB0008D8D9E8D009721F1162F29A131E0309332
:103DC0007D0520937C0510927B0510927A05DC011D
:103DD000ED91FC910190F081E02D60E019958D8DC1
:103DE0009E8DDC01ED91FC910190F081E02D612F21
:103DF00019958D8D9E8DDF91CF911F910C941B0E87
:103E0000ADA5BEA59C918BA9809589238C938B8DA4
:103E10009C8D892B31F0862FDF91CF911F910C94CF
:103E20006B1B28E030E080E8A9A5BAA599A9462F28
:103E30004823C1F04C91942B9C93ABA5BCA59C91BD
:103E40004AA9942B9C93ABA5BCA54C919AA990959B
:103E500094239C9386952150310931F7DF91CF91BE
:103E60001F9108954C9190959423E6CFDF92EF92A5
:103E7000FF920F931F93CF93DF938091C806909189
:103E8000C906892B09F4A5C02091E0063091E1060E
:103E90004091E2065091E30660E074E284EF90E026
:103EA0000E94CD4420513109410951095695479549
:103EB000379527952093B80064E087EC91E10E9444
:103EC0001F1E8091AF069091B0068034910509F0D5
:103ED00097C060E28BEA96E00E94D41E6091AF0624
:103EE000615E8BEA96E00E94D41E2091B10630916B
:103EF000B206C901079697FD079633E09595879519
:103F00003A95E1F72091AF063091B006829F80018B
:103F1000839F100D929F100D1124C091CA06D0915D
:103F2000CB068091C8069091C9060C0F1D1F009703
:103F300009F498C02091CC0631E030937D052093A0
:103F40007C0510927B0510927A05DC01ED91FC91C5
:103F50000190F081E02D60E41995EE24E394F12CBA
:103F6000DD24D3948091C8069091C9060C171D07D3
:103F700009F44FC0B0E2EB16F104D8F00E941B0E1A
:103F80008091C8069091C9062091CC06D0927D05FB
:103F900020937C0510927B0510927A05DC01ED914F
:103FA000FC910190F081E02D60E41995EE24E394FA
:103FB000F12C8091C8069091C9066991DC01ED91C0
:103FC000FC910190F081E02D1995BFEFEB1AFB0AEF
:103FD000C9CF8091C6069091C706892B31F0809198
:103FE000E9069091EA060E945F17E091DA06F091E7
:103FF000DB0690818091DF068095892380835CCFEA
:1040000060E08BEA96E00E94D41E6091AF0661509A
:1040100068CF0E941B0E8091C8069091C906892B1B
:1040200009F461C02091E4063091E5064091E6066E
:104030005091E70660E074E284EF90E00E94CD4486
:1040400020513109410951095695479537952795D2
:104050002093B800DF91CF911F910F91FF90EF90C7
:10406000DF900895E091D806F091D9068081909173
:10407000DE06892B80830C171D0769F28991209138
:10408000C6063091C706232B19F00E946B1BF3CF95
:1040900028E030E040E8E091D406F091D506909118
:1040A000DC06582F5423D9F05081952B9083E09152
:1040B000D606F091D70690815091DD06952B90831E
:1040C000E091D606F091D70650819091DD0690954B
:1040D00095239083469521503109E9F6CCCF508144
:1040E00090959523E3CFE091DA06F091DB0680818D
:1040F0009091DF06892B8083ADCF1F93CF93DF9301
:10410000EC01162F8D8D9E8D892BB1F12DA93EA925
:104110004FA958AD60E074E284EF90E00E94CD4476
:1041200020513109410951095695479537952795F1
:104130002093B80066EA111167EACE010E94D41EEE
:104140008D8D9E8D892B41F129AD3AAD4BAD5CAD86
:1041500060E074E284EF90E00E94CD442051310988
:104160004109510956954795379527952093B800F1
:10417000DF91CF911F9108958B8D9C8D892B21F01C
:104180008EAD9FAD0E945F17EFA5F8A990818CA915
:10419000809589238083CECFEFA5F8A980819CA943
:1041A000892B8083E5CFCF92DF92EF92FF92CF935E
:1041B000DF9300D000D0CDB7DEB720E030E040EA9A
:1041C00051E40E949D459B01AC0160E070E080E2FB
:1041D00091E40E94DA4620E030E040E855E40E9495
:1041E000F9436B017C0120E030E0A9010E94D54633
:1041F00020E030E040E05FE387FD36C0C701B60154
:104200000E9431450E944B46611520E172078105ED
:10421000910578F560933E0770933F0780934007C0
:104220009093410780913E0790913F0724E02E83B1
:104230002CE02D831C821B8299838A83BE016F5FD1
:104240007F4FCE0105960E94721B0E94DB0A2696C4
:104250000FB6F894DEBF0FBECDBFDF91CF91FF90B8
:10426000EF90DF90CF900895C701B6010E943045CE
:10427000C9CF8FEF9FE0A0E0B0E080933E0790931E
:104280003F07A0934007B0934107CCCFCF92DF9276
:10429000EF92FF926B017C0120E030E0A9010E94C7
:1042A000D546181644F0C701B601FF90EF90DF9095
:1042B000CF900C94D320FF90EF90DF90CF90089593
:1042C0002091B1063091B206C901079697FD079675
:1042D00023E0959587952A95E1F72091AF063091D7
:1042E000B006829FA001839F500D929F500D112414
:1042F00070E060E08091CA069091CB060C94334C3C
:10430000CF93DF93EC0188819981009711F00E948F
:10431000BB4A198218821D821C821B821A82DF917D
:10432000CF910895FC0180819181009711F00C9448
:10433000BB4A08950F931F93CF93DF938C01EB013A
:104340000E94B7448883C80101960E94B7448983BC
:10435000CE01DF91CF911F910F910895FF920F939E
:104360001F93CF93DF93EC018B01FB01F0800E9440
:10437000B744F81621F06F2DCE010E94BF44F8011A
:10438000F1802196CE010E94B744F81621F06F2DDE
:10439000CE010E94BF44C801DF91CF911F910F91C0
:1043A000FF90089569E472E086E190E00E94AE21FA
:1043B0006CE372E088E190E00E94AE216FE272E06F
:1043C0008CE190E00E94AE2162E272E080E290E037
:1043D0000E94AE2166E572E084E290E00E94AE2188
:1043E00067E384E690E00C94BF440E94254CFB01F7
:1043F00001900020E9F73197AF01461B570BDC0114
:10440000ED91FC910280F381E02D19948F929F929F
:10441000AF92BF92EF92FF920F931F93CF93DF93D0
:10442000CDB7DEB7A1970FB6F894DEBF0FBECDBFF4
:104430007C01FA01CB0119A2223008F42AE08E0196
:104440000F5D1F4F822E912CB12CA12CBF01A50115
:1044500094010E94CD44F901CA016A300CF5605DF7
:10446000D8016E938D01232B242B252B79F790E017
:1044700080E0109721F0BD01C7010E94F721A196AD
:104480000FB6F894DEBF0FBECDBFDF91CF911F9165
:104490000F91FF90EF90BF90AF909F908F900895F5
:1044A000695CDECFCF92DF92EF92FF920F931F9362
:1044B000CF93DF9377FF1DC06A017B01EC016DE2B2
:1044C0000E94FF0A8C0144275527BA014C195D0947
:1044D0006E097F092AE0CE010E940622800F911FFB
:1044E000DF91CF911F910F91FF90EF90DF90CF90D0
:1044F00008952AE0DF91CF911F910F91FF90EF90E7
:10450000DF90CF900C9406224F925F926F927F9231
:10451000AF92BF92CF92DF92EF92FF921F93CF9311
:10452000DF935C016A017B01722E20E030E0A9017B
:10453000CB01B6010E949343D0E0C0E087FF09C0E1
:104540006DE2C5010E94FF0AEC01F7FAF094F7F85A
:10455000F09410E060E070E080E09FE3171541F018
:1045600020E030E040E251E40E949D451F5FF6CF1D
:10457000A70196010E9431456B017C010E945246C1
:104580002B013C012AE0BC01A201C5010E940622C8
:10459000C80FD91F1123C1F1C301B2010E94984372
:1045A0009B01AC01C701B6010E9430456B017C0143
:1045B0006EE2C5010E94FF0AC80FD91F115020F1F9
:1045C00020E030E040E251E4C701B6010E94F94327
:1045D0002B013C010E9452466B01F12CE12C2AE098
:1045E000B701A601C5010E940622C80FD91FC70145
:1045F000B6010E9498439B01AC01C301B2010E9425
:1046000030456B017C01DACFCE01DF91CF911F9154
:10461000FF90EF90DF90CF90BF90AF907F906F9022
:104620005F904F9008958F929F92AF92BF92CF92DA
:10463000DF92EF92FF926B017C01AC019B010E9423
:10464000354767E973E0811126C046015701E894B8
:10465000B7F82FEF3FEF4FE75FE7C501B4010E94C6
:10466000354781110CC02FEF3FEF4FE75FE7C501E2
:10467000B4010E9493436BE973E0181664F02FEFC6
:104680003FEF4FE75FE4C701B6010E94D546181619
:10469000C4F46FE973E08EE795E00E94F7217C0196
:1046A00063EA73E08EE795E00E94F7218E0D9F1D6F
:1046B000FF90EF90DF90CF90BF90AF909F908F9042
:1046C00008952FEF3FEF4FE75FECC701B6010E945F
:1046D000934387FDDECF22E0B701A6018EE795E088
:1046E0000E948422DCCF0F931F93CF93DF93EC01C2
:1046F0000E94F7218C0163EA73E0CE010E94F7214A
:10470000800F911FDF91CF911F910F9108950F930B
:104710001F93CF93DF93EC010E94140B8C0163EA8B
:1047200073E0CE010E94F721800F911FDF91CF919E
:104730001F910F9108950F931F93CF93DF936CEB0D
:1047400077E090E080E00E94AE216EE772E082E0C8
:1047500090E00E94AE2161E772E084E090E00E9468
:10476000AE2164E672E086E090E00E94AE216BEA42
:1047700077E088E090E00E94AE2167E385E690E074
:104780000E94BF440E94F4230E946021CBEAD6E03D
:1047900082E08C8B8D8B81E090E09B8B8A8B998B58
:1047A000888B08E210E01D870C871F861E86888F85
:1047B00066EA73E0CE010E9473231D870C8780E2B6
:1047C00090E09F878E876CEA73E0CE010E94F7210C
:1047D0000E94361F68EE73E080E090E0DF91CF9199
:1047E0001F910F910C94A90ACF92DF92EF92FF9242
:1047F00085E690E00E94B744873309F4B1C0109277
:10480000BD071092BC0784E090E090937F028093F4
:104810007E0283E090E09093720280937102109286
:104820006502109264028EE190E09093AC07809351
:10483000AB070E949B238091BC07882309F4AFC07B
:10484000833008F4B9C08091AB079091AC078F3FDB
:10485000910539F034F00E94A3179093AC07809330
:10486000AB07E0917E02F0917F02EE0FFF1FEE0F8B
:10487000FF1FE858FD4FC584D684E784F088A091D7
:10488000AB07B091AC07A70196010E941945660FCE
:10489000771F881F991F613074438B459D4930F005
:1048A0000E94A3179093AC078093AB078091AB074E
:1048B0009091AC070A9734F40E9465179093AC0767
:1048C0008093AB07A091AB07B091AC07A70196010D
:1048D0000E941945660F771F881F991F611578413F
:1048E0008D409F4830F40E9465179093AC078093E9
:1048F000AB0785EA97E00E9469198091BC07909107
:10490000BD078230910508F061C028E732E030939E
:10491000B9072093B80725EA37E0309314022093B3
:104920001302029708F05BC0F090AB070E94891950
:10493000E42F4F2DB9018E2F952F0E94E91B0E9465
:104940009C1B0E94BF1B0E9458180E94CF1C60E055
:1049500070E0CB01FF90EF90DF90CF900C94D320CC
:104960006CEB77E090E080E00E949A216EE772E0C5
:1049700082E090E00E949A2161E772E084E090E09A
:104980000E949A2164E672E086E090E00E949A21FB
:104990006BEA77E088E090E00E949A214CCF61E0DA
:1049A0008BE30E94FD0961E086E30E94FD0960E05F
:1049B00087E30E94FD0947CF60E08BE30E94FD0979
:1049C00060E086E30E94FD0961E0F2CF2BE632E071
:1049D0003093B9072093B8072EE532E09ECF0E94AE
:1049E0008919E42F40E0A6CFCF938091BC07909126
:1049F000BD07029718F5C091AB070E948919E42FF3
:104A00004C2FB9018E2F952F0E94E91B0E949C1BF1
:104A10000E94BF1B0E9458180E94CF1C60E070E0EB
:104A2000CB010E94D3200E949B2382E092E09093CE
:104A30006F0580936E0580E0CF9108950E948919DB
:104A4000E42F40E0DECFCF93DF93EC018E819F8196
:104A500001979F838E830A9724F40E9465179F8392
:104A60008E83E0917E02F0917F02EE0FFF1FEE0F2A
:104A7000FF1FE858FD4F2585368547855089220F51
:104A8000331F441F551FAE81BF810E941945611518
:104A900078418D409F4820F40E9465179F838E8344
:104AA000CE010E94691962EB73E08EE795E00E94E7
:104AB000F7214E815F81052E000C660B770B8EE788
:104AC00095E00E94522263EA73E08EE795E0DF9161
:104AD000CF910C94F721CF93DF93EC018E819F81CE
:104AE00001969F838E838F3F910529F024F00E94C9
:104AF000A3179F838E83E0917E02F0917F02EE0FD9
:104B0000FF1FEE0FFF1FE858FD4F258536854785AF
:104B10005089220F331F441F551FAE81BF810E9451
:104B20001945613074438B459D4920F00E94A317BD
:104B30009F838E83CE010E94691962EB73E08EE73A
:104B400095E00E94F7214E815F81052E000C660BD7
:104B5000770B8EE795E00E94522263EA73E08EE7BE
:104B600095E0DF91CF910C94F7210F931F93CF9392
:104B7000DF93EC0188819981009759F02A813B816C
:104B80002617370730F081E0DF91CF911F910F9109
:104B900008958B016F5F7F4F0E94444B009759F03F
:104BA000998388831B830A832C813D81232B59F7AA
:104BB000FC011082E8CF80E0E7CFEF92FF920F93E5
:104BC0001F93CF93DF936115710541F480E0DF916E
:104BD000CF911F910F91FF90EF90089541155105CE
:104BE000B1F07B01EC010C811D81040F151FB80190
:104BF0000E94B525882351F3288139818C819D81BC
:104C0000B701820F931F0E943A4C1D830C8381E0F1
:104C1000DECFCF93DF93EC01FB0101900020E9F799
:104C20003197AF01461B570B0E94DD25811103C050
:104C3000CE010E948021CE01DF91CF910895CF93C4
:104C4000DF93EC01FB0144815581608171810E94F9
:104C5000DD25811103C0CE010E948021CE01DF91AC
:104C6000CF910895EF92FF920F931F93CF93DF930D
:104C7000EC017B018A01BA010E94B52581110BC0AC
:104C8000CE010E948021CE01DF91CF911F910F9123
:104C9000FF90EF9008951D830C83B701888199815F
:104CA0000E943A4CF0CFFB0101900020E9F73197C8
:104CB000AF01461B570B0C9432260F931F93CF93D3
:104CC000DF93CDB7DEB762970FB6F894DEBF0FBEA5
:104CD000CDBF8C01CB01F8011182108213821282A8
:104CE000158214824AE0BE016F5F7F4F0E94D94057
:104CF000BE016F5F7F4FC8010E94532662960FB6B8
:104D0000F894DEBF0FBECDBFDF91CF911F910F9101
:104D10000895CF93DF93EC01FB018617970749F0C5
:104D2000608171816115710541F0448155810E9456
:104D30003226CE01DF91CF9108950E948021F9CFD4
:104D4000FC011182108213821282158214820C944B
:104D50008926FC011182108213821282158214822C
:104D6000FB0101900020E9F73197AF01461B570B7B
:104D70000C9432264F925F926F927F928F929F9205
:104D8000AF92BF92CF92DF92EF92FF920F931F9359
:104D9000CF93DF9300D000D0CDB7DEB75C018B019D
:104DA0000E94EF0A6B017C01D8011E96CD92DD9224
:104DB000ED92FC92519719968D919D910D90BC9119
:104DC000A02D26013701481A590A6A0A7B0AF80100
:104DD00087819085AC01440F551F480F591F70E023
:104DE00060E0441555056605770508F41586B0E0C2
:104DF000A0E084159505A605B70508F070C0D80198
:104E00001996CD92DD92ED92FC921C971D968C9195
:104E10001D978F5F1D968C931D9752969C9152976C
:104E2000981710F41D961C92F801E584C680F12CA9
:104E3000CE0CDF2CD11CCE14DF0428F09C2D8D2D40
:104E40006701E92EF82E65EA73E0CE0101960E9413
:104E5000A926D80114968D909C90C814D904F8F412
:104E6000E814F90408F44701D801ED91FC91119779
:104E7000E80DF91DF08010826D917C916C0D7D1D07
:104E8000CE0101966115710509F447C00E945326B1
:104E9000F80180819181880E991ED401FC92F8015D
:104EA000838994890097F1F169817A81611571058F
:104EB000B9F1458956892D813E814217530780F10A
:104EC0000E943A4C8D819E81D80158969C938E9376
:104ED00057971E821D82CE0101960E949221B80131
:104EE0006D5E7F4FC5010E94A026C50126960FB6B4
:104EF000F894DEBF0FBECDBFDF91CF911F910F9110
:104F0000FF90EF90DF90CF90BF90AF909F908F90E9
:104F10007F906F905F904F9008950E948021B8CF4E
:104F20000E94BB4A89819A81F801948B838B8B8183
:104F30009C81968B858B8D819E81908F878B1A8229
:104F400019821C821B82C5CF0F931F93CF93DF93CF
:104F5000CDB7DEB72C970FB6F894DEBF0FBECDBF2E
:104F60008C01433069F5CB010A978A35910538F4F5
:104F7000CE0107960E945D2666EB73E009C06A3099
:104F800071050CF5CE0107960E945D2665EB73E076
:104F9000CE0101960E94A926BE01695F7F4FCE0116
:104FA00001960E941F26BC01C8010E94A026CE01C6
:104FB00001960E949221CE0107960E94922106C07E
:104FC0006A307105ACF2C8010E945D26C8012C96BA
:104FD0000FB6F894DEBF0FBECDBFDF91CF911F910A
:104FE0000F91089585ED8093BC008091CF0490913E
:104FF000D004A091D104B091D2040796A11DB11D97
:1050000023E0B695A795979587952A95D1F7209196
:10501000BC0024FD03C01092180508954091CF04F0
:105020005091D0046091D1047091D204452B462B4D
:10503000472B69F30097A105B10541F02AE22A95B3
:10504000F1F700C00197A109B109E1CF8091CE0429
:105050000C94750D1F920F920FB60F9211242F937F
:105060003F938F939F93AF93BF93809172059091DD
:105070007305A0917405B09175053091710523E019
:10508000230F2D3758F50196A11DB11D20937105F1
:105090008093720590937305A0937405B093750582
:1050A0008091760590917705A0917805B09179056A
:1050B0000196A11DB11D8093760590937705A0936D
:1050C0007805B0937905BF91AF919F918F913F91F2
:1050D0002F910F900FBE0F901F90189526E8230F69
:1050E0000296A11DB11DD2CF1F920F920FB60F9243
:1050F00011240BB60F922F933F934F935F936F93AF
:105100007F938F939F93AF93BF93EF93FF93E09120
:10511000B302F091B4021995FF91EF91BF91AF9155
:105120009F918F917F916F915F914F913F912F91BF
:105130000F900BBE0F900FBE0F901F9018951F92EF
:105140000F920FB60F9211240BB60F922F933F932D
:105150004F935F936F937F938F939F93AF93BF937F
:10516000EF93FF93E091B102F091B2021995FF9194
:10517000EF91BF91AF919F918F917F916F915F91CF
:105180004F913F912F910F900BBE0F900FBE0F903C
:105190001F9018951F920F920FB60F9211240BB605
:1051A0000F922F933F934F935F936F937F938F93C0
:1051B0009F93AF93BF93EF93FF93E091A702F0917A
:1051C000A8021995FF91EF91BF91AF919F918F9197
:1051D0007F916F915F914F913F912F910F900BBEF7
:1051E0000F900FBE0F901F9018951F920F920FB641
:1051F0000F9211240BB60F922F933F934F935F930F
:105200006F937F938F939F93AF93BF93EF93FF938E
:10521000E091A502F091A6021995FF91EF91BF913F
:10522000AF919F918F917F916F915F914F913F913E
:105230002F910F900BBE0F900FBE0F901F901895DF
:105240001F920F920FB60F9211240BB60F922F934D
:105250003F934F935F936F937F938F939F93AF93FE
:10526000BF93EF93FF93E091AF02F091B0021995D5
:10527000FF91EF91BF91AF919F918F917F916F912E
:105280005F914F913F912F910F900BBE0F900FBEEA
:105290000F901F9018951F920F920FB60F92112426
:1052A0000BB60F922F933F934F935F936F937F9320
:1052B0008F939F93AF93BF93EF93FF93E091AD02D2
:1052C000F091AE021995FF91EF91BF91AF919F912F
:1052D0008F917F916F915F914F913F912F910F909F
:1052E0000BBE0F900FBE0F901F9018951F920F923C
:1052F0000FB60F9211240BB60F922F933F934F933B
:105300005F936F937F938F939F93AF93BF93EF932D
:10531000FF93E091AB02F091AC021995FF91EF91F0
:10532000BF91AF919F918F917F916F915F914F91BD
:105330003F912F910F900BBE0F900FBE0F901F90BB
:1053400018951F920F920FB60F9211240BB60F9261
:105350002F933F934F935F936F937F938F939F937D
:10536000AF93BF93EF93FF93E091A902F091AA024C
:105370001995FF91EF91BF91AF919F918F917F917F
:105380006F915F914F913F912F910F900BBE0F90B6
:105390000FBE0F901F9018951F920F920FB60F928D
:1053A00011240BB60F922F933F934F935F936F93FC
:1053B0007F938F939F93AF93BF93EF93FF938EE76A
:1053C00095E00E94AC0BFF91EF91BF91AF919F913F
:1053D0008F917F916F915F914F913F912F910F909E
:1053E0000BBE0F900FBE0F901F9018951F920F923B
:1053F0000FB60F9211240BB60F922F938F939F939A
:10540000EF93FF93E0918E05F0918F058081E091FD
:105410009405F091950582FD1DC0908180919705BE
:105420008F5F8F7320919805821741F0E091970567
:10543000F0E0E258FA4F958F80939705FF91EF9136
:105440009F918F912F910F900BBE0F900FBE0F90D9
:105450001F9018958081F2CF1F920F920FB60F9276
:1054600011240BB60F922F933F934F935F936F933B
:105470007F938F939F93AF93BF93EF93FF9380910D
:10548000B900887F803609F44DC008F040C08832EA
:1054900009F4A9C028F5803109F49DC0C8F4882317
:1054A00009F4FBC0883009F496C0FF91EF91BF91D9
:1054B000AF919F918F917F916F915F914F913F91AC
:1054C0002F910F900BBE0F900FBE0F901F9018954D
:1054D000883109F488C0803241F78093170514C0E1
:1054E000803409F49DC040F48033B9F38833E9F681
:1054F0008093170585ECB0C0803509F485C08835E8
:1055000009F496C0883489F60E94F227CECF8839F4
:1055100009F48CC038F5883729F050F4883611F03A
:10552000803719F683E0809318051092160557C04E
:10553000883809F47BC0803919F0803809F0B5CF7C
:1055400080911605803208F071C0E091160581E067
:105550008E0F809316058091BB00F0E0EA50FB4F60
:1055600080833DC0803B39F0E0F4803A09F479C093
:10557000883A09F09ACF84E0809318051092F504D8
:105580001092F404E0914105F09142051995809143
:10559000F40481110FC081E08093F4041092D404CC
:1055A00009C0803C09F4A6CF883C09F4A3CF883B0E
:1055B00009F07BCFE091F50481E08E0F8093F50434
:1055C000F0E0EC52FB4F80818093BB009091F5049A
:1055D0008091F40429C080913D058093BB0085EC47
:1055E0008093BC0062CF90913C0580913B05981759
:1055F00058F5E0913C0581E08E0F80933C05F0E08A
:10560000E55EFA4F8081E9CFE0913C0581E08E0FA5
:1056100080933C058091BB00F0E0E55EFA4F80830B
:1056200090913C0580913B059817C8F285E8D8CF4A
:10563000E0913C0581E08E0F80933C058091BB009A
:10564000F0E0E55EFA4F808380911A0581115CCF0E
:1056500081E08093190584EA8093BC0010921805BC
:1056600024CF85EC8093BC0010921805809116051C
:10567000803230F4E0911605F0E0EA50FB4F1082E2
:105680006091160570E0E0913F05F091400586EFCE
:1056900094E019951092160508CF1092170534CF93
:1056A000CF92DF92EF92FF920F931F93CF93DF93EE
:1056B000CDB7DEB72C970FB6F894DEBF0FBECDBFC7
:1056C0008C016B0165EA73E00E94A926F80111863E
:1056D000128613861486158616861786108A118AF6
:1056E000128A65EA73E0C80143960E94A92665EA1A
:1056F00073E0CE0107960E94A9268AE0F80186830E
:10570000F12CE12CF8018681BE01695F7F4F8E1577
:105710001F04C1F0BCF0CE0101960E94A02660E6F5
:1057200074E0CE0101960E940926BC01CE010796C5
:105730000E948926CE0101960E949221FFEFEF1A66
:10574000FF0AE0CFCE0101960E94A026B601CE014D
:1057500001960E941F26BC01C8010E948926CE0125
:1057600001960E949221F8018481828B86E990E063
:1057700090878783CE0107960E9492212C960FB6C0
:10578000F894DEBF0FBECDBFDF91CF911F910F9177
:10579000FF90EF90DF90CF900895EF92FF920F93DC
:1057A0001F93CF93DF93CDB7DEB7A1970FB6F894D1
:1057B000DEBF0FBECDBF7C01CB01BA01F701118264
:1057C0001082138212821582148242E0420F8E01EF
:1057D0000F5F1F4F0E94B240009789F0BC01C701C4
:1057E0000E945326A1960FB6F894DEBF0FBECDBF20
:1057F000DF91CF911F910F91FF90EF900895C70116
:105800000E948021EFCFCF92DF92EF92FF92CF9351
:10581000DF93CDB7DEB762970FB6F894DEBF0FBE49
:10582000CDBF109281051092800528EEC22E23E094
:10583000D22EE12CF12CC0928205D0928305E09209
:105840008405F092850587E393E090937F0580932C
:105850007E0585EC90E090938B0580938A0584EC1F
:1058600090E090938D0580938C0580EC90E0909370
:105870008F0580938E0581EC90E090939105809345
:10588000900582EC90E0909393058093920586ECCE
:1058900090E090939505809394051092970510924F
:1058A00098051092990510929A051092A2061092EE
:1058B000A106C092A306D092A406E092A506F0929B
:1058C000A60689E493E09093A00680939F06109229
:1058D000B9071092B8071092BB071092BA0710923E
:1058E000BD071092BC071092BF071092BE0710921E
:1058F000C1071092C0071092C20781E993E090930C
:10590000B7078093B6076BEB73E083EC97E00E94D8
:10591000A92668EB73E089EC97E00E94A92665EC64
:1059200073E08FEC97E00E94A9261092A8071092CE
:10593000A7071092AA071092A9071092AC0710921D
:10594000AB071092AE071092AD071092B0071092FD
:10595000AF071092B10787E893E09093A607809372
:10596000A5071092B2071092B3071092B4071092D5
:10597000B5078BEA97E00E946E0985EA97E00E94DE
:10598000691980E090E0A0E8BFE48093A1079093BC
:10599000A207A093A307B093A40786E08093EF0625
:1059A00081E18093F00680E18093F10687E08093A7
:1059B000F20688E08093F30689E08093F4068FE294
:1059C0008093F50661E086E00E942B0A61E08091F9
:1059D000F0060E942B0A61E08091F1060E942B0ADA
:1059E00061E08091F2060E942B0A61E08091F3064B
:1059F0000E942B0A61E08091F4060E942B0A61E06C
:105A00008091F5060E942B0A61E08091EF060E94CA
:105A1000FD0960E08091F0060E94FD0960E0809140
:105A2000F1060E94FD0960E08091F2060E94FD09E6
:105A300060E08091F3060E94FD0960E08091F40629
:105A40000E94FD0960E08091F5060E94FD0980E852
:105A50009CE7A1E8BAE48093EB069093EC06A09350
:105A6000ED06B093EE061092AE061092AD0620E859
:105A700030E03093B0062093AF0680E490E090933E
:105A8000B2068093B1063093B4062093B306909388
:105A9000B6068093B5061092C1061092B806109211
:105AA000B7061092BA061092B90681E08093C0063C
:105AB0008093BF062FEF3FEF3093BE062093BD06C5
:105AC0003093BC062093BB068093C2061092C30697
:105AD0001092C5061092C4062BE533E03093AC0655
